{
  "contractName": "IncubatorChef",
  "abi": [
    {
      "inputs": [
        {
          "internalType": "contract IMintable",
          "name": "_DragonBall",
          "type": "address"
        },
        {
          "internalType": "address",
          "name": "_devAddress",
          "type": "address"
        },
        {
          "internalType": "address",
          "name": "_feeAddress",
          "type": "address"
        },
        {
          "internalType": "uint256",
          "name": "_DragonBallPerBlock",
          "type": "uint256"
        },
        {
          "internalType": "uint256",
          "name": "_startBlock",
          "type": "uint256"
        }
      ],
      "stateMutability": "nonpayable",
      "type": "constructor"
    },
    {
      "anonymous": false,
      "inputs": [
        {
          "indexed": true,
          "internalType": "address",
          "name": "user",
          "type": "address"
        },
        {
          "indexed": true,
          "internalType": "uint256",
          "name": "pid",
          "type": "uint256"
        },
        {
          "indexed": false,
          "internalType": "uint256",
          "name": "amount",
          "type": "uint256"
        }
      ],
      "name": "Deposit",
      "type": "event"
    },
    {
      "anonymous": false,
      "inputs": [
        {
          "indexed": true,
          "internalType": "address",
          "name": "user",
          "type": "address"
        },
        {
          "indexed": true,
          "internalType": "uint256",
          "name": "pid",
          "type": "uint256"
        },
        {
          "indexed": false,
          "internalType": "uint256",
          "name": "amount",
          "type": "uint256"
        }
      ],
      "name": "EmergencyWithdraw",
      "type": "event"
    },
    {
      "anonymous": false,
      "inputs": [
        {
          "indexed": true,
          "internalType": "address",
          "name": "user",
          "type": "address"
        },
        {
          "indexed": true,
          "internalType": "uint256",
          "name": "pid",
          "type": "uint256"
        },
        {
          "indexed": false,
          "internalType": "uint256",
          "name": "amount",
          "type": "uint256"
        }
      ],
      "name": "Harvest",
      "type": "event"
    },
    {
      "anonymous": false,
      "inputs": [
        {
          "indexed": true,
          "internalType": "address",
          "name": "previousOwner",
          "type": "address"
        },
        {
          "indexed": true,
          "internalType": "address",
          "name": "newOwner",
          "type": "address"
        }
      ],
      "name": "OwnershipTransferred",
      "type": "event"
    },
    {
      "anonymous": false,
      "inputs": [
        {
          "indexed": true,
          "internalType": "address",
          "name": "user",
          "type": "address"
        },
        {
          "indexed": true,
          "internalType": "address",
          "name": "newAddress",
          "type": "address"
        }
      ],
      "name": "SetDevAddress",
      "type": "event"
    },
    {
      "anonymous": false,
      "inputs": [
        {
          "indexed": true,
          "internalType": "address",
          "name": "user",
          "type": "address"
        },
        {
          "indexed": true,
          "internalType": "address",
          "name": "newAddress",
          "type": "address"
        }
      ],
      "name": "SetFeeAddress",
      "type": "event"
    },
    {
      "anonymous": false,
      "inputs": [
        {
          "indexed": true,
          "internalType": "address",
          "name": "user",
          "type": "address"
        },
        {
          "indexed": false,
          "internalType": "uint256",
          "name": "DragonBallPerBlock",
          "type": "uint256"
        }
      ],
      "name": "UpdateEmissionRate",
      "type": "event"
    },
    {
      "anonymous": false,
      "inputs": [
        {
          "indexed": true,
          "internalType": "address",
          "name": "user",
          "type": "address"
        },
        {
          "indexed": true,
          "internalType": "uint256",
          "name": "pid",
          "type": "uint256"
        },
        {
          "indexed": false,
          "internalType": "uint256",
          "name": "amount",
          "type": "uint256"
        }
      ],
      "name": "Withdraw",
      "type": "event"
    },
    {
      "inputs": [],
      "name": "BONUS_MULTIPLIER",
      "outputs": [
        {
          "internalType": "uint256",
          "name": "",
          "type": "uint256"
        }
      ],
      "stateMutability": "view",
      "type": "function"
    },
    {
      "inputs": [],
      "name": "DragonBall",
      "outputs": [
        {
          "internalType": "contract IMintable",
          "name": "",
          "type": "address"
        }
      ],
      "stateMutability": "view",
      "type": "function"
    },
    {
      "inputs": [],
      "name": "DragonBallPerBlock",
      "outputs": [
        {
          "internalType": "uint256",
          "name": "",
          "type": "uint256"
        }
      ],
      "stateMutability": "view",
      "type": "function"
    },
    {
      "inputs": [],
      "name": "devAddress",
      "outputs": [
        {
          "internalType": "address",
          "name": "",
          "type": "address"
        }
      ],
      "stateMutability": "view",
      "type": "function"
    },
    {
      "inputs": [],
      "name": "feeAddress",
      "outputs": [
        {
          "internalType": "address",
          "name": "",
          "type": "address"
        }
      ],
      "stateMutability": "view",
      "type": "function"
    },
    {
      "inputs": [],
      "name": "owner",
      "outputs": [
        {
          "internalType": "address",
          "name": "",
          "type": "address"
        }
      ],
      "stateMutability": "view",
      "type": "function"
    },
    {
      "inputs": [
        {
          "internalType": "uint256",
          "name": "",
          "type": "uint256"
        }
      ],
      "name": "poolInfo",
      "outputs": [
        {
          "internalType": "contract IBEP20",
          "name": "lpToken",
          "type": "address"
        },
        {
          "internalType": "uint256",
          "name": "allocPoint",
          "type": "uint256"
        },
        {
          "internalType": "uint256",
          "name": "lastRewardBlock",
          "type": "uint256"
        },
        {
          "internalType": "uint256",
          "name": "accDragonBallPerShare",
          "type": "uint256"
        },
        {
          "internalType": "uint256",
          "name": "depositFeeBP",
          "type": "uint256"
        },
        {
          "internalType": "uint256",
          "name": "maxDepositAmount",
          "type": "uint256"
        },
        {
          "internalType": "uint256",
          "name": "currentDepositAmount",
          "type": "uint256"
        }
      ],
      "stateMutability": "view",
      "type": "function"
    },
    {
      "inputs": [],
      "name": "renounceOwnership",
      "outputs": [],
      "stateMutability": "nonpayable",
      "type": "function"
    },
    {
      "inputs": [],
      "name": "startBlock",
      "outputs": [
        {
          "internalType": "uint256",
          "name": "",
          "type": "uint256"
        }
      ],
      "stateMutability": "view",
      "type": "function"
    },
    {
      "inputs": [],
      "name": "totalAllocPoint",
      "outputs": [
        {
          "internalType": "uint256",
          "name": "",
          "type": "uint256"
        }
      ],
      "stateMutability": "view",
      "type": "function"
    },
    {
      "inputs": [
        {
          "internalType": "address",
          "name": "newOwner",
          "type": "address"
        }
      ],
      "name": "transferOwnership",
      "outputs": [],
      "stateMutability": "nonpayable",
      "type": "function"
    },
    {
      "inputs": [
        {
          "internalType": "uint256",
          "name": "",
          "type": "uint256"
        },
        {
          "internalType": "address",
          "name": "",
          "type": "address"
        }
      ],
      "name": "userInfo",
      "outputs": [
        {
          "internalType": "uint256",
          "name": "amount",
          "type": "uint256"
        },
        {
          "internalType": "uint256",
          "name": "rewardDebt",
          "type": "uint256"
        }
      ],
      "stateMutability": "view",
      "type": "function"
    },
    {
      "inputs": [],
      "name": "poolLength",
      "outputs": [
        {
          "internalType": "uint256",
          "name": "",
          "type": "uint256"
        }
      ],
      "stateMutability": "view",
      "type": "function"
    },
    {
      "inputs": [
        {
          "internalType": "uint256",
          "name": "_allocPoint",
          "type": "uint256"
        },
        {
          "internalType": "contract IBEP20",
          "name": "_lpToken",
          "type": "address"
        },
        {
          "internalType": "uint16",
          "name": "_depositFeeBP",
          "type": "uint16"
        },
        {
          "internalType": "uint256",
          "name": "_maxDepositAmount",
          "type": "uint256"
        },
        {
          "internalType": "bool",
          "name": "_withUpdate",
          "type": "bool"
        }
      ],
      "name": "add",
      "outputs": [],
      "stateMutability": "nonpayable",
      "type": "function"
    },
    {
      "inputs": [
        {
          "internalType": "uint256",
          "name": "_pid",
          "type": "uint256"
        },
        {
          "internalType": "uint256",
          "name": "_allocPoint",
          "type": "uint256"
        },
        {
          "internalType": "uint16",
          "name": "_depositFeeBP",
          "type": "uint16"
        },
        {
          "internalType": "uint256",
          "name": "_maxDepositAmount",
          "type": "uint256"
        },
        {
          "internalType": "bool",
          "name": "_withUpdate",
          "type": "bool"
        }
      ],
      "name": "set",
      "outputs": [],
      "stateMutability": "nonpayable",
      "type": "function"
    },
    {
      "inputs": [
        {
          "internalType": "uint256",
          "name": "_from",
          "type": "uint256"
        },
        {
          "internalType": "uint256",
          "name": "_to",
          "type": "uint256"
        }
      ],
      "name": "getMultiplier",
      "outputs": [
        {
          "internalType": "uint256",
          "name": "",
          "type": "uint256"
        }
      ],
      "stateMutability": "pure",
      "type": "function"
    },
    {
      "inputs": [
        {
          "internalType": "uint256",
          "name": "_pid",
          "type": "uint256"
        },
        {
          "internalType": "address",
          "name": "_user",
          "type": "address"
        }
      ],
      "name": "pendingDragonBall",
      "outputs": [
        {
          "internalType": "uint256",
          "name": "",
          "type": "uint256"
        }
      ],
      "stateMutability": "view",
      "type": "function"
    },
    {
      "inputs": [],
      "name": "massUpdatePools",
      "outputs": [],
      "stateMutability": "nonpayable",
      "type": "function"
    },
    {
      "inputs": [
        {
          "internalType": "uint256",
          "name": "_pid",
          "type": "uint256"
        }
      ],
      "name": "updatePool",
      "outputs": [],
      "stateMutability": "nonpayable",
      "type": "function"
    },
    {
      "inputs": [
        {
          "internalType": "uint256",
          "name": "_pid",
          "type": "uint256"
        },
        {
          "internalType": "uint256",
          "name": "_amount",
          "type": "uint256"
        }
      ],
      "name": "deposit",
      "outputs": [],
      "stateMutability": "nonpayable",
      "type": "function"
    },
    {
      "inputs": [
        {
          "internalType": "uint256",
          "name": "_pid",
          "type": "uint256"
        },
        {
          "internalType": "uint256",
          "name": "_amount",
          "type": "uint256"
        }
      ],
      "name": "withdraw",
      "outputs": [],
      "stateMutability": "nonpayable",
      "type": "function"
    },
    {
      "inputs": [
        {
          "internalType": "uint256",
          "name": "_pid",
          "type": "uint256"
        }
      ],
      "name": "emergencyWithdraw",
      "outputs": [],
      "stateMutability": "nonpayable",
      "type": "function"
    },
    {
      "inputs": [
        {
          "internalType": "address",
          "name": "_devAddress",
          "type": "address"
        }
      ],
      "name": "setDevAddress",
      "outputs": [],
      "stateMutability": "nonpayable",
      "type": "function"
    },
    {
      "inputs": [
        {
          "internalType": "address",
          "name": "_feeAddress",
          "type": "address"
        }
      ],
      "name": "setFeeAddress",
      "outputs": [],
      "stateMutability": "nonpayable",
      "type": "function"
    },
    {
      "inputs": [
        {
          "internalType": "uint256",
          "name": "_DragonBallPerBlock",
          "type": "uint256"
        }
      ],
      "name": "updateEmissionRate",
      "outputs": [],
      "stateMutability": "nonpayable",
      "type": "function"
    },
    {
      "inputs": [
        {
          "internalType": "uint256",
          "name": "_pid",
          "type": "uint256"
        },
        {
          "internalType": "address",
          "name": "_user",
          "type": "address"
        }
      ],
      "name": "harvestFor",
      "outputs": [],
      "stateMutability": "nonpayable",
      "type": "function"
    },
    {
      "inputs": [
        {
          "internalType": "uint256[]",
          "name": "pidArray",
          "type": "uint256[]"
        },
        {
          "internalType": "address",
          "name": "_user",
          "type": "address"
        }
      ],
      "name": "bulkHarvestFor",
      "outputs": [],
      "stateMutability": "nonpayable",
      "type": "function"
    }
  ],
  "bytecode": "0x608060405260006008553480156200001657600080fd5b50604051620032bb380380620032bb833981810160405260a08110156200003c57600080fd5b8101908080519060200190929190805190602001909291908051906020019092919080519060200190929190805190602001909291905050506000620000876200020860201b60201c565b9050806000806101000a81548173ffffffffffffffffffffffffffffffffffffffff021916908373ffffffffffffffffffffffffffffffffffffffff1602179055508073ffffffffffffffffffffffffffffffffffffffff16600073ffffffffffffffffffffffffffffffffffffffff167f8be0079c531659141344cd1fd0a4f28419497f9722a3daafe3b4186f6b6457e060405160405180910390a3506001808190555084600260006101000a81548173ffffffffffffffffffffffffffffffffffffffff021916908373ffffffffffffffffffffffffffffffffffffffff16021790555083600360006101000a81548173ffffffffffffffffffffffffffffffffffffffff021916908373ffffffffffffffffffffffffffffffffffffffff16021790555082600560006101000a81548173ffffffffffffffffffffffffffffffffffffffff021916908373ffffffffffffffffffffffffffffffffffffffff1602179055508160048190555080600981905550505050505062000210565b600033905090565b61309b80620002206000396000f3fe608060405234801561001057600080fd5b50600436106101a95760003560e01c8063715018a6116100f9578063a92df35e11610097578063dc2256bf11610071578063dc2256bf1461072a578063e2bbb1581461078c578063f2fde38b146107c4578063ff7f785714610808576101a9565b8063a92df35e14610656578063af018de814610674578063d0d41fe1146106e6576101a9565b80638aa28550116100d35780638aa285501461054f5780638da5cb5b1461056d5780638dbb1e3a146105a157806393f1a40b146105ed576101a9565b8063715018a614610468578063795ccdbb146104725780638705fcd41461050b576101a9565b8063412753581161016657806351eb05a61161014057806351eb05a6146103b45780635312ea8e146103e2578063630b5ba114610410578063708e3ebf1461041a576101a9565b8063412753581461032a578063441a3e701461035e57806348cd4cb114610396576101a9565b8063081e3eda146101ae5780630ba84cd2146101cc5780631526fe27146101fa57806317caf6f11461027c5780632143e5451461029a5780633ad10ef6146102f6575b600080fd5b6101b661083c565b6040518082815260200191505060405180910390f35b6101f8600480360360208110156101e257600080fd5b8101908080359060200190929190505050610849565b005b6102266004803603602081101561021057600080fd5b8101908080359060200190929190505050610958565b604051808873ffffffffffffffffffffffffffffffffffffffff16815260200187815260200186815260200185815260200184815260200183815260200182815260200197505050505050505060405180910390f35b6102846109c7565b6040518082815260200191505060405180910390f35b6102f4600480360360a08110156102b057600080fd5b810190808035906020019092919080359060200190929190803561ffff169060200190929190803590602001909291908035151590602001909291905050506109cd565b005b6102fe610bc6565b604051808273ffffffffffffffffffffffffffffffffffffffff16815260200191505060405180910390f35b610332610bec565b604051808273ffffffffffffffffffffffffffffffffffffffff16815260200191505060405180910390f35b6103946004803603604081101561037457600080fd5b810190808035906020019092919080359060200190929190505050610c12565b005b61039e610f17565b6040518082815260200191505060405180910390f35b6103e0600480360360208110156103ca57600080fd5b8101908080359060200190929190505050610f1d565b005b61040e600480360360208110156103f857600080fd5b81019080803590602001909291905050506111b7565b005b610418611392565b005b6104666004803603604081101561043057600080fd5b8101908080359060200190929190803573ffffffffffffffffffffffffffffffffffffffff16906020019092919050505061139c565b005b610470611675565b005b6105096004803603604081101561048857600080fd5b81019080803590602001906401000000008111156104a557600080fd5b8201836020820111156104b757600080fd5b803590602001918460208302840111640100000000831117156104d957600080fd5b9091929391929390803573ffffffffffffffffffffffffffffffffffffffff1690602001909291905050506117e2565b005b61054d6004803603602081101561052157600080fd5b81019080803573ffffffffffffffffffffffffffffffffffffffff169060200190929190505050611829565b005b61055761198a565b6040518082815260200191505060405180910390f35b61057561198f565b604051808273ffffffffffffffffffffffffffffffffffffffff16815260200191505060405180910390f35b6105d7600480360360408110156105b757600080fd5b8101908080359060200190929190803590602001909291905050506119b8565b6040518082815260200191505060405180910390f35b6106396004803603604081101561060357600080fd5b8101908080359060200190929190803573ffffffffffffffffffffffffffffffffffffffff1690602001909291905050506119e8565b604051808381526020018281526020019250505060405180910390f35b61065e611a19565b6040518082815260200191505060405180910390f35b6106e4600480360360a081101561068a57600080fd5b8101908080359060200190929190803573ffffffffffffffffffffffffffffffffffffffff169060200190929190803561ffff16906020019092919080359060200190929190803515159060200190929190505050611a1f565b005b610728600480360360208110156106fc57600080fd5b81019080803573ffffffffffffffffffffffffffffffffffffffff169060200190929190505050611c92565b005b6107766004803603604081101561074057600080fd5b8101908080359060200190929190803573ffffffffffffffffffffffffffffffffffffffff169060200190929190505050611df3565b6040518082815260200191505060405180910390f35b6107c2600480360360408110156107a257600080fd5b810190808035906020019092919080359060200190929190505050611f78565b005b610806600480360360208110156107da57600080fd5b81019080803573ffffffffffffffffffffffffffffffffffffffff16906020019092919050505061237a565b005b61081061256c565b604051808273ffffffffffffffffffffffffffffffffffffffff16815260200191505060405180910390f35b6000600680549050905090565b610851612592565b73ffffffffffffffffffffffffffffffffffffffff1661086f61198f565b73ffffffffffffffffffffffffffffffffffffffff16146108f8576040517f08c379a00000000000000000000000000000000000000000000000000000000081526004018080602001828103825260208152602001807f4f776e61626c653a2063616c6c6572206973206e6f7420746865206f776e657281525060200191505060405180910390fd5b61090061259a565b806004819055503373ffffffffffffffffffffffffffffffffffffffff167fe2492e003bbe8afa53088b406f0c1cb5d9e280370fc72a74cf116ffd343c4053826040518082815260200191505060405180910390a250565b6006818154811061096557fe5b90600052602060002090600702016000915090508060000160009054906101000a900473ffffffffffffffffffffffffffffffffffffffff16908060010154908060020154908060030154908060040154908060050154908060060154905087565b60085481565b6109d5612592565b73ffffffffffffffffffffffffffffffffffffffff166109f361198f565b73ffffffffffffffffffffffffffffffffffffffff1614610a7c576040517f08c379a00000000000000000000000000000000000000000000000000000000081526004018080602001828103825260208152602001807f4f776e61626c653a2063616c6c6572206973206e6f7420746865206f776e657281525060200191505060405180910390fd5b6107d08361ffff161115610af8576040517f08c379a000000000000000000000000000000000000000000000000000000000815260040180806020018281038252601b8152602001807f6164643a20464545532043414e4e4f542045584345454420323025000000000081525060200191505060405180910390fd5b8015610b0757610b0661259a565b5b610b4c84610b3e60068881548110610b1b57fe5b9060005260206000209060070201600101546008546125c790919063ffffffff16565b61264a90919063ffffffff16565b6008819055508360068681548110610b6057fe5b9060005260206000209060070201600101819055508261ffff1660068681548110610b8757fe5b9060005260206000209060070201600401819055508160068681548110610baa57fe5b9060005260206000209060070201600501819055505050505050565b600360009054906101000a900473ffffffffffffffffffffffffffffffffffffffff1681565b600560009054906101000a900473ffffffffffffffffffffffffffffffffffffffff1681565b60026001541415610c8b576040517f08c379a000000000000000000000000000000000000000000000000000000000815260040180806020018281038252601f8152602001807f5265656e7472616e637947756172643a207265656e7472616e742063616c6c0081525060200191505060405180910390fd5b6002600181905550600060068381548110610ca257fe5b9060005260206000209060070201905060006007600085815260200190815260200160002060003373ffffffffffffffffffffffffffffffffffffffff1673ffffffffffffffffffffffffffffffffffffffff16815260200190815260200160002090508281600001541015610d80576040517f08c379a00000000000000000000000000000000000000000000000000000000081526004018080602001828103825260128152602001807f77697468647261773a206e6f7420676f6f64000000000000000000000000000081525060200191505060405180910390fd5b610d8984610f1d565b6000610dd38260010154610dc564e8d4a51000610db7876003015487600001546126d290919063ffffffff16565b61275890919063ffffffff16565b6125c790919063ffffffff16565b90506000811115610de957610de833826127e1565b5b6000841115610e8057610e098483600001546125c790919063ffffffff16565b8260000181905550610e288484600601546125c790919063ffffffff16565b8360060181905550610e7f33858560000160009054906101000a900473ffffffffffffffffffffffffffffffffffffffff1673ffffffffffffffffffffffffffffffffffffffff16612ab59092919063ffffffff16565b5b610eb264e8d4a51000610ea4856003015485600001546126d290919063ffffffff16565b61275890919063ffffffff16565b8260010181905550843373ffffffffffffffffffffffffffffffffffffffff167ff279e6a1f5e320cca91135676d9cb6e44ca8a08c0b88342bcdb1144f6511b568866040518082815260200191505060405180910390a3505050600180819055505050565b60095481565b600060068281548110610f2c57fe5b9060005260206000209060070201905080600201544311610f4d57506111b4565b6000816006015490506000811480610f69575060008260010154145b15610f7e5743826002018190555050506111b4565b6000610f8e8360020154436119b8565b90506000610fd1600854610fc38660010154610fb5600454876126d290919063ffffffff16565b6126d290919063ffffffff16565b61275890919063ffffffff16565b9050600260009054906101000a900473ffffffffffffffffffffffffffffffffffffffff1673ffffffffffffffffffffffffffffffffffffffff166340c10f19600360009054906101000a900473ffffffffffffffffffffffffffffffffffffffff16611048600a8561275890919063ffffffff16565b6040518363ffffffff1660e01b8152600401808373ffffffffffffffffffffffffffffffffffffffff16815260200182815260200192505050600060405180830381600087803b15801561109b57600080fd5b505af11580156110af573d6000803e3d6000fd5b50505050600260009054906101000a900473ffffffffffffffffffffffffffffffffffffffff1673ffffffffffffffffffffffffffffffffffffffff166340c10f1930836040518363ffffffff1660e01b8152600401808373ffffffffffffffffffffffffffffffffffffffff16815260200182815260200192505050600060405180830381600087803b15801561114657600080fd5b505af115801561115a573d6000803e3d6000fd5b5050505061119e61118b8461117d64e8d4a51000856126d290919063ffffffff16565b61275890919063ffffffff16565b856003015461264a90919063ffffffff16565b8460030181905550438460020181905550505050505b50565b60026001541415611230576040517f08c379a000000000000000000000000000000000000000000000000000000000815260040180806020018281038252601f8152602001807f5265656e7472616e637947756172643a207265656e7472616e742063616c6c0081525060200191505060405180910390fd5b600260018190555060006006828154811061124757fe5b9060005260206000209060070201905060006007600084815260200190815260200160002060003373ffffffffffffffffffffffffffffffffffffffff1673ffffffffffffffffffffffffffffffffffffffff168152602001908152602001600020905060008160000154905060008260000181905550600082600101819055506112df8184600601546125c790919063ffffffff16565b836006018190555061133633828560000160009054906101000a900473ffffffffffffffffffffffffffffffffffffffff1673ffffffffffffffffffffffffffffffffffffffff16612ab59092919063ffffffff16565b833373ffffffffffffffffffffffffffffffffffffffff167fbb757047c2b5f3974fe26b7c10f732e7bce710b0952a71082702781e62ae0595836040518082815260200191505060405180910390a35050506001808190555050565b61139a61259a565b565b60026001541415611415576040517f08c379a000000000000000000000000000000000000000000000000000000000815260040180806020018281038252601f8152602001807f5265656e7472616e637947756172643a207265656e7472616e742063616c6c0081525060200191505060405180910390fd5b60026001819055508073ffffffffffffffffffffffffffffffffffffffff163373ffffffffffffffffffffffffffffffffffffffff16148061148257508073ffffffffffffffffffffffffffffffffffffffff163273ffffffffffffffffffffffffffffffffffffffff16145b6114f4576040517f08c379a00000000000000000000000000000000000000000000000000000000081526004018080602001828103825260158152602001807f68617276657374466f723a20464f5242494444454e000000000000000000000081525060200191505060405180910390fd5b60006006838154811061150357fe5b9060005260206000209060070201905060006007600085815260200190815260200160002060008473ffffffffffffffffffffffffffffffffffffffff1673ffffffffffffffffffffffffffffffffffffffff168152602001908152602001600020905061157084610f1d565b6000816000015411156116685760006115c782600101546115b964e8d4a510006115ab876003015487600001546126d290919063ffffffff16565b61275890919063ffffffff16565b6125c790919063ffffffff16565b90506000811115611666576115dc84826127e1565b61160e64e8d4a51000611600856003015485600001546126d290919063ffffffff16565b61275890919063ffffffff16565b8260010181905550848473ffffffffffffffffffffffffffffffffffffffff167f71bab65ced2e5750775a0613be067df48ef06cf92a496ebf7663ae0660924954836040518082815260200191505060405180910390a35b505b5050600180819055505050565b61167d612592565b73ffffffffffffffffffffffffffffffffffffffff1661169b61198f565b73ffffffffffffffffffffffffffffffffffffffff1614611724576040517f08c379a00000000000000000000000000000000000000000000000000000000081526004018080602001828103825260208152602001807f4f776e61626c653a2063616c6c6572206973206e6f7420746865206f776e657281525060200191505060405180910390fd5b600073ffffffffffffffffffffffffffffffffffffffff1660008054906101000a900473ffffffffffffffffffffffffffffffffffffffff1673ffffffffffffffffffffffffffffffffffffffff167f8be0079c531659141344cd1fd0a4f28419497f9722a3daafe3b4186f6b6457e060405160405180910390a360008060006101000a81548173ffffffffffffffffffffffffffffffffffffffff021916908373ffffffffffffffffffffffffffffffffffffffff160217905550565b600083839050905060005b8181101561182257600085858381811061180357fe5b905060200201359050611816818561139c565b508060010190506117ed565b5050505050565b600560009054906101000a900473ffffffffffffffffffffffffffffffffffffffff1673ffffffffffffffffffffffffffffffffffffffff163373ffffffffffffffffffffffffffffffffffffffff16146118ec576040517f08c379a00000000000000000000000000000000000000000000000000000000081526004018080602001828103825260188152602001807f736574466565416464726573733a20464f5242494444454e000000000000000081525060200191505060405180910390fd5b80600560006101000a81548173ffffffffffffffffffffffffffffffffffffffff021916908373ffffffffffffffffffffffffffffffffffffffff1602179055508073ffffffffffffffffffffffffffffffffffffffff163373ffffffffffffffffffffffffffffffffffffffff167fd44190acf9d04bdb5d3a1aafff7e6dee8b40b93dfb8c5d3f0eea4b9f4539c3f760405160405180910390a350565b600181565b60008060009054906101000a900473ffffffffffffffffffffffffffffffffffffffff16905090565b60006119e060016119d285856125c790919063ffffffff16565b6126d290919063ffffffff16565b905092915050565b6007602052816000526040600020602052806000526040600020600091509150508060000154908060010154905082565b60045481565b611a27612592565b73ffffffffffffffffffffffffffffffffffffffff16611a4561198f565b73ffffffffffffffffffffffffffffffffffffffff1614611ace576040517f08c379a00000000000000000000000000000000000000000000000000000000081526004018080602001828103825260208152602001807f4f776e61626c653a2063616c6c6572206973206e6f7420746865206f776e657281525060200191505060405180910390fd5b6107d08361ffff161115611b4a576040517f08c379a000000000000000000000000000000000000000000000000000000000815260040180806020018281038252601b8152602001807f6164643a20464545532043414e4e4f542045584345454420323025000000000081525060200191505060405180910390fd5b8015611b5957611b5861259a565b5b60006009544311611b6c57600954611b6e565b435b9050611b858660085461264a90919063ffffffff16565b60088190555060066040518060e001604052808773ffffffffffffffffffffffffffffffffffffffff168152602001888152602001838152602001600081526020018661ffff1681526020018581526020016000815250908060018154018082558091505060019003906000526020600020906007020160009091909190915060008201518160000160006101000a81548173ffffffffffffffffffffffffffffffffffffffff021916908373ffffffffffffffffffffffffffffffffffffffff1602179055506020820151816001015560408201518160020155606082015181600301556080820151816004015560a0820151816005015560c082015181600601555050505050505050565b600360009054906101000a900473ffffffffffffffffffffffffffffffffffffffff1673ffffffffffffffffffffffffffffffffffffffff163373ffffffffffffffffffffffffffffffffffffffff1614611d55576040517f08c379a00000000000000000000000000000000000000000000000000000000081526004018080602001828103825260188152602001807f736574446576416464726573733a20464f5242494444454e000000000000000081525060200191505060405180910390fd5b80600360006101000a81548173ffffffffffffffffffffffffffffffffffffffff021916908373ffffffffffffffffffffffffffffffffffffffff1602179055508073ffffffffffffffffffffffffffffffffffffffff163373ffffffffffffffffffffffffffffffffffffffff167f618c54559e94f1499a808aad71ee8729f8e74e8c48e979616328ce493a1a52e760405160405180910390a350565b60008060068481548110611e0357fe5b9060005260206000209060070201905060006007600086815260200190815260200160002060008573ffffffffffffffffffffffffffffffffffffffff1673ffffffffffffffffffffffffffffffffffffffff1681526020019081526020016000209050600082600301549050600083600601549050836002015443118015611e8d575060008114155b15611f28576000611ea28560020154436119b8565b90506000611ee5600854611ed78860010154611ec9600454876126d290919063ffffffff16565b6126d290919063ffffffff16565b61275890919063ffffffff16565b9050611f23611f1484611f0664e8d4a51000856126d290919063ffffffff16565b61275890919063ffffffff16565b8561264a90919063ffffffff16565b935050505b611f6c8360010154611f5e64e8d4a51000611f508688600001546126d290919063ffffffff16565b61275890919063ffffffff16565b6125c790919063ffffffff16565b94505050505092915050565b60026001541415611ff1576040517f08c379a000000000000000000000000000000000000000000000000000000000815260040180806020018281038252601f8152602001807f5265656e7472616e637947756172643a207265656e7472616e742063616c6c0081525060200191505060405180910390fd5b600260018190555060006006838154811061200857fe5b9060005260206000209060070201905060006007600085815260200190815260200160002060003373ffffffffffffffffffffffffffffffffffffffff1673ffffffffffffffffffffffffffffffffffffffff168152602001908152602001600020905061207584610f1d565b6000816000015411156120e45760006120cc82600101546120be64e8d4a510006120b0876003015487600001546126d290919063ffffffff16565b61275890919063ffffffff16565b6125c790919063ffffffff16565b905060008111156120e2576120e133826127e1565b5b505b60008311156122e457600061211a61271061210c8560040154876126d290919063ffffffff16565b61275890919063ffffffff16565b9050600061213182866125c790919063ffffffff16565b90506000846005015411156121d757600061215d856006015486600501546125c790919063ffffffff16565b9050818110156121d5576040517f08c379a000000000000000000000000000000000000000000000000000000000815260040180806020018281038252601e8152602001807f6465706f7369743a2072656163686564206d6178696d756d206c696d6974000081525060200191505060405180910390fd5b505b6122283330878760000160009054906101000a900473ffffffffffffffffffffffffffffffffffffffff1673ffffffffffffffffffffffffffffffffffffffff16612b57909392919063ffffffff16565b60008211156122a3576122a2600560009054906101000a900473ffffffffffffffffffffffffffffffffffffffff16838660000160009054906101000a900473ffffffffffffffffffffffffffffffffffffffff1673ffffffffffffffffffffffffffffffffffffffff16612ab59092919063ffffffff16565b5b6122ba81846000015461264a90919063ffffffff16565b83600001819055506122d981856006015461264a90919063ffffffff16565b846006018190555050505b61231664e8d4a51000612308846003015484600001546126d290919063ffffffff16565b61275890919063ffffffff16565b8160010181905550833373ffffffffffffffffffffffffffffffffffffffff167f90890809c654f11d6e72a28fa60149770a0d11ec6c92319d6ceb2bb0a4ea1a15856040518082815260200191505060405180910390a35050600180819055505050565b612382612592565b73ffffffffffffffffffffffffffffffffffffffff166123a061198f565b73ffffffffffffffffffffffffffffffffffffffff1614612429576040517f08c379a00000000000000000000000000000000000000000000000000000000081526004018080602001828103825260208152602001807f4f776e61626c653a2063616c6c6572206973206e6f7420746865206f776e657281525060200191505060405180910390fd5b600073ffffffffffffffffffffffffffffffffffffffff168173ffffffffffffffffffffffffffffffffffffffff1614156124af576040517f08c379a0000000000000000000000000000000000000000000000000000000008152600401808060200182810382526026815260200180612fd26026913960400191505060405180910390fd5b8073ffffffffffffffffffffffffffffffffffffffff1660008054906101000a900473ffffffffffffffffffffffffffffffffffffffff1673ffffffffffffffffffffffffffffffffffffffff167f8be0079c531659141344cd1fd0a4f28419497f9722a3daafe3b4186f6b6457e060405160405180910390a3806000806101000a81548173ffffffffffffffffffffffffffffffffffffffff021916908373ffffffffffffffffffffffffffffffffffffffff16021790555050565b600260009054906101000a900473ffffffffffffffffffffffffffffffffffffffff1681565b600033905090565b6000600680549050905060005b818110156125c3576125b881610f1d565b8060010190506125a7565b5050565b60008282111561263f576040517f08c379a000000000000000000000000000000000000000000000000000000000815260040180806020018281038252601e8152602001807f536166654d6174683a207375627472616374696f6e206f766572666c6f77000081525060200191505060405180910390fd5b818303905092915050565b6000808284019050838110156126c8576040517f08c379a000000000000000000000000000000000000000000000000000000000815260040180806020018281038252601b8152602001807f536166654d6174683a206164646974696f6e206f766572666c6f77000000000081525060200191505060405180910390fd5b8091505092915050565b6000808314156126e55760009050612752565b60008284029050828482816126f657fe5b041461274d576040517f08c379a00000000000000000000000000000000000000000000000000000000081526004018080602001828103825260218152602001806130456021913960400191505060405180910390fd5b809150505b92915050565b60008082116127cf576040517f08c379a000000000000000000000000000000000000000000000000000000000815260040180806020018281038252601a8152602001807f536166654d6174683a206469766973696f6e206279207a65726f00000000000081525060200191505060405180910390fd5b8183816127d857fe5b04905092915050565b6000600260009054906101000a900473ffffffffffffffffffffffffffffffffffffffff1673ffffffffffffffffffffffffffffffffffffffff166370a08231306040518263ffffffff1660e01b8152600401808273ffffffffffffffffffffffffffffffffffffffff16815260200191505060206040518083038186803b15801561286c57600080fd5b505afa158015612880573d6000803e3d6000fd5b505050506040513d602081101561289657600080fd5b8101908080519060200190929190505050905060008183111561298857600260009054906101000a900473ffffffffffffffffffffffffffffffffffffffff1673ffffffffffffffffffffffffffffffffffffffff1663a9059cbb85846040518363ffffffff1660e01b8152600401808373ffffffffffffffffffffffffffffffffffffffff16815260200182815260200192505050602060405180830381600087803b15801561294657600080fd5b505af115801561295a573d6000803e3d6000fd5b505050506040513d602081101561297057600080fd5b81019080805190602001909291905050509050612a59565b600260009054906101000a900473ffffffffffffffffffffffffffffffffffffffff1673ffffffffffffffffffffffffffffffffffffffff1663a9059cbb85856040518363ffffffff1660e01b8152600401808373ffffffffffffffffffffffffffffffffffffffff16815260200182815260200192505050602060405180830381600087803b158015612a1b57600080fd5b505af1158015612a2f573d6000803e3d6000fd5b505050506040513d6020811015612a4557600080fd5b810190808051906020019092919050505090505b80612aaf576040517f08c379a0000000000000000000000000000000000000000000000000000000008152600401808060200182810382526027815260200180612ff86027913960400191505060405180910390fd5b50505050565b612b528363a9059cbb60e01b8484604051602401808373ffffffffffffffffffffffffffffffffffffffff16815260200182815260200192505050604051602081830303815290604052907bffffffffffffffffffffffffffffffffffffffffffffffffffffffff19166020820180517bffffffffffffffffffffffffffffffffffffffffffffffffffffffff8381831617835250505050612c18565b505050565b612c12846323b872dd60e01b858585604051602401808473ffffffffffffffffffffffffffffffffffffffff1681526020018373ffffffffffffffffffffffffffffffffffffffff1681526020018281526020019350505050604051602081830303815290604052907bffffffffffffffffffffffffffffffffffffffffffffffffffffffff19166020820180517bffffffffffffffffffffffffffffffffffffffffffffffffffffffff8381831617835250505050612c18565b50505050565b6060612c7a826040518060400160405280602081526020017f5361666542455032303a206c6f772d6c6576656c2063616c6c206661696c65648152508573ffffffffffffffffffffffffffffffffffffffff16612d079092919063ffffffff16565b9050600081511115612d0257808060200190516020811015612c9b57600080fd5b8101908080519060200190929190505050612d01576040517f08c379a000000000000000000000000000000000000000000000000000000000815260040180806020018281038252602a815260200180612fa8602a913960400191505060405180910390fd5b5b505050565b6060612d168484600085612d1f565b90509392505050565b606082471015612d7a576040517f08c379a000000000000000000000000000000000000000000000000000000000815260040180806020018281038252602681526020018061301f6026913960400191505060405180910390fd5b612d8385612ec8565b612df5576040517f08c379a000000000000000000000000000000000000000000000000000000000815260040180806020018281038252601d8152602001807f416464726573733a2063616c6c20746f206e6f6e2d636f6e747261637400000081525060200191505060405180910390fd5b600060608673ffffffffffffffffffffffffffffffffffffffff1685876040518082805190602001908083835b60208310612e455780518252602082019150602081019050602083039250612e22565b6001836020036101000a03801982511681845116808217855250505050505090500191505060006040518083038185875af1925050503d8060008114612ea7576040519150601f19603f3d011682016040523d82523d6000602084013e612eac565b606091505b5091509150612ebc828286612edb565b92505050949350505050565b600080823b905060008111915050919050565b60608315612eeb57829050612fa0565b600083511115612efe5782518084602001fd5b816040517f08c379a00000000000000000000000000000000000000000000000000000000081526004018080602001828103825283818151815260200191508051906020019080838360005b83811015612f65578082015181840152602081019050612f4a565b50505050905090810190601f168015612f925780820380516001836020036101000a031916815260200191505b509250505060405180910390fd5b939250505056fe5361666542455032303a204245503230206f7065726174696f6e20646964206e6f7420737563636565644f776e61626c653a206e6577206f776e657220697320746865207a65726f206164647265737373616665447261676f6e42616c6c5472616e736665723a207472616e73666572206661696c6564416464726573733a20696e73756666696369656e742062616c616e636520666f722063616c6c536166654d6174683a206d756c7469706c69636174696f6e206f766572666c6f77a2646970667358221220d0831f46d83d689b19763f9a2f428b24403e9c8bd3fd868e80829dd238321f9964736f6c634300060c0033",
  "immutableReferences": {},
  "source": "// SPDX-License-Identifier: MIT\r\n\r\npragma solidity 0.6.12;\r\n\r\nimport \"@openzeppelin/contracts/math/SafeMath.sol\";\r\nimport \"./libs/IBEP20.sol\";\r\nimport \"./libs/SafeBEP20.sol\";\r\nimport \"@openzeppelin/contracts/access/Ownable.sol\";\r\nimport \"@openzeppelin/contracts/utils/ReentrancyGuard.sol\";\r\n\r\nimport \"./interfaces/IMintable.sol\";\r\nimport \"./interfaces/IIncubatorChef.sol\";\r\n\r\ncontract IncubatorChef is Ownable, ReentrancyGuard, IIncubatorChef  {\r\n    using SafeMath for uint256;\r\n    using SafeBEP20 for IBEP20;\r\n\r\n    // Info of each user.\r\n    struct UserInfo {\r\n        uint256 amount;         // How many LP tokens the user has provided.\r\n        uint256 rewardDebt;     // Reward debt. See explanation below.\r\n        //\r\n        // We do some fancy math here. Basically, any point in time, the amount of DragonBalls\r\n        // entitled to a user but is pending to be distributed is:\r\n        //\r\n        //   pending reward = (user.amount * pool.accDragonBallPerShare) - user.rewardDebt\r\n        //\r\n        // Whenever a user deposits or withdraws LP tokens to a pool. Here's what happens:\r\n        //   1. The pool's `accDragonBallPerShare` (and `lastRewardBlock`) gets updated.\r\n        //   2. User receives the pending reward sent to his/her address.\r\n        //   3. User's `amount` gets updated.\r\n        //   4. User's `rewardDebt` gets updated.\r\n    }\r\n\r\n    // Info of each pool.\r\n    struct PoolInfo {\r\n        IBEP20 lpToken;                 // Address of LP token contract.\r\n        uint256 allocPoint;             // How many allocation points assigned to this pool. DragonBalls to distribute per block.\r\n        uint256 lastRewardBlock;        // Last block number that DragonBalls distribution occurs.\r\n        uint256 accDragonBallPerShare;       // Accumulated DragonBalls per share, times 1e12. See below.\r\n        uint256 depositFeeBP;           // Deposit fee in basis points\r\n        uint256 maxDepositAmount;       // Maximum deposit quota (0 means no limit)\r\n        uint256 currentDepositAmount;   // Current total deposit amount in this pool\r\n    }\r\n\r\n    // The reward token\r\n    IMintable public DragonBall;\r\n    // Dev address.\r\n    address public devAddress;\r\n    // DragonBall tokens created per block.\r\n    uint256 public DragonBallPerBlock;\r\n    // Bonus multiplier for early DragonBall makers.\r\n    uint256 public constant BONUS_MULTIPLIER = 1;\r\n    // Deposit Fee address\r\n    address public feeAddress;\r\n\r\n    // Info of each pool.\r\n    PoolInfo[] public poolInfo;\r\n    // Info of each user that stakes LP tokens.\r\n    mapping(uint256 => mapping(address => UserInfo)) public userInfo;\r\n    // Total allocation points. Must be the sum of all allocation points in all pools.\r\n    uint256 public totalAllocPoint = 0;\r\n    // The block number when DragonBall mining starts.\r\n    uint256 public startBlock;\r\n\r\n    event Harvest(address indexed user, uint256 indexed pid, uint256 amount);\r\n    event Deposit(address indexed user, uint256 indexed pid, uint256 amount);\r\n    event Withdraw(address indexed user, uint256 indexed pid, uint256 amount);\r\n    event EmergencyWithdraw(address indexed user, uint256 indexed pid, uint256 amount);\r\n    event SetFeeAddress(address indexed user, address indexed newAddress);\r\n    event SetDevAddress(address indexed user, address indexed newAddress);\r\n    event UpdateEmissionRate(address indexed user, uint256 DragonBallPerBlock);\r\n\r\n    constructor(\r\n        IMintable _DragonBall,\r\n        address _devAddress,\r\n        address _feeAddress,\r\n        uint256 _DragonBallPerBlock,\r\n        uint256 _startBlock\r\n    ) public {\r\n        DragonBall = _DragonBall;\r\n        devAddress = _devAddress;\r\n        feeAddress = _feeAddress;\r\n        DragonBallPerBlock = _DragonBallPerBlock;\r\n        startBlock = _startBlock;\r\n    }\r\n\r\n    function poolLength() external view returns (uint256) {\r\n        return poolInfo.length;\r\n    }\r\n\r\n    // Add a new lp to the pool. Can only be called by the owner.\r\n    function add(uint256 _allocPoint, IBEP20 _lpToken, uint16 _depositFeeBP, uint256 _maxDepositAmount, bool _withUpdate) override external onlyOwner {\r\n        require(_depositFeeBP <= 2000, \"add: FEES CANNOT EXCEED 20%\");\r\n        if (_withUpdate) {\r\n            _massUpdatePools();\r\n        }\r\n        uint256 lastRewardBlock = block.number > startBlock ? block.number : startBlock;\r\n        totalAllocPoint = totalAllocPoint.add(_allocPoint);\r\n        poolInfo.push(PoolInfo({\r\n            lpToken: _lpToken,\r\n            allocPoint: _allocPoint,\r\n            lastRewardBlock: lastRewardBlock,\r\n            accDragonBallPerShare: 0,\r\n            depositFeeBP: _depositFeeBP,\r\n            maxDepositAmount: _maxDepositAmount,\r\n            currentDepositAmount: 0\r\n        }));\r\n    }\r\n\r\n    // Update the given pool's DragonBall allocation point and deposit fee. Can only be called by the owner.\r\n    function set(uint256 _pid, uint256 _allocPoint, uint16 _depositFeeBP, uint256 _maxDepositAmount, bool _withUpdate) override external onlyOwner {\r\n        require(_depositFeeBP <= 2000, \"add: FEES CANNOT EXCEED 20%\");\r\n        if (_withUpdate) {\r\n            _massUpdatePools();\r\n        }\r\n        totalAllocPoint = totalAllocPoint.sub(poolInfo[_pid].allocPoint).add(_allocPoint);\r\n        poolInfo[_pid].allocPoint = _allocPoint;\r\n        poolInfo[_pid].depositFeeBP = _depositFeeBP;\r\n        poolInfo[_pid].maxDepositAmount = _maxDepositAmount;\r\n    }\r\n\r\n    // Return reward multiplier over the given _from to _to block.\r\n    function getMultiplier(uint256 _from, uint256 _to) public pure returns (uint256) {\r\n        return _to.sub(_from).mul(BONUS_MULTIPLIER);\r\n    }\r\n\r\n    // View function to see pending DragonBalls on frontend.\r\n    function pendingDragonBall(uint256 _pid, address _user) external view returns (uint256) {\r\n        PoolInfo storage pool = poolInfo[_pid];\r\n        UserInfo storage user = userInfo[_pid][_user];\r\n        uint256 accDragonBallPerShare = pool.accDragonBallPerShare;\r\n        uint256 lpSupply = pool.currentDepositAmount;\r\n        if (block.number > pool.lastRewardBlock && lpSupply != 0) {\r\n            uint256 multiplier = getMultiplier(pool.lastRewardBlock, block.number);\r\n            uint256 DragonBallReward = multiplier.mul(DragonBallPerBlock).mul(pool.allocPoint).div(totalAllocPoint);\r\n            accDragonBallPerShare = accDragonBallPerShare.add(DragonBallReward.mul(1e12).div(lpSupply));\r\n        }\r\n        return user.amount.mul(accDragonBallPerShare).div(1e12).sub(user.rewardDebt);\r\n    }\r\n\r\n    function massUpdatePools() override external {\r\n        _massUpdatePools();\r\n    }\r\n\r\n    // Update reward variables for all pools. Be careful of gas spending!\r\n    function _massUpdatePools() private {\r\n        uint256 length = poolInfo.length;\r\n        for (uint256 pid = 0; pid < length; ++pid) {\r\n            updatePool(pid);\r\n        }\r\n    }\r\n\r\n    // Update reward variables of the given pool to be up-to-date.\r\n    function updatePool(uint256 _pid) public {\r\n        PoolInfo storage pool = poolInfo[_pid];\r\n        if (block.number <= pool.lastRewardBlock) {\r\n            return;\r\n        }\r\n        uint256 lpSupply = pool.currentDepositAmount;\r\n        if (lpSupply == 0 || pool.allocPoint == 0) {\r\n            pool.lastRewardBlock = block.number;\r\n            return;\r\n        }\r\n        uint256 multiplier = getMultiplier(pool.lastRewardBlock, block.number);\r\n        uint256 DragonBallReward = multiplier.mul(DragonBallPerBlock).mul(pool.allocPoint).div(totalAllocPoint);\r\n        DragonBall.mint(devAddress, DragonBallReward.div(10));\r\n        DragonBall.mint(address(this), DragonBallReward);\r\n        pool.accDragonBallPerShare = pool.accDragonBallPerShare.add(DragonBallReward.mul(1e12).div(lpSupply));\r\n        pool.lastRewardBlock = block.number;\r\n    }\r\n\r\n    // Deposit tokens to chef for DragonBall allocation.\r\n    function deposit(uint256 _pid, uint256 _amount) external nonReentrant {\r\n        PoolInfo storage pool = poolInfo[_pid];\r\n        UserInfo storage user = userInfo[_pid][msg.sender];\r\n        updatePool(_pid);\r\n        if (user.amount > 0) {\r\n            uint256 pending = user.amount.mul(pool.accDragonBallPerShare).div(1e12).sub(user.rewardDebt);\r\n            if (pending > 0) {\r\n                safeDragonBallTransfer(msg.sender, pending);\r\n            }\r\n        }\r\n        if (_amount > 0) {\r\n            uint256 depositFee = _amount.mul(pool.depositFeeBP).div(10000);\r\n            uint256 depositAmount = _amount.sub(depositFee);\r\n\r\n            //Ensure adequate deposit quota if there is a max cap\r\n            if(pool.maxDepositAmount > 0){\r\n                uint256 remainingQuota = pool.maxDepositAmount.sub(pool.currentDepositAmount);\r\n                require(remainingQuota >= depositAmount, \"deposit: reached maximum limit\");\r\n            }\r\n\r\n            pool.lpToken.safeTransferFrom(address(msg.sender), address(this), _amount);\r\n            if (depositFee > 0) {\r\n                pool.lpToken.safeTransfer(feeAddress, depositFee);\r\n            }\r\n            user.amount = user.amount.add(depositAmount);\r\n            pool.currentDepositAmount = pool.currentDepositAmount.add(depositAmount);\r\n        }\r\n        user.rewardDebt = user.amount.mul(pool.accDragonBallPerShare).div(1e12);\r\n        emit Deposit(msg.sender, _pid, _amount);\r\n    }\r\n\r\n    // Withdraw LP tokens from MasterChef.\r\n    function withdraw(uint256 _pid, uint256 _amount) external nonReentrant {\r\n        PoolInfo storage pool = poolInfo[_pid];\r\n        UserInfo storage user = userInfo[_pid][msg.sender];\r\n        require(user.amount >= _amount, \"withdraw: not good\");\r\n        updatePool(_pid);\r\n        uint256 pending = user.amount.mul(pool.accDragonBallPerShare).div(1e12).sub(user.rewardDebt);\r\n        if (pending > 0) {\r\n            safeDragonBallTransfer(msg.sender, pending);\r\n        }\r\n        if (_amount > 0) {\r\n            user.amount = user.amount.sub(_amount);\r\n            pool.currentDepositAmount = pool.currentDepositAmount.sub(_amount);\r\n            pool.lpToken.safeTransfer(address(msg.sender), _amount);\r\n        }\r\n        user.rewardDebt = user.amount.mul(pool.accDragonBallPerShare).div(1e12);\r\n        emit Withdraw(msg.sender, _pid, _amount);\r\n    }\r\n\r\n    // Withdraw without caring about rewards. EMERGENCY ONLY.\r\n    function emergencyWithdraw(uint256 _pid) external nonReentrant{\r\n        PoolInfo storage pool = poolInfo[_pid];\r\n        UserInfo storage user = userInfo[_pid][msg.sender];\r\n        uint256 amount = user.amount;\r\n        user.amount = 0;\r\n        user.rewardDebt = 0;\r\n        pool.currentDepositAmount = pool.currentDepositAmount.sub(amount);\r\n        pool.lpToken.safeTransfer(address(msg.sender), amount);\r\n        emit EmergencyWithdraw(msg.sender, _pid, amount);\r\n    }\r\n\r\n    // Safe DragonBall transfer function, just in case if rounding error causes pool to not have enough DragonBalls.\r\n    function safeDragonBallTransfer(address _to, uint256 _amount) internal {\r\n        uint256 DragonBallBal = DragonBall.balanceOf(address(this));\r\n        bool transferSuccess = false;\r\n        if (_amount > DragonBallBal) {\r\n            transferSuccess = DragonBall.transfer(_to, DragonBallBal);\r\n        } else {\r\n            transferSuccess = DragonBall.transfer(_to, _amount);\r\n        }\r\n        require(transferSuccess, \"safeDragonBallTransfer: transfer failed\");\r\n    }\r\n\r\n    function setDevAddress(address _devAddress) external {\r\n        require(msg.sender == devAddress, \"setDevAddress: FORBIDDEN\");\r\n        devAddress = _devAddress;\r\n        emit SetDevAddress(msg.sender, _devAddress);\r\n    }\r\n\r\n    function setFeeAddress(address _feeAddress) override external {\r\n        require(msg.sender == feeAddress, \"setFeeAddress: FORBIDDEN\");\r\n        feeAddress = _feeAddress;\r\n        emit SetFeeAddress(msg.sender, _feeAddress);\r\n    }\r\n\r\n    //Pancake has to add hidden dummy pools inorder to alter the emission, here we make it simple and transparent to all.\r\n    function updateEmissionRate(uint256 _DragonBallPerBlock) external onlyOwner {\r\n        _massUpdatePools();\r\n        DragonBallPerBlock = _DragonBallPerBlock;\r\n        emit UpdateEmissionRate(msg.sender, _DragonBallPerBlock);\r\n    }\r\n\r\n    //New function to trigger harvest for a specific user and pool\r\n    //A specific user address is provided to facilitate aggregating harvests on multiple chefs\r\n    //Also, it is harmless monetary-wise to help someone else harvests\r\n    function harvestFor(uint256 _pid, address _user) public nonReentrant {\r\n        //Limit to self or delegated harvest to avoid unnecessary confusion\r\n        require(msg.sender == _user || tx.origin == _user, \"harvestFor: FORBIDDEN\");\r\n        PoolInfo storage pool = poolInfo[_pid];\r\n        UserInfo storage user = userInfo[_pid][_user];\r\n        updatePool(_pid);\r\n        if (user.amount > 0) {\r\n            uint256 pending = user.amount.mul(pool.accDragonBallPerShare).div(1e12).sub(user.rewardDebt);\r\n            if (pending > 0) {\r\n                safeDragonBallTransfer(_user, pending);\r\n                user.rewardDebt = user.amount.mul(pool.accDragonBallPerShare).div(1e12);\r\n                emit Harvest(_user, _pid, pending);\r\n            }\r\n        }\r\n    }\r\n\r\n    function bulkHarvestFor(uint256[] calldata pidArray, address _user) external {\r\n        uint256 length = pidArray.length;\r\n        for (uint256 index = 0; index < length; ++index) {\r\n            uint256 _pid = pidArray[index];\r\n            harvestFor(_pid, _user);\r\n        }\r\n    }\r\n}\r\n",
  "sourcePath": "C:/Users/A-S-K/Desktop/Contracts/DragonBall-incubator/contracts/IncubatorChef.sol",
  "compiler": {
    "name": "solc",
    "version": "0.6.12+commit.27d51765.Emscripten.clang"
  },
  "schemaVersion": "3.3.4",
  "updatedAt": "2021-05-04T09:52:28.676Z",
  "devdoc": {
    "kind": "dev",
    "methods": {
      "owner()": {
        "details": "Returns the address of the current owner."
      },
      "renounceOwnership()": {
        "details": "Leaves the contract without owner. It will not be possible to call `onlyOwner` functions anymore. Can only be called by the current owner. NOTE: Renouncing ownership will leave the contract without an owner, thereby removing any functionality that is only available to the owner."
      },
      "transferOwnership(address)": {
        "details": "Transfers ownership of the contract to a new account (`newOwner`). Can only be called by the current owner."
      }
    },
    "version": 1
  },
  "userdoc": {
    "kind": "user",
    "methods": {},
    "version": 1
  }
}