{
  "contractName": "Helium3Token",
  "abi": [
    {
      "inputs": [
        {
          "internalType": "address",
          "name": "dev",
          "type": "address"
        }
      ],
      "stateMutability": "nonpayable",
      "type": "constructor"
    },
    {
      "anonymous": false,
      "inputs": [
        {
          "indexed": true,
          "internalType": "address",
          "name": "owner",
          "type": "address"
        },
        {
          "indexed": true,
          "internalType": "address",
          "name": "spender",
          "type": "address"
        },
        {
          "indexed": false,
          "internalType": "uint256",
          "name": "value",
          "type": "uint256"
        }
      ],
      "name": "Approval",
      "type": "event"
    },
    {
      "anonymous": false,
      "inputs": [
        {
          "indexed": true,
          "internalType": "address",
          "name": "operator",
          "type": "address"
        },
        {
          "indexed": false,
          "internalType": "uint256",
          "name": "previousRate",
          "type": "uint256"
        },
        {
          "indexed": false,
          "internalType": "uint256",
          "name": "newRate",
          "type": "uint256"
        }
      ],
      "name": "BurnRateUpdated",
      "type": "event"
    },
    {
      "anonymous": false,
      "inputs": [
        {
          "indexed": true,
          "internalType": "address",
          "name": "delegator",
          "type": "address"
        },
        {
          "indexed": true,
          "internalType": "address",
          "name": "fromDelegate",
          "type": "address"
        },
        {
          "indexed": true,
          "internalType": "address",
          "name": "toDelegate",
          "type": "address"
        }
      ],
      "name": "DelegateChanged",
      "type": "event"
    },
    {
      "anonymous": false,
      "inputs": [
        {
          "indexed": true,
          "internalType": "address",
          "name": "delegate",
          "type": "address"
        },
        {
          "indexed": false,
          "internalType": "uint256",
          "name": "previousBalance",
          "type": "uint256"
        },
        {
          "indexed": false,
          "internalType": "uint256",
          "name": "newBalance",
          "type": "uint256"
        }
      ],
      "name": "DelegateVotesChanged",
      "type": "event"
    },
    {
      "anonymous": false,
      "inputs": [
        {
          "indexed": true,
          "internalType": "address",
          "name": "operator",
          "type": "address"
        },
        {
          "indexed": false,
          "internalType": "address",
          "name": "previousDev",
          "type": "address"
        },
        {
          "indexed": false,
          "internalType": "address",
          "name": "newDev",
          "type": "address"
        }
      ],
      "name": "DevAddressUpdated",
      "type": "event"
    },
    {
      "anonymous": false,
      "inputs": [
        {
          "indexed": true,
          "internalType": "address",
          "name": "operator",
          "type": "address"
        },
        {
          "indexed": false,
          "internalType": "uint256",
          "name": "previousRate",
          "type": "uint256"
        },
        {
          "indexed": false,
          "internalType": "uint256",
          "name": "newRate",
          "type": "uint256"
        }
      ],
      "name": "DevRateUpdated",
      "type": "event"
    },
    {
      "anonymous": false,
      "inputs": [
        {
          "indexed": true,
          "internalType": "address",
          "name": "operator",
          "type": "address"
        },
        {
          "indexed": true,
          "internalType": "address",
          "name": "router",
          "type": "address"
        },
        {
          "indexed": true,
          "internalType": "address",
          "name": "pair",
          "type": "address"
        }
      ],
      "name": "Helium3RouterUpdated",
      "type": "event"
    },
    {
      "anonymous": false,
      "inputs": [
        {
          "indexed": true,
          "internalType": "address",
          "name": "operator",
          "type": "address"
        },
        {
          "indexed": false,
          "internalType": "uint256",
          "name": "previousRate",
          "type": "uint256"
        },
        {
          "indexed": false,
          "internalType": "uint256",
          "name": "newRate",
          "type": "uint256"
        }
      ],
      "name": "MaxTransferAmountRateUpdated",
      "type": "event"
    },
    {
      "anonymous": false,
      "inputs": [
        {
          "indexed": true,
          "internalType": "address",
          "name": "operator",
          "type": "address"
        },
        {
          "indexed": false,
          "internalType": "uint256",
          "name": "previousAmount",
          "type": "uint256"
        },
        {
          "indexed": false,
          "internalType": "uint256",
          "name": "newAmount",
          "type": "uint256"
        }
      ],
      "name": "MinAmountToLiquifyUpdated",
      "type": "event"
    },
    {
      "anonymous": false,
      "inputs": [
        {
          "indexed": true,
          "internalType": "address",
          "name": "previousOperator",
          "type": "address"
        },
        {
          "indexed": true,
          "internalType": "address",
          "name": "newOperator",
          "type": "address"
        }
      ],
      "name": "OperatorTransferred",
      "type": "event"
    },
    {
      "anonymous": false,
      "inputs": [
        {
          "indexed": true,
          "internalType": "address",
          "name": "previousOwner",
          "type": "address"
        },
        {
          "indexed": true,
          "internalType": "address",
          "name": "newOwner",
          "type": "address"
        }
      ],
      "name": "OwnershipTransferred",
      "type": "event"
    },
    {
      "anonymous": false,
      "inputs": [
        {
          "indexed": false,
          "internalType": "uint256",
          "name": "tokensSwapped",
          "type": "uint256"
        },
        {
          "indexed": false,
          "internalType": "uint256",
          "name": "ethReceived",
          "type": "uint256"
        },
        {
          "indexed": false,
          "internalType": "uint256",
          "name": "tokensIntoLiqudity",
          "type": "uint256"
        }
      ],
      "name": "SwapAndLiquify",
      "type": "event"
    },
    {
      "anonymous": false,
      "inputs": [
        {
          "indexed": true,
          "internalType": "address",
          "name": "operator",
          "type": "address"
        },
        {
          "indexed": false,
          "internalType": "bool",
          "name": "enabled",
          "type": "bool"
        }
      ],
      "name": "SwapAndLiquifyEnabledUpdated",
      "type": "event"
    },
    {
      "anonymous": false,
      "inputs": [
        {
          "indexed": true,
          "internalType": "address",
          "name": "from",
          "type": "address"
        },
        {
          "indexed": true,
          "internalType": "address",
          "name": "to",
          "type": "address"
        },
        {
          "indexed": false,
          "internalType": "uint256",
          "name": "value",
          "type": "uint256"
        }
      ],
      "name": "Transfer",
      "type": "event"
    },
    {
      "anonymous": false,
      "inputs": [
        {
          "indexed": true,
          "internalType": "address",
          "name": "operator",
          "type": "address"
        },
        {
          "indexed": false,
          "internalType": "uint256",
          "name": "previousRate",
          "type": "uint256"
        },
        {
          "indexed": false,
          "internalType": "uint256",
          "name": "newRate",
          "type": "uint256"
        }
      ],
      "name": "TransferTaxRateUpdated",
      "type": "event"
    },
    {
      "inputs": [],
      "name": "BURN_ADDRESS",
      "outputs": [
        {
          "internalType": "address",
          "name": "",
          "type": "address"
        }
      ],
      "stateMutability": "view",
      "type": "function"
    },
    {
      "inputs": [],
      "name": "DELEGATION_TYPEHASH",
      "outputs": [
        {
          "internalType": "bytes32",
          "name": "",
          "type": "bytes32"
        }
      ],
      "stateMutability": "view",
      "type": "function"
    },
    {
      "inputs": [],
      "name": "DOMAIN_TYPEHASH",
      "outputs": [
        {
          "internalType": "bytes32",
          "name": "",
          "type": "bytes32"
        }
      ],
      "stateMutability": "view",
      "type": "function"
    },
    {
      "inputs": [],
      "name": "Helium3Pair",
      "outputs": [
        {
          "internalType": "address",
          "name": "",
          "type": "address"
        }
      ],
      "stateMutability": "view",
      "type": "function"
    },
    {
      "inputs": [],
      "name": "Helium3Router",
      "outputs": [
        {
          "internalType": "contract IUniswapV2Router02",
          "name": "",
          "type": "address"
        }
      ],
      "stateMutability": "view",
      "type": "function"
    },
    {
      "inputs": [],
      "name": "MAXIMUM_TRANSFER_TAX_RATE",
      "outputs": [
        {
          "internalType": "uint16",
          "name": "",
          "type": "uint16"
        }
      ],
      "stateMutability": "view",
      "type": "function"
    },
    {
      "inputs": [
        {
          "internalType": "address",
          "name": "owner",
          "type": "address"
        },
        {
          "internalType": "address",
          "name": "spender",
          "type": "address"
        }
      ],
      "name": "allowance",
      "outputs": [
        {
          "internalType": "uint256",
          "name": "",
          "type": "uint256"
        }
      ],
      "stateMutability": "view",
      "type": "function"
    },
    {
      "inputs": [
        {
          "internalType": "address",
          "name": "spender",
          "type": "address"
        },
        {
          "internalType": "uint256",
          "name": "amount",
          "type": "uint256"
        }
      ],
      "name": "approve",
      "outputs": [
        {
          "internalType": "bool",
          "name": "",
          "type": "bool"
        }
      ],
      "stateMutability": "nonpayable",
      "type": "function"
    },
    {
      "inputs": [
        {
          "internalType": "address",
          "name": "account",
          "type": "address"
        }
      ],
      "name": "balanceOf",
      "outputs": [
        {
          "internalType": "uint256",
          "name": "",
          "type": "uint256"
        }
      ],
      "stateMutability": "view",
      "type": "function"
    },
    {
      "inputs": [],
      "name": "burnRate",
      "outputs": [
        {
          "internalType": "uint16",
          "name": "",
          "type": "uint16"
        }
      ],
      "stateMutability": "view",
      "type": "function"
    },
    {
      "inputs": [
        {
          "internalType": "address",
          "name": "",
          "type": "address"
        },
        {
          "internalType": "uint32",
          "name": "",
          "type": "uint32"
        }
      ],
      "name": "checkpoints",
      "outputs": [
        {
          "internalType": "uint32",
          "name": "fromBlock",
          "type": "uint32"
        },
        {
          "internalType": "uint256",
          "name": "votes",
          "type": "uint256"
        }
      ],
      "stateMutability": "view",
      "type": "function"
    },
    {
      "inputs": [],
      "name": "decimals",
      "outputs": [
        {
          "internalType": "uint8",
          "name": "",
          "type": "uint8"
        }
      ],
      "stateMutability": "view",
      "type": "function"
    },
    {
      "inputs": [
        {
          "internalType": "address",
          "name": "spender",
          "type": "address"
        },
        {
          "internalType": "uint256",
          "name": "subtractedValue",
          "type": "uint256"
        }
      ],
      "name": "decreaseAllowance",
      "outputs": [
        {
          "internalType": "bool",
          "name": "",
          "type": "bool"
        }
      ],
      "stateMutability": "nonpayable",
      "type": "function"
    },
    {
      "inputs": [],
      "name": "devAddress",
      "outputs": [
        {
          "internalType": "address",
          "name": "",
          "type": "address"
        }
      ],
      "stateMutability": "view",
      "type": "function"
    },
    {
      "inputs": [],
      "name": "devRate",
      "outputs": [
        {
          "internalType": "uint16",
          "name": "",
          "type": "uint16"
        }
      ],
      "stateMutability": "view",
      "type": "function"
    },
    {
      "inputs": [],
      "name": "getOwner",
      "outputs": [
        {
          "internalType": "address",
          "name": "",
          "type": "address"
        }
      ],
      "stateMutability": "view",
      "type": "function"
    },
    {
      "inputs": [
        {
          "internalType": "address",
          "name": "spender",
          "type": "address"
        },
        {
          "internalType": "uint256",
          "name": "addedValue",
          "type": "uint256"
        }
      ],
      "name": "increaseAllowance",
      "outputs": [
        {
          "internalType": "bool",
          "name": "",
          "type": "bool"
        }
      ],
      "stateMutability": "nonpayable",
      "type": "function"
    },
    {
      "inputs": [],
      "name": "maxTransferAmountRate",
      "outputs": [
        {
          "internalType": "uint16",
          "name": "",
          "type": "uint16"
        }
      ],
      "stateMutability": "view",
      "type": "function"
    },
    {
      "inputs": [],
      "name": "minAmountToLiquify",
      "outputs": [
        {
          "internalType": "uint256",
          "name": "",
          "type": "uint256"
        }
      ],
      "stateMutability": "view",
      "type": "function"
    },
    {
      "inputs": [],
      "name": "name",
      "outputs": [
        {
          "internalType": "string",
          "name": "",
          "type": "string"
        }
      ],
      "stateMutability": "view",
      "type": "function"
    },
    {
      "inputs": [
        {
          "internalType": "address",
          "name": "",
          "type": "address"
        }
      ],
      "name": "nonces",
      "outputs": [
        {
          "internalType": "uint256",
          "name": "",
          "type": "uint256"
        }
      ],
      "stateMutability": "view",
      "type": "function"
    },
    {
      "inputs": [
        {
          "internalType": "address",
          "name": "",
          "type": "address"
        }
      ],
      "name": "numCheckpoints",
      "outputs": [
        {
          "internalType": "uint32",
          "name": "",
          "type": "uint32"
        }
      ],
      "stateMutability": "view",
      "type": "function"
    },
    {
      "inputs": [],
      "name": "owner",
      "outputs": [
        {
          "internalType": "address",
          "name": "",
          "type": "address"
        }
      ],
      "stateMutability": "view",
      "type": "function"
    },
    {
      "inputs": [],
      "name": "renounceOwnership",
      "outputs": [],
      "stateMutability": "nonpayable",
      "type": "function"
    },
    {
      "inputs": [],
      "name": "swapAndLiquifyEnabled",
      "outputs": [
        {
          "internalType": "bool",
          "name": "",
          "type": "bool"
        }
      ],
      "stateMutability": "view",
      "type": "function"
    },
    {
      "inputs": [],
      "name": "symbol",
      "outputs": [
        {
          "internalType": "string",
          "name": "",
          "type": "string"
        }
      ],
      "stateMutability": "view",
      "type": "function"
    },
    {
      "inputs": [],
      "name": "totalSupply",
      "outputs": [
        {
          "internalType": "uint256",
          "name": "",
          "type": "uint256"
        }
      ],
      "stateMutability": "view",
      "type": "function"
    },
    {
      "inputs": [
        {
          "internalType": "address",
          "name": "recipient",
          "type": "address"
        },
        {
          "internalType": "uint256",
          "name": "amount",
          "type": "uint256"
        }
      ],
      "name": "transfer",
      "outputs": [
        {
          "internalType": "bool",
          "name": "",
          "type": "bool"
        }
      ],
      "stateMutability": "nonpayable",
      "type": "function"
    },
    {
      "inputs": [
        {
          "internalType": "address",
          "name": "sender",
          "type": "address"
        },
        {
          "internalType": "address",
          "name": "recipient",
          "type": "address"
        },
        {
          "internalType": "uint256",
          "name": "amount",
          "type": "uint256"
        }
      ],
      "name": "transferFrom",
      "outputs": [
        {
          "internalType": "bool",
          "name": "",
          "type": "bool"
        }
      ],
      "stateMutability": "nonpayable",
      "type": "function"
    },
    {
      "inputs": [
        {
          "internalType": "address",
          "name": "newOwner",
          "type": "address"
        }
      ],
      "name": "transferOwnership",
      "outputs": [],
      "stateMutability": "nonpayable",
      "type": "function"
    },
    {
      "inputs": [],
      "name": "transferTaxRate",
      "outputs": [
        {
          "internalType": "uint16",
          "name": "",
          "type": "uint16"
        }
      ],
      "stateMutability": "view",
      "type": "function"
    },
    {
      "stateMutability": "payable",
      "type": "receive"
    },
    {
      "inputs": [
        {
          "internalType": "address",
          "name": "_to",
          "type": "address"
        },
        {
          "internalType": "uint256",
          "name": "_amount",
          "type": "uint256"
        }
      ],
      "name": "mint",
      "outputs": [],
      "stateMutability": "nonpayable",
      "type": "function"
    },
    {
      "inputs": [
        {
          "internalType": "uint256",
          "name": "amount",
          "type": "uint256"
        }
      ],
      "name": "mint",
      "outputs": [
        {
          "internalType": "bool",
          "name": "",
          "type": "bool"
        }
      ],
      "stateMutability": "nonpayable",
      "type": "function"
    },
    {
      "inputs": [],
      "name": "maxTransferAmount",
      "outputs": [
        {
          "internalType": "uint256",
          "name": "",
          "type": "uint256"
        }
      ],
      "stateMutability": "view",
      "type": "function"
    },
    {
      "inputs": [
        {
          "internalType": "address",
          "name": "_account",
          "type": "address"
        }
      ],
      "name": "isExcludedFromAntiWhale",
      "outputs": [
        {
          "internalType": "bool",
          "name": "",
          "type": "bool"
        }
      ],
      "stateMutability": "view",
      "type": "function"
    },
    {
      "inputs": [
        {
          "internalType": "uint16",
          "name": "_transferTaxRate",
          "type": "uint16"
        }
      ],
      "name": "updateTransferTaxRate",
      "outputs": [],
      "stateMutability": "nonpayable",
      "type": "function"
    },
    {
      "inputs": [
        {
          "internalType": "uint16",
          "name": "_burnRate",
          "type": "uint16"
        }
      ],
      "name": "updateBurnRate",
      "outputs": [],
      "stateMutability": "nonpayable",
      "type": "function"
    },
    {
      "inputs": [
        {
          "internalType": "uint16",
          "name": "_devRate",
          "type": "uint16"
        }
      ],
      "name": "updateDevRate",
      "outputs": [],
      "stateMutability": "nonpayable",
      "type": "function"
    },
    {
      "inputs": [
        {
          "internalType": "address",
          "name": "dev",
          "type": "address"
        }
      ],
      "name": "updateDevAddress",
      "outputs": [],
      "stateMutability": "nonpayable",
      "type": "function"
    },
    {
      "inputs": [
        {
          "internalType": "uint16",
          "name": "_maxTransferAmountRate",
          "type": "uint16"
        }
      ],
      "name": "updateMaxTransferAmountRate",
      "outputs": [],
      "stateMutability": "nonpayable",
      "type": "function"
    },
    {
      "inputs": [
        {
          "internalType": "uint256",
          "name": "_minAmount",
          "type": "uint256"
        }
      ],
      "name": "updateMinAmountToLiquify",
      "outputs": [],
      "stateMutability": "nonpayable",
      "type": "function"
    },
    {
      "inputs": [
        {
          "internalType": "address",
          "name": "_account",
          "type": "address"
        },
        {
          "internalType": "bool",
          "name": "_excluded",
          "type": "bool"
        }
      ],
      "name": "setExcludedFromAntiWhale",
      "outputs": [],
      "stateMutability": "nonpayable",
      "type": "function"
    },
    {
      "inputs": [
        {
          "internalType": "bool",
          "name": "_enabled",
          "type": "bool"
        }
      ],
      "name": "updateSwapAndLiquifyEnabled",
      "outputs": [],
      "stateMutability": "nonpayable",
      "type": "function"
    },
    {
      "inputs": [
        {
          "internalType": "address",
          "name": "_router",
          "type": "address"
        }
      ],
      "name": "updateHelium3Router",
      "outputs": [],
      "stateMutability": "nonpayable",
      "type": "function"
    },
    {
      "inputs": [],
      "name": "operator",
      "outputs": [
        {
          "internalType": "address",
          "name": "",
          "type": "address"
        }
      ],
      "stateMutability": "view",
      "type": "function"
    },
    {
      "inputs": [
        {
          "internalType": "address",
          "name": "newOperator",
          "type": "address"
        }
      ],
      "name": "transferOperator",
      "outputs": [],
      "stateMutability": "nonpayable",
      "type": "function"
    },
    {
      "inputs": [
        {
          "internalType": "address",
          "name": "delegator",
          "type": "address"
        }
      ],
      "name": "delegates",
      "outputs": [
        {
          "internalType": "address",
          "name": "",
          "type": "address"
        }
      ],
      "stateMutability": "view",
      "type": "function"
    },
    {
      "inputs": [
        {
          "internalType": "address",
          "name": "delegatee",
          "type": "address"
        }
      ],
      "name": "delegate",
      "outputs": [],
      "stateMutability": "nonpayable",
      "type": "function"
    },
    {
      "inputs": [
        {
          "internalType": "address",
          "name": "delegatee",
          "type": "address"
        },
        {
          "internalType": "uint256",
          "name": "nonce",
          "type": "uint256"
        },
        {
          "internalType": "uint256",
          "name": "expiry",
          "type": "uint256"
        },
        {
          "internalType": "uint8",
          "name": "v",
          "type": "uint8"
        },
        {
          "internalType": "bytes32",
          "name": "r",
          "type": "bytes32"
        },
        {
          "internalType": "bytes32",
          "name": "s",
          "type": "bytes32"
        }
      ],
      "name": "delegateBySig",
      "outputs": [],
      "stateMutability": "nonpayable",
      "type": "function"
    },
    {
      "inputs": [
        {
          "internalType": "address",
          "name": "account",
          "type": "address"
        }
      ],
      "name": "getCurrentVotes",
      "outputs": [
        {
          "internalType": "uint256",
          "name": "",
          "type": "uint256"
        }
      ],
      "stateMutability": "view",
      "type": "function"
    },
    {
      "inputs": [
        {
          "internalType": "address",
          "name": "account",
          "type": "address"
        },
        {
          "internalType": "uint256",
          "name": "blockNumber",
          "type": "uint256"
        }
      ],
      "name": "getPriorVotes",
      "outputs": [
        {
          "internalType": "uint256",
          "name": "",
          "type": "uint256"
        }
      ],
      "stateMutability": "view",
      "type": "function"
    }
  ],
  "bytecode": "0x6080604052603c600660016101000a81548161ffff021916908361ffff160217905550600a600660036101000a81548161ffff021916908361ffff160217905550600a600660056101000a81548161ffff021916908361ffff16021790555060326006601b6101000a81548161ffff021916908361ffff1602179055506000600860006101000a81548160ff021916908315150217905550681b1ae4d6e2ef500000600955348015620000b157600080fd5b50604051620060023803806200600283398181016040526020811015620000d757600080fd5b81019080805190602001909291905050506040518060400160405280600881526020017f48656c69756d20330000000000000000000000000000000000000000000000008152506040518060400160405280600381526020017f48653300000000000000000000000000000000000000000000000000000000008152506000620001666200054560201b60201c565b9050806000806101000a81548173ffffffffffffffffffffffffffffffffffffffff021916908373ffffffffffffffffffffffffffffffffffffffff1602179055508073ffffffffffffffffffffffffffffffffffffffff16600073ffffffffffffffffffffffffffffffffffffffff167f8be0079c531659141344cd1fd0a4f28419497f9722a3daafe3b4186f6b6457e060405160405180910390a35081600490805190602001906200021c9291906200054d565b508060059080519060200190620002359291906200054d565b506012600660006101000a81548160ff021916908360ff1602179055505050620002646200054560201b60201c565b600c60006101000a81548173ffffffffffffffffffffffffffffffffffffffff021916908373ffffffffffffffffffffffffffffffffffffffff16021790555080600660076101000a81548173ffffffffffffffffffffffffffffffffffffffff021916908373ffffffffffffffffffffffffffffffffffffffff160217905550600c60009054906101000a900473ffffffffffffffffffffffffffffffffffffffff1673ffffffffffffffffffffffffffffffffffffffff16600073ffffffffffffffffffffffffffffffffffffffff167f74da04524d50c64947f5dd5381ef1a4dca5cba8ed1d816243f9e48aa0b5617ed60405160405180910390a36001600760003373ffffffffffffffffffffffffffffffffffffffff1673ffffffffffffffffffffffffffffffffffffffff16815260200190815260200160002060006101000a81548160ff0219169083151502179055506001600760008073ffffffffffffffffffffffffffffffffffffffff1673ffffffffffffffffffffffffffffffffffffffff16815260200190815260200160002060006101000a81548160ff0219169083151502179055506001600760003073ffffffffffffffffffffffffffffffffffffffff1673ffffffffffffffffffffffffffffffffffffffff16815260200190815260200160002060006101000a81548160ff02191690831515021790555060016007600061dead73ffffffffffffffffffffffffffffffffffffffff1673ffffffffffffffffffffffffffffffffffffffff16815260200190815260200160002060006101000a81548160ff021916908315150217905550600160076000600660079054906101000a900473ffffffffffffffffffffffffffffffffffffffff1673ffffffffffffffffffffffffffffffffffffffff1673ffffffffffffffffffffffffffffffffffffffff16815260200190815260200160002060006101000a81548160ff02191690831515021790555050620005f3565b600033905090565b828054600181600116156101000203166002900490600052602060002090601f016020900481019282601f106200059057805160ff1916838001178555620005c1565b82800160010185558215620005c1579182015b82811115620005c0578251825591602001919060010190620005a3565b5b509050620005d09190620005d4565b5090565b5b80821115620005ef576000816000905550600101620005d5565b5090565b6159ff80620006036000396000f3fe6080604052600436106102e85760003560e01c8063782d6fe111610190578063b4b5ea57116100dc578063d824835811610095578063f1127ed81161006f578063f1127ed81461119b578063f2fde38b1461121d578063f607f2b41461126e578063fccc2813146112ad576102ef565b8063d8248358146110c0578063dd62ed3e146110eb578063e7a324dc14611170576102ef565b8063b4b5ea5714610eeb578063b65d08b014610f50578063bed9985014610f7f578063c3cda52014610fae578063c7f59a6714611034578063c957497514611091576102ef565b80639f9a4e7f11610149578063a457c2d711610123578063a457c2d714610d8d578063a9059cbb14610dfe578063a9e7572314610e6f578063abf3f9f614610e9a576102ef565b80639f9a4e7f14610cc4578063a0712d6814610d01578063a392e67414610d52576102ef565b8063782d6fe114610a8d5780637ecebe0014610afc5780638503376214610b61578063893d20e814610bb25780638da5cb5b14610bf357806395d89b4114610c34576102ef565b8063376c23911161024f578063570ca735116102085780636a141e2c116101e25780636a141e2c146109675780636fcfff45146109a657806370a0823114610a11578063715018a614610a76576102ef565b8063570ca7351461085a578063587cde1e1461089b5780635c19a95c14610916576102ef565b8063376c2391146106b257806339509351146106f15780633ad10ef6146107625780633ff8bf2e146107a357806340c10f19146107d25780634a74bb021461082d576102ef565b806320606b70116102a157806320606b70146104d157806323b872dd146104fc578063261d042a1461058d578063269f534c146105cc57806329605e7714610633578063313ce56714610684576102ef565b806306fdde03146102f4578063095ea7b31461038457806310e31e00146103f5578063125f8ebc1461043657806318160ddd146104775780631ad9339a146104a2576102ef565b366102ef57005b600080fd5b34801561030057600080fd5b506103096112ee565b6040518080602001828103825283818151815260200191508051906020019080838360005b8381101561034957808201518184015260208101905061032e565b50505050905090810190601f1680156103765780820380516001836020036101000a031916815260200191505b509250505060405180910390f35b34801561039057600080fd5b506103dd600480360360408110156103a757600080fd5b81019080803573ffffffffffffffffffffffffffffffffffffffff16906020019092919080359060200190929190505050611390565b60405180821515815260200191505060405180910390f35b34801561040157600080fd5b5061040a6113ae565b604051808273ffffffffffffffffffffffffffffffffffffffff16815260200191505060405180910390f35b34801561044257600080fd5b5061044b6113d4565b604051808273ffffffffffffffffffffffffffffffffffffffff16815260200191505060405180910390f35b34801561048357600080fd5b5061048c6113fa565b6040518082815260200191505060405180910390f35b3480156104ae57600080fd5b506104b7611404565b604051808261ffff16815260200191505060405180910390f35b3480156104dd57600080fd5b506104e6611409565b6040518082815260200191505060405180910390f35b34801561050857600080fd5b506105756004803603606081101561051f57600080fd5b81019080803573ffffffffffffffffffffffffffffffffffffffff169060200190929190803573ffffffffffffffffffffffffffffffffffffffff1690602001909291908035906020019092919050505061142d565b60405180821515815260200191505060405180910390f35b34801561059957600080fd5b506105ca600480360360208110156105b057600080fd5b81019080803561ffff169060200190929190505050611506565b005b3480156105d857600080fd5b5061061b600480360360208110156105ef57600080fd5b81019080803573ffffffffffffffffffffffffffffffffffffffff169060200190929190505050611698565b60405180821515815260200191505060405180910390f35b34801561063f57600080fd5b506106826004803603602081101561065657600080fd5b81019080803573ffffffffffffffffffffffffffffffffffffffff1690602001909291905050506116ee565b005b34801561069057600080fd5b506106996118da565b604051808260ff16815260200191505060405180910390f35b3480156106be57600080fd5b506106ef600480360360208110156106d557600080fd5b81019080803561ffff1690602001909291905050506118f1565b005b3480156106fd57600080fd5b5061074a6004803603604081101561071457600080fd5b81019080803573ffffffffffffffffffffffffffffffffffffffff16906020019092919080359060200190929190505050611a87565b60405180821515815260200191505060405180910390f35b34801561076e57600080fd5b50610777611b3a565b604051808273ffffffffffffffffffffffffffffffffffffffff16815260200191505060405180910390f35b3480156107af57600080fd5b506107b8611b60565b604051808261ffff16815260200191505060405180910390f35b3480156107de57600080fd5b5061082b600480360360408110156107f557600080fd5b81019080803573ffffffffffffffffffffffffffffffffffffffff16906020019092919080359060200190929190505050611b74565b005b34801561083957600080fd5b50610842611c9c565b60405180821515815260200191505060405180910390f35b34801561086657600080fd5b5061086f611caf565b604051808273ffffffffffffffffffffffffffffffffffffffff16815260200191505060405180910390f35b3480156108a757600080fd5b506108ea600480360360208110156108be57600080fd5b81019080803573ffffffffffffffffffffffffffffffffffffffff169060200190929190505050611cd9565b604051808273ffffffffffffffffffffffffffffffffffffffff16815260200191505060405180910390f35b34801561092257600080fd5b506109656004803603602081101561093957600080fd5b81019080803573ffffffffffffffffffffffffffffffffffffffff169060200190929190505050611d42565b005b34801561097357600080fd5b506109a46004803603602081101561098a57600080fd5b81019080803561ffff169060200190929190505050611d4f565b005b3480156109b257600080fd5b506109f5600480360360208110156109c957600080fd5b81019080803573ffffffffffffffffffffffffffffffffffffffff169060200190929190505050611ee2565b604051808263ffffffff16815260200191505060405180910390f35b348015610a1d57600080fd5b50610a6060048036036020811015610a3457600080fd5b81019080803573ffffffffffffffffffffffffffffffffffffffff169060200190929190505050611f05565b6040518082815260200191505060405180910390f35b348015610a8257600080fd5b50610a8b611f4e565b005b348015610a9957600080fd5b50610ae660048036036040811015610ab057600080fd5b81019080803573ffffffffffffffffffffffffffffffffffffffff169060200190929190803590602001909291905050506120bb565b6040518082815260200191505060405180910390f35b348015610b0857600080fd5b50610b4b60048036036020811015610b1f57600080fd5b81019080803573ffffffffffffffffffffffffffffffffffffffff16906020019092919050505061247c565b6040518082815260200191505060405180910390f35b348015610b6d57600080fd5b50610bb060048036036020811015610b8457600080fd5b81019080803573ffffffffffffffffffffffffffffffffffffffff169060200190929190505050612494565b005b348015610bbe57600080fd5b50610bc7612622565b604051808273ffffffffffffffffffffffffffffffffffffffff16815260200191505060405180910390f35b348015610bff57600080fd5b50610c08612631565b604051808273ffffffffffffffffffffffffffffffffffffffff16815260200191505060405180910390f35b348015610c4057600080fd5b50610c4961265a565b6040518080602001828103825283818151815260200191508051906020019080838360005b83811015610c89578082015181840152602081019050610c6e565b50505050905090810190601f168015610cb65780820380516001836020036101000a031916815260200191505b509250505060405180910390f35b348015610cd057600080fd5b50610cff60048036036020811015610ce757600080fd5b810190808035151590602001909291905050506126fc565b005b348015610d0d57600080fd5b50610d3a60048036036020811015610d2457600080fd5b810190808035906020019092919050505061280f565b60405180821515815260200191505060405180910390f35b348015610d5e57600080fd5b50610d8b60048036036020811015610d7557600080fd5b81019080803590602001909291905050506128da565b005b348015610d9957600080fd5b50610de660048036036040811015610db057600080fd5b81019080803573ffffffffffffffffffffffffffffffffffffffff169060200190929190803590602001909291905050506129e2565b60405180821515815260200191505060405180910390f35b348015610e0a57600080fd5b50610e5760048036036040811015610e2157600080fd5b81019080803573ffffffffffffffffffffffffffffffffffffffff16906020019092919080359060200190929190505050612aaf565b60405180821515815260200191505060405180910390f35b348015610e7b57600080fd5b50610e84612acd565b6040518082815260200191505060405180910390f35b348015610ea657600080fd5b50610ee960048036036020811015610ebd57600080fd5b81019080803573ffffffffffffffffffffffffffffffffffffffff169060200190929190505050612b16565b005b348015610ef757600080fd5b50610f3a60048036036020811015610f0e57600080fd5b81019080803573ffffffffffffffffffffffffffffffffffffffff169060200190929190505050612fa1565b6040518082815260200191505060405180910390f35b348015610f5c57600080fd5b50610f65613077565b604051808261ffff16815260200191505060405180910390f35b348015610f8b57600080fd5b50610f9461308b565b604051808261ffff16815260200191505060405180910390f35b348015610fba57600080fd5b50611032600480360360c0811015610fd157600080fd5b81019080803573ffffffffffffffffffffffffffffffffffffffff1690602001909291908035906020019092919080359060200190929190803560ff169060200190929190803590602001909291908035906020019092919050505061309f565b005b34801561104057600080fd5b5061108f6004803603604081101561105757600080fd5b81019080803573ffffffffffffffffffffffffffffffffffffffff169060200190929190803515159060200190929190505050613403565b005b34801561109d57600080fd5b506110a6613504565b604051808261ffff16815260200191505060405180910390f35b3480156110cc57600080fd5b506110d5613518565b6040518082815260200191505060405180910390f35b3480156110f757600080fd5b5061115a6004803603604081101561110e57600080fd5b81019080803573ffffffffffffffffffffffffffffffffffffffff169060200190929190803573ffffffffffffffffffffffffffffffffffffffff16906020019092919050505061351e565b6040518082815260200191505060405180910390f35b34801561117c57600080fd5b506111856135a5565b6040518082815260200191505060405180910390f35b3480156111a757600080fd5b506111fa600480360360408110156111be57600080fd5b81019080803573ffffffffffffffffffffffffffffffffffffffff169060200190929190803563ffffffff1690602001909291905050506135c9565b604051808363ffffffff1681526020018281526020019250505060405180910390f35b34801561122957600080fd5b5061126c6004803603602081101561124057600080fd5b81019080803573ffffffffffffffffffffffffffffffffffffffff16906020019092919050505061360a565b005b34801561127a57600080fd5b506112ab6004803603602081101561129157600080fd5b81019080803561ffff1690602001909291905050506137fc565b005b3480156112b957600080fd5b506112c261398e565b604051808273ffffffffffffffffffffffffffffffffffffffff16815260200191505060405180910390f35b606060048054600181600116156101000203166002900480601f0160208091040260200160405190810160405280929190818152602001828054600181600116156101000203166002900480156113865780601f1061135b57610100808354040283529160200191611386565b820191906000526020600020905b81548152906001019060200180831161136957829003601f168201915b5050505050905090565b60006113a461139d613994565b848461399c565b6001905092915050565b600a60009054906101000a900473ffffffffffffffffffffffffffffffffffffffff1681565b600b60009054906101000a900473ffffffffffffffffffffffffffffffffffffffff1681565b6000600354905090565b606481565b7f8cad95687ba82c2ce50e74f7b754645e5117c3a5bec8151c0726d5857980a86681565b600061143a848484613b93565b6114fb84611446613994565b6114f68560405180606001604052806028815260200161575f60289139600260008b73ffffffffffffffffffffffffffffffffffffffff1673ffffffffffffffffffffffffffffffffffffffff16815260200190815260200160002060006114ac613994565b73ffffffffffffffffffffffffffffffffffffffff1673ffffffffffffffffffffffffffffffffffffffff168152602001908152602001600020546141069092919063ffffffff16565b61399c565b600190509392505050565b3373ffffffffffffffffffffffffffffffffffffffff16600c60009054906101000a900473ffffffffffffffffffffffffffffffffffffffff1673ffffffffffffffffffffffffffffffffffffffff16146115ac576040517f08c379a00000000000000000000000000000000000000000000000000000000081526004018080602001828103825260248152602001806157cd6024913960400191505060405180910390fd5b60648161ffff16111561160a576040517f08c379a000000000000000000000000000000000000000000000000000000000815260040180806020018281038252604281526020018061561b6042913960600191505060405180910390fd5b3373ffffffffffffffffffffffffffffffffffffffff167f0bb39ecfe00f0a77c52eff5064d4ba6cb03f19e1385d8907fb1e62ce9e39eec7600660059054906101000a900461ffff1683604051808361ffff1681526020018261ffff1681526020019250505060405180910390a280600660056101000a81548161ffff021916908361ffff16021790555050565b6000600760008373ffffffffffffffffffffffffffffffffffffffff1673ffffffffffffffffffffffffffffffffffffffff16815260200190815260200160002060009054906101000a900460ff169050919050565b3373ffffffffffffffffffffffffffffffffffffffff16600c60009054906101000a900473ffffffffffffffffffffffffffffffffffffffff1673ffffffffffffffffffffffffffffffffffffffff1614611794576040517f08c379a00000000000000000000000000000000000000000000000000000000081526004018080602001828103825260248152602001806157cd6024913960400191505060405180910390fd5b600073ffffffffffffffffffffffffffffffffffffffff168173ffffffffffffffffffffffffffffffffffffffff16141561181a576040517f08c379a000000000000000000000000000000000000000000000000000000000815260040180806020018281038252603b81526020018061598f603b913960400191505060405180910390fd5b8073ffffffffffffffffffffffffffffffffffffffff16600c60009054906101000a900473ffffffffffffffffffffffffffffffffffffffff1673ffffffffffffffffffffffffffffffffffffffff167f74da04524d50c64947f5dd5381ef1a4dca5cba8ed1d816243f9e48aa0b5617ed60405160405180910390a380600c60006101000a81548173ffffffffffffffffffffffffffffffffffffffff021916908373ffffffffffffffffffffffffffffffffffffffff16021790555050565b6000600660009054906101000a900460ff16905090565b3373ffffffffffffffffffffffffffffffffffffffff16600c60009054906101000a900473ffffffffffffffffffffffffffffffffffffffff1673ffffffffffffffffffffffffffffffffffffffff1614611997576040517f08c379a00000000000000000000000000000000000000000000000000000000081526004018080602001828103825260248152602001806157cd6024913960400191505060405180910390fd5b606461ffff168161ffff1611156119f9576040517f08c379a000000000000000000000000000000000000000000000000000000000815260040180806020018281038252605381526020018061557f6053913960600191505060405180910390fd5b3373ffffffffffffffffffffffffffffffffffffffff167fe9d5c8ee2a65d4fb859c680669d8f902172d53e3f15f9f11108a31bbada4b70b600660019054906101000a900461ffff1683604051808361ffff1681526020018261ffff1681526020019250505060405180910390a280600660016101000a81548161ffff021916908361ffff16021790555050565b6000611b30611a94613994565b84611b2b8560026000611aa5613994565b73ffffffffffffffffffffffffffffffffffffffff1673ffffffffffffffffffffffffffffffffffffffff16815260200190815260200160002060008973ffffffffffffffffffffffffffffffffffffffff1673ffffffffffffffffffffffffffffffffffffffff168152602001908152602001600020546141c090919063ffffffff16565b61399c565b6001905092915050565b600660079054906101000a900473ffffffffffffffffffffffffffffffffffffffff1681565b6006601b9054906101000a900461ffff1681565b611b7c613994565b73ffffffffffffffffffffffffffffffffffffffff16611b9a612631565b73ffffffffffffffffffffffffffffffffffffffff1614611c23576040517f08c379a00000000000000000000000000000000000000000000000000000000081526004018080602001828103825260208152602001807f4f776e61626c653a2063616c6c6572206973206e6f7420746865206f776e657281525060200191505060405180910390fd5b611c2d8282614248565b611c986000600d60008573ffffffffffffffffffffffffffffffffffffffff1673ffffffffffffffffffffffffffffffffffffffff16815260200190815260200160002060009054906101000a900473ffffffffffffffffffffffffffffffffffffffff1683614405565b5050565b600860009054906101000a900460ff1681565b6000600c60009054906101000a900473ffffffffffffffffffffffffffffffffffffffff16905090565b6000600d60008373ffffffffffffffffffffffffffffffffffffffff1673ffffffffffffffffffffffffffffffffffffffff16815260200190815260200160002060009054906101000a900473ffffffffffffffffffffffffffffffffffffffff169050919050565b611d4c33826146a2565b50565b3373ffffffffffffffffffffffffffffffffffffffff16600c60009054906101000a900473ffffffffffffffffffffffffffffffffffffffff1673ffffffffffffffffffffffffffffffffffffffff1614611df5576040517f08c379a00000000000000000000000000000000000000000000000000000000081526004018080602001828103825260248152602001806157cd6024913960400191505060405180910390fd5b6127108161ffff161115611e54576040517f08c379a000000000000000000000000000000000000000000000000000000000815260040180806020018281038252606081526020018061592f6060913960600191505060405180910390fd5b3373ffffffffffffffffffffffffffffffffffffffff167fb62a50fc861a770636e85357becb3b82a32e911106609d4985871eaf29011e086006601b9054906101000a900461ffff1683604051808361ffff1681526020018261ffff1681526020019250505060405180910390a2806006601b6101000a81548161ffff021916908361ffff16021790555050565b600f6020528060005260406000206000915054906101000a900463ffffffff1681565b6000600160008373ffffffffffffffffffffffffffffffffffffffff1673ffffffffffffffffffffffffffffffffffffffff168152602001908152602001600020549050919050565b611f56613994565b73ffffffffffffffffffffffffffffffffffffffff16611f74612631565b73ffffffffffffffffffffffffffffffffffffffff1614611ffd576040517f08c379a00000000000000000000000000000000000000000000000000000000081526004018080602001828103825260208152602001807f4f776e61626c653a2063616c6c6572206973206e6f7420746865206f776e657281525060200191505060405180910390fd5b600073ffffffffffffffffffffffffffffffffffffffff1660008054906101000a900473ffffffffffffffffffffffffffffffffffffffff1673ffffffffffffffffffffffffffffffffffffffff167f8be0079c531659141344cd1fd0a4f28419497f9722a3daafe3b4186f6b6457e060405160405180910390a360008060006101000a81548173ffffffffffffffffffffffffffffffffffffffff021916908373ffffffffffffffffffffffffffffffffffffffff160217905550565b6000438210612115576040517f08c379a000000000000000000000000000000000000000000000000000000000815260040180806020018281038252602a815260200180615555602a913960400191505060405180910390fd5b6000600f60008573ffffffffffffffffffffffffffffffffffffffff1673ffffffffffffffffffffffffffffffffffffffff16815260200190815260200160002060009054906101000a900463ffffffff16905060008163ffffffff161415612182576000915050612476565b82600e60008673ffffffffffffffffffffffffffffffffffffffff1673ffffffffffffffffffffffffffffffffffffffff16815260200190815260200160002060006001840363ffffffff1663ffffffff16815260200190815260200160002060000160009054906101000a900463ffffffff1663ffffffff161161226c57600e60008573ffffffffffffffffffffffffffffffffffffffff1673ffffffffffffffffffffffffffffffffffffffff16815260200190815260200160002060006001830363ffffffff1663ffffffff16815260200190815260200160002060010154915050612476565b82600e60008673ffffffffffffffffffffffffffffffffffffffff1673ffffffffffffffffffffffffffffffffffffffff16815260200190815260200160002060008063ffffffff16815260200190815260200160002060000160009054906101000a900463ffffffff1663ffffffff1611156122ed576000915050612476565b6000806001830390505b8163ffffffff168163ffffffff161115612410576000600283830363ffffffff168161231f57fe5b048203905061232c615534565b600e60008973ffffffffffffffffffffffffffffffffffffffff1673ffffffffffffffffffffffffffffffffffffffff16815260200190815260200160002060008363ffffffff1663ffffffff1681526020019081526020016000206040518060400160405290816000820160009054906101000a900463ffffffff1663ffffffff1663ffffffff168152602001600182015481525050905086816000015163ffffffff1614156123e857806020015195505050505050612476565b86816000015163ffffffff16101561240257819350612409565b6001820392505b50506122f7565b600e60008773ffffffffffffffffffffffffffffffffffffffff1673ffffffffffffffffffffffffffffffffffffffff16815260200190815260200160002060008363ffffffff1663ffffffff1681526020019081526020016000206001015493505050505b92915050565b60106020528060005260406000206000915090505481565b3373ffffffffffffffffffffffffffffffffffffffff16600c60009054906101000a900473ffffffffffffffffffffffffffffffffffffffff1673ffffffffffffffffffffffffffffffffffffffff161461253a576040517f08c379a00000000000000000000000000000000000000000000000000000000081526004018080602001828103825260248152602001806157cd6024913960400191505060405180910390fd5b3373ffffffffffffffffffffffffffffffffffffffff167fade904e92fd577780949e68ddd97f8a580711c5d684852b065272a32485d18ae600660079054906101000a900473ffffffffffffffffffffffffffffffffffffffff1683604051808373ffffffffffffffffffffffffffffffffffffffff1681526020018273ffffffffffffffffffffffffffffffffffffffff1681526020019250505060405180910390a280600660076101000a81548173ffffffffffffffffffffffffffffffffffffffff021916908373ffffffffffffffffffffffffffffffffffffffff16021790555050565b600061262c612631565b905090565b60008060009054906101000a900473ffffffffffffffffffffffffffffffffffffffff16905090565b606060058054600181600116156101000203166002900480601f0160208091040260200160405190810160405280929190818152602001828054600181600116156101000203166002900480156126f25780601f106126c7576101008083540402835291602001916126f2565b820191906000526020600020905b8154815290600101906020018083116126d557829003601f168201915b5050505050905090565b3373ffffffffffffffffffffffffffffffffffffffff16600c60009054906101000a900473ffffffffffffffffffffffffffffffffffffffff1673ffffffffffffffffffffffffffffffffffffffff16146127a2576040517f08c379a00000000000000000000000000000000000000000000000000000000081526004018080602001828103825260248152602001806157cd6024913960400191505060405180910390fd5b3373ffffffffffffffffffffffffffffffffffffffff167f3ca65588b29182880283bc8778fea5f01b351e01d874839a39a99e1c281a21138260405180821515815260200191505060405180910390a280600860006101000a81548160ff02191690831515021790555050565b6000612819613994565b73ffffffffffffffffffffffffffffffffffffffff16612837612631565b73ffffffffffffffffffffffffffffffffffffffff16146128c0576040517f08c379a00000000000000000000000000000000000000000000000000000000081526004018080602001828103825260208152602001807f4f776e61626c653a2063616c6c6572206973206e6f7420746865206f776e657281525060200191505060405180910390fd5b6128d16128cb613994565b83614248565b60019050919050565b3373ffffffffffffffffffffffffffffffffffffffff16600c60009054906101000a900473ffffffffffffffffffffffffffffffffffffffff1673ffffffffffffffffffffffffffffffffffffffff1614612980576040517f08c379a00000000000000000000000000000000000000000000000000000000081526004018080602001828103825260248152602001806157cd6024913960400191505060405180910390fd5b3373ffffffffffffffffffffffffffffffffffffffff167f54c7a13ff01698e4ed3550a23216585f8472c7b1515a932eac98c9a6d48990c560095483604051808381526020018281526020019250505060405180910390a28060098190555050565b6000612aa56129ef613994565b84612aa08560405180606001604052806025815260200161583a6025913960026000612a19613994565b73ffffffffffffffffffffffffffffffffffffffff1673ffffffffffffffffffffffffffffffffffffffff16815260200190815260200160002060008a73ffffffffffffffffffffffffffffffffffffffff1673ffffffffffffffffffffffffffffffffffffffff168152602001908152602001600020546141069092919063ffffffff16565b61399c565b6001905092915050565b6000612ac3612abc613994565b8484613b93565b6001905092915050565b6000612b11612710612b036006601b9054906101000a900461ffff1661ffff16612af56113fa565b61481390919063ffffffff16565b61489990919063ffffffff16565b905090565b3373ffffffffffffffffffffffffffffffffffffffff16600c60009054906101000a900473ffffffffffffffffffffffffffffffffffffffff1673ffffffffffffffffffffffffffffffffffffffff1614612bbc576040517f08c379a00000000000000000000000000000000000000000000000000000000081526004018080602001828103825260248152602001806157cd6024913960400191505060405180910390fd5b80600a60006101000a81548173ffffffffffffffffffffffffffffffffffffffff021916908373ffffffffffffffffffffffffffffffffffffffff160217905550600a60009054906101000a900473ffffffffffffffffffffffffffffffffffffffff1673ffffffffffffffffffffffffffffffffffffffff1663c45a01556040518163ffffffff1660e01b815260040160206040518083038186803b158015612c6557600080fd5b505afa158015612c79573d6000803e3d6000fd5b505050506040513d6020811015612c8f57600080fd5b810190808051906020019092919050505073ffffffffffffffffffffffffffffffffffffffff1663e6a4390530600a60009054906101000a900473ffffffffffffffffffffffffffffffffffffffff1673ffffffffffffffffffffffffffffffffffffffff1663ad5c46486040518163ffffffff1660e01b815260040160206040518083038186803b158015612d2457600080fd5b505afa158015612d38573d6000803e3d6000fd5b505050506040513d6020811015612d4e57600080fd5b81019080805190602001909291905050506040518363ffffffff1660e01b8152600401808373ffffffffffffffffffffffffffffffffffffffff1681526020018273ffffffffffffffffffffffffffffffffffffffff1681526020019250505060206040518083038186803b158015612dc657600080fd5b505afa158015612dda573d6000803e3d6000fd5b505050506040513d6020811015612df057600080fd5b8101908080519060200190929190505050600b60006101000a81548173ffffffffffffffffffffffffffffffffffffffff021916908373ffffffffffffffffffffffffffffffffffffffff160217905550600073ffffffffffffffffffffffffffffffffffffffff16600b60009054906101000a900473ffffffffffffffffffffffffffffffffffffffff1673ffffffffffffffffffffffffffffffffffffffff161415612ee9576040517f08c379a00000000000000000000000000000000000000000000000000000000081526004018080602001828103825260338152602001806157076033913960400191505060405180910390fd5b600b60009054906101000a900473ffffffffffffffffffffffffffffffffffffffff1673ffffffffffffffffffffffffffffffffffffffff16600a60009054906101000a900473ffffffffffffffffffffffffffffffffffffffff1673ffffffffffffffffffffffffffffffffffffffff163373ffffffffffffffffffffffffffffffffffffffff167ff8d785885430bc4f2ac2e6a5eed72c201233d5cc812876f7f71601d5085de43460405160405180910390a450565b600080600f60008473ffffffffffffffffffffffffffffffffffffffff1673ffffffffffffffffffffffffffffffffffffffff16815260200190815260200160002060009054906101000a900463ffffffff16905060008163ffffffff161161300b57600061306f565b600e60008473ffffffffffffffffffffffffffffffffffffffff1673ffffffffffffffffffffffffffffffffffffffff16815260200190815260200160002060006001830363ffffffff1663ffffffff168152602001908152602001600020600101545b915050919050565b600660019054906101000a900461ffff1681565b600660039054906101000a900461ffff1681565b60007f8cad95687ba82c2ce50e74f7b754645e5117c3a5bec8151c0726d5857980a8666130ca6112ee565b805190602001206130d9614922565b30604051602001808581526020018481526020018381526020018273ffffffffffffffffffffffffffffffffffffffff16815260200194505050505060405160208183030381529060405280519060200120905060007fe48329057bfd03d55e49b547132e39cffd9c1820ad7b9d4c5307691425d15adf888888604051602001808581526020018473ffffffffffffffffffffffffffffffffffffffff1681526020018381526020018281526020019450505050506040516020818303038152906040528051906020012090506000828260405160200180807f190100000000000000000000000000000000000000000000000000000000000081525060020183815260200182815260200192505050604051602081830303815290604052805190602001209050600060018288888860405160008152602001604052604051808581526020018460ff1681526020018381526020018281526020019450505050506020604051602081039080840390855afa15801561325d573d6000803e3d6000fd5b505050602060405103519050600073ffffffffffffffffffffffffffffffffffffffff168173ffffffffffffffffffffffffffffffffffffffff1614156132ef576040517f08c379a00000000000000000000000000000000000000000000000000000000081526004018080602001828103825260298152602001806156de6029913960400191505060405180910390fd5b601060008273ffffffffffffffffffffffffffffffffffffffff1673ffffffffffffffffffffffffffffffffffffffff1681526020019081526020016000206000815480929190600101919050558914613394576040517f08c379a00000000000000000000000000000000000000000000000000000000081526004018080602001828103825260258152602001806157876025913960400191505060405180910390fd5b874211156133ed576040517f08c379a00000000000000000000000000000000000000000000000000000000081526004018080602001828103825260298152602001806158e46029913960400191505060405180910390fd5b6133f7818b6146a2565b50505050505050505050565b3373ffffffffffffffffffffffffffffffffffffffff16600c60009054906101000a900473ffffffffffffffffffffffffffffffffffffffff1673ffffffffffffffffffffffffffffffffffffffff16146134a9576040517f08c379a00000000000000000000000000000000000000000000000000000000081526004018080602001828103825260248152602001806157cd6024913960400191505060405180910390fd5b80600760008473ffffffffffffffffffffffffffffffffffffffff1673ffffffffffffffffffffffffffffffffffffffff16815260200190815260200160002060006101000a81548160ff0219169083151502179055505050565b600660059054906101000a900461ffff1681565b60095481565b6000600260008473ffffffffffffffffffffffffffffffffffffffff1673ffffffffffffffffffffffffffffffffffffffff16815260200190815260200160002060008373ffffffffffffffffffffffffffffffffffffffff1673ffffffffffffffffffffffffffffffffffffffff16815260200190815260200160002054905092915050565b7fe48329057bfd03d55e49b547132e39cffd9c1820ad7b9d4c5307691425d15adf81565b600e602052816000526040600020602052806000526040600020600091509150508060000160009054906101000a900463ffffffff16908060010154905082565b613612613994565b73ffffffffffffffffffffffffffffffffffffffff16613630612631565b73ffffffffffffffffffffffffffffffffffffffff16146136b9576040517f08c379a00000000000000000000000000000000000000000000000000000000081526004018080602001828103825260208152602001807f4f776e61626c653a2063616c6c6572206973206e6f7420746865206f776e657281525060200191505060405180910390fd5b600073ffffffffffffffffffffffffffffffffffffffff168173ffffffffffffffffffffffffffffffffffffffff16141561373f576040517f08c379a000000000000000000000000000000000000000000000000000000000815260040180806020018281038252602681526020018061565d6026913960400191505060405180910390fd5b8073ffffffffffffffffffffffffffffffffffffffff1660008054906101000a900473ffffffffffffffffffffffffffffffffffffffff1673ffffffffffffffffffffffffffffffffffffffff167f8be0079c531659141344cd1fd0a4f28419497f9722a3daafe3b4186f6b6457e060405160405180910390a3806000806101000a81548173ffffffffffffffffffffffffffffffffffffffff021916908373ffffffffffffffffffffffffffffffffffffffff16021790555050565b3373ffffffffffffffffffffffffffffffffffffffff16600c60009054906101000a900473ffffffffffffffffffffffffffffffffffffffff1673ffffffffffffffffffffffffffffffffffffffff16146138a2576040517f08c379a00000000000000000000000000000000000000000000000000000000081526004018080602001828103825260248152602001806157cd6024913960400191505060405180910390fd5b60648161ffff161115613900576040517f08c379a000000000000000000000000000000000000000000000000000000000815260040180806020018281038252604481526020018061585f6044913960600191505060405180910390fd5b3373ffffffffffffffffffffffffffffffffffffffff167f3eec69630b6f49d4e10eec296fce4baddec5f34c5430fb2cd72f8c4218f63fd0600660039054906101000a900461ffff1683604051808361ffff1681526020018261ffff1681526020019250505060405180910390a280600660036101000a81548161ffff021916908361ffff16021790555050565b61dead81565b600033905090565b600073ffffffffffffffffffffffffffffffffffffffff168373ffffffffffffffffffffffffffffffffffffffff161415613a22576040517f08c379a00000000000000000000000000000000000000000000000000000000081526004018080602001828103825260248152602001806155f76024913960400191505060405180910390fd5b600073ffffffffffffffffffffffffffffffffffffffff168273ffffffffffffffffffffffffffffffffffffffff161415613aa8576040517f08c379a000000000000000000000000000000000000000000000000000000000815260040180806020018281038252602281526020018061590d6022913960400191505060405180910390fd5b80600260008573ffffffffffffffffffffffffffffffffffffffff1673ffffffffffffffffffffffffffffffffffffffff16815260200190815260200160002060008473ffffffffffffffffffffffffffffffffffffffff1673ffffffffffffffffffffffffffffffffffffffff168152602001908152602001600020819055508173ffffffffffffffffffffffffffffffffffffffff168373ffffffffffffffffffffffffffffffffffffffff167f8c5be1e5ebec7d5bd14f71427d1e84f3dd0314c0f7b2291e5b200ac8c7c3b925836040518082815260200191505060405180910390a3505050565b8282826000613ba0612acd565b1115613cbd5760001515600760008573ffffffffffffffffffffffffffffffffffffffff1673ffffffffffffffffffffffffffffffffffffffff16815260200190815260200160002060009054906101000a900460ff161515148015613c56575060001515600760008473ffffffffffffffffffffffffffffffffffffffff1673ffffffffffffffffffffffffffffffffffffffff16815260200190815260200160002060009054906101000a900460ff161515145b15613cbc57613c63612acd565b811115613cbb576040517f08c379a00000000000000000000000000000000000000000000000000000000081526004018080602001828103825260418152602001806158a36041913960600191505060405180910390fd5b5b5b60011515600860009054906101000a900460ff161515148015613cf3575060001515600b60149054906101000a900460ff161515145b8015613d4e5750600073ffffffffffffffffffffffffffffffffffffffff16600a60009054906101000a900473ffffffffffffffffffffffffffffffffffffffff1673ffffffffffffffffffffffffffffffffffffffff1614155b8015613da95750600073ffffffffffffffffffffffffffffffffffffffff16600b60009054906101000a900473ffffffffffffffffffffffffffffffffffffffff1673ffffffffffffffffffffffffffffffffffffffff1614155b8015613e035750600b60009054906101000a900473ffffffffffffffffffffffffffffffffffffffff1673ffffffffffffffffffffffffffffffffffffffff168673ffffffffffffffffffffffffffffffffffffffff1614155b8015613e425750613e12612631565b73ffffffffffffffffffffffffffffffffffffffff168673ffffffffffffffffffffffffffffffffffffffff1614155b15613e5057613e4f61492f565b5b61dead73ffffffffffffffffffffffffffffffffffffffff168573ffffffffffffffffffffffffffffffffffffffff161480613ea057506000600660019054906101000a900461ffff1661ffff16145b80613edd5750613eae612631565b73ffffffffffffffffffffffffffffffffffffffff168573ffffffffffffffffffffffffffffffffffffffff16145b15613ef257613eed868686614a9f565b6140fe565b6000613f2f6103e8613f21600660019054906101000a900461ffff1661ffff168861481390919063ffffffff16565b61489990919063ffffffff16565b90506000613f6e6103e8613f60600660039054906101000a900461ffff1661ffff168961481390919063ffffffff16565b61489990919063ffffffff16565b90506000613fad6103e8613f9f600660059054906101000a900461ffff1661ffff168a61481390919063ffffffff16565b61489990919063ffffffff16565b90506000613fd682613fc88587614d5990919063ffffffff16565b614d5990919063ffffffff16565b905081818401018414614034576040517f08c379a000000000000000000000000000000000000000000000000000000000815260040180806020018281038252602581526020018061573a6025913960400191505060405180910390fd5b6000614049858a614d5990919063ffffffff16565b905084810189146140a5576040517f08c379a00000000000000000000000000000000000000000000000000000000081526004018080602001828103825260248152602001806156ba6024913960400191505060405180910390fd5b6140b28b61dead86614a9f565b6140bd8b3084614a9f565b6140ea8b600660079054906101000a900473ffffffffffffffffffffffffffffffffffffffff1685614a9f565b6140f58b8b83614a9f565b80985050505050505b505050505050565b60008383111582906141b3576040517f08c379a00000000000000000000000000000000000000000000000000000000081526004018080602001828103825283818151815260200191508051906020019080838360005b8381101561417857808201518184015260208101905061415d565b50505050905090810190601f1680156141a55780820380516001836020036101000a031916815260200191505b509250505060405180910390fd5b5082840390509392505050565b60008082840190508381101561423e576040517f08c379a000000000000000000000000000000000000000000000000000000000815260040180806020018281038252601b8152602001807f536166654d6174683a206164646974696f6e206f766572666c6f77000000000081525060200191505060405180910390fd5b8091505092915050565b600073ffffffffffffffffffffffffffffffffffffffff168273ffffffffffffffffffffffffffffffffffffffff1614156142eb576040517f08c379a000000000000000000000000000000000000000000000000000000000815260040180806020018281038252601f8152602001807f42455032303a206d696e7420746f20746865207a65726f20616464726573730081525060200191505060405180910390fd5b614300816003546141c090919063ffffffff16565b60038190555061435881600160008573ffffffffffffffffffffffffffffffffffffffff1673ffffffffffffffffffffffffffffffffffffffff168152602001908152602001600020546141c090919063ffffffff16565b600160008473ffffffffffffffffffffffffffffffffffffffff1673ffffffffffffffffffffffffffffffffffffffff168152602001908152602001600020819055508173ffffffffffffffffffffffffffffffffffffffff16600073ffffffffffffffffffffffffffffffffffffffff167fddf252ad1be2c89b69c2b068fc378daa952ba7f163c4a11628f55a4df523b3ef836040518082815260200191505060405180910390a35050565b8173ffffffffffffffffffffffffffffffffffffffff168373ffffffffffffffffffffffffffffffffffffffff16141580156144415750600081115b1561469d57600073ffffffffffffffffffffffffffffffffffffffff168373ffffffffffffffffffffffffffffffffffffffff1614614571576000600f60008573ffffffffffffffffffffffffffffffffffffffff1673ffffffffffffffffffffffffffffffffffffffff16815260200190815260200160002060009054906101000a900463ffffffff1690506000808263ffffffff16116144e4576000614548565b600e60008673ffffffffffffffffffffffffffffffffffffffff1673ffffffffffffffffffffffffffffffffffffffff16815260200190815260200160002060006001840363ffffffff1663ffffffff168152602001908152602001600020600101545b9050600061455f8483614d5990919063ffffffff16565b905061456d86848484614ddc565b5050505b600073ffffffffffffffffffffffffffffffffffffffff168273ffffffffffffffffffffffffffffffffffffffff161461469c576000600f60008473ffffffffffffffffffffffffffffffffffffffff1673ffffffffffffffffffffffffffffffffffffffff16815260200190815260200160002060009054906101000a900463ffffffff1690506000808263ffffffff161161460f576000614673565b600e60008573ffffffffffffffffffffffffffffffffffffffff1673ffffffffffffffffffffffffffffffffffffffff16815260200190815260200160002060006001840363ffffffff1663ffffffff168152602001908152602001600020600101545b9050600061468a84836141c090919063ffffffff16565b905061469885848484614ddc565b5050505b5b505050565b6000600d60008473ffffffffffffffffffffffffffffffffffffffff1673ffffffffffffffffffffffffffffffffffffffff16815260200190815260200160002060009054906101000a900473ffffffffffffffffffffffffffffffffffffffff169050600061471184611f05565b905082600d60008673ffffffffffffffffffffffffffffffffffffffff1673ffffffffffffffffffffffffffffffffffffffff16815260200190815260200160002060006101000a81548173ffffffffffffffffffffffffffffffffffffffff021916908373ffffffffffffffffffffffffffffffffffffffff1602179055508273ffffffffffffffffffffffffffffffffffffffff168273ffffffffffffffffffffffffffffffffffffffff168573ffffffffffffffffffffffffffffffffffffffff167f3134e8a2e6d97e929a7e54011ea5485d7d196dd5f0ba4d4ef95803e8e3fc257f60405160405180910390a461480d828483614405565b50505050565b6000808314156148265760009050614893565b600082840290508284828161483757fe5b041461488e576040517f08c379a00000000000000000000000000000000000000000000000000000000081526004018080602001828103825260218152602001806157ac6021913960400191505060405180910390fd5b809150505b92915050565b6000808211614910576040517f08c379a000000000000000000000000000000000000000000000000000000000815260040180806020018281038252601a8152602001807f536166654d6174683a206469766973696f6e206279207a65726f00000000000081525060200191505060405180910390fd5b81838161491957fe5b04905092915050565b6000804690508091505090565b6001600b60146101000a81548160ff0219169083151502179055506000600660019054906101000a900461ffff1690506000600660016101000a81548161ffff021916908361ffff160217905550600061498830611f05565b90506000614994612acd565b90508082116149a357816149a5565b805b91506009548210614a62576000600954905060006149cd60028361489990919063ffffffff16565b905060006149e48284614d5990919063ffffffff16565b905060004790506149f483615070565b6000614a098247614d5990919063ffffffff16565b9050614a158382615324565b7f17bbfb9a6069321b6ded73bd96327c9e6b7212a5cd51ff219cd61370acafb56184828560405180848152602001838152602001828152602001935050505060405180910390a150505050505b505080600660016101000a81548161ffff021916908361ffff160217905550506000600b60146101000a81548160ff021916908315150217905550565b600073ffffffffffffffffffffffffffffffffffffffff168373ffffffffffffffffffffffffffffffffffffffff161415614b25576040517f08c379a00000000000000000000000000000000000000000000000000000000081526004018080602001828103825260258152602001806155d26025913960400191505060405180910390fd5b600073ffffffffffffffffffffffffffffffffffffffff168273ffffffffffffffffffffffffffffffffffffffff161415614bab576040517f08c379a00000000000000000000000000000000000000000000000000000000081526004018080602001828103825260238152602001806158176023913960400191505060405180910390fd5b614c17816040518060600160405280602681526020016157f160269139600160008773ffffffffffffffffffffffffffffffffffffffff1673ffffffffffffffffffffffffffffffffffffffff168152602001908152602001600020546141069092919063ffffffff16565b600160008573ffffffffffffffffffffffffffffffffffffffff1673ffffffffffffffffffffffffffffffffffffffff16815260200190815260200160002081905550614cac81600160008573ffffffffffffffffffffffffffffffffffffffff1673ffffffffffffffffffffffffffffffffffffffff168152602001908152602001600020546141c090919063ffffffff16565b600160008473ffffffffffffffffffffffffffffffffffffffff1673ffffffffffffffffffffffffffffffffffffffff168152602001908152602001600020819055508173ffffffffffffffffffffffffffffffffffffffff168373ffffffffffffffffffffffffffffffffffffffff167fddf252ad1be2c89b69c2b068fc378daa952ba7f163c4a11628f55a4df523b3ef836040518082815260200191505060405180910390a3505050565b600082821115614dd1576040517f08c379a000000000000000000000000000000000000000000000000000000000815260040180806020018281038252601e8152602001807f536166654d6174683a207375627472616374696f6e206f766572666c6f77000081525060200191505060405180910390fd5b818303905092915050565b6000614e004360405180606001604052806037815260200161568360379139615479565b905060008463ffffffff16118015614e9557508063ffffffff16600e60008773ffffffffffffffffffffffffffffffffffffffff1673ffffffffffffffffffffffffffffffffffffffff16815260200190815260200160002060006001870363ffffffff1663ffffffff16815260200190815260200160002060000160009054906101000a900463ffffffff1663ffffffff16145b15614f065781600e60008773ffffffffffffffffffffffffffffffffffffffff1673ffffffffffffffffffffffffffffffffffffffff16815260200190815260200160002060006001870363ffffffff1663ffffffff16815260200190815260200160002060010181905550615013565b60405180604001604052808263ffffffff16815260200183815250600e60008773ffffffffffffffffffffffffffffffffffffffff1673ffffffffffffffffffffffffffffffffffffffff16815260200190815260200160002060008663ffffffff1663ffffffff16815260200190815260200160002060008201518160000160006101000a81548163ffffffff021916908363ffffffff1602179055506020820151816001015590505060018401600f60008773ffffffffffffffffffffffffffffffffffffffff1673ffffffffffffffffffffffffffffffffffffffff16815260200190815260200160002060006101000a81548163ffffffff021916908363ffffffff1602179055505b8473ffffffffffffffffffffffffffffffffffffffff167fdec2bacdd2f05b59de34da9b523dff8be42e5e38e818c82fdb0bae774387a7248484604051808381526020018281526020019250505060405180910390a25050505050565b6060600267ffffffffffffffff8111801561508a57600080fd5b506040519080825280602002602001820160405280156150b95781602001602082028036833780820191505090505b50905030816000815181106150ca57fe5b602002602001019073ffffffffffffffffffffffffffffffffffffffff16908173ffffffffffffffffffffffffffffffffffffffff1681525050600a60009054906101000a900473ffffffffffffffffffffffffffffffffffffffff1673ffffffffffffffffffffffffffffffffffffffff1663ad5c46486040518163ffffffff1660e01b815260040160206040518083038186803b15801561516c57600080fd5b505afa158015615180573d6000803e3d6000fd5b505050506040513d602081101561519657600080fd5b8101908080519060200190929190505050816001815181106151b457fe5b602002602001019073ffffffffffffffffffffffffffffffffffffffff16908173ffffffffffffffffffffffffffffffffffffffff168152505061521b30600a60009054906101000a900473ffffffffffffffffffffffffffffffffffffffff168461399c565b600a60009054906101000a900473ffffffffffffffffffffffffffffffffffffffff1673ffffffffffffffffffffffffffffffffffffffff1663791ac9478360008430426040518663ffffffff1660e01b815260040180868152602001858152602001806020018473ffffffffffffffffffffffffffffffffffffffff168152602001838152602001828103825285818151815260200191508051906020019060200280838360005b838110156152df5780820151818401526020810190506152c4565b505050509050019650505050505050600060405180830381600087803b15801561530857600080fd5b505af115801561531c573d6000803e3d6000fd5b505050505050565b61535130600a60009054906101000a900473ffffffffffffffffffffffffffffffffffffffff168461399c565b600a60009054906101000a900473ffffffffffffffffffffffffffffffffffffffff1673ffffffffffffffffffffffffffffffffffffffff1663f305d71982308560008061539d611caf565b426040518863ffffffff1660e01b8152600401808773ffffffffffffffffffffffffffffffffffffffff1681526020018681526020018581526020018481526020018373ffffffffffffffffffffffffffffffffffffffff16815260200182815260200196505050505050506060604051808303818588803b15801561542257600080fd5b505af1158015615436573d6000803e3d6000fd5b50505050506040513d606081101561544d57600080fd5b810190808051906020019092919080519060200190929190805190602001909291905050505050505050565b60006401000000008310829061552a576040517f08c379a00000000000000000000000000000000000000000000000000000000081526004018080602001828103825283818151815260200191508051906020019080838360005b838110156154ef5780820151818401526020810190506154d4565b50505050905090810190601f16801561551c5780820380516001836020036101000a031916815260200191505b509250505060405180910390fd5b5082905092915050565b6040518060400160405280600063ffffffff16815260200160008152509056fe48656c69756d333a3a6765745072696f72566f7465733a206e6f74207965742064657465726d696e656448656c69756d333a3a7570646174655472616e73666572546178526174653a205472616e73666572207461782072617465206d757374206e6f742065786365656420746865206d6178696d756d20726174652e42455032303a207472616e736665722066726f6d20746865207a65726f206164647265737342455032303a20617070726f76652066726f6d20746865207a65726f206164647265737348656c69756d333a3a757064617465446576526174653a204465762072617465206d757374206e6f742065786365656420746865206d6178696d756d20726174652e4f776e61626c653a206e6577206f776e657220697320746865207a65726f206164647265737348656c69756d333a3a5f7772697465436865636b706f696e743a20626c6f636b206e756d6265722065786365656473203332206269747348656c69756d333a3a7472616e736665723a205461782076616c756520696e76616c696448656c69756d333a3a64656c656761746542795369673a20696e76616c6964207369676e617475726548656c69756d333a3a75706461746548656c69756d33526f757465723a20496e76616c6964207061697220616464726573732e48656c69756d333a3a7472616e736665723a204275726e2076616c756520696e76616c696442455032303a207472616e7366657220616d6f756e74206578636565647320616c6c6f77616e636548656c69756d333a3a64656c656761746542795369673a20696e76616c6964206e6f6e6365536166654d6174683a206d756c7469706c69636174696f6e206f766572666c6f776f70657261746f723a2063616c6c6572206973206e6f7420746865206f70657261746f7242455032303a207472616e7366657220616d6f756e7420657863656564732062616c616e636542455032303a207472616e7366657220746f20746865207a65726f206164647265737342455032303a2064656372656173656420616c6c6f77616e63652062656c6f77207a65726f48656c69756d333a3a7570646174654275726e526174653a204275726e2072617465206d757374206e6f742065786365656420746865206d6178696d756d20726174652e48656c69756d333a3a616e74695768616c653a205472616e7366657220616d6f756e74206578636565647320746865206d61785472616e73666572416d6f756e7448656c69756d333a3a64656c656761746542795369673a207369676e6174757265206578706972656442455032303a20617070726f766520746f20746865207a65726f206164647265737348656c69756d333a3a7570646174654d61785472616e73666572416d6f756e74526174653a204d6178207472616e7366657220616d6f756e742072617465206d757374206e6f742065786365656420746865206d6178696d756d20726174652e48656c69756d333a3a7472616e736665724f70657261746f723a206e6577206f70657261746f7220697320746865207a65726f2061646472657373a26469706673582212200b319c78c465c9683e7875e88702124b40489944fd8e981cd8322cc2c4ce28b264736f6c634300060c0033",
  "immutableReferences": {},
  "source": "// SPDX-License-Identifier: MIT\r\n\r\npragma solidity 0.6.12;\r\n\r\nimport \"./libs/BEP20.sol\";\r\n\r\nimport \"@uniswap/v2-periphery/contracts/interfaces/IUniswapV2Router02.sol\";\r\nimport \"@uniswap/v2-core/contracts/interfaces/IUniswapV2Pair.sol\";\r\nimport \"@uniswap/v2-core/contracts/interfaces/IUniswapV2Factory.sol\";\r\n\r\n// Helium3Token with Governance.\r\ncontract Helium3Token is BEP20 {\r\n    // Transfer tax rate (default 6%)\r\n    uint16 public transferTaxRate = 60;\r\n    // Burn rate %.\r\n    uint16 public burnRate = 10;\r\n    // Dev rate %\r\n    uint16 public devRate = 10;\r\n    // Max transfer tax rate: 10%.\r\n    uint16 public constant MAXIMUM_TRANSFER_TAX_RATE = 100;\r\n    // Burn address\r\n    address public constant BURN_ADDRESS = 0x000000000000000000000000000000000000dEaD;\r\n    //Dev Wallet\r\n    address public devAddress;\r\n\r\n    // Max transfer amount rate in basis points. (default is 0.5% of total supply)\r\n    uint16 public maxTransferAmountRate = 50;\r\n    // Addresses that excluded from antiWhale\r\n    mapping(address => bool) private _excludedFromAntiWhale;\r\n    // Automatic swap and liquify enabled\r\n    bool public swapAndLiquifyEnabled = false;\r\n    // Min amount to liquify. (default 50 Helium3s)\r\n    uint256 public minAmountToLiquify = 500 ether;\r\n    // The swap router, modifiable. Will be changed to Helium3's router when our own AMM release\r\n    IUniswapV2Router02 public Helium3Router;\r\n    // The trading pair\r\n    address public Helium3Pair;\r\n    // In swap and liquify\r\n    bool private _inSwapAndLiquify;\r\n\r\n    // The operator can only update the transfer tax rate\r\n    address private _operator;\r\n\r\n    // Events\r\n    event OperatorTransferred(address indexed previousOperator, address indexed newOperator);\r\n    event TransferTaxRateUpdated(address indexed operator, uint256 previousRate, uint256 newRate);\r\n    event BurnRateUpdated(address indexed operator, uint256 previousRate, uint256 newRate);\r\n    event DevRateUpdated(address indexed operator, uint256 previousRate, uint256 newRate);\r\n    event DevAddressUpdated(address indexed operator, address previousDev, address newDev);\r\n    event MaxTransferAmountRateUpdated(address indexed operator, uint256 previousRate, uint256 newRate);\r\n    event SwapAndLiquifyEnabledUpdated(address indexed operator, bool enabled);\r\n    event MinAmountToLiquifyUpdated(address indexed operator, uint256 previousAmount, uint256 newAmount);\r\n    event Helium3RouterUpdated(address indexed operator, address indexed router, address indexed pair);\r\n    event SwapAndLiquify(uint256 tokensSwapped, uint256 ethReceived, uint256 tokensIntoLiqudity);\r\n\r\n    modifier onlyOperator() {\r\n        require(_operator == msg.sender, \"operator: caller is not the operator\");\r\n        _;\r\n    }\r\n\r\n    modifier antiWhale(address sender, address recipient, uint256 amount) {\r\n        if (maxTransferAmount() > 0) {\r\n            if (\r\n                _excludedFromAntiWhale[sender] == false\r\n                && _excludedFromAntiWhale[recipient] == false\r\n            ) {\r\n                require(amount <= maxTransferAmount(), \"Helium3::antiWhale: Transfer amount exceeds the maxTransferAmount\");\r\n            }\r\n        }\r\n        _;\r\n    }\r\n\r\n    modifier lockTheSwap {\r\n        _inSwapAndLiquify = true;\r\n        _;\r\n        _inSwapAndLiquify = false;\r\n    }\r\n\r\n    modifier transferTaxFree {\r\n        uint16 _transferTaxRate = transferTaxRate;\r\n        transferTaxRate = 0;\r\n        _;\r\n        transferTaxRate = _transferTaxRate;\r\n    }\r\n\r\n    /**\r\n     * @notice Constructs the Helium3Token contract.\r\n     */\r\n    constructor(address dev) public BEP20(\"Helium 3\", \"He3\") {\r\n        _operator = _msgSender();\r\n        devAddress = dev;\r\n        emit OperatorTransferred(address(0), _operator);\r\n\r\n        _excludedFromAntiWhale[msg.sender] = true;\r\n        _excludedFromAntiWhale[address(0)] = true;\r\n        _excludedFromAntiWhale[address(this)] = true;\r\n        _excludedFromAntiWhale[BURN_ADDRESS] = true;\r\n        _excludedFromAntiWhale[devAddress] = true;\r\n    }\r\n\r\n    /// @notice Creates `_amount` token to `_to`. Must only be called by the owner (MasterChef).\r\n    function mint(address _to, uint256 _amount) public onlyOwner {\r\n        _mint(_to, _amount);\r\n        _moveDelegates(address(0), _delegates[_to], _amount);\r\n    }\r\n\r\n    /// @dev overrides transfer function to meet tokenomics of Helium3\r\n    function _transfer(address sender, address recipient, uint256 amount) internal virtual override antiWhale(sender, recipient, amount) {\r\n        // swap and liquify\r\n        if (\r\n            swapAndLiquifyEnabled == true\r\n            && _inSwapAndLiquify == false\r\n            && address(Helium3Router) != address(0)\r\n            && Helium3Pair != address(0)\r\n            && sender != Helium3Pair\r\n            && sender != owner()\r\n        ) {\r\n            swapAndLiquify();\r\n        }\r\n\r\n        if (recipient == BURN_ADDRESS || transferTaxRate == 0 || recipient == owner()) {\r\n            super._transfer(sender, recipient, amount);\r\n        } else {\r\n            // default tax is 6% of every transfer\r\n            uint256 taxAmount = amount.mul(transferTaxRate).div(1000);\r\n            uint256 burnAmount = amount.mul(burnRate).div(1000);\r\n            uint256 devAmount = amount.mul(devRate).div(1000);\r\n            uint256 liquidityAmount = taxAmount.sub(burnAmount).sub(devAmount);\r\n            require(taxAmount == burnAmount + liquidityAmount + devAmount, \"Helium3::transfer: Burn value invalid\");\r\n\r\n            // default 95% of transfer sent to recipient\r\n            uint256 sendAmount = amount.sub(taxAmount);\r\n            require(amount == sendAmount + taxAmount, \"Helium3::transfer: Tax value invalid\");\r\n\r\n            super._transfer(sender, BURN_ADDRESS, burnAmount);\r\n            super._transfer(sender, address(this), liquidityAmount);\r\n            super._transfer(sender, devAddress, devAmount);\r\n            super._transfer(sender, recipient, sendAmount);\r\n            amount = sendAmount;\r\n        }\r\n    }\r\n\r\n    /// @dev Swap and liquify\r\n    function swapAndLiquify() private lockTheSwap transferTaxFree {\r\n        uint256 contractTokenBalance = balanceOf(address(this));\r\n        uint256 maxTransferAmount = maxTransferAmount();\r\n        contractTokenBalance = contractTokenBalance > maxTransferAmount ? maxTransferAmount : contractTokenBalance;\r\n\r\n        if (contractTokenBalance >= minAmountToLiquify) {\r\n            // only min amount to liquify\r\n            uint256 liquifyAmount = minAmountToLiquify;\r\n\r\n            // split the liquify amount into halves\r\n            uint256 half = liquifyAmount.div(2);\r\n            uint256 otherHalf = liquifyAmount.sub(half);\r\n\r\n            // capture the contract's current ETH balance.\r\n            // this is so that we can capture exactly the amount of ETH that the\r\n            // swap creates, and not make the liquidity event include any ETH that\r\n            // has been manually sent to the contract\r\n            uint256 initialBalance = address(this).balance;\r\n\r\n            // swap tokens for ETH\r\n            swapTokensForEth(half);\r\n\r\n            // how much ETH did we just swap into?\r\n            uint256 newBalance = address(this).balance.sub(initialBalance);\r\n\r\n            // add liquidity\r\n            addLiquidity(otherHalf, newBalance);\r\n\r\n            emit SwapAndLiquify(half, newBalance, otherHalf);\r\n        }\r\n    }\r\n\r\n    /// @dev Swap tokens for eth\r\n    function swapTokensForEth(uint256 tokenAmount) private {\r\n        // generate the Helium3 pair path of token -> weth\r\n        address[] memory path = new address[](2);\r\n        path[0] = address(this);\r\n        path[1] = Helium3Router.WETH();\r\n\r\n        _approve(address(this), address(Helium3Router), tokenAmount);\r\n\r\n        // make the swap\r\n        Helium3Router.swapExactTokensForETHSupportingFeeOnTransferTokens(\r\n            tokenAmount,\r\n            0, // accept any amount of ETH\r\n            path,\r\n            address(this),\r\n            block.timestamp\r\n        );\r\n    }\r\n\r\n    /// @dev Add liquidity\r\n    function addLiquidity(uint256 tokenAmount, uint256 ethAmount) private {\r\n        // approve token transfer to cover all possible scenarios\r\n        _approve(address(this), address(Helium3Router), tokenAmount);\r\n\r\n        // add the liquidity\r\n        Helium3Router.addLiquidityETH{value: ethAmount}(\r\n            address(this),\r\n            tokenAmount,\r\n            0, // slippage is unavoidable\r\n            0, // slippage is unavoidable\r\n            operator(),\r\n            block.timestamp\r\n        );\r\n    }\r\n\r\n    /**\r\n     * @dev Returns the max transfer amount.\r\n     */\r\n    function maxTransferAmount() public view returns (uint256) {\r\n        return totalSupply().mul(maxTransferAmountRate).div(10000);\r\n    }\r\n\r\n    /**\r\n     * @dev Returns the address is excluded from antiWhale or not.\r\n     */\r\n    function isExcludedFromAntiWhale(address _account) public view returns (bool) {\r\n        return _excludedFromAntiWhale[_account];\r\n    }\r\n\r\n    // To receive BNB from Helium3Router when swapping\r\n    receive() external payable {}\r\n\r\n    /**\r\n     * @dev Update the transfer tax rate.\r\n     * Can only be called by the current operator.\r\n     */\r\n    function updateTransferTaxRate(uint16 _transferTaxRate) public onlyOperator {\r\n        require(_transferTaxRate <= MAXIMUM_TRANSFER_TAX_RATE, \"Helium3::updateTransferTaxRate: Transfer tax rate must not exceed the maximum rate.\");\r\n        emit TransferTaxRateUpdated(msg.sender, transferTaxRate, _transferTaxRate);\r\n        transferTaxRate = _transferTaxRate;\r\n    }\r\n\r\n    /**\r\n     * @dev Update the burn rate.\r\n     * Can only be called by the current operator.\r\n     */\r\n    function updateBurnRate(uint16 _burnRate) public onlyOperator {\r\n        require(_burnRate <= 100, \"Helium3::updateBurnRate: Burn rate must not exceed the maximum rate.\");\r\n        emit BurnRateUpdated(msg.sender, burnRate, _burnRate);\r\n        burnRate = _burnRate;\r\n    }\r\n\r\n    /**\r\n     * @dev Update the Dev rate.\r\n     * Can only be called by the current operator.\r\n     */\r\n    function updateDevRate(uint16 _devRate) public onlyOperator {\r\n        require(_devRate <= 100, \"Helium3::updateDevRate: Dev rate must not exceed the maximum rate.\");\r\n        emit DevRateUpdated(msg.sender, devRate, _devRate);\r\n        devRate = _devRate;\r\n    }\r\n\r\n    /**\r\n     * @dev Update the Dev Address.\r\n     * Can only be called by the current operator.\r\n     */\r\n    function updateDevAddress(address dev) public onlyOperator {\r\n        emit DevAddressUpdated(msg.sender, devAddress, dev);\r\n        devAddress = dev;\r\n    }\r\n\r\n    /**\r\n     * @dev Update the max transfer amount rate.\r\n     * Can only be called by the current operator.\r\n     */\r\n    function updateMaxTransferAmountRate(uint16 _maxTransferAmountRate) public onlyOperator {\r\n        require(_maxTransferAmountRate <= 10000, \"Helium3::updateMaxTransferAmountRate: Max transfer amount rate must not exceed the maximum rate.\");\r\n        emit MaxTransferAmountRateUpdated(msg.sender, maxTransferAmountRate, _maxTransferAmountRate);\r\n        maxTransferAmountRate = _maxTransferAmountRate;\r\n    }\r\n\r\n    /**\r\n     * @dev Update the min amount to liquify.\r\n     * Can only be called by the current operator.\r\n     */\r\n    function updateMinAmountToLiquify(uint256 _minAmount) public onlyOperator {\r\n        emit MinAmountToLiquifyUpdated(msg.sender, minAmountToLiquify, _minAmount);\r\n        minAmountToLiquify = _minAmount;\r\n    }\r\n\r\n    /**\r\n     * @dev Exclude or include an address from antiWhale.\r\n     * Can only be called by the current operator.\r\n     */\r\n    function setExcludedFromAntiWhale(address _account, bool _excluded) public onlyOperator {\r\n        _excludedFromAntiWhale[_account] = _excluded;\r\n    }\r\n\r\n    /**\r\n     * @dev Update the swapAndLiquifyEnabled.\r\n     * Can only be called by the current operator.\r\n     */\r\n    function updateSwapAndLiquifyEnabled(bool _enabled) public onlyOperator {\r\n        emit SwapAndLiquifyEnabledUpdated(msg.sender, _enabled);\r\n        swapAndLiquifyEnabled = _enabled;\r\n    }\r\n\r\n    /**\r\n     * @dev Update the swap router.\r\n     * Can only be called by the current operator.\r\n     */\r\n    function updateHelium3Router(address _router) public onlyOperator {\r\n        Helium3Router = IUniswapV2Router02(_router);\r\n        Helium3Pair = IUniswapV2Factory(Helium3Router.factory()).getPair(address(this), Helium3Router.WETH());\r\n        require(Helium3Pair != address(0), \"Helium3::updateHelium3Router: Invalid pair address.\");\r\n        emit Helium3RouterUpdated(msg.sender, address(Helium3Router), Helium3Pair);\r\n    }\r\n\r\n    /**\r\n     * @dev Returns the address of the current operator.\r\n     */\r\n    function operator() public view returns (address) {\r\n        return _operator;\r\n    }\r\n\r\n    /**\r\n     * @dev Transfers operator of the contract to a new account (`newOperator`).\r\n     * Can only be called by the current operator.\r\n     */\r\n    function transferOperator(address newOperator) public onlyOperator {\r\n        require(newOperator != address(0), \"Helium3::transferOperator: new operator is the zero address\");\r\n        emit OperatorTransferred(_operator, newOperator);\r\n        _operator = newOperator;\r\n    }\r\n\r\n    // Copied and modified from YAM code:\r\n    // https://github.com/yam-finance/yam-protocol/blob/master/contracts/token/YAMGovernanceStorage.sol\r\n    // https://github.com/yam-finance/yam-protocol/blob/master/contracts/token/YAMGovernance.sol\r\n    // Which is copied and modified from COMPOUND:\r\n    // https://github.com/compound-finance/compound-protocol/blob/master/contracts/Governance/Comp.sol\r\n\r\n    /// @dev A record of each accounts delegate\r\n    mapping (address => address) internal _delegates;\r\n\r\n    /// @notice A checkpoint for marking number of votes from a given block\r\n    struct Checkpoint {\r\n        uint32 fromBlock;\r\n        uint256 votes;\r\n    }\r\n\r\n    /// @notice A record of votes checkpoints for each account, by index\r\n    mapping (address => mapping (uint32 => Checkpoint)) public checkpoints;\r\n\r\n    /// @notice The number of checkpoints for each account\r\n    mapping (address => uint32) public numCheckpoints;\r\n\r\n    /// @notice The EIP-712 typehash for the contract's domain\r\n    bytes32 public constant DOMAIN_TYPEHASH = keccak256(\"EIP712Domain(string name,uint256 chainId,address verifyingContract)\");\r\n\r\n    /// @notice The EIP-712 typehash for the delegation struct used by the contract\r\n    bytes32 public constant DELEGATION_TYPEHASH = keccak256(\"Delegation(address delegatee,uint256 nonce,uint256 expiry)\");\r\n\r\n    /// @notice A record of states for signing / validating signatures\r\n    mapping (address => uint) public nonces;\r\n\r\n      /// @notice An event thats emitted when an account changes its delegate\r\n    event DelegateChanged(address indexed delegator, address indexed fromDelegate, address indexed toDelegate);\r\n\r\n    /// @notice An event thats emitted when a delegate account's vote balance changes\r\n    event DelegateVotesChanged(address indexed delegate, uint previousBalance, uint newBalance);\r\n\r\n    /**\r\n     * @notice Delegate votes from `msg.sender` to `delegatee`\r\n     * @param delegator The address to get delegatee for\r\n     */\r\n    function delegates(address delegator)\r\n        external\r\n        view\r\n        returns (address)\r\n    {\r\n        return _delegates[delegator];\r\n    }\r\n\r\n   /**\r\n    * @notice Delegate votes from `msg.sender` to `delegatee`\r\n    * @param delegatee The address to delegate votes to\r\n    */\r\n    function delegate(address delegatee) external {\r\n        return _delegate(msg.sender, delegatee);\r\n    }\r\n\r\n    /**\r\n     * @notice Delegates votes from signatory to `delegatee`\r\n     * @param delegatee The address to delegate votes to\r\n     * @param nonce The contract state required to match the signature\r\n     * @param expiry The time at which to expire the signature\r\n     * @param v The recovery byte of the signature\r\n     * @param r Half of the ECDSA signature pair\r\n     * @param s Half of the ECDSA signature pair\r\n     */\r\n    function delegateBySig(\r\n        address delegatee,\r\n        uint nonce,\r\n        uint expiry,\r\n        uint8 v,\r\n        bytes32 r,\r\n        bytes32 s\r\n    )\r\n        external\r\n    {\r\n        bytes32 domainSeparator = keccak256(\r\n            abi.encode(\r\n                DOMAIN_TYPEHASH,\r\n                keccak256(bytes(name())),\r\n                getChainId(),\r\n                address(this)\r\n            )\r\n        );\r\n\r\n        bytes32 structHash = keccak256(\r\n            abi.encode(\r\n                DELEGATION_TYPEHASH,\r\n                delegatee,\r\n                nonce,\r\n                expiry\r\n            )\r\n        );\r\n\r\n        bytes32 digest = keccak256(\r\n            abi.encodePacked(\r\n                \"\\x19\\x01\",\r\n                domainSeparator,\r\n                structHash\r\n            )\r\n        );\r\n\r\n        address signatory = ecrecover(digest, v, r, s);\r\n        require(signatory != address(0), \"Helium3::delegateBySig: invalid signature\");\r\n        require(nonce == nonces[signatory]++, \"Helium3::delegateBySig: invalid nonce\");\r\n        require(now <= expiry, \"Helium3::delegateBySig: signature expired\");\r\n        return _delegate(signatory, delegatee);\r\n    }\r\n\r\n    /**\r\n     * @notice Gets the current votes balance for `account`\r\n     * @param account The address to get votes balance\r\n     * @return The number of current votes for `account`\r\n     */\r\n    function getCurrentVotes(address account)\r\n        external\r\n        view\r\n        returns (uint256)\r\n    {\r\n        uint32 nCheckpoints = numCheckpoints[account];\r\n        return nCheckpoints > 0 ? checkpoints[account][nCheckpoints - 1].votes : 0;\r\n    }\r\n\r\n    /**\r\n     * @notice Determine the prior number of votes for an account as of a block number\r\n     * @dev Block number must be a finalized block or else this function will revert to prevent misinformation.\r\n     * @param account The address of the account to check\r\n     * @param blockNumber The block number to get the vote balance at\r\n     * @return The number of votes the account had as of the given block\r\n     */\r\n    function getPriorVotes(address account, uint blockNumber)\r\n        external\r\n        view\r\n        returns (uint256)\r\n    {\r\n        require(blockNumber < block.number, \"Helium3::getPriorVotes: not yet determined\");\r\n\r\n        uint32 nCheckpoints = numCheckpoints[account];\r\n        if (nCheckpoints == 0) {\r\n            return 0;\r\n        }\r\n\r\n        // First check most recent balance\r\n        if (checkpoints[account][nCheckpoints - 1].fromBlock <= blockNumber) {\r\n            return checkpoints[account][nCheckpoints - 1].votes;\r\n        }\r\n\r\n        // Next check implicit zero balance\r\n        if (checkpoints[account][0].fromBlock > blockNumber) {\r\n            return 0;\r\n        }\r\n\r\n        uint32 lower = 0;\r\n        uint32 upper = nCheckpoints - 1;\r\n        while (upper > lower) {\r\n            uint32 center = upper - (upper - lower) / 2; // ceil, avoiding overflow\r\n            Checkpoint memory cp = checkpoints[account][center];\r\n            if (cp.fromBlock == blockNumber) {\r\n                return cp.votes;\r\n            } else if (cp.fromBlock < blockNumber) {\r\n                lower = center;\r\n            } else {\r\n                upper = center - 1;\r\n            }\r\n        }\r\n        return checkpoints[account][lower].votes;\r\n    }\r\n\r\n    function _delegate(address delegator, address delegatee)\r\n        internal\r\n    {\r\n        address currentDelegate = _delegates[delegator];\r\n        uint256 delegatorBalance = balanceOf(delegator); // balance of underlying Helium3s (not scaled);\r\n        _delegates[delegator] = delegatee;\r\n\r\n        emit DelegateChanged(delegator, currentDelegate, delegatee);\r\n\r\n        _moveDelegates(currentDelegate, delegatee, delegatorBalance);\r\n    }\r\n\r\n    function _moveDelegates(address srcRep, address dstRep, uint256 amount) internal {\r\n        if (srcRep != dstRep && amount > 0) {\r\n            if (srcRep != address(0)) {\r\n                // decrease old representative\r\n                uint32 srcRepNum = numCheckpoints[srcRep];\r\n                uint256 srcRepOld = srcRepNum > 0 ? checkpoints[srcRep][srcRepNum - 1].votes : 0;\r\n                uint256 srcRepNew = srcRepOld.sub(amount);\r\n                _writeCheckpoint(srcRep, srcRepNum, srcRepOld, srcRepNew);\r\n            }\r\n\r\n            if (dstRep != address(0)) {\r\n                // increase new representative\r\n                uint32 dstRepNum = numCheckpoints[dstRep];\r\n                uint256 dstRepOld = dstRepNum > 0 ? checkpoints[dstRep][dstRepNum - 1].votes : 0;\r\n                uint256 dstRepNew = dstRepOld.add(amount);\r\n                _writeCheckpoint(dstRep, dstRepNum, dstRepOld, dstRepNew);\r\n            }\r\n        }\r\n    }\r\n\r\n    function _writeCheckpoint(\r\n        address delegatee,\r\n        uint32 nCheckpoints,\r\n        uint256 oldVotes,\r\n        uint256 newVotes\r\n    )\r\n        internal\r\n    {\r\n        uint32 blockNumber = safe32(block.number, \"Helium3::_writeCheckpoint: block number exceeds 32 bits\");\r\n\r\n        if (nCheckpoints > 0 && checkpoints[delegatee][nCheckpoints - 1].fromBlock == blockNumber) {\r\n            checkpoints[delegatee][nCheckpoints - 1].votes = newVotes;\r\n        } else {\r\n            checkpoints[delegatee][nCheckpoints] = Checkpoint(blockNumber, newVotes);\r\n            numCheckpoints[delegatee] = nCheckpoints + 1;\r\n        }\r\n\r\n        emit DelegateVotesChanged(delegatee, oldVotes, newVotes);\r\n    }\r\n\r\n    function safe32(uint n, string memory errorMessage) internal pure returns (uint32) {\r\n        require(n < 2**32, errorMessage);\r\n        return uint32(n);\r\n    }\r\n\r\n    function getChainId() internal pure returns (uint) {\r\n        uint256 chainId;\r\n        assembly { chainId := chainid() }\r\n        return chainId;\r\n    }\r\n}\r\n",
  "sourcePath": "C:\\Users\\A-S-K\\Desktop\\Contracts\\Contracts\\coal-farm\\contracts\\Helium3Token.sol",
  "compiler": {
    "name": "solc",
    "version": "0.6.12+commit.27d51765.Emscripten.clang"
  },
  "schemaVersion": "3.3.4",
  "updatedAt": "2021-05-07T10:32:10.830Z",
  "devdoc": {
    "kind": "dev",
    "methods": {
      "allowance(address,address)": {
        "details": "See {BEP20-allowance}."
      },
      "approve(address,uint256)": {
        "details": "See {BEP20-approve}. Requirements: - `spender` cannot be the zero address."
      },
      "balanceOf(address)": {
        "details": "See {BEP20-balanceOf}."
      },
      "decimals()": {
        "details": "Returns the token decimals."
      },
      "decreaseAllowance(address,uint256)": {
        "details": "Atomically decreases the allowance granted to `spender` by the caller. This is an alternative to {approve} that can be used as a mitigation for problems described in {BEP20-approve}. Emits an {Approval} event indicating the updated allowance. Requirements: - `spender` cannot be the zero address. - `spender` must have allowance for the caller of at least `subtractedValue`."
      },
      "delegate(address)": {
        "params": {
          "delegatee": "The address to delegate votes to"
        }
      },
      "delegateBySig(address,uint256,uint256,uint8,bytes32,bytes32)": {
        "params": {
          "delegatee": "The address to delegate votes to",
          "expiry": "The time at which to expire the signature",
          "nonce": "The contract state required to match the signature",
          "r": "Half of the ECDSA signature pair",
          "s": "Half of the ECDSA signature pair",
          "v": "The recovery byte of the signature"
        }
      },
      "delegates(address)": {
        "params": {
          "delegator": "The address to get delegatee for"
        }
      },
      "getCurrentVotes(address)": {
        "params": {
          "account": "The address to get votes balance"
        },
        "returns": {
          "_0": "The number of current votes for `account`"
        }
      },
      "getOwner()": {
        "details": "Returns the bep token owner."
      },
      "getPriorVotes(address,uint256)": {
        "details": "Block number must be a finalized block or else this function will revert to prevent misinformation.",
        "params": {
          "account": "The address of the account to check",
          "blockNumber": "The block number to get the vote balance at"
        },
        "returns": {
          "_0": "The number of votes the account had as of the given block"
        }
      },
      "increaseAllowance(address,uint256)": {
        "details": "Atomically increases the allowance granted to `spender` by the caller. This is an alternative to {approve} that can be used as a mitigation for problems described in {BEP20-approve}. Emits an {Approval} event indicating the updated allowance. Requirements: - `spender` cannot be the zero address."
      },
      "isExcludedFromAntiWhale(address)": {
        "details": "Returns the address is excluded from antiWhale or not."
      },
      "maxTransferAmount()": {
        "details": "Returns the max transfer amount."
      },
      "mint(uint256)": {
        "details": "Creates `amount` tokens and assigns them to `msg.sender`, increasing the total supply. Requirements - `msg.sender` must be the token owner"
      },
      "name()": {
        "details": "Returns the token name."
      },
      "operator()": {
        "details": "Returns the address of the current operator."
      },
      "owner()": {
        "details": "Returns the address of the current owner."
      },
      "renounceOwnership()": {
        "details": "Leaves the contract without owner. It will not be possible to call `onlyOwner` functions anymore. Can only be called by the current owner. NOTE: Renouncing ownership will leave the contract without an owner, thereby removing any functionality that is only available to the owner."
      },
      "setExcludedFromAntiWhale(address,bool)": {
        "details": "Exclude or include an address from antiWhale. Can only be called by the current operator."
      },
      "symbol()": {
        "details": "Returns the token symbol."
      },
      "totalSupply()": {
        "details": "See {BEP20-totalSupply}."
      },
      "transfer(address,uint256)": {
        "details": "See {BEP20-transfer}. Requirements: - `recipient` cannot be the zero address. - the caller must have a balance of at least `amount`."
      },
      "transferFrom(address,address,uint256)": {
        "details": "See {BEP20-transferFrom}. Emits an {Approval} event indicating the updated allowance. This is not required by the EIP. See the note at the beginning of {BEP20}; Requirements: - `sender` and `recipient` cannot be the zero address. - `sender` must have a balance of at least `amount`. - the caller must have allowance for `sender`'s tokens of at least `amount`."
      },
      "transferOperator(address)": {
        "details": "Transfers operator of the contract to a new account (`newOperator`). Can only be called by the current operator."
      },
      "transferOwnership(address)": {
        "details": "Transfers ownership of the contract to a new account (`newOwner`). Can only be called by the current owner."
      },
      "updateBurnRate(uint16)": {
        "details": "Update the burn rate. Can only be called by the current operator."
      },
      "updateDevAddress(address)": {
        "details": "Update the Dev Address. Can only be called by the current operator."
      },
      "updateDevRate(uint16)": {
        "details": "Update the Dev rate. Can only be called by the current operator."
      },
      "updateHelium3Router(address)": {
        "details": "Update the swap router. Can only be called by the current operator."
      },
      "updateMaxTransferAmountRate(uint16)": {
        "details": "Update the max transfer amount rate. Can only be called by the current operator."
      },
      "updateMinAmountToLiquify(uint256)": {
        "details": "Update the min amount to liquify. Can only be called by the current operator."
      },
      "updateSwapAndLiquifyEnabled(bool)": {
        "details": "Update the swapAndLiquifyEnabled. Can only be called by the current operator."
      },
      "updateTransferTaxRate(uint16)": {
        "details": "Update the transfer tax rate. Can only be called by the current operator."
      }
    },
    "stateVariables": {
      "_delegates": {
        "details": "A record of each accounts delegate"
      }
    },
    "version": 1
  },
  "userdoc": {
    "events": {
      "DelegateChanged(address,address,address)": {
        "notice": "An event thats emitted when an account changes its delegate"
      },
      "DelegateVotesChanged(address,uint256,uint256)": {
        "notice": "An event thats emitted when a delegate account's vote balance changes"
      }
    },
    "kind": "user",
    "methods": {
      "DELEGATION_TYPEHASH()": {
        "notice": "The EIP-712 typehash for the delegation struct used by the contract"
      },
      "DOMAIN_TYPEHASH()": {
        "notice": "The EIP-712 typehash for the contract's domain"
      },
      "checkpoints(address,uint32)": {
        "notice": "A record of votes checkpoints for each account, by index"
      },
      "constructor": "Constructs the Helium3Token contract.",
      "delegate(address)": {
        "notice": "Delegate votes from `msg.sender` to `delegatee`"
      },
      "delegateBySig(address,uint256,uint256,uint8,bytes32,bytes32)": {
        "notice": "Delegates votes from signatory to `delegatee`"
      },
      "delegates(address)": {
        "notice": "Delegate votes from `msg.sender` to `delegatee`"
      },
      "getCurrentVotes(address)": {
        "notice": "Gets the current votes balance for `account`"
      },
      "getPriorVotes(address,uint256)": {
        "notice": "Determine the prior number of votes for an account as of a block number"
      },
      "mint(address,uint256)": {
        "notice": "Creates `_amount` token to `_to`. Must only be called by the owner (MasterChef)."
      },
      "nonces(address)": {
        "notice": "A record of states for signing / validating signatures"
      },
      "numCheckpoints(address)": {
        "notice": "The number of checkpoints for each account"
      }
    },
    "version": 1
  }
}