{
  "contractName": "MasterChef",
  "abi": [
    {
      "inputs": [
        {
          "internalType": "contract Helium3Token",
          "name": "_Helium3",
          "type": "address"
        },
        {
          "internalType": "uint256",
          "name": "_startBlock",
          "type": "uint256"
        },
        {
          "internalType": "uint256",
          "name": "_Helium3PerBlock",
          "type": "uint256"
        }
      ],
      "stateMutability": "nonpayable",
      "type": "constructor"
    },
    {
      "anonymous": false,
      "inputs": [
        {
          "indexed": true,
          "internalType": "address",
          "name": "user",
          "type": "address"
        },
        {
          "indexed": true,
          "internalType": "uint256",
          "name": "pid",
          "type": "uint256"
        },
        {
          "indexed": false,
          "internalType": "uint256",
          "name": "amount",
          "type": "uint256"
        }
      ],
      "name": "Deposit",
      "type": "event"
    },
    {
      "anonymous": false,
      "inputs": [
        {
          "indexed": true,
          "internalType": "address",
          "name": "user",
          "type": "address"
        },
        {
          "indexed": true,
          "internalType": "uint256",
          "name": "pid",
          "type": "uint256"
        },
        {
          "indexed": false,
          "internalType": "uint256",
          "name": "amount",
          "type": "uint256"
        }
      ],
      "name": "EmergencyWithdraw",
      "type": "event"
    },
    {
      "anonymous": false,
      "inputs": [
        {
          "indexed": true,
          "internalType": "address",
          "name": "caller",
          "type": "address"
        },
        {
          "indexed": false,
          "internalType": "uint256",
          "name": "previousAmount",
          "type": "uint256"
        },
        {
          "indexed": false,
          "internalType": "uint256",
          "name": "newAmount",
          "type": "uint256"
        }
      ],
      "name": "EmissionRateUpdated",
      "type": "event"
    },
    {
      "anonymous": false,
      "inputs": [
        {
          "indexed": true,
          "internalType": "address",
          "name": "previousOwner",
          "type": "address"
        },
        {
          "indexed": true,
          "internalType": "address",
          "name": "newOwner",
          "type": "address"
        }
      ],
      "name": "OwnershipTransferred",
      "type": "event"
    },
    {
      "anonymous": false,
      "inputs": [
        {
          "indexed": true,
          "internalType": "address",
          "name": "user",
          "type": "address"
        },
        {
          "indexed": true,
          "internalType": "address",
          "name": "referrer",
          "type": "address"
        },
        {
          "indexed": false,
          "internalType": "uint256",
          "name": "commissionAmount",
          "type": "uint256"
        }
      ],
      "name": "ReferralCommissionPaid",
      "type": "event"
    },
    {
      "anonymous": false,
      "inputs": [
        {
          "indexed": true,
          "internalType": "address",
          "name": "user",
          "type": "address"
        },
        {
          "indexed": true,
          "internalType": "uint256",
          "name": "pid",
          "type": "uint256"
        },
        {
          "indexed": false,
          "internalType": "uint256",
          "name": "amountLockedUp",
          "type": "uint256"
        }
      ],
      "name": "RewardLockedUp",
      "type": "event"
    },
    {
      "anonymous": false,
      "inputs": [
        {
          "indexed": true,
          "internalType": "address",
          "name": "user",
          "type": "address"
        },
        {
          "indexed": true,
          "internalType": "uint256",
          "name": "pid",
          "type": "uint256"
        },
        {
          "indexed": false,
          "internalType": "uint256",
          "name": "amount",
          "type": "uint256"
        }
      ],
      "name": "Withdraw",
      "type": "event"
    },
    {
      "inputs": [],
      "name": "BONUS_MULTIPLIER",
      "outputs": [
        {
          "internalType": "uint256",
          "name": "",
          "type": "uint256"
        }
      ],
      "stateMutability": "view",
      "type": "function"
    },
    {
      "inputs": [],
      "name": "Helium3",
      "outputs": [
        {
          "internalType": "contract Helium3Token",
          "name": "",
          "type": "address"
        }
      ],
      "stateMutability": "view",
      "type": "function"
    },
    {
      "inputs": [],
      "name": "Helium3PerBlock",
      "outputs": [
        {
          "internalType": "uint256",
          "name": "",
          "type": "uint256"
        }
      ],
      "stateMutability": "view",
      "type": "function"
    },
    {
      "inputs": [],
      "name": "Helium3Referral",
      "outputs": [
        {
          "internalType": "contract IHelium3Referral",
          "name": "",
          "type": "address"
        }
      ],
      "stateMutability": "view",
      "type": "function"
    },
    {
      "inputs": [],
      "name": "MAXIMUM_HARVEST_INTERVAL",
      "outputs": [
        {
          "internalType": "uint256",
          "name": "",
          "type": "uint256"
        }
      ],
      "stateMutability": "view",
      "type": "function"
    },
    {
      "inputs": [],
      "name": "MAXIMUM_REFERRAL_COMMISSION_RATE",
      "outputs": [
        {
          "internalType": "uint16",
          "name": "",
          "type": "uint16"
        }
      ],
      "stateMutability": "view",
      "type": "function"
    },
    {
      "inputs": [],
      "name": "devAddress",
      "outputs": [
        {
          "internalType": "address",
          "name": "",
          "type": "address"
        }
      ],
      "stateMutability": "view",
      "type": "function"
    },
    {
      "inputs": [],
      "name": "feeAddress",
      "outputs": [
        {
          "internalType": "address",
          "name": "",
          "type": "address"
        }
      ],
      "stateMutability": "view",
      "type": "function"
    },
    {
      "inputs": [],
      "name": "owner",
      "outputs": [
        {
          "internalType": "address",
          "name": "",
          "type": "address"
        }
      ],
      "stateMutability": "view",
      "type": "function"
    },
    {
      "inputs": [
        {
          "internalType": "uint256",
          "name": "",
          "type": "uint256"
        }
      ],
      "name": "poolInfo",
      "outputs": [
        {
          "internalType": "contract IBEP20",
          "name": "lpToken",
          "type": "address"
        },
        {
          "internalType": "uint256",
          "name": "allocPoint",
          "type": "uint256"
        },
        {
          "internalType": "uint256",
          "name": "lastRewardBlock",
          "type": "uint256"
        },
        {
          "internalType": "uint256",
          "name": "accHelium3PerShare",
          "type": "uint256"
        },
        {
          "internalType": "uint16",
          "name": "depositFeeBP",
          "type": "uint16"
        },
        {
          "internalType": "uint256",
          "name": "harvestInterval",
          "type": "uint256"
        }
      ],
      "stateMutability": "view",
      "type": "function"
    },
    {
      "inputs": [],
      "name": "referralCommissionRate",
      "outputs": [
        {
          "internalType": "uint16",
          "name": "",
          "type": "uint16"
        }
      ],
      "stateMutability": "view",
      "type": "function"
    },
    {
      "inputs": [],
      "name": "renounceOwnership",
      "outputs": [],
      "stateMutability": "nonpayable",
      "type": "function"
    },
    {
      "inputs": [],
      "name": "startBlock",
      "outputs": [
        {
          "internalType": "uint256",
          "name": "",
          "type": "uint256"
        }
      ],
      "stateMutability": "view",
      "type": "function"
    },
    {
      "inputs": [],
      "name": "totalAllocPoint",
      "outputs": [
        {
          "internalType": "uint256",
          "name": "",
          "type": "uint256"
        }
      ],
      "stateMutability": "view",
      "type": "function"
    },
    {
      "inputs": [],
      "name": "totalLockedUpRewards",
      "outputs": [
        {
          "internalType": "uint256",
          "name": "",
          "type": "uint256"
        }
      ],
      "stateMutability": "view",
      "type": "function"
    },
    {
      "inputs": [
        {
          "internalType": "address",
          "name": "newOwner",
          "type": "address"
        }
      ],
      "name": "transferOwnership",
      "outputs": [],
      "stateMutability": "nonpayable",
      "type": "function"
    },
    {
      "inputs": [
        {
          "internalType": "uint256",
          "name": "",
          "type": "uint256"
        },
        {
          "internalType": "address",
          "name": "",
          "type": "address"
        }
      ],
      "name": "userInfo",
      "outputs": [
        {
          "internalType": "uint256",
          "name": "amount",
          "type": "uint256"
        },
        {
          "internalType": "uint256",
          "name": "rewardDebt",
          "type": "uint256"
        },
        {
          "internalType": "uint256",
          "name": "rewardLockedUp",
          "type": "uint256"
        },
        {
          "internalType": "uint256",
          "name": "nextHarvestUntil",
          "type": "uint256"
        }
      ],
      "stateMutability": "view",
      "type": "function"
    },
    {
      "inputs": [],
      "name": "poolLength",
      "outputs": [
        {
          "internalType": "uint256",
          "name": "",
          "type": "uint256"
        }
      ],
      "stateMutability": "view",
      "type": "function"
    },
    {
      "inputs": [
        {
          "internalType": "uint256",
          "name": "_allocPoint",
          "type": "uint256"
        },
        {
          "internalType": "contract IBEP20",
          "name": "_lpToken",
          "type": "address"
        },
        {
          "internalType": "uint16",
          "name": "_depositFeeBP",
          "type": "uint16"
        },
        {
          "internalType": "uint256",
          "name": "_harvestInterval",
          "type": "uint256"
        },
        {
          "internalType": "bool",
          "name": "_withUpdate",
          "type": "bool"
        }
      ],
      "name": "add",
      "outputs": [],
      "stateMutability": "nonpayable",
      "type": "function"
    },
    {
      "inputs": [
        {
          "internalType": "uint256",
          "name": "_pid",
          "type": "uint256"
        },
        {
          "internalType": "uint256",
          "name": "_allocPoint",
          "type": "uint256"
        },
        {
          "internalType": "uint16",
          "name": "_depositFeeBP",
          "type": "uint16"
        },
        {
          "internalType": "uint256",
          "name": "_harvestInterval",
          "type": "uint256"
        },
        {
          "internalType": "bool",
          "name": "_withUpdate",
          "type": "bool"
        }
      ],
      "name": "set",
      "outputs": [],
      "stateMutability": "nonpayable",
      "type": "function"
    },
    {
      "inputs": [
        {
          "internalType": "uint256",
          "name": "_from",
          "type": "uint256"
        },
        {
          "internalType": "uint256",
          "name": "_to",
          "type": "uint256"
        }
      ],
      "name": "getMultiplier",
      "outputs": [
        {
          "internalType": "uint256",
          "name": "",
          "type": "uint256"
        }
      ],
      "stateMutability": "pure",
      "type": "function"
    },
    {
      "inputs": [
        {
          "internalType": "uint256",
          "name": "_pid",
          "type": "uint256"
        },
        {
          "internalType": "address",
          "name": "_user",
          "type": "address"
        }
      ],
      "name": "pendingHelium3",
      "outputs": [
        {
          "internalType": "uint256",
          "name": "",
          "type": "uint256"
        }
      ],
      "stateMutability": "view",
      "type": "function"
    },
    {
      "inputs": [
        {
          "internalType": "uint256",
          "name": "_pid",
          "type": "uint256"
        },
        {
          "internalType": "address",
          "name": "_user",
          "type": "address"
        }
      ],
      "name": "canHarvest",
      "outputs": [
        {
          "internalType": "bool",
          "name": "",
          "type": "bool"
        }
      ],
      "stateMutability": "view",
      "type": "function"
    },
    {
      "inputs": [],
      "name": "massUpdatePools",
      "outputs": [],
      "stateMutability": "nonpayable",
      "type": "function"
    },
    {
      "inputs": [
        {
          "internalType": "uint256",
          "name": "_pid",
          "type": "uint256"
        }
      ],
      "name": "updatePool",
      "outputs": [],
      "stateMutability": "nonpayable",
      "type": "function"
    },
    {
      "inputs": [
        {
          "internalType": "uint256",
          "name": "_pid",
          "type": "uint256"
        },
        {
          "internalType": "uint256",
          "name": "_amount",
          "type": "uint256"
        },
        {
          "internalType": "address",
          "name": "_referrer",
          "type": "address"
        }
      ],
      "name": "deposit",
      "outputs": [],
      "stateMutability": "nonpayable",
      "type": "function"
    },
    {
      "inputs": [
        {
          "internalType": "uint256",
          "name": "_pid",
          "type": "uint256"
        },
        {
          "internalType": "uint256",
          "name": "_amount",
          "type": "uint256"
        }
      ],
      "name": "withdraw",
      "outputs": [],
      "stateMutability": "nonpayable",
      "type": "function"
    },
    {
      "inputs": [
        {
          "internalType": "uint256",
          "name": "_pid",
          "type": "uint256"
        }
      ],
      "name": "emergencyWithdraw",
      "outputs": [],
      "stateMutability": "nonpayable",
      "type": "function"
    },
    {
      "inputs": [
        {
          "internalType": "address",
          "name": "_devAddress",
          "type": "address"
        }
      ],
      "name": "setDevAddress",
      "outputs": [],
      "stateMutability": "nonpayable",
      "type": "function"
    },
    {
      "inputs": [
        {
          "internalType": "address",
          "name": "_feeAddress",
          "type": "address"
        }
      ],
      "name": "setFeeAddress",
      "outputs": [],
      "stateMutability": "nonpayable",
      "type": "function"
    },
    {
      "inputs": [
        {
          "internalType": "uint256",
          "name": "_Helium3PerBlock",
          "type": "uint256"
        }
      ],
      "name": "updateEmissionRate",
      "outputs": [],
      "stateMutability": "nonpayable",
      "type": "function"
    },
    {
      "inputs": [
        {
          "internalType": "contract IHelium3Referral",
          "name": "_Helium3Referral",
          "type": "address"
        }
      ],
      "name": "setHelium3Referral",
      "outputs": [],
      "stateMutability": "nonpayable",
      "type": "function"
    },
    {
      "inputs": [
        {
          "internalType": "uint16",
          "name": "_referralCommissionRate",
          "type": "uint16"
        }
      ],
      "name": "setReferralCommissionRate",
      "outputs": [],
      "stateMutability": "nonpayable",
      "type": "function"
    }
  ],
  "bytecode": "0x6080604052600060085560c8600b60146101000a81548161ffff021916908361ffff1602179055503480156200003457600080fd5b5060405162003e0938038062003e09833981810160405260608110156200005a57600080fd5b810190808051906020019092919080519060200190929190805190602001909291905050506000620000916200021060201b60201c565b9050806000806101000a81548173ffffffffffffffffffffffffffffffffffffffff021916908373ffffffffffffffffffffffffffffffffffffffff1602179055508073ffffffffffffffffffffffffffffffffffffffff16600073ffffffffffffffffffffffffffffffffffffffff167f8be0079c531659141344cd1fd0a4f28419497f9722a3daafe3b4186f6b6457e060405160405180910390a3506001808190555082600260006101000a81548173ffffffffffffffffffffffffffffffffffffffff021916908373ffffffffffffffffffffffffffffffffffffffff160217905550816009819055508060058190555033600360006101000a81548173ffffffffffffffffffffffffffffffffffffffff021916908373ffffffffffffffffffffffffffffffffffffffff16021790555033600460006101000a81548173ffffffffffffffffffffffffffffffffffffffff021916908373ffffffffffffffffffffffffffffffffffffffff16021790555050505062000218565b600033905090565b613be180620002286000396000f3fe608060405234801561001057600080fd5b50600436106101fb5760003560e01c80635312ea8e1161011a5780638dbb1e3a116100ad578063c07d0dd61161007c578063c07d0dd614610854578063d0d41fe114610898578063d30ef61b146108dc578063de73149d146108fe578063f2fde38b1461091c576101fb565b80638dbb1e3a146106c75780638dbdbe6d1461071357806393f1a40b1461076b578063af018de8146107e2576101fb565b8063715018a6116100e9578063715018a6146106275780638705fcd4146106315780638aa28550146106755780638da5cb5b14610693576101fb565b80635312ea8e1461058957806355dbc826146105b7578063630b5ba1146105e957806366b9d7dc146105f3576101fb565b806334f518b611610192578063474fa63011610161578063474fa630146104fd57806348b22bfb1461051b57806348cd4cb11461053d57806351eb05a61461055b576101fb565b806334f518b61461043f5780633ad10ef61461045d5780634127535814610491578063441a3e70146104c5576101fb565b806317caf6f1116101ce57806317caf6f11461032d5780632143e5451461034b5780632e30bf94146103a75780632e6c998d146103db576101fb565b806306d0d3f414610200578063081e3eda146102625780630ba84cd2146102805780631526fe27146102ae575b600080fd5b61024c6004803603604081101561021657600080fd5b8101908080359060200190929190803573ffffffffffffffffffffffffffffffffffffffff169060200190929190505050610960565b6040518082815260200191505060405180910390f35b61026a610bc2565b6040518082815260200191505060405180910390f35b6102ac6004803603602081101561029657600080fd5b8101908080359060200190929190505050610bcf565b005b6102da600480360360208110156102c457600080fd5b8101908080359060200190929190505050610ce8565b604051808773ffffffffffffffffffffffffffffffffffffffff1681526020018681526020018581526020018481526020018361ffff168152602001828152602001965050505050505060405180910390f35b610335610d5f565b6040518082815260200191505060405180910390f35b6103a5600480360360a081101561036157600080fd5b810190808035906020019092919080359060200190929190803561ffff16906020019092919080359060200190929190803515159060200190929190505050610d65565b005b6103af610fcc565b604051808273ffffffffffffffffffffffffffffffffffffffff16815260200191505060405180910390f35b610427600480360360408110156103f157600080fd5b8101908080359060200190929190803573ffffffffffffffffffffffffffffffffffffffff169060200190929190505050610ff2565b60405180821515815260200191505060405180910390f35b610447611058565b6040518082815260200191505060405180910390f35b61046561105e565b604051808273ffffffffffffffffffffffffffffffffffffffff16815260200191505060405180910390f35b610499611084565b604051808273ffffffffffffffffffffffffffffffffffffffff16815260200191505060405180910390f35b6104fb600480360360408110156104db57600080fd5b8101908080359060200190929190803590602001909291905050506110aa565b005b610505611338565b6040518082815260200191505060405180910390f35b61052361133e565b604051808261ffff16815260200191505060405180910390f35b610545611344565b6040518082815260200191505060405180910390f35b6105876004803603602081101561057157600080fd5b810190808035906020019092919050505061134a565b005b6105b56004803603602081101561059f57600080fd5b81019080803590602001909291905050506116a5565b005b6105e7600480360360208110156105cd57600080fd5b81019080803561ffff169060200190929190505050611875565b005b6105f16119a7565b005b6105fb6119d4565b604051808273ffffffffffffffffffffffffffffffffffffffff16815260200191505060405180910390f35b61062f6119fa565b005b6106736004803603602081101561064757600080fd5b81019080803573ffffffffffffffffffffffffffffffffffffffff169060200190929190505050611b67565b005b61067d611d11565b6040518082815260200191505060405180910390f35b61069b611d16565b604051808273ffffffffffffffffffffffffffffffffffffffff16815260200191505060405180910390f35b6106fd600480360360408110156106dd57600080fd5b810190808035906020019092919080359060200190929190505050611d3f565b6040518082815260200191505060405180910390f35b6107696004803603606081101561072957600080fd5b810190808035906020019092919080359060200190929190803573ffffffffffffffffffffffffffffffffffffffff169060200190929190505050611d6f565b005b6107b76004803603604081101561078157600080fd5b8101908080359060200190929190803573ffffffffffffffffffffffffffffffffffffffff169060200190929190505050612388565b6040518085815260200184815260200183815260200182815260200194505050505060405180910390f35b610852600480360360a08110156107f857600080fd5b8101908080359060200190929190803573ffffffffffffffffffffffffffffffffffffffff169060200190929190803561ffff169060200190929190803590602001909291908035151590602001909291905050506123c5565b005b6108966004803603602081101561086a57600080fd5b81019080803573ffffffffffffffffffffffffffffffffffffffff16906020019092919050505061269c565b005b6108da600480360360208110156108ae57600080fd5b81019080803573ffffffffffffffffffffffffffffffffffffffff16906020019092919050505061278f565b005b6108e4612939565b604051808261ffff16815260200191505060405180910390f35b61090661294d565b6040518082815260200191505060405180910390f35b61095e6004803603602081101561093257600080fd5b81019080803573ffffffffffffffffffffffffffffffffffffffff169060200190929190505050612954565b005b6000806006848154811061097057fe5b9060005260206000209060060201905060006007600086815260200190815260200160002060008573ffffffffffffffffffffffffffffffffffffffff1673ffffffffffffffffffffffffffffffffffffffff168152602001908152602001600020905060008260030154905060008360000160009054906101000a900473ffffffffffffffffffffffffffffffffffffffff1673ffffffffffffffffffffffffffffffffffffffff166370a08231306040518263ffffffff1660e01b8152600401808273ffffffffffffffffffffffffffffffffffffffff16815260200191505060206040518083038186803b158015610a6a57600080fd5b505afa158015610a7e573d6000803e3d6000fd5b505050506040513d6020811015610a9457600080fd5b81019080805190602001909291905050509050836002015443118015610abb575060008114155b15610b56576000610ad0856002015443611d3f565b90506000610b13600854610b058860010154610af760055487612b4690919063ffffffff16565b612b4690919063ffffffff16565b612bcc90919063ffffffff16565b9050610b51610b4284610b3464e8d4a5100085612b4690919063ffffffff16565b612bcc90919063ffffffff16565b85612c5590919063ffffffff16565b935050505b6000610b9c8460010154610b8e64e8d4a51000610b80878960000154612b4690919063ffffffff16565b612bcc90919063ffffffff16565b612cdd90919063ffffffff16565b9050610bb5846002015482612c5590919063ffffffff16565b9550505050505092915050565b6000600680549050905090565b610bd7612d60565b73ffffffffffffffffffffffffffffffffffffffff16610bf5611d16565b73ffffffffffffffffffffffffffffffffffffffff1614610c7e576040517f08c379a00000000000000000000000000000000000000000000000000000000081526004018080602001828103825260208152602001807f4f776e61626c653a2063616c6c6572206973206e6f7420746865206f776e657281525060200191505060405180910390fd5b610c866119a7565b3373ffffffffffffffffffffffffffffffffffffffff167feedc6338c9c1ad8f3cd6c90dd09dbe98dbd57e610d3e59a17996d07acb0d951160055483604051808381526020018281526020019250505060405180910390a28060058190555050565b60068181548110610cf557fe5b90600052602060002090600602016000915090508060000160009054906101000a900473ffffffffffffffffffffffffffffffffffffffff16908060010154908060020154908060030154908060040160009054906101000a900461ffff16908060050154905086565b60085481565b610d6d612d60565b73ffffffffffffffffffffffffffffffffffffffff16610d8b611d16565b73ffffffffffffffffffffffffffffffffffffffff1614610e14576040517f08c379a00000000000000000000000000000000000000000000000000000000081526004018080602001828103825260208152602001807f4f776e61626c653a2063616c6c6572206973206e6f7420746865206f776e657281525060200191505060405180910390fd5b6127108361ffff161115610e73576040517f08c379a0000000000000000000000000000000000000000000000000000000008152600401808060200182810382526025815260200180613b876025913960400191505060405180910390fd5b62127500821115610eec576040517f08c379a000000000000000000000000000000000000000000000000000000000815260040180806020018281038252601d8152602001807f7365743a20696e76616c6964206861727665737420696e74657276616c00000081525060200191505060405180910390fd5b8015610efb57610efa6119a7565b5b610f4084610f3260068881548110610f0f57fe5b906000526020600020906006020160010154600854612cdd90919063ffffffff16565b612c5590919063ffffffff16565b6008819055508360068681548110610f5457fe5b9060005260206000209060060201600101819055508260068681548110610f7757fe5b906000526020600020906006020160040160006101000a81548161ffff021916908361ffff1602179055508160068681548110610fb057fe5b9060005260206000209060060201600501819055505050505050565b600260009054906101000a900473ffffffffffffffffffffffffffffffffffffffff1681565b6000806007600085815260200190815260200160002060008473ffffffffffffffffffffffffffffffffffffffff1673ffffffffffffffffffffffffffffffffffffffff1681526020019081526020016000209050806003015442101591505092915050565b60055481565b600360009054906101000a900473ffffffffffffffffffffffffffffffffffffffff1681565b600460009054906101000a900473ffffffffffffffffffffffffffffffffffffffff1681565b60026001541415611123576040517f08c379a000000000000000000000000000000000000000000000000000000000815260040180806020018281038252601f8152602001807f5265656e7472616e637947756172643a207265656e7472616e742063616c6c0081525060200191505060405180910390fd5b600260018190555060006006838154811061113a57fe5b9060005260206000209060060201905060006007600085815260200190815260200160002060003373ffffffffffffffffffffffffffffffffffffffff1673ffffffffffffffffffffffffffffffffffffffff16815260200190815260200160002090508281600001541015611218576040517f08c379a00000000000000000000000000000000000000000000000000000000081526004018080602001828103825260128152602001807f77697468647261773a206e6f7420676f6f64000000000000000000000000000081525060200191505060405180910390fd5b6112218461134a565b61122a84612d68565b60008311156112a25761124a838260000154612cdd90919063ffffffff16565b81600001819055506112a133848460000160009054906101000a900473ffffffffffffffffffffffffffffffffffffffff1673ffffffffffffffffffffffffffffffffffffffff16612f939092919063ffffffff16565b5b6112d464e8d4a510006112c684600301548460000154612b4690919063ffffffff16565b612bcc90919063ffffffff16565b8160010181905550833373ffffffffffffffffffffffffffffffffffffffff167ff279e6a1f5e320cca91135676d9cb6e44ca8a08c0b88342bcdb1144f6511b568856040518082815260200191505060405180910390a35050600180819055505050565b600a5481565b6103e881565b60095481565b60006006828154811061135957fe5b906000526020600020906006020190508060020154431161137a57506116a2565b60008160000160009054906101000a900473ffffffffffffffffffffffffffffffffffffffff1673ffffffffffffffffffffffffffffffffffffffff166370a08231306040518263ffffffff1660e01b8152600401808273ffffffffffffffffffffffffffffffffffffffff16815260200191505060206040518083038186803b15801561140757600080fd5b505afa15801561141b573d6000803e3d6000fd5b505050506040513d602081101561143157600080fd5b810190808051906020019092919050505090506000811480611457575060008260010154145b1561146c5743826002018190555050506116a2565b600061147c836002015443611d3f565b905060006114bf6008546114b186600101546114a360055487612b4690919063ffffffff16565b612b4690919063ffffffff16565b612bcc90919063ffffffff16565b9050600260009054906101000a900473ffffffffffffffffffffffffffffffffffffffff1673ffffffffffffffffffffffffffffffffffffffff166340c10f19600360009054906101000a900473ffffffffffffffffffffffffffffffffffffffff16611536600a85612bcc90919063ffffffff16565b6040518363ffffffff1660e01b8152600401808373ffffffffffffffffffffffffffffffffffffffff16815260200182815260200192505050600060405180830381600087803b15801561158957600080fd5b505af115801561159d573d6000803e3d6000fd5b50505050600260009054906101000a900473ffffffffffffffffffffffffffffffffffffffff1673ffffffffffffffffffffffffffffffffffffffff166340c10f1930836040518363ffffffff1660e01b8152600401808373ffffffffffffffffffffffffffffffffffffffff16815260200182815260200192505050600060405180830381600087803b15801561163457600080fd5b505af1158015611648573d6000803e3d6000fd5b5050505061168c6116798461166b64e8d4a5100085612b4690919063ffffffff16565b612bcc90919063ffffffff16565b8560030154612c5590919063ffffffff16565b8460030181905550438460020181905550505050505b50565b6002600154141561171e576040517f08c379a000000000000000000000000000000000000000000000000000000000815260040180806020018281038252601f8152602001807f5265656e7472616e637947756172643a207265656e7472616e742063616c6c0081525060200191505060405180910390fd5b600260018190555060006006828154811061173557fe5b9060005260206000209060060201905060006007600084815260200190815260200160002060003373ffffffffffffffffffffffffffffffffffffffff1673ffffffffffffffffffffffffffffffffffffffff16815260200190815260200160002090506000816000015490506000826000018190555060008260010181905550600082600201819055506000826003018190555061181933828560000160009054906101000a900473ffffffffffffffffffffffffffffffffffffffff1673ffffffffffffffffffffffffffffffffffffffff16612f939092919063ffffffff16565b833373ffffffffffffffffffffffffffffffffffffffff167fbb757047c2b5f3974fe26b7c10f732e7bce710b0952a71082702781e62ae0595836040518082815260200191505060405180910390a35050506001808190555050565b61187d612d60565b73ffffffffffffffffffffffffffffffffffffffff1661189b611d16565b73ffffffffffffffffffffffffffffffffffffffff1614611924576040517f08c379a00000000000000000000000000000000000000000000000000000000081526004018080602001828103825260208152602001807f4f776e61626c653a2063616c6c6572206973206e6f7420746865206f776e657281525060200191505060405180910390fd5b6103e861ffff168161ffff161115611987576040517f08c379a0000000000000000000000000000000000000000000000000000000008152600401808060200182810382526048815260200180613aa86048913960600191505060405180910390fd5b80600b60146101000a81548161ffff021916908361ffff16021790555050565b6000600680549050905060005b818110156119d0576119c58161134a565b8060010190506119b4565b5050565b600b60009054906101000a900473ffffffffffffffffffffffffffffffffffffffff1681565b611a02612d60565b73ffffffffffffffffffffffffffffffffffffffff16611a20611d16565b73ffffffffffffffffffffffffffffffffffffffff1614611aa9576040517f08c379a00000000000000000000000000000000000000000000000000000000081526004018080602001828103825260208152602001807f4f776e61626c653a2063616c6c6572206973206e6f7420746865206f776e657281525060200191505060405180910390fd5b600073ffffffffffffffffffffffffffffffffffffffff1660008054906101000a900473ffffffffffffffffffffffffffffffffffffffff1673ffffffffffffffffffffffffffffffffffffffff167f8be0079c531659141344cd1fd0a4f28419497f9722a3daafe3b4186f6b6457e060405160405180910390a360008060006101000a81548173ffffffffffffffffffffffffffffffffffffffff021916908373ffffffffffffffffffffffffffffffffffffffff160217905550565b600460009054906101000a900473ffffffffffffffffffffffffffffffffffffffff1673ffffffffffffffffffffffffffffffffffffffff163373ffffffffffffffffffffffffffffffffffffffff1614611c2a576040517f08c379a00000000000000000000000000000000000000000000000000000000081526004018080602001828103825260188152602001807f736574466565416464726573733a20464f5242494444454e000000000000000081525060200191505060405180910390fd5b600073ffffffffffffffffffffffffffffffffffffffff168173ffffffffffffffffffffffffffffffffffffffff161415611ccd576040517f08c379a00000000000000000000000000000000000000000000000000000000081526004018080602001828103825260138152602001807f736574466565416464726573733a205a45524f0000000000000000000000000081525060200191505060405180910390fd5b80600460006101000a81548173ffffffffffffffffffffffffffffffffffffffff021916908373ffffffffffffffffffffffffffffffffffffffff16021790555050565b600181565b60008060009054906101000a900473ffffffffffffffffffffffffffffffffffffffff16905090565b6000611d676001611d598585612cdd90919063ffffffff16565b612b4690919063ffffffff16565b905092915050565b60026001541415611de8576040517f08c379a000000000000000000000000000000000000000000000000000000000815260040180806020018281038252601f8152602001807f5265656e7472616e637947756172643a207265656e7472616e742063616c6c0081525060200191505060405180910390fd5b6002600181905550600060068481548110611dff57fe5b9060005260206000209060060201905060006007600086815260200190815260200160002060003373ffffffffffffffffffffffffffffffffffffffff1673ffffffffffffffffffffffffffffffffffffffff1681526020019081526020016000209050611e6c8561134a565b600084118015611ecb5750600073ffffffffffffffffffffffffffffffffffffffff16600b60009054906101000a900473ffffffffffffffffffffffffffffffffffffffff1673ffffffffffffffffffffffffffffffffffffffff1614155b8015611f045750600073ffffffffffffffffffffffffffffffffffffffff168373ffffffffffffffffffffffffffffffffffffffff1614155b8015611f3c57503373ffffffffffffffffffffffffffffffffffffffff168373ffffffffffffffffffffffffffffffffffffffff1614155b1561200357600b60009054906101000a900473ffffffffffffffffffffffffffffffffffffffff1673ffffffffffffffffffffffffffffffffffffffff16630c7f7b6b33856040518363ffffffff1660e01b8152600401808373ffffffffffffffffffffffffffffffffffffffff1681526020018273ffffffffffffffffffffffffffffffffffffffff16815260200192505050600060405180830381600087803b158015611fea57600080fd5b505af1158015611ffe573d6000803e3d6000fd5b505050505b61200c85612d68565b60008411156122f1576120663330868560000160009054906101000a900473ffffffffffffffffffffffffffffffffffffffff1673ffffffffffffffffffffffffffffffffffffffff16613035909392919063ffffffff16565b600260009054906101000a900473ffffffffffffffffffffffffffffffffffffffff1673ffffffffffffffffffffffffffffffffffffffff168260000160009054906101000a900473ffffffffffffffffffffffffffffffffffffffff1673ffffffffffffffffffffffffffffffffffffffff1614156121c85760006121af6127106121a1600260009054906101000a900473ffffffffffffffffffffffffffffffffffffffff1673ffffffffffffffffffffffffffffffffffffffff1663b65d08b06040518163ffffffff1660e01b815260040160206040518083038186803b15801561215357600080fd5b505afa158015612167573d6000803e3d6000fd5b505050506040513d602081101561217d57600080fd5b810190808051906020019092919050505061ffff1688612b4690919063ffffffff16565b612bcc90919063ffffffff16565b90506121c48186612cdd90919063ffffffff16565b9450505b60008260040160009054906101000a900461ffff1661ffff1611156122d05760006122266127106122188560040160009054906101000a900461ffff1661ffff1688612b4690919063ffffffff16565b612bcc90919063ffffffff16565b9050612299600460009054906101000a900473ffffffffffffffffffffffffffffffffffffffff16828560000160009054906101000a900473ffffffffffffffffffffffffffffffffffffffff1673ffffffffffffffffffffffffffffffffffffffff16612f939092919063ffffffff16565b6122c2816122b4878560000154612c5590919063ffffffff16565b612cdd90919063ffffffff16565b8260000181905550506122f0565b6122e7848260000154612c5590919063ffffffff16565b81600001819055505b5b61232364e8d4a5100061231584600301548460000154612b4690919063ffffffff16565b612bcc90919063ffffffff16565b8160010181905550843373ffffffffffffffffffffffffffffffffffffffff167f90890809c654f11d6e72a28fa60149770a0d11ec6c92319d6ceb2bb0a4ea1a15866040518082815260200191505060405180910390a3505060018081905550505050565b6007602052816000526040600020602052806000526040600020600091509150508060000154908060010154908060020154908060030154905084565b6123cd612d60565b73ffffffffffffffffffffffffffffffffffffffff166123eb611d16565b73ffffffffffffffffffffffffffffffffffffffff1614612474576040517f08c379a00000000000000000000000000000000000000000000000000000000081526004018080602001828103825260208152602001807f4f776e61626c653a2063616c6c6572206973206e6f7420746865206f776e657281525060200191505060405180910390fd5b6127108361ffff1611156124d3576040517f08c379a0000000000000000000000000000000000000000000000000000000008152600401808060200182810382526025815260200180613a836025913960400191505060405180910390fd5b6212750082111561254c576040517f08c379a000000000000000000000000000000000000000000000000000000000815260040180806020018281038252601d8152602001807f6164643a20696e76616c6964206861727665737420696e74657276616c00000081525060200191505060405180910390fd5b801561255b5761255a6119a7565b5b6000600954431161256e57600954612570565b435b905061258786600854612c5590919063ffffffff16565b60088190555060066040518060c001604052808773ffffffffffffffffffffffffffffffffffffffff168152602001888152602001838152602001600081526020018661ffff16815260200185815250908060018154018082558091505060019003906000526020600020906006020160009091909190915060008201518160000160006101000a81548173ffffffffffffffffffffffffffffffffffffffff021916908373ffffffffffffffffffffffffffffffffffffffff16021790555060208201518160010155604082015181600201556060820151816003015560808201518160040160006101000a81548161ffff021916908361ffff16021790555060a082015181600501555050505050505050565b6126a4612d60565b73ffffffffffffffffffffffffffffffffffffffff166126c2611d16565b73ffffffffffffffffffffffffffffffffffffffff161461274b576040517f08c379a00000000000000000000000000000000000000000000000000000000081526004018080602001828103825260208152602001807f4f776e61626c653a2063616c6c6572206973206e6f7420746865206f776e657281525060200191505060405180910390fd5b80600b60006101000a81548173ffffffffffffffffffffffffffffffffffffffff021916908373ffffffffffffffffffffffffffffffffffffffff16021790555050565b600360009054906101000a900473ffffffffffffffffffffffffffffffffffffffff1673ffffffffffffffffffffffffffffffffffffffff163373ffffffffffffffffffffffffffffffffffffffff1614612852576040517f08c379a00000000000000000000000000000000000000000000000000000000081526004018080602001828103825260188152602001807f736574446576416464726573733a20464f5242494444454e000000000000000081525060200191505060405180910390fd5b600073ffffffffffffffffffffffffffffffffffffffff168173ffffffffffffffffffffffffffffffffffffffff1614156128f5576040517f08c379a00000000000000000000000000000000000000000000000000000000081526004018080602001828103825260138152602001807f736574446576416464726573733a205a45524f0000000000000000000000000081525060200191505060405180910390fd5b80600360006101000a81548173ffffffffffffffffffffffffffffffffffffffff021916908373ffffffffffffffffffffffffffffffffffffffff16021790555050565b600b60149054906101000a900461ffff1681565b6212750081565b61295c612d60565b73ffffffffffffffffffffffffffffffffffffffff1661297a611d16565b73ffffffffffffffffffffffffffffffffffffffff1614612a03576040517f08c379a00000000000000000000000000000000000000000000000000000000081526004018080602001828103825260208152602001807f4f776e61626c653a2063616c6c6572206973206e6f7420746865206f776e657281525060200191505060405180910390fd5b600073ffffffffffffffffffffffffffffffffffffffff168173ffffffffffffffffffffffffffffffffffffffff161415612a89576040517f08c379a0000000000000000000000000000000000000000000000000000000008152600401808060200182810382526026815260200180613b1a6026913960400191505060405180910390fd5b8073ffffffffffffffffffffffffffffffffffffffff1660008054906101000a900473ffffffffffffffffffffffffffffffffffffffff1673ffffffffffffffffffffffffffffffffffffffff167f8be0079c531659141344cd1fd0a4f28419497f9722a3daafe3b4186f6b6457e060405160405180910390a3806000806101000a81548173ffffffffffffffffffffffffffffffffffffffff021916908373ffffffffffffffffffffffffffffffffffffffff16021790555050565b600080831415612b595760009050612bc6565b6000828402905082848281612b6a57fe5b0414612bc1576040517f08c379a0000000000000000000000000000000000000000000000000000000008152600401808060200182810382526021815260200180613b666021913960400191505060405180910390fd5b809150505b92915050565b6000808211612c43576040517f08c379a000000000000000000000000000000000000000000000000000000000815260040180806020018281038252601a8152602001807f536166654d6174683a206469766973696f6e206279207a65726f00000000000081525060200191505060405180910390fd5b818381612c4c57fe5b04905092915050565b600080828401905083811015612cd3576040517f08c379a000000000000000000000000000000000000000000000000000000000815260040180806020018281038252601b8152602001807f536166654d6174683a206164646974696f6e206f766572666c6f77000000000081525060200191505060405180910390fd5b8091505092915050565b600082821115612d55576040517f08c379a000000000000000000000000000000000000000000000000000000000815260040180806020018281038252601e8152602001807f536166654d6174683a207375627472616374696f6e206f766572666c6f77000081525060200191505060405180910390fd5b818303905092915050565b600033905090565b600060068281548110612d7757fe5b9060005260206000209060060201905060006007600084815260200190815260200160002060003373ffffffffffffffffffffffffffffffffffffffff1673ffffffffffffffffffffffffffffffffffffffff1681526020019081526020016000209050600081600301541415612e0857612dff826005015442612c5590919063ffffffff16565b81600301819055505b6000612e528260010154612e4464e8d4a51000612e3687600301548760000154612b4690919063ffffffff16565b612bcc90919063ffffffff16565b612cdd90919063ffffffff16565b9050612e5e8433610ff2565b15612ef9576000811180612e76575060008260020154115b15612ef4576000612e94836002015483612c5590919063ffffffff16565b9050612eaf8360020154600a54612cdd90919063ffffffff16565b600a8190555060008360020181905550612ed6846005015442612c5590919063ffffffff16565b8360030181905550612ee833826130f6565b612ef2338261336f565b505b612f8d565b6000811115612f8c57612f19818360020154612c5590919063ffffffff16565b8260020181905550612f3681600a54612c5590919063ffffffff16565b600a81905550833373ffffffffffffffffffffffffffffffffffffffff167fee470483107f579a55c754fa00613c45a9a3b617a418b39cb0be97e5381ba7c1836040518082815260200191505060405180910390a35b5b50505050565b6130308363a9059cbb60e01b8484604051602401808373ffffffffffffffffffffffffffffffffffffffff16815260200182815260200192505050604051602081830303815290604052907bffffffffffffffffffffffffffffffffffffffffffffffffffffffff19166020820180517bffffffffffffffffffffffffffffffffffffffffffffffffffffffff83818316178352505050506136f3565b505050565b6130f0846323b872dd60e01b858585604051602401808473ffffffffffffffffffffffffffffffffffffffff1681526020018373ffffffffffffffffffffffffffffffffffffffff1681526020018281526020019350505050604051602081830303815290604052907bffffffffffffffffffffffffffffffffffffffffffffffffffffffff19166020820180517bffffffffffffffffffffffffffffffffffffffffffffffffffffffff83818316178352505050506136f3565b50505050565b6000600260009054906101000a900473ffffffffffffffffffffffffffffffffffffffff1673ffffffffffffffffffffffffffffffffffffffff166370a08231306040518263ffffffff1660e01b8152600401808273ffffffffffffffffffffffffffffffffffffffff16815260200191505060206040518083038186803b15801561318157600080fd5b505afa158015613195573d6000803e3d6000fd5b505050506040513d60208110156131ab57600080fd5b810190808051906020019092919050505090508082111561329a57600260009054906101000a900473ffffffffffffffffffffffffffffffffffffffff1673ffffffffffffffffffffffffffffffffffffffff1663a9059cbb84836040518363ffffffff1660e01b8152600401808373ffffffffffffffffffffffffffffffffffffffff16815260200182815260200192505050602060405180830381600087803b15801561325957600080fd5b505af115801561326d573d6000803e3d6000fd5b505050506040513d602081101561328357600080fd5b81019080805190602001909291905050505061336a565b600260009054906101000a900473ffffffffffffffffffffffffffffffffffffffff1673ffffffffffffffffffffffffffffffffffffffff1663a9059cbb84846040518363ffffffff1660e01b8152600401808373ffffffffffffffffffffffffffffffffffffffff16815260200182815260200192505050602060405180830381600087803b15801561332d57600080fd5b505af1158015613341573d6000803e3d6000fd5b505050506040513d602081101561335757600080fd5b8101908080519060200190929190505050505b505050565b600073ffffffffffffffffffffffffffffffffffffffff16600b60009054906101000a900473ffffffffffffffffffffffffffffffffffffffff1673ffffffffffffffffffffffffffffffffffffffff16141580156133e257506000600b60149054906101000a900461ffff1661ffff16115b156136ef576000600b60009054906101000a900473ffffffffffffffffffffffffffffffffffffffff1673ffffffffffffffffffffffffffffffffffffffff16634a9fefc7846040518263ffffffff1660e01b8152600401808273ffffffffffffffffffffffffffffffffffffffff16815260200191505060206040518083038186803b15801561347257600080fd5b505afa158015613486573d6000803e3d6000fd5b505050506040513d602081101561349c57600080fd5b8101908080519060200190929190505050905060006134ec6127106134de600b60149054906101000a900461ffff1661ffff1686612b4690919063ffffffff16565b612bcc90919063ffffffff16565b9050600073ffffffffffffffffffffffffffffffffffffffff168273ffffffffffffffffffffffffffffffffffffffff161415801561352b5750600081115b156136ec57600260009054906101000a900473ffffffffffffffffffffffffffffffffffffffff1673ffffffffffffffffffffffffffffffffffffffff166340c10f1983836040518363ffffffff1660e01b8152600401808373ffffffffffffffffffffffffffffffffffffffff16815260200182815260200192505050600060405180830381600087803b1580156135c357600080fd5b505af11580156135d7573d6000803e3d6000fd5b50505050600b60009054906101000a900473ffffffffffffffffffffffffffffffffffffffff1673ffffffffffffffffffffffffffffffffffffffff1663dc1694b883836040518363ffffffff1660e01b8152600401808373ffffffffffffffffffffffffffffffffffffffff16815260200182815260200192505050600060405180830381600087803b15801561366e57600080fd5b505af1158015613682573d6000803e3d6000fd5b505050508173ffffffffffffffffffffffffffffffffffffffff168473ffffffffffffffffffffffffffffffffffffffff167f86ddab457291316e0f5496737e5ca67c4037234c32c3be04c48ae96186893a7b836040518082815260200191505060405180910390a35b50505b5050565b6060613755826040518060400160405280602081526020017f5361666542455032303a206c6f772d6c6576656c2063616c6c206661696c65648152508573ffffffffffffffffffffffffffffffffffffffff166137e29092919063ffffffff16565b90506000815111156137dd5780806020019051602081101561377657600080fd5b81019080805190602001909291905050506137dc576040517f08c379a000000000000000000000000000000000000000000000000000000000815260040180806020018281038252602a815260200180613af0602a913960400191505060405180910390fd5b5b505050565b60606137f184846000856137fa565b90509392505050565b606082471015613855576040517f08c379a0000000000000000000000000000000000000000000000000000000008152600401808060200182810382526026815260200180613b406026913960400191505060405180910390fd5b61385e856139a3565b6138d0576040517f08c379a000000000000000000000000000000000000000000000000000000000815260040180806020018281038252601d8152602001807f416464726573733a2063616c6c20746f206e6f6e2d636f6e747261637400000081525060200191505060405180910390fd5b600060608673ffffffffffffffffffffffffffffffffffffffff1685876040518082805190602001908083835b6020831061392057805182526020820191506020810190506020830392506138fd565b6001836020036101000a03801982511681845116808217855250505050505090500191505060006040518083038185875af1925050503d8060008114613982576040519150601f19603f3d011682016040523d82523d6000602084013e613987565b606091505b50915091506139978282866139b6565b92505050949350505050565b600080823b905060008111915050919050565b606083156139c657829050613a7b565b6000835111156139d95782518084602001fd5b816040517f08c379a00000000000000000000000000000000000000000000000000000000081526004018080602001828103825283818151815260200191508051906020019080838360005b83811015613a40578082015181840152602081019050613a25565b50505050905090810190601f168015613a6d5780820380516001836020036101000a031916815260200191505b509250505060405180910390fd5b939250505056fe6164643a20696e76616c6964206465706f7369742066656520626173697320706f696e7473736574526566657272616c436f6d6d697373696f6e526174653a20696e76616c696420726566657272616c20636f6d6d697373696f6e207261746520626173697320706f696e74735361666542455032303a204245503230206f7065726174696f6e20646964206e6f7420737563636565644f776e61626c653a206e6577206f776e657220697320746865207a65726f2061646472657373416464726573733a20696e73756666696369656e742062616c616e636520666f722063616c6c536166654d6174683a206d756c7469706c69636174696f6e206f766572666c6f777365743a20696e76616c6964206465706f7369742066656520626173697320706f696e7473a264697066735822122090d893cbad5460f4e0baab431c307d1479a02208b1fdabae1003bb01d25faa4d64736f6c634300060c0033",
  "immutableReferences": {},
  "source": "// SPDX-License-Identifier: MIT\r\n\r\npragma solidity 0.6.12;\r\n\r\nimport \"@openzeppelin/contracts/math/SafeMath.sol\";\r\nimport \"./libs/IBEP20.sol\";\r\nimport \"./libs/SafeBEP20.sol\";\r\nimport \"./libs/IHelium3Referral.sol\";\r\nimport \"@openzeppelin/contracts/access/Ownable.sol\";\r\nimport \"@openzeppelin/contracts/utils/ReentrancyGuard.sol\";\r\n\r\nimport \"./Helium3Token.sol\";\r\n\r\n// MasterChef is the master of Helium3. He can make Helium3 and he is a fair guy.\r\n//\r\n// Note that it's ownable and the owner wields tremendous power. The ownership\r\n// will be transferred to a governance smart contract once Helium3 is sufficiently\r\n// distributed and the community can show to govern itself.\r\n//\r\n// Have fun reading it. Hopefully it's bug-free. God bless.\r\ncontract MasterChef is Ownable, ReentrancyGuard {\r\n    using SafeMath for uint256;\r\n    using SafeBEP20 for IBEP20;\r\n\r\n    // Info of each user.\r\n    struct UserInfo {\r\n        uint256 amount;         // How many LP tokens the user has provided.\r\n        uint256 rewardDebt;     // Reward debt. See explanation below.\r\n        uint256 rewardLockedUp;  // Reward locked up.\r\n        uint256 nextHarvestUntil; // When can the user harvest again.\r\n        //\r\n        // We do some fancy math here. Basically, any point in time, the amount of Helium3s\r\n        // entitled to a user but is pending to be distributed is:\r\n        //\r\n        //   pending reward = (user.amount * pool.accHelium3PerShare) - user.rewardDebt\r\n        //\r\n        // Whenever a user deposits or withdraws LP tokens to a pool. Here's what happens:\r\n        //   1. The pool's `accHelium3PerShare` (and `lastRewardBlock`) gets updated.\r\n        //   2. User receives the pending reward sent to his/her address.\r\n        //   3. User's `amount` gets updated.\r\n        //   4. User's `rewardDebt` gets updated.\r\n    }\r\n\r\n    // Info of each pool.\r\n    struct PoolInfo {\r\n        IBEP20 lpToken;           // Address of LP token contract.\r\n        uint256 allocPoint;       // How many allocation points assigned to this pool. Helium3s to distribute per block.\r\n        uint256 lastRewardBlock;  // Last block number that Helium3s distribution occurs.\r\n        uint256 accHelium3PerShare;   // Accumulated Helium3s per share, times 1e12. See below.\r\n        uint16 depositFeeBP;      // Deposit fee in basis points\r\n        uint256 harvestInterval;  // Harvest interval in seconds\r\n    }\r\n\r\n    // The Helium3 TOKEN!\r\n    Helium3Token public Helium3;\r\n    // Dev address.\r\n    address public devAddress;\r\n    // Deposit Fee address\r\n    address public feeAddress;\r\n    // Helium3 tokens created per block.\r\n    uint256 public Helium3PerBlock;\r\n    // Bonus muliplier for early Helium3 makers.\r\n    uint256 public constant BONUS_MULTIPLIER = 1;\r\n    // Max harvest interval: 14 days.\r\n    uint256 public constant MAXIMUM_HARVEST_INTERVAL = 14 days;\r\n\r\n    // Info of each pool.\r\n    PoolInfo[] public poolInfo;\r\n    // Info of each user that stakes LP tokens.\r\n    mapping(uint256 => mapping(address => UserInfo)) public userInfo;\r\n    // Total allocation points. Must be the sum of all allocation points in all pools.\r\n    uint256 public totalAllocPoint = 0;\r\n    // The block number when Helium3 mining starts.\r\n    uint256 public startBlock;\r\n    // Total locked up rewards\r\n    uint256 public totalLockedUpRewards;\r\n\r\n    // Helium3 referral contract address.\r\n    IHelium3Referral public Helium3Referral;\r\n    // Referral commission rate in basis points.\r\n    uint16 public referralCommissionRate = 200;\r\n    // Max referral commission rate: 10%.\r\n    uint16 public constant MAXIMUM_REFERRAL_COMMISSION_RATE = 1000;\r\n\r\n    event Deposit(address indexed user, uint256 indexed pid, uint256 amount);\r\n    event Withdraw(address indexed user, uint256 indexed pid, uint256 amount);\r\n    event EmergencyWithdraw(address indexed user, uint256 indexed pid, uint256 amount);\r\n    event EmissionRateUpdated(address indexed caller, uint256 previousAmount, uint256 newAmount);\r\n    event ReferralCommissionPaid(address indexed user, address indexed referrer, uint256 commissionAmount);\r\n    event RewardLockedUp(address indexed user, uint256 indexed pid, uint256 amountLockedUp);\r\n\r\n    constructor(\r\n        Helium3Token _Helium3,\r\n        uint256 _startBlock,\r\n        uint256 _Helium3PerBlock\r\n    ) public {\r\n        Helium3 = _Helium3;\r\n        startBlock = _startBlock;\r\n        Helium3PerBlock = _Helium3PerBlock;\r\n\r\n        devAddress = msg.sender;\r\n        feeAddress = msg.sender;\r\n    }\r\n\r\n    function poolLength() external view returns (uint256) {\r\n        return poolInfo.length;\r\n    }\r\n\r\n    // Add a new lp to the pool. Can only be called by the owner.\r\n    // XXX DO NOT add the same LP token more than once. Rewards will be messed up if you do.\r\n    function add(uint256 _allocPoint, IBEP20 _lpToken, uint16 _depositFeeBP, uint256 _harvestInterval, bool _withUpdate) public onlyOwner {\r\n        require(_depositFeeBP <= 10000, \"add: invalid deposit fee basis points\");\r\n        require(_harvestInterval <= MAXIMUM_HARVEST_INTERVAL, \"add: invalid harvest interval\");\r\n        if (_withUpdate) {\r\n            massUpdatePools();\r\n        }\r\n        uint256 lastRewardBlock = block.number > startBlock ? block.number : startBlock;\r\n        totalAllocPoint = totalAllocPoint.add(_allocPoint);\r\n        poolInfo.push(PoolInfo({\r\n            lpToken: _lpToken,\r\n            allocPoint: _allocPoint,\r\n            lastRewardBlock: lastRewardBlock,\r\n            accHelium3PerShare: 0,\r\n            depositFeeBP: _depositFeeBP,\r\n            harvestInterval: _harvestInterval\r\n        }));\r\n    }\r\n\r\n    // Update the given pool's Helium3 allocation point and deposit fee. Can only be called by the owner.\r\n    function set(uint256 _pid, uint256 _allocPoint, uint16 _depositFeeBP, uint256 _harvestInterval, bool _withUpdate) public onlyOwner {\r\n        require(_depositFeeBP <= 10000, \"set: invalid deposit fee basis points\");\r\n        require(_harvestInterval <= MAXIMUM_HARVEST_INTERVAL, \"set: invalid harvest interval\");\r\n        if (_withUpdate) {\r\n            massUpdatePools();\r\n        }\r\n        totalAllocPoint = totalAllocPoint.sub(poolInfo[_pid].allocPoint).add(_allocPoint);\r\n        poolInfo[_pid].allocPoint = _allocPoint;\r\n        poolInfo[_pid].depositFeeBP = _depositFeeBP;\r\n        poolInfo[_pid].harvestInterval = _harvestInterval;\r\n    }\r\n\r\n    // Return reward multiplier over the given _from to _to block.\r\n    function getMultiplier(uint256 _from, uint256 _to) public pure returns (uint256) {\r\n        return _to.sub(_from).mul(BONUS_MULTIPLIER);\r\n    }\r\n\r\n    // View function to see pending Helium3s on frontend.\r\n    function pendingHelium3(uint256 _pid, address _user) external view returns (uint256) {\r\n        PoolInfo storage pool = poolInfo[_pid];\r\n        UserInfo storage user = userInfo[_pid][_user];\r\n        uint256 accHelium3PerShare = pool.accHelium3PerShare;\r\n        uint256 lpSupply = pool.lpToken.balanceOf(address(this));\r\n        if (block.number > pool.lastRewardBlock && lpSupply != 0) {\r\n            uint256 multiplier = getMultiplier(pool.lastRewardBlock, block.number);\r\n            uint256 Helium3Reward = multiplier.mul(Helium3PerBlock).mul(pool.allocPoint).div(totalAllocPoint);\r\n            accHelium3PerShare = accHelium3PerShare.add(Helium3Reward.mul(1e12).div(lpSupply));\r\n        }\r\n        uint256 pending = user.amount.mul(accHelium3PerShare).div(1e12).sub(user.rewardDebt);\r\n        return pending.add(user.rewardLockedUp);\r\n    }\r\n\r\n    // View function to see if user can harvest Helium3s.\r\n    function canHarvest(uint256 _pid, address _user) public view returns (bool) {\r\n        UserInfo storage user = userInfo[_pid][_user];\r\n        return block.timestamp >= user.nextHarvestUntil;\r\n    }\r\n\r\n    // Update reward variables for all pools. Be careful of gas spending!\r\n    function massUpdatePools() public {\r\n        uint256 length = poolInfo.length;\r\n        for (uint256 pid = 0; pid < length; ++pid) {\r\n            updatePool(pid);\r\n        }\r\n    }\r\n\r\n    // Update reward variables of the given pool to be up-to-date.\r\n    function updatePool(uint256 _pid) public {\r\n        PoolInfo storage pool = poolInfo[_pid];\r\n        if (block.number <= pool.lastRewardBlock) {\r\n            return;\r\n        }\r\n        uint256 lpSupply = pool.lpToken.balanceOf(address(this));\r\n        if (lpSupply == 0 || pool.allocPoint == 0) {\r\n            pool.lastRewardBlock = block.number;\r\n            return;\r\n        }\r\n        uint256 multiplier = getMultiplier(pool.lastRewardBlock, block.number);\r\n        uint256 Helium3Reward = multiplier.mul(Helium3PerBlock).mul(pool.allocPoint).div(totalAllocPoint);\r\n        Helium3.mint(devAddress, Helium3Reward.div(10));\r\n        Helium3.mint(address(this), Helium3Reward);\r\n        pool.accHelium3PerShare = pool.accHelium3PerShare.add(Helium3Reward.mul(1e12).div(lpSupply));\r\n        pool.lastRewardBlock = block.number;\r\n    }\r\n\r\n    // Deposit LP tokens to MasterChef for Helium3 allocation.\r\n    function deposit(uint256 _pid, uint256 _amount, address _referrer) public nonReentrant {\r\n        PoolInfo storage pool = poolInfo[_pid];\r\n        UserInfo storage user = userInfo[_pid][msg.sender];\r\n        updatePool(_pid);\r\n        if (_amount > 0 && address(Helium3Referral) != address(0) && _referrer != address(0) && _referrer != msg.sender) {\r\n            Helium3Referral.recordReferral(msg.sender, _referrer);\r\n        }\r\n        payOrLockupPendingHelium3(_pid);\r\n        if (_amount > 0) {\r\n            pool.lpToken.safeTransferFrom(address(msg.sender), address(this), _amount);\r\n            if (address(pool.lpToken) == address(Helium3)) {\r\n                uint256 transferTax = _amount.mul(Helium3.transferTaxRate()).div(10000);\r\n                _amount = _amount.sub(transferTax);\r\n            }\r\n            if (pool.depositFeeBP > 0) {\r\n                uint256 depositFee = _amount.mul(pool.depositFeeBP).div(10000);\r\n                pool.lpToken.safeTransfer(feeAddress, depositFee);\r\n                user.amount = user.amount.add(_amount).sub(depositFee);\r\n            } else {\r\n                user.amount = user.amount.add(_amount);\r\n            }\r\n        }\r\n        user.rewardDebt = user.amount.mul(pool.accHelium3PerShare).div(1e12);\r\n        emit Deposit(msg.sender, _pid, _amount);\r\n    }\r\n\r\n    // Withdraw LP tokens from MasterChef.\r\n    function withdraw(uint256 _pid, uint256 _amount) public nonReentrant {\r\n        PoolInfo storage pool = poolInfo[_pid];\r\n        UserInfo storage user = userInfo[_pid][msg.sender];\r\n        require(user.amount >= _amount, \"withdraw: not good\");\r\n        updatePool(_pid);\r\n        payOrLockupPendingHelium3(_pid);\r\n        if (_amount > 0) {\r\n            user.amount = user.amount.sub(_amount);\r\n            pool.lpToken.safeTransfer(address(msg.sender), _amount);\r\n        }\r\n        user.rewardDebt = user.amount.mul(pool.accHelium3PerShare).div(1e12);\r\n        emit Withdraw(msg.sender, _pid, _amount);\r\n    }\r\n\r\n    // Withdraw without caring about rewards. EMERGENCY ONLY.\r\n    function emergencyWithdraw(uint256 _pid) public nonReentrant {\r\n        PoolInfo storage pool = poolInfo[_pid];\r\n        UserInfo storage user = userInfo[_pid][msg.sender];\r\n        uint256 amount = user.amount;\r\n        user.amount = 0;\r\n        user.rewardDebt = 0;\r\n        user.rewardLockedUp = 0;\r\n        user.nextHarvestUntil = 0;\r\n        pool.lpToken.safeTransfer(address(msg.sender), amount);\r\n        emit EmergencyWithdraw(msg.sender, _pid, amount);\r\n    }\r\n\r\n    // Pay or lockup pending Helium3s.\r\n    function payOrLockupPendingHelium3(uint256 _pid) internal {\r\n        PoolInfo storage pool = poolInfo[_pid];\r\n        UserInfo storage user = userInfo[_pid][msg.sender];\r\n\r\n        if (user.nextHarvestUntil == 0) {\r\n            user.nextHarvestUntil = block.timestamp.add(pool.harvestInterval);\r\n        }\r\n\r\n        uint256 pending = user.amount.mul(pool.accHelium3PerShare).div(1e12).sub(user.rewardDebt);\r\n        if (canHarvest(_pid, msg.sender)) {\r\n            if (pending > 0 || user.rewardLockedUp > 0) {\r\n                uint256 totalRewards = pending.add(user.rewardLockedUp);\r\n\r\n                // reset lockup\r\n                totalLockedUpRewards = totalLockedUpRewards.sub(user.rewardLockedUp);\r\n                user.rewardLockedUp = 0;\r\n                user.nextHarvestUntil = block.timestamp.add(pool.harvestInterval);\r\n\r\n                // send rewards\r\n                safeHelium3Transfer(msg.sender, totalRewards);\r\n                payReferralCommission(msg.sender, totalRewards);\r\n            }\r\n        } else if (pending > 0) {\r\n            user.rewardLockedUp = user.rewardLockedUp.add(pending);\r\n            totalLockedUpRewards = totalLockedUpRewards.add(pending);\r\n            emit RewardLockedUp(msg.sender, _pid, pending);\r\n        }\r\n    }\r\n\r\n    // Safe Helium3 transfer function, just in case if rounding error causes pool to not have enough Helium3s.\r\n    function safeHelium3Transfer(address _to, uint256 _amount) internal {\r\n        uint256 Helium3Bal = Helium3.balanceOf(address(this));\r\n        if (_amount > Helium3Bal) {\r\n            Helium3.transfer(_to, Helium3Bal);\r\n        } else {\r\n            Helium3.transfer(_to, _amount);\r\n        }\r\n    }\r\n\r\n    // Update dev address by the previous dev.\r\n    function setDevAddress(address _devAddress) public {\r\n        require(msg.sender == devAddress, \"setDevAddress: FORBIDDEN\");\r\n        require(_devAddress != address(0), \"setDevAddress: ZERO\");\r\n        devAddress = _devAddress;\r\n    }\r\n\r\n    function setFeeAddress(address _feeAddress) public {\r\n        require(msg.sender == feeAddress, \"setFeeAddress: FORBIDDEN\");\r\n        require(_feeAddress != address(0), \"setFeeAddress: ZERO\");\r\n        feeAddress = _feeAddress;\r\n    }\r\n\r\n    // Pancake has to add hidden dummy pools in order to alter the emission, here we make it simple and transparent to all.\r\n    function updateEmissionRate(uint256 _Helium3PerBlock) public onlyOwner {\r\n        massUpdatePools();\r\n        emit EmissionRateUpdated(msg.sender, Helium3PerBlock, _Helium3PerBlock);\r\n        Helium3PerBlock = _Helium3PerBlock;\r\n    }\r\n\r\n    // Update the Helium3 referral contract address by the owner\r\n    function setHelium3Referral(IHelium3Referral _Helium3Referral) public onlyOwner {\r\n        Helium3Referral = _Helium3Referral;\r\n    }\r\n\r\n    // Update referral commission rate by the owner\r\n    function setReferralCommissionRate(uint16 _referralCommissionRate) public onlyOwner {\r\n        require(_referralCommissionRate <= MAXIMUM_REFERRAL_COMMISSION_RATE, \"setReferralCommissionRate: invalid referral commission rate basis points\");\r\n        referralCommissionRate = _referralCommissionRate;\r\n    }\r\n\r\n    // Pay referral commission to the referrer who referred this user.\r\n    function payReferralCommission(address _user, uint256 _pending) internal {\r\n        if (address(Helium3Referral) != address(0) && referralCommissionRate > 0) {\r\n            address referrer = Helium3Referral.getReferrer(_user);\r\n            uint256 commissionAmount = _pending.mul(referralCommissionRate).div(10000);\r\n\r\n            if (referrer != address(0) && commissionAmount > 0) {\r\n                Helium3.mint(referrer, commissionAmount);\r\n                Helium3Referral.recordReferralCommission(referrer, commissionAmount);\r\n                emit ReferralCommissionPaid(_user, referrer, commissionAmount);\r\n            }\r\n        }\r\n    }\r\n}\r\n",
  "sourcePath": "C:/Users/A-S-K/Desktop/Contracts/Contracts/coal-farm/contracts/MasterChef.sol",
  "compiler": {
    "name": "solc",
    "version": "0.6.12+commit.27d51765.Emscripten.clang"
  },
  "schemaVersion": "3.3.4",
  "updatedAt": "2021-05-07T10:32:10.865Z",
  "devdoc": {
    "kind": "dev",
    "methods": {
      "owner()": {
        "details": "Returns the address of the current owner."
      },
      "renounceOwnership()": {
        "details": "Leaves the contract without owner. It will not be possible to call `onlyOwner` functions anymore. Can only be called by the current owner. NOTE: Renouncing ownership will leave the contract without an owner, thereby removing any functionality that is only available to the owner."
      },
      "transferOwnership(address)": {
        "details": "Transfers ownership of the contract to a new account (`newOwner`). Can only be called by the current owner."
      }
    },
    "version": 1
  },
  "userdoc": {
    "kind": "user",
    "methods": {},
    "version": 1
  }
}