{
  "contractName": "CoalToken",
  "abi": [
    {
      "inputs": [
        {
          "internalType": "address",
          "name": "dev",
          "type": "address"
        }
      ],
      "stateMutability": "nonpayable",
      "type": "constructor"
    },
    {
      "anonymous": false,
      "inputs": [
        {
          "indexed": true,
          "internalType": "address",
          "name": "owner",
          "type": "address"
        },
        {
          "indexed": true,
          "internalType": "address",
          "name": "spender",
          "type": "address"
        },
        {
          "indexed": false,
          "internalType": "uint256",
          "name": "value",
          "type": "uint256"
        }
      ],
      "name": "Approval",
      "type": "event"
    },
    {
      "anonymous": false,
      "inputs": [
        {
          "indexed": true,
          "internalType": "address",
          "name": "operator",
          "type": "address"
        },
        {
          "indexed": false,
          "internalType": "uint256",
          "name": "previousRate",
          "type": "uint256"
        },
        {
          "indexed": false,
          "internalType": "uint256",
          "name": "newRate",
          "type": "uint256"
        }
      ],
      "name": "BurnRateUpdated",
      "type": "event"
    },
    {
      "anonymous": false,
      "inputs": [
        {
          "indexed": true,
          "internalType": "address",
          "name": "operator",
          "type": "address"
        },
        {
          "indexed": true,
          "internalType": "address",
          "name": "router",
          "type": "address"
        },
        {
          "indexed": true,
          "internalType": "address",
          "name": "pair",
          "type": "address"
        }
      ],
      "name": "CoalRouterUpdated",
      "type": "event"
    },
    {
      "anonymous": false,
      "inputs": [
        {
          "indexed": true,
          "internalType": "address",
          "name": "delegator",
          "type": "address"
        },
        {
          "indexed": true,
          "internalType": "address",
          "name": "fromDelegate",
          "type": "address"
        },
        {
          "indexed": true,
          "internalType": "address",
          "name": "toDelegate",
          "type": "address"
        }
      ],
      "name": "DelegateChanged",
      "type": "event"
    },
    {
      "anonymous": false,
      "inputs": [
        {
          "indexed": true,
          "internalType": "address",
          "name": "delegate",
          "type": "address"
        },
        {
          "indexed": false,
          "internalType": "uint256",
          "name": "previousBalance",
          "type": "uint256"
        },
        {
          "indexed": false,
          "internalType": "uint256",
          "name": "newBalance",
          "type": "uint256"
        }
      ],
      "name": "DelegateVotesChanged",
      "type": "event"
    },
    {
      "anonymous": false,
      "inputs": [
        {
          "indexed": true,
          "internalType": "address",
          "name": "operator",
          "type": "address"
        },
        {
          "indexed": false,
          "internalType": "uint256",
          "name": "previousRate",
          "type": "uint256"
        },
        {
          "indexed": false,
          "internalType": "uint256",
          "name": "newRate",
          "type": "uint256"
        }
      ],
      "name": "DevRateUpdated",
      "type": "event"
    },
    {
      "anonymous": false,
      "inputs": [
        {
          "indexed": true,
          "internalType": "address",
          "name": "operator",
          "type": "address"
        },
        {
          "indexed": false,
          "internalType": "uint256",
          "name": "previousRate",
          "type": "uint256"
        },
        {
          "indexed": false,
          "internalType": "uint256",
          "name": "newRate",
          "type": "uint256"
        }
      ],
      "name": "MaxTransferAmountRateUpdated",
      "type": "event"
    },
    {
      "anonymous": false,
      "inputs": [
        {
          "indexed": true,
          "internalType": "address",
          "name": "operator",
          "type": "address"
        },
        {
          "indexed": false,
          "internalType": "uint256",
          "name": "previousAmount",
          "type": "uint256"
        },
        {
          "indexed": false,
          "internalType": "uint256",
          "name": "newAmount",
          "type": "uint256"
        }
      ],
      "name": "MinAmountToLiquifyUpdated",
      "type": "event"
    },
    {
      "anonymous": false,
      "inputs": [
        {
          "indexed": true,
          "internalType": "address",
          "name": "previousOperator",
          "type": "address"
        },
        {
          "indexed": true,
          "internalType": "address",
          "name": "newOperator",
          "type": "address"
        }
      ],
      "name": "OperatorTransferred",
      "type": "event"
    },
    {
      "anonymous": false,
      "inputs": [
        {
          "indexed": true,
          "internalType": "address",
          "name": "previousOwner",
          "type": "address"
        },
        {
          "indexed": true,
          "internalType": "address",
          "name": "newOwner",
          "type": "address"
        }
      ],
      "name": "OwnershipTransferred",
      "type": "event"
    },
    {
      "anonymous": false,
      "inputs": [
        {
          "indexed": false,
          "internalType": "uint256",
          "name": "tokensSwapped",
          "type": "uint256"
        },
        {
          "indexed": false,
          "internalType": "uint256",
          "name": "ethReceived",
          "type": "uint256"
        },
        {
          "indexed": false,
          "internalType": "uint256",
          "name": "tokensIntoLiqudity",
          "type": "uint256"
        }
      ],
      "name": "SwapAndLiquify",
      "type": "event"
    },
    {
      "anonymous": false,
      "inputs": [
        {
          "indexed": true,
          "internalType": "address",
          "name": "operator",
          "type": "address"
        },
        {
          "indexed": false,
          "internalType": "bool",
          "name": "enabled",
          "type": "bool"
        }
      ],
      "name": "SwapAndLiquifyEnabledUpdated",
      "type": "event"
    },
    {
      "anonymous": false,
      "inputs": [
        {
          "indexed": true,
          "internalType": "address",
          "name": "from",
          "type": "address"
        },
        {
          "indexed": true,
          "internalType": "address",
          "name": "to",
          "type": "address"
        },
        {
          "indexed": false,
          "internalType": "uint256",
          "name": "value",
          "type": "uint256"
        }
      ],
      "name": "Transfer",
      "type": "event"
    },
    {
      "anonymous": false,
      "inputs": [
        {
          "indexed": true,
          "internalType": "address",
          "name": "operator",
          "type": "address"
        },
        {
          "indexed": false,
          "internalType": "uint256",
          "name": "previousRate",
          "type": "uint256"
        },
        {
          "indexed": false,
          "internalType": "uint256",
          "name": "newRate",
          "type": "uint256"
        }
      ],
      "name": "TransferTaxRateUpdated",
      "type": "event"
    },
    {
      "inputs": [],
      "name": "BURN_ADDRESS",
      "outputs": [
        {
          "internalType": "address",
          "name": "",
          "type": "address"
        }
      ],
      "stateMutability": "view",
      "type": "function"
    },
    {
      "inputs": [],
      "name": "CoalPair",
      "outputs": [
        {
          "internalType": "address",
          "name": "",
          "type": "address"
        }
      ],
      "stateMutability": "view",
      "type": "function"
    },
    {
      "inputs": [],
      "name": "CoalRouter",
      "outputs": [
        {
          "internalType": "contract IUniswapV2Router02",
          "name": "",
          "type": "address"
        }
      ],
      "stateMutability": "view",
      "type": "function"
    },
    {
      "inputs": [],
      "name": "DELEGATION_TYPEHASH",
      "outputs": [
        {
          "internalType": "bytes32",
          "name": "",
          "type": "bytes32"
        }
      ],
      "stateMutability": "view",
      "type": "function"
    },
    {
      "inputs": [],
      "name": "DOMAIN_TYPEHASH",
      "outputs": [
        {
          "internalType": "bytes32",
          "name": "",
          "type": "bytes32"
        }
      ],
      "stateMutability": "view",
      "type": "function"
    },
    {
      "inputs": [],
      "name": "MAXIMUM_TRANSFER_TAX_RATE",
      "outputs": [
        {
          "internalType": "uint16",
          "name": "",
          "type": "uint16"
        }
      ],
      "stateMutability": "view",
      "type": "function"
    },
    {
      "inputs": [
        {
          "internalType": "address",
          "name": "owner",
          "type": "address"
        },
        {
          "internalType": "address",
          "name": "spender",
          "type": "address"
        }
      ],
      "name": "allowance",
      "outputs": [
        {
          "internalType": "uint256",
          "name": "",
          "type": "uint256"
        }
      ],
      "stateMutability": "view",
      "type": "function"
    },
    {
      "inputs": [
        {
          "internalType": "address",
          "name": "spender",
          "type": "address"
        },
        {
          "internalType": "uint256",
          "name": "amount",
          "type": "uint256"
        }
      ],
      "name": "approve",
      "outputs": [
        {
          "internalType": "bool",
          "name": "",
          "type": "bool"
        }
      ],
      "stateMutability": "nonpayable",
      "type": "function"
    },
    {
      "inputs": [
        {
          "internalType": "address",
          "name": "account",
          "type": "address"
        }
      ],
      "name": "balanceOf",
      "outputs": [
        {
          "internalType": "uint256",
          "name": "",
          "type": "uint256"
        }
      ],
      "stateMutability": "view",
      "type": "function"
    },
    {
      "inputs": [],
      "name": "burnRate",
      "outputs": [
        {
          "internalType": "uint16",
          "name": "",
          "type": "uint16"
        }
      ],
      "stateMutability": "view",
      "type": "function"
    },
    {
      "inputs": [
        {
          "internalType": "address",
          "name": "",
          "type": "address"
        },
        {
          "internalType": "uint32",
          "name": "",
          "type": "uint32"
        }
      ],
      "name": "checkpoints",
      "outputs": [
        {
          "internalType": "uint32",
          "name": "fromBlock",
          "type": "uint32"
        },
        {
          "internalType": "uint256",
          "name": "votes",
          "type": "uint256"
        }
      ],
      "stateMutability": "view",
      "type": "function"
    },
    {
      "inputs": [],
      "name": "decimals",
      "outputs": [
        {
          "internalType": "uint8",
          "name": "",
          "type": "uint8"
        }
      ],
      "stateMutability": "view",
      "type": "function"
    },
    {
      "inputs": [
        {
          "internalType": "address",
          "name": "spender",
          "type": "address"
        },
        {
          "internalType": "uint256",
          "name": "subtractedValue",
          "type": "uint256"
        }
      ],
      "name": "decreaseAllowance",
      "outputs": [
        {
          "internalType": "bool",
          "name": "",
          "type": "bool"
        }
      ],
      "stateMutability": "nonpayable",
      "type": "function"
    },
    {
      "inputs": [],
      "name": "devAddress",
      "outputs": [
        {
          "internalType": "address",
          "name": "",
          "type": "address"
        }
      ],
      "stateMutability": "view",
      "type": "function"
    },
    {
      "inputs": [],
      "name": "devRate",
      "outputs": [
        {
          "internalType": "uint16",
          "name": "",
          "type": "uint16"
        }
      ],
      "stateMutability": "view",
      "type": "function"
    },
    {
      "inputs": [],
      "name": "getOwner",
      "outputs": [
        {
          "internalType": "address",
          "name": "",
          "type": "address"
        }
      ],
      "stateMutability": "view",
      "type": "function"
    },
    {
      "inputs": [
        {
          "internalType": "address",
          "name": "spender",
          "type": "address"
        },
        {
          "internalType": "uint256",
          "name": "addedValue",
          "type": "uint256"
        }
      ],
      "name": "increaseAllowance",
      "outputs": [
        {
          "internalType": "bool",
          "name": "",
          "type": "bool"
        }
      ],
      "stateMutability": "nonpayable",
      "type": "function"
    },
    {
      "inputs": [],
      "name": "maxTransferAmountRate",
      "outputs": [
        {
          "internalType": "uint16",
          "name": "",
          "type": "uint16"
        }
      ],
      "stateMutability": "view",
      "type": "function"
    },
    {
      "inputs": [],
      "name": "minAmountToLiquify",
      "outputs": [
        {
          "internalType": "uint256",
          "name": "",
          "type": "uint256"
        }
      ],
      "stateMutability": "view",
      "type": "function"
    },
    {
      "inputs": [],
      "name": "name",
      "outputs": [
        {
          "internalType": "string",
          "name": "",
          "type": "string"
        }
      ],
      "stateMutability": "view",
      "type": "function"
    },
    {
      "inputs": [
        {
          "internalType": "address",
          "name": "",
          "type": "address"
        }
      ],
      "name": "nonces",
      "outputs": [
        {
          "internalType": "uint256",
          "name": "",
          "type": "uint256"
        }
      ],
      "stateMutability": "view",
      "type": "function"
    },
    {
      "inputs": [
        {
          "internalType": "address",
          "name": "",
          "type": "address"
        }
      ],
      "name": "numCheckpoints",
      "outputs": [
        {
          "internalType": "uint32",
          "name": "",
          "type": "uint32"
        }
      ],
      "stateMutability": "view",
      "type": "function"
    },
    {
      "inputs": [],
      "name": "owner",
      "outputs": [
        {
          "internalType": "address",
          "name": "",
          "type": "address"
        }
      ],
      "stateMutability": "view",
      "type": "function"
    },
    {
      "inputs": [],
      "name": "renounceOwnership",
      "outputs": [],
      "stateMutability": "nonpayable",
      "type": "function"
    },
    {
      "inputs": [],
      "name": "swapAndLiquifyEnabled",
      "outputs": [
        {
          "internalType": "bool",
          "name": "",
          "type": "bool"
        }
      ],
      "stateMutability": "view",
      "type": "function"
    },
    {
      "inputs": [],
      "name": "symbol",
      "outputs": [
        {
          "internalType": "string",
          "name": "",
          "type": "string"
        }
      ],
      "stateMutability": "view",
      "type": "function"
    },
    {
      "inputs": [],
      "name": "totalSupply",
      "outputs": [
        {
          "internalType": "uint256",
          "name": "",
          "type": "uint256"
        }
      ],
      "stateMutability": "view",
      "type": "function"
    },
    {
      "inputs": [
        {
          "internalType": "address",
          "name": "recipient",
          "type": "address"
        },
        {
          "internalType": "uint256",
          "name": "amount",
          "type": "uint256"
        }
      ],
      "name": "transfer",
      "outputs": [
        {
          "internalType": "bool",
          "name": "",
          "type": "bool"
        }
      ],
      "stateMutability": "nonpayable",
      "type": "function"
    },
    {
      "inputs": [
        {
          "internalType": "address",
          "name": "sender",
          "type": "address"
        },
        {
          "internalType": "address",
          "name": "recipient",
          "type": "address"
        },
        {
          "internalType": "uint256",
          "name": "amount",
          "type": "uint256"
        }
      ],
      "name": "transferFrom",
      "outputs": [
        {
          "internalType": "bool",
          "name": "",
          "type": "bool"
        }
      ],
      "stateMutability": "nonpayable",
      "type": "function"
    },
    {
      "inputs": [
        {
          "internalType": "address",
          "name": "newOwner",
          "type": "address"
        }
      ],
      "name": "transferOwnership",
      "outputs": [],
      "stateMutability": "nonpayable",
      "type": "function"
    },
    {
      "inputs": [],
      "name": "transferTaxRate",
      "outputs": [
        {
          "internalType": "uint16",
          "name": "",
          "type": "uint16"
        }
      ],
      "stateMutability": "view",
      "type": "function"
    },
    {
      "stateMutability": "payable",
      "type": "receive"
    },
    {
      "inputs": [
        {
          "internalType": "address",
          "name": "_to",
          "type": "address"
        },
        {
          "internalType": "uint256",
          "name": "_amount",
          "type": "uint256"
        }
      ],
      "name": "mint",
      "outputs": [],
      "stateMutability": "nonpayable",
      "type": "function"
    },
    {
      "inputs": [
        {
          "internalType": "uint256",
          "name": "amount",
          "type": "uint256"
        }
      ],
      "name": "mint",
      "outputs": [
        {
          "internalType": "bool",
          "name": "",
          "type": "bool"
        }
      ],
      "stateMutability": "nonpayable",
      "type": "function"
    },
    {
      "inputs": [],
      "name": "maxTransferAmount",
      "outputs": [
        {
          "internalType": "uint256",
          "name": "",
          "type": "uint256"
        }
      ],
      "stateMutability": "view",
      "type": "function"
    },
    {
      "inputs": [
        {
          "internalType": "address",
          "name": "_account",
          "type": "address"
        }
      ],
      "name": "isExcludedFromAntiWhale",
      "outputs": [
        {
          "internalType": "bool",
          "name": "",
          "type": "bool"
        }
      ],
      "stateMutability": "view",
      "type": "function"
    },
    {
      "inputs": [
        {
          "internalType": "uint16",
          "name": "_transferTaxRate",
          "type": "uint16"
        }
      ],
      "name": "updateTransferTaxRate",
      "outputs": [],
      "stateMutability": "nonpayable",
      "type": "function"
    },
    {
      "inputs": [
        {
          "internalType": "uint16",
          "name": "_burnRate",
          "type": "uint16"
        }
      ],
      "name": "updateBurnRate",
      "outputs": [],
      "stateMutability": "nonpayable",
      "type": "function"
    },
    {
      "inputs": [
        {
          "internalType": "uint16",
          "name": "_devRate",
          "type": "uint16"
        }
      ],
      "name": "updateDevRate",
      "outputs": [],
      "stateMutability": "nonpayable",
      "type": "function"
    },
    {
      "inputs": [
        {
          "internalType": "uint16",
          "name": "_maxTransferAmountRate",
          "type": "uint16"
        }
      ],
      "name": "updateMaxTransferAmountRate",
      "outputs": [],
      "stateMutability": "nonpayable",
      "type": "function"
    },
    {
      "inputs": [
        {
          "internalType": "uint256",
          "name": "_minAmount",
          "type": "uint256"
        }
      ],
      "name": "updateMinAmountToLiquify",
      "outputs": [],
      "stateMutability": "nonpayable",
      "type": "function"
    },
    {
      "inputs": [
        {
          "internalType": "address",
          "name": "_account",
          "type": "address"
        },
        {
          "internalType": "bool",
          "name": "_excluded",
          "type": "bool"
        }
      ],
      "name": "setExcludedFromAntiWhale",
      "outputs": [],
      "stateMutability": "nonpayable",
      "type": "function"
    },
    {
      "inputs": [
        {
          "internalType": "bool",
          "name": "_enabled",
          "type": "bool"
        }
      ],
      "name": "updateSwapAndLiquifyEnabled",
      "outputs": [],
      "stateMutability": "nonpayable",
      "type": "function"
    },
    {
      "inputs": [
        {
          "internalType": "address",
          "name": "_router",
          "type": "address"
        }
      ],
      "name": "updateCoalRouter",
      "outputs": [],
      "stateMutability": "nonpayable",
      "type": "function"
    },
    {
      "inputs": [],
      "name": "operator",
      "outputs": [
        {
          "internalType": "address",
          "name": "",
          "type": "address"
        }
      ],
      "stateMutability": "view",
      "type": "function"
    },
    {
      "inputs": [
        {
          "internalType": "address",
          "name": "newOperator",
          "type": "address"
        }
      ],
      "name": "transferOperator",
      "outputs": [],
      "stateMutability": "nonpayable",
      "type": "function"
    },
    {
      "inputs": [
        {
          "internalType": "address",
          "name": "delegator",
          "type": "address"
        }
      ],
      "name": "delegates",
      "outputs": [
        {
          "internalType": "address",
          "name": "",
          "type": "address"
        }
      ],
      "stateMutability": "view",
      "type": "function"
    },
    {
      "inputs": [
        {
          "internalType": "address",
          "name": "delegatee",
          "type": "address"
        }
      ],
      "name": "delegate",
      "outputs": [],
      "stateMutability": "nonpayable",
      "type": "function"
    },
    {
      "inputs": [
        {
          "internalType": "address",
          "name": "delegatee",
          "type": "address"
        },
        {
          "internalType": "uint256",
          "name": "nonce",
          "type": "uint256"
        },
        {
          "internalType": "uint256",
          "name": "expiry",
          "type": "uint256"
        },
        {
          "internalType": "uint8",
          "name": "v",
          "type": "uint8"
        },
        {
          "internalType": "bytes32",
          "name": "r",
          "type": "bytes32"
        },
        {
          "internalType": "bytes32",
          "name": "s",
          "type": "bytes32"
        }
      ],
      "name": "delegateBySig",
      "outputs": [],
      "stateMutability": "nonpayable",
      "type": "function"
    },
    {
      "inputs": [
        {
          "internalType": "address",
          "name": "account",
          "type": "address"
        }
      ],
      "name": "getCurrentVotes",
      "outputs": [
        {
          "internalType": "uint256",
          "name": "",
          "type": "uint256"
        }
      ],
      "stateMutability": "view",
      "type": "function"
    },
    {
      "inputs": [
        {
          "internalType": "address",
          "name": "account",
          "type": "address"
        },
        {
          "internalType": "uint256",
          "name": "blockNumber",
          "type": "uint256"
        }
      ],
      "name": "getPriorVotes",
      "outputs": [
        {
          "internalType": "uint256",
          "name": "",
          "type": "uint256"
        }
      ],
      "stateMutability": "view",
      "type": "function"
    }
  ],
  "bytecode": "0x60806040526032600660016101000a81548161ffff021916908361ffff160217905550600a600660036101000a81548161ffff021916908361ffff160217905550600a600660056101000a81548161ffff021916908361ffff160217905550600a6006601b6101000a81548161ffff021916908361ffff1602179055506000600860006101000a81548160ff0219169083151502179055506802b5e3af16b1880000600955348015620000b157600080fd5b5060405162005ddb38038062005ddb83398181016040526020811015620000d757600080fd5b81019080805190602001909291905050506040518060400160405280600a81526020017f436f616c20546f6b656e000000000000000000000000000000000000000000008152506040518060400160405280600481526020017f436f616c000000000000000000000000000000000000000000000000000000008152506000620001666200054560201b60201c565b9050806000806101000a81548173ffffffffffffffffffffffffffffffffffffffff021916908373ffffffffffffffffffffffffffffffffffffffff1602179055508073ffffffffffffffffffffffffffffffffffffffff16600073ffffffffffffffffffffffffffffffffffffffff167f8be0079c531659141344cd1fd0a4f28419497f9722a3daafe3b4186f6b6457e060405160405180910390a35081600490805190602001906200021c9291906200054d565b508060059080519060200190620002359291906200054d565b506012600660006101000a81548160ff021916908360ff1602179055505050620002646200054560201b60201c565b600c60006101000a81548173ffffffffffffffffffffffffffffffffffffffff021916908373ffffffffffffffffffffffffffffffffffffffff16021790555080600660076101000a81548173ffffffffffffffffffffffffffffffffffffffff021916908373ffffffffffffffffffffffffffffffffffffffff160217905550600c60009054906101000a900473ffffffffffffffffffffffffffffffffffffffff1673ffffffffffffffffffffffffffffffffffffffff16600073ffffffffffffffffffffffffffffffffffffffff167f74da04524d50c64947f5dd5381ef1a4dca5cba8ed1d816243f9e48aa0b5617ed60405160405180910390a36001600760003373ffffffffffffffffffffffffffffffffffffffff1673ffffffffffffffffffffffffffffffffffffffff16815260200190815260200160002060006101000a81548160ff0219169083151502179055506001600760008073ffffffffffffffffffffffffffffffffffffffff1673ffffffffffffffffffffffffffffffffffffffff16815260200190815260200160002060006101000a81548160ff0219169083151502179055506001600760003073ffffffffffffffffffffffffffffffffffffffff1673ffffffffffffffffffffffffffffffffffffffff16815260200190815260200160002060006101000a81548160ff02191690831515021790555060016007600061dead73ffffffffffffffffffffffffffffffffffffffff1673ffffffffffffffffffffffffffffffffffffffff16815260200190815260200160002060006101000a81548160ff021916908315150217905550600160076000600660079054906101000a900473ffffffffffffffffffffffffffffffffffffffff1673ffffffffffffffffffffffffffffffffffffffff1673ffffffffffffffffffffffffffffffffffffffff16815260200190815260200160002060006101000a81548160ff02191690831515021790555050620005f3565b600033905090565b828054600181600116156101000203166002900490600052602060002090601f016020900481019282601f106200059057805160ff1916838001178555620005c1565b82800160010185558215620005c1579182015b82811115620005c0578251825591602001919060010190620005a3565b5b509050620005d09190620005d4565b5090565b5b80821115620005ef576000816000905550600101620005d5565b5090565b6157d880620006036000396000f3fe6080604052600436106102cd5760003560e01c80637ecebe0011610175578063bd431524116100dc578063dd62ed3e11610095578063f1127ed81161006f578063f1127ed81461112f578063f2fde38b146111b1578063f607f2b414611202578063fccc281314611241576102d4565b8063dd62ed3e1461103e578063e7a324dc146110c3578063e915ac8b146110ee576102d4565b8063bd43152414610e81578063bed9985014610ed2578063c3cda52014610f01578063c7f59a6714610f87578063c957497514610fe4578063d824835814611013576102d4565b8063a392e6741161012e578063a392e67414610ca5578063a457c2d714610ce0578063a9059cbb14610d51578063a9e7572314610dc2578063b4b5ea5714610ded578063b65d08b014610e52576102d4565b80637ecebe0014610aa0578063893d20e814610b055780638da5cb5b14610b4657806395d89b4114610b875780639f9a4e7f14610c17578063a0712d6814610c54576102d4565b80633950935111610234578063587cde1e116101ed5780636fcfff45116101c75780636fcfff451461094a57806370a08231146109b5578063715018a614610a1a578063782d6fe114610a31576102d4565b8063587cde1e1461083f5780635c19a95c146108ba5780636a141e2c1461090b576102d4565b806339509351146106955780633ad10ef6146107065780633ff8bf2e1461074757806340c10f19146107765780634a74bb02146107d1578063570ca735146107fe576102d4565b806323b872dd1161028657806323b872dd146104a0578063261d042a14610531578063269f534c1461057057806329605e77146105d7578063313ce56714610628578063376c239114610656576102d4565b806306fdde03146102d95780630758789914610369578063095ea7b3146103aa57806318160ddd1461041b5780631ad9339a1461044657806320606b7014610475576102d4565b366102d457005b600080fd5b3480156102e557600080fd5b506102ee611282565b6040518080602001828103825283818151815260200191508051906020019080838360005b8381101561032e578082015181840152602081019050610313565b50505050905090810190601f16801561035b5780820380516001836020036101000a031916815260200191505b509250505060405180910390f35b34801561037557600080fd5b5061037e611324565b604051808273ffffffffffffffffffffffffffffffffffffffff16815260200191505060405180910390f35b3480156103b657600080fd5b50610403600480360360408110156103cd57600080fd5b81019080803573ffffffffffffffffffffffffffffffffffffffff1690602001909291908035906020019092919050505061134a565b60405180821515815260200191505060405180910390f35b34801561042757600080fd5b50610430611368565b6040518082815260200191505060405180910390f35b34801561045257600080fd5b5061045b611372565b604051808261ffff16815260200191505060405180910390f35b34801561048157600080fd5b5061048a611377565b6040518082815260200191505060405180910390f35b3480156104ac57600080fd5b50610519600480360360608110156104c357600080fd5b81019080803573ffffffffffffffffffffffffffffffffffffffff169060200190929190803573ffffffffffffffffffffffffffffffffffffffff1690602001909291908035906020019092919050505061139b565b60405180821515815260200191505060405180910390f35b34801561053d57600080fd5b5061056e6004803603602081101561055457600080fd5b81019080803561ffff169060200190929190505050611474565b005b34801561057c57600080fd5b506105bf6004803603602081101561059357600080fd5b81019080803573ffffffffffffffffffffffffffffffffffffffff169060200190929190505050611606565b60405180821515815260200191505060405180910390f35b3480156105e357600080fd5b50610626600480360360208110156105fa57600080fd5b81019080803573ffffffffffffffffffffffffffffffffffffffff16906020019092919050505061165c565b005b34801561063457600080fd5b5061063d611848565b604051808260ff16815260200191505060405180910390f35b34801561066257600080fd5b506106936004803603602081101561067957600080fd5b81019080803561ffff16906020019092919050505061185f565b005b3480156106a157600080fd5b506106ee600480360360408110156106b857600080fd5b81019080803573ffffffffffffffffffffffffffffffffffffffff169060200190929190803590602001909291905050506119f5565b60405180821515815260200191505060405180910390f35b34801561071257600080fd5b5061071b611aa8565b604051808273ffffffffffffffffffffffffffffffffffffffff16815260200191505060405180910390f35b34801561075357600080fd5b5061075c611ace565b604051808261ffff16815260200191505060405180910390f35b34801561078257600080fd5b506107cf6004803603604081101561079957600080fd5b81019080803573ffffffffffffffffffffffffffffffffffffffff16906020019092919080359060200190929190505050611ae2565b005b3480156107dd57600080fd5b506107e6611c0a565b60405180821515815260200191505060405180910390f35b34801561080a57600080fd5b50610813611c1d565b604051808273ffffffffffffffffffffffffffffffffffffffff16815260200191505060405180910390f35b34801561084b57600080fd5b5061088e6004803603602081101561086257600080fd5b81019080803573ffffffffffffffffffffffffffffffffffffffff169060200190929190505050611c47565b604051808273ffffffffffffffffffffffffffffffffffffffff16815260200191505060405180910390f35b3480156108c657600080fd5b50610909600480360360208110156108dd57600080fd5b81019080803573ffffffffffffffffffffffffffffffffffffffff169060200190929190505050611cb0565b005b34801561091757600080fd5b506109486004803603602081101561092e57600080fd5b81019080803561ffff169060200190929190505050611cbd565b005b34801561095657600080fd5b506109996004803603602081101561096d57600080fd5b81019080803573ffffffffffffffffffffffffffffffffffffffff169060200190929190505050611e50565b604051808263ffffffff16815260200191505060405180910390f35b3480156109c157600080fd5b50610a04600480360360208110156109d857600080fd5b81019080803573ffffffffffffffffffffffffffffffffffffffff169060200190929190505050611e73565b6040518082815260200191505060405180910390f35b348015610a2657600080fd5b50610a2f611ebc565b005b348015610a3d57600080fd5b50610a8a60048036036040811015610a5457600080fd5b81019080803573ffffffffffffffffffffffffffffffffffffffff16906020019092919080359060200190929190505050612029565b6040518082815260200191505060405180910390f35b348015610aac57600080fd5b50610aef60048036036020811015610ac357600080fd5b81019080803573ffffffffffffffffffffffffffffffffffffffff1690602001909291905050506123ea565b6040518082815260200191505060405180910390f35b348015610b1157600080fd5b50610b1a612402565b604051808273ffffffffffffffffffffffffffffffffffffffff16815260200191505060405180910390f35b348015610b5257600080fd5b50610b5b612411565b604051808273ffffffffffffffffffffffffffffffffffffffff16815260200191505060405180910390f35b348015610b9357600080fd5b50610b9c61243a565b6040518080602001828103825283818151815260200191508051906020019080838360005b83811015610bdc578082015181840152602081019050610bc1565b50505050905090810190601f168015610c095780820380516001836020036101000a031916815260200191505b509250505060405180910390f35b348015610c2357600080fd5b50610c5260048036036020811015610c3a57600080fd5b810190808035151590602001909291905050506124dc565b005b348015610c6057600080fd5b50610c8d60048036036020811015610c7757600080fd5b81019080803590602001909291905050506125ef565b60405180821515815260200191505060405180910390f35b348015610cb157600080fd5b50610cde60048036036020811015610cc857600080fd5b81019080803590602001909291905050506126ba565b005b348015610cec57600080fd5b50610d3960048036036040811015610d0357600080fd5b81019080803573ffffffffffffffffffffffffffffffffffffffff169060200190929190803590602001909291905050506127c2565b60405180821515815260200191505060405180910390f35b348015610d5d57600080fd5b50610daa60048036036040811015610d7457600080fd5b81019080803573ffffffffffffffffffffffffffffffffffffffff1690602001909291908035906020019092919050505061288f565b60405180821515815260200191505060405180910390f35b348015610dce57600080fd5b50610dd76128ad565b6040518082815260200191505060405180910390f35b348015610df957600080fd5b50610e3c60048036036020811015610e1057600080fd5b81019080803573ffffffffffffffffffffffffffffffffffffffff1690602001909291905050506128f6565b6040518082815260200191505060405180910390f35b348015610e5e57600080fd5b50610e676129cc565b604051808261ffff16815260200191505060405180910390f35b348015610e8d57600080fd5b50610ed060048036036020811015610ea457600080fd5b81019080803573ffffffffffffffffffffffffffffffffffffffff1690602001909291905050506129e0565b005b348015610ede57600080fd5b50610ee7612e6b565b604051808261ffff16815260200191505060405180910390f35b348015610f0d57600080fd5b50610f85600480360360c0811015610f2457600080fd5b81019080803573ffffffffffffffffffffffffffffffffffffffff1690602001909291908035906020019092919080359060200190929190803560ff1690602001909291908035906020019092919080359060200190929190505050612e7f565b005b348015610f9357600080fd5b50610fe260048036036040811015610faa57600080fd5b81019080803573ffffffffffffffffffffffffffffffffffffffff1690602001909291908035151590602001909291905050506131e3565b005b348015610ff057600080fd5b50610ff96132e4565b604051808261ffff16815260200191505060405180910390f35b34801561101f57600080fd5b506110286132f8565b6040518082815260200191505060405180910390f35b34801561104a57600080fd5b506110ad6004803603604081101561106157600080fd5b81019080803573ffffffffffffffffffffffffffffffffffffffff169060200190929190803573ffffffffffffffffffffffffffffffffffffffff1690602001909291905050506132fe565b6040518082815260200191505060405180910390f35b3480156110cf57600080fd5b506110d8613385565b6040518082815260200191505060405180910390f35b3480156110fa57600080fd5b506111036133a9565b604051808273ffffffffffffffffffffffffffffffffffffffff16815260200191505060405180910390f35b34801561113b57600080fd5b5061118e6004803603604081101561115257600080fd5b81019080803573ffffffffffffffffffffffffffffffffffffffff169060200190929190803563ffffffff1690602001909291905050506133cf565b604051808363ffffffff1681526020018281526020019250505060405180910390f35b3480156111bd57600080fd5b50611200600480360360208110156111d457600080fd5b81019080803573ffffffffffffffffffffffffffffffffffffffff169060200190929190505050613410565b005b34801561120e57600080fd5b5061123f6004803603602081101561122557600080fd5b81019080803561ffff169060200190929190505050613602565b005b34801561124d57600080fd5b50611256613794565b604051808273ffffffffffffffffffffffffffffffffffffffff16815260200191505060405180910390f35b606060048054600181600116156101000203166002900480601f01602080910402602001604051908101604052809291908181526020018280546001816001161561010002031660029004801561131a5780601f106112ef5761010080835404028352916020019161131a565b820191906000526020600020905b8154815290600101906020018083116112fd57829003601f168201915b5050505050905090565b600a60009054906101000a900473ffffffffffffffffffffffffffffffffffffffff1681565b600061135e61135761379a565b84846137a2565b6001905092915050565b6000600354905090565b606481565b7f8cad95687ba82c2ce50e74f7b754645e5117c3a5bec8151c0726d5857980a86681565b60006113a8848484613999565b611469846113b461379a565b611464856040518060600160405280602881526020016154b360289139600260008b73ffffffffffffffffffffffffffffffffffffffff1673ffffffffffffffffffffffffffffffffffffffff168152602001908152602001600020600061141a61379a565b73ffffffffffffffffffffffffffffffffffffffff1673ffffffffffffffffffffffffffffffffffffffff16815260200190815260200160002054613f0c9092919063ffffffff16565b6137a2565b600190509392505050565b3373ffffffffffffffffffffffffffffffffffffffff16600c60009054906101000a900473ffffffffffffffffffffffffffffffffffffffff1673ffffffffffffffffffffffffffffffffffffffff161461151a576040517f08c379a00000000000000000000000000000000000000000000000000000000081526004018080602001828103825260248152602001806156546024913960400191505060405180910390fd5b60648161ffff161115611578576040517f08c379a000000000000000000000000000000000000000000000000000000000815260040180806020018281038252603f815260200180615474603f913960400191505060405180910390fd5b3373ffffffffffffffffffffffffffffffffffffffff167f0bb39ecfe00f0a77c52eff5064d4ba6cb03f19e1385d8907fb1e62ce9e39eec7600660059054906101000a900461ffff1683604051808361ffff1681526020018261ffff1681526020019250505060405180910390a280600660056101000a81548161ffff021916908361ffff16021790555050565b6000600760008373ffffffffffffffffffffffffffffffffffffffff1673ffffffffffffffffffffffffffffffffffffffff16815260200190815260200160002060009054906101000a900460ff169050919050565b3373ffffffffffffffffffffffffffffffffffffffff16600c60009054906101000a900473ffffffffffffffffffffffffffffffffffffffff1673ffffffffffffffffffffffffffffffffffffffff1614611702576040517f08c379a00000000000000000000000000000000000000000000000000000000081526004018080602001828103825260248152602001806156546024913960400191505060405180910390fd5b600073ffffffffffffffffffffffffffffffffffffffff168173ffffffffffffffffffffffffffffffffffffffff161415611788576040517f08c379a00000000000000000000000000000000000000000000000000000000081526004018080602001828103825260388152602001806155636038913960400191505060405180910390fd5b8073ffffffffffffffffffffffffffffffffffffffff16600c60009054906101000a900473ffffffffffffffffffffffffffffffffffffffff1673ffffffffffffffffffffffffffffffffffffffff167f74da04524d50c64947f5dd5381ef1a4dca5cba8ed1d816243f9e48aa0b5617ed60405160405180910390a380600c60006101000a81548173ffffffffffffffffffffffffffffffffffffffff021916908373ffffffffffffffffffffffffffffffffffffffff16021790555050565b6000600660009054906101000a900460ff16905090565b3373ffffffffffffffffffffffffffffffffffffffff16600c60009054906101000a900473ffffffffffffffffffffffffffffffffffffffff1673ffffffffffffffffffffffffffffffffffffffff1614611905576040517f08c379a00000000000000000000000000000000000000000000000000000000081526004018080602001828103825260248152602001806156546024913960400191505060405180910390fd5b606461ffff168161ffff161115611967576040517f08c379a00000000000000000000000000000000000000000000000000000000081526004018080602001828103825260508152602001806156046050913960600191505060405180910390fd5b3373ffffffffffffffffffffffffffffffffffffffff167fe9d5c8ee2a65d4fb859c680669d8f902172d53e3f15f9f11108a31bbada4b70b600660019054906101000a900461ffff1683604051808361ffff1681526020018261ffff1681526020019250505060405180910390a280600660016101000a81548161ffff021916908361ffff16021790555050565b6000611a9e611a0261379a565b84611a998560026000611a1361379a565b73ffffffffffffffffffffffffffffffffffffffff1673ffffffffffffffffffffffffffffffffffffffff16815260200190815260200160002060008973ffffffffffffffffffffffffffffffffffffffff1673ffffffffffffffffffffffffffffffffffffffff16815260200190815260200160002054613fc690919063ffffffff16565b6137a2565b6001905092915050565b600660079054906101000a900473ffffffffffffffffffffffffffffffffffffffff1681565b6006601b9054906101000a900461ffff1681565b611aea61379a565b73ffffffffffffffffffffffffffffffffffffffff16611b08612411565b73ffffffffffffffffffffffffffffffffffffffff1614611b91576040517f08c379a00000000000000000000000000000000000000000000000000000000081526004018080602001828103825260208152602001807f4f776e61626c653a2063616c6c6572206973206e6f7420746865206f776e657281525060200191505060405180910390fd5b611b9b828261404e565b611c066000600d60008573ffffffffffffffffffffffffffffffffffffffff1673ffffffffffffffffffffffffffffffffffffffff16815260200190815260200160002060009054906101000a900473ffffffffffffffffffffffffffffffffffffffff168361420b565b5050565b600860009054906101000a900460ff1681565b6000600c60009054906101000a900473ffffffffffffffffffffffffffffffffffffffff16905090565b6000600d60008373ffffffffffffffffffffffffffffffffffffffff1673ffffffffffffffffffffffffffffffffffffffff16815260200190815260200160002060009054906101000a900473ffffffffffffffffffffffffffffffffffffffff169050919050565b611cba33826144a8565b50565b3373ffffffffffffffffffffffffffffffffffffffff16600c60009054906101000a900473ffffffffffffffffffffffffffffffffffffffff1673ffffffffffffffffffffffffffffffffffffffff1614611d63576040517f08c379a00000000000000000000000000000000000000000000000000000000081526004018080602001828103825260248152602001806156546024913960400191505060405180910390fd5b6103e88161ffff161115611dc2576040517f08c379a000000000000000000000000000000000000000000000000000000000815260040180806020018281038252605d815260200180615746605d913960600191505060405180910390fd5b3373ffffffffffffffffffffffffffffffffffffffff167fb62a50fc861a770636e85357becb3b82a32e911106609d4985871eaf29011e086006601b9054906101000a900461ffff1683604051808361ffff1681526020018261ffff1681526020019250505060405180910390a2806006601b6101000a81548161ffff021916908361ffff16021790555050565b600f6020528060005260406000206000915054906101000a900463ffffffff1681565b6000600160008373ffffffffffffffffffffffffffffffffffffffff1673ffffffffffffffffffffffffffffffffffffffff168152602001908152602001600020549050919050565b611ec461379a565b73ffffffffffffffffffffffffffffffffffffffff16611ee2612411565b73ffffffffffffffffffffffffffffffffffffffff1614611f6b576040517f08c379a00000000000000000000000000000000000000000000000000000000081526004018080602001828103825260208152602001807f4f776e61626c653a2063616c6c6572206973206e6f7420746865206f776e657281525060200191505060405180910390fd5b600073ffffffffffffffffffffffffffffffffffffffff1660008054906101000a900473ffffffffffffffffffffffffffffffffffffffff1673ffffffffffffffffffffffffffffffffffffffff167f8be0079c531659141344cd1fd0a4f28419497f9722a3daafe3b4186f6b6457e060405160405180910390a360008060006101000a81548173ffffffffffffffffffffffffffffffffffffffff021916908373ffffffffffffffffffffffffffffffffffffffff160217905550565b6000438210612083576040517f08c379a000000000000000000000000000000000000000000000000000000000815260040180806020018281038252602781526020018061535b6027913960400191505060405180910390fd5b6000600f60008573ffffffffffffffffffffffffffffffffffffffff1673ffffffffffffffffffffffffffffffffffffffff16815260200190815260200160002060009054906101000a900463ffffffff16905060008163ffffffff1614156120f05760009150506123e4565b82600e60008673ffffffffffffffffffffffffffffffffffffffff1673ffffffffffffffffffffffffffffffffffffffff16815260200190815260200160002060006001840363ffffffff1663ffffffff16815260200190815260200160002060000160009054906101000a900463ffffffff1663ffffffff16116121da57600e60008573ffffffffffffffffffffffffffffffffffffffff1673ffffffffffffffffffffffffffffffffffffffff16815260200190815260200160002060006001830363ffffffff1663ffffffff168152602001908152602001600020600101549150506123e4565b82600e60008673ffffffffffffffffffffffffffffffffffffffff1673ffffffffffffffffffffffffffffffffffffffff16815260200190815260200160002060008063ffffffff16815260200190815260200160002060000160009054906101000a900463ffffffff1663ffffffff16111561225b5760009150506123e4565b6000806001830390505b8163ffffffff168163ffffffff16111561237e576000600283830363ffffffff168161228d57fe5b048203905061229a61533a565b600e60008973ffffffffffffffffffffffffffffffffffffffff1673ffffffffffffffffffffffffffffffffffffffff16815260200190815260200160002060008363ffffffff1663ffffffff1681526020019081526020016000206040518060400160405290816000820160009054906101000a900463ffffffff1663ffffffff1663ffffffff168152602001600182015481525050905086816000015163ffffffff161415612356578060200151955050505050506123e4565b86816000015163ffffffff16101561237057819350612377565b6001820392505b5050612265565b600e60008773ffffffffffffffffffffffffffffffffffffffff1673ffffffffffffffffffffffffffffffffffffffff16815260200190815260200160002060008363ffffffff1663ffffffff1681526020019081526020016000206001015493505050505b92915050565b60106020528060005260406000206000915090505481565b600061240c612411565b905090565b60008060009054906101000a900473ffffffffffffffffffffffffffffffffffffffff16905090565b606060058054600181600116156101000203166002900480601f0160208091040260200160405190810160405280929190818152602001828054600181600116156101000203166002900480156124d25780601f106124a7576101008083540402835291602001916124d2565b820191906000526020600020905b8154815290600101906020018083116124b557829003601f168201915b5050505050905090565b3373ffffffffffffffffffffffffffffffffffffffff16600c60009054906101000a900473ffffffffffffffffffffffffffffffffffffffff1673ffffffffffffffffffffffffffffffffffffffff1614612582576040517f08c379a00000000000000000000000000000000000000000000000000000000081526004018080602001828103825260248152602001806156546024913960400191505060405180910390fd5b3373ffffffffffffffffffffffffffffffffffffffff167f3ca65588b29182880283bc8778fea5f01b351e01d874839a39a99e1c281a21138260405180821515815260200191505060405180910390a280600860006101000a81548160ff02191690831515021790555050565b60006125f961379a565b73ffffffffffffffffffffffffffffffffffffffff16612617612411565b73ffffffffffffffffffffffffffffffffffffffff16146126a0576040517f08c379a00000000000000000000000000000000000000000000000000000000081526004018080602001828103825260208152602001807f4f776e61626c653a2063616c6c6572206973206e6f7420746865206f776e657281525060200191505060405180910390fd5b6126b16126ab61379a565b8361404e565b60019050919050565b3373ffffffffffffffffffffffffffffffffffffffff16600c60009054906101000a900473ffffffffffffffffffffffffffffffffffffffff1673ffffffffffffffffffffffffffffffffffffffff1614612760576040517f08c379a00000000000000000000000000000000000000000000000000000000081526004018080602001828103825260248152602001806156546024913960400191505060405180910390fd5b3373ffffffffffffffffffffffffffffffffffffffff167f54c7a13ff01698e4ed3550a23216585f8472c7b1515a932eac98c9a6d48990c560095483604051808381526020018281526020019250505060405180910390a28060098190555050565b60006128856127cf61379a565b84612880856040518060600160405280602581526020016156c160259139600260006127f961379a565b73ffffffffffffffffffffffffffffffffffffffff1673ffffffffffffffffffffffffffffffffffffffff16815260200190815260200160002060008a73ffffffffffffffffffffffffffffffffffffffff1673ffffffffffffffffffffffffffffffffffffffff16815260200190815260200160002054613f0c9092919063ffffffff16565b6137a2565b6001905092915050565b60006128a361289c61379a565b8484613999565b6001905092915050565b60006128f16127106128e36006601b9054906101000a900461ffff1661ffff166128d5611368565b61461990919063ffffffff16565b61469f90919063ffffffff16565b905090565b600080600f60008473ffffffffffffffffffffffffffffffffffffffff1673ffffffffffffffffffffffffffffffffffffffff16815260200190815260200160002060009054906101000a900463ffffffff16905060008163ffffffff16116129605760006129c4565b600e60008473ffffffffffffffffffffffffffffffffffffffff1673ffffffffffffffffffffffffffffffffffffffff16815260200190815260200160002060006001830363ffffffff1663ffffffff168152602001908152602001600020600101545b915050919050565b600660019054906101000a900461ffff1681565b3373ffffffffffffffffffffffffffffffffffffffff16600c60009054906101000a900473ffffffffffffffffffffffffffffffffffffffff1673ffffffffffffffffffffffffffffffffffffffff1614612a86576040517f08c379a00000000000000000000000000000000000000000000000000000000081526004018080602001828103825260248152602001806156546024913960400191505060405180910390fd5b80600a60006101000a81548173ffffffffffffffffffffffffffffffffffffffff021916908373ffffffffffffffffffffffffffffffffffffffff160217905550600a60009054906101000a900473ffffffffffffffffffffffffffffffffffffffff1673ffffffffffffffffffffffffffffffffffffffff1663c45a01556040518163ffffffff1660e01b815260040160206040518083038186803b158015612b2f57600080fd5b505afa158015612b43573d6000803e3d6000fd5b505050506040513d6020811015612b5957600080fd5b810190808051906020019092919050505073ffffffffffffffffffffffffffffffffffffffff1663e6a4390530600a60009054906101000a900473ffffffffffffffffffffffffffffffffffffffff1673ffffffffffffffffffffffffffffffffffffffff1663ad5c46486040518163ffffffff1660e01b815260040160206040518083038186803b158015612bee57600080fd5b505afa158015612c02573d6000803e3d6000fd5b505050506040513d6020811015612c1857600080fd5b81019080805190602001909291905050506040518363ffffffff1660e01b8152600401808373ffffffffffffffffffffffffffffffffffffffff1681526020018273ffffffffffffffffffffffffffffffffffffffff1681526020019250505060206040518083038186803b158015612c9057600080fd5b505afa158015612ca4573d6000803e3d6000fd5b505050506040513d6020811015612cba57600080fd5b8101908080519060200190929190505050600b60006101000a81548173ffffffffffffffffffffffffffffffffffffffff021916908373ffffffffffffffffffffffffffffffffffffffff160217905550600073ffffffffffffffffffffffffffffffffffffffff16600b60009054906101000a900473ffffffffffffffffffffffffffffffffffffffff1673ffffffffffffffffffffffffffffffffffffffff161415612db3576040517f08c379a000000000000000000000000000000000000000000000000000000000815260040180806020018281038252602d8152602001806153c9602d913960400191505060405180910390fd5b600b60009054906101000a900473ffffffffffffffffffffffffffffffffffffffff1673ffffffffffffffffffffffffffffffffffffffff16600a60009054906101000a900473ffffffffffffffffffffffffffffffffffffffff1673ffffffffffffffffffffffffffffffffffffffff163373ffffffffffffffffffffffffffffffffffffffff167f2d8389d0e81c3929a147587f694e18e809fe42119aabaee33e46d6781c23d95360405160405180910390a450565b600660039054906101000a900461ffff1681565b60007f8cad95687ba82c2ce50e74f7b754645e5117c3a5bec8151c0726d5857980a866612eaa611282565b80519060200120612eb9614728565b30604051602001808581526020018481526020018381526020018273ffffffffffffffffffffffffffffffffffffffff16815260200194505050505060405160208183030381529060405280519060200120905060007fe48329057bfd03d55e49b547132e39cffd9c1820ad7b9d4c5307691425d15adf888888604051602001808581526020018473ffffffffffffffffffffffffffffffffffffffff1681526020018381526020018281526020019450505050506040516020818303038152906040528051906020012090506000828260405160200180807f190100000000000000000000000000000000000000000000000000000000000081525060020183815260200182815260200192505050604051602081830303815290604052805190602001209050600060018288888860405160008152602001604052604051808581526020018460ff1681526020018381526020018281526020019450505050506020604051602081039080840390855afa15801561303d573d6000803e3d6000fd5b505050602060405103519050600073ffffffffffffffffffffffffffffffffffffffff168173ffffffffffffffffffffffffffffffffffffffff1614156130cf576040517f08c379a000000000000000000000000000000000000000000000000000000000815260040180806020018281038252602681526020018061551c6026913960400191505060405180910390fd5b601060008273ffffffffffffffffffffffffffffffffffffffff1673ffffffffffffffffffffffffffffffffffffffff1681526020019081526020016000206000815480929190600101919050558914613174576040517f08c379a00000000000000000000000000000000000000000000000000000000081526004018080602001828103825260228152602001806153a76022913960400191505060405180910390fd5b874211156131cd576040517f08c379a00000000000000000000000000000000000000000000000000000000081526004018080602001828103825260268152602001806155bd6026913960400191505060405180910390fd5b6131d7818b6144a8565b50505050505050505050565b3373ffffffffffffffffffffffffffffffffffffffff16600c60009054906101000a900473ffffffffffffffffffffffffffffffffffffffff1673ffffffffffffffffffffffffffffffffffffffff1614613289576040517f08c379a00000000000000000000000000000000000000000000000000000000081526004018080602001828103825260248152602001806156546024913960400191505060405180910390fd5b80600760008473ffffffffffffffffffffffffffffffffffffffff1673ffffffffffffffffffffffffffffffffffffffff16815260200190815260200160002060006101000a81548160ff0219169083151502179055505050565b600660059054906101000a900461ffff1681565b60095481565b6000600260008473ffffffffffffffffffffffffffffffffffffffff1673ffffffffffffffffffffffffffffffffffffffff16815260200190815260200160002060008373ffffffffffffffffffffffffffffffffffffffff1673ffffffffffffffffffffffffffffffffffffffff16815260200190815260200160002054905092915050565b7fe48329057bfd03d55e49b547132e39cffd9c1820ad7b9d4c5307691425d15adf81565b600b60009054906101000a900473ffffffffffffffffffffffffffffffffffffffff1681565b600e602052816000526040600020602052806000526040600020600091509150508060000160009054906101000a900463ffffffff16908060010154905082565b61341861379a565b73ffffffffffffffffffffffffffffffffffffffff16613436612411565b73ffffffffffffffffffffffffffffffffffffffff16146134bf576040517f08c379a00000000000000000000000000000000000000000000000000000000081526004018080602001828103825260208152602001807f4f776e61626c653a2063616c6c6572206973206e6f7420746865206f776e657281525060200191505060405180910390fd5b600073ffffffffffffffffffffffffffffffffffffffff168173ffffffffffffffffffffffffffffffffffffffff161415613545576040517f08c379a000000000000000000000000000000000000000000000000000000000815260040180806020018281038252602681526020018061544e6026913960400191505060405180910390fd5b8073ffffffffffffffffffffffffffffffffffffffff1660008054906101000a900473ffffffffffffffffffffffffffffffffffffffff1673ffffffffffffffffffffffffffffffffffffffff167f8be0079c531659141344cd1fd0a4f28419497f9722a3daafe3b4186f6b6457e060405160405180910390a3806000806101000a81548173ffffffffffffffffffffffffffffffffffffffff021916908373ffffffffffffffffffffffffffffffffffffffff16021790555050565b3373ffffffffffffffffffffffffffffffffffffffff16600c60009054906101000a900473ffffffffffffffffffffffffffffffffffffffff1673ffffffffffffffffffffffffffffffffffffffff16146136a8576040517f08c379a00000000000000000000000000000000000000000000000000000000081526004018080602001828103825260248152602001806156546024913960400191505060405180910390fd5b60648161ffff161115613706576040517f08c379a00000000000000000000000000000000000000000000000000000000081526004018080602001828103825260418152602001806154db6041913960600191505060405180910390fd5b3373ffffffffffffffffffffffffffffffffffffffff167f3eec69630b6f49d4e10eec296fce4baddec5f34c5430fb2cd72f8c4218f63fd0600660039054906101000a900461ffff1683604051808361ffff1681526020018261ffff1681526020019250505060405180910390a280600660036101000a81548161ffff021916908361ffff16021790555050565b61dead81565b600033905090565b600073ffffffffffffffffffffffffffffffffffffffff168373ffffffffffffffffffffffffffffffffffffffff161415613828576040517f08c379a00000000000000000000000000000000000000000000000000000000081526004018080602001828103825260248152602001806153f66024913960400191505060405180910390fd5b600073ffffffffffffffffffffffffffffffffffffffff168273ffffffffffffffffffffffffffffffffffffffff1614156138ae576040517f08c379a00000000000000000000000000000000000000000000000000000000081526004018080602001828103825260228152602001806157246022913960400191505060405180910390fd5b80600260008573ffffffffffffffffffffffffffffffffffffffff1673ffffffffffffffffffffffffffffffffffffffff16815260200190815260200160002060008473ffffffffffffffffffffffffffffffffffffffff1673ffffffffffffffffffffffffffffffffffffffff168152602001908152602001600020819055508173ffffffffffffffffffffffffffffffffffffffff168373ffffffffffffffffffffffffffffffffffffffff167f8c5be1e5ebec7d5bd14f71427d1e84f3dd0314c0f7b2291e5b200ac8c7c3b925836040518082815260200191505060405180910390a3505050565b82828260006139a66128ad565b1115613ac35760001515600760008573ffffffffffffffffffffffffffffffffffffffff1673ffffffffffffffffffffffffffffffffffffffff16815260200190815260200160002060009054906101000a900460ff161515148015613a5c575060001515600760008473ffffffffffffffffffffffffffffffffffffffff1673ffffffffffffffffffffffffffffffffffffffff16815260200190815260200160002060009054906101000a900460ff161515145b15613ac257613a696128ad565b811115613ac1576040517f08c379a000000000000000000000000000000000000000000000000000000000815260040180806020018281038252603e8152602001806156e6603e913960400191505060405180910390fd5b5b5b60011515600860009054906101000a900460ff161515148015613af9575060001515600b60149054906101000a900460ff161515145b8015613b545750600073ffffffffffffffffffffffffffffffffffffffff16600a60009054906101000a900473ffffffffffffffffffffffffffffffffffffffff1673ffffffffffffffffffffffffffffffffffffffff1614155b8015613baf5750600073ffffffffffffffffffffffffffffffffffffffff16600b60009054906101000a900473ffffffffffffffffffffffffffffffffffffffff1673ffffffffffffffffffffffffffffffffffffffff1614155b8015613c095750600b60009054906101000a900473ffffffffffffffffffffffffffffffffffffffff1673ffffffffffffffffffffffffffffffffffffffff168673ffffffffffffffffffffffffffffffffffffffff1614155b8015613c485750613c18612411565b73ffffffffffffffffffffffffffffffffffffffff168673ffffffffffffffffffffffffffffffffffffffff1614155b15613c5657613c55614735565b5b61dead73ffffffffffffffffffffffffffffffffffffffff168573ffffffffffffffffffffffffffffffffffffffff161480613ca657506000600660019054906101000a900461ffff1661ffff16145b80613ce35750613cb4612411565b73ffffffffffffffffffffffffffffffffffffffff168573ffffffffffffffffffffffffffffffffffffffff16145b15613cf857613cf38686866148a5565b613f04565b6000613d356103e8613d27600660019054906101000a900461ffff1661ffff168861461990919063ffffffff16565b61469f90919063ffffffff16565b90506000613d746103e8613d66600660039054906101000a900461ffff1661ffff168961461990919063ffffffff16565b61469f90919063ffffffff16565b90506000613db36103e8613da5600660059054906101000a900461ffff1661ffff168a61461990919063ffffffff16565b61469f90919063ffffffff16565b90506000613ddc82613dce8587614b5f90919063ffffffff16565b614b5f90919063ffffffff16565b905081818401018414613e3a576040517f08c379a000000000000000000000000000000000000000000000000000000000815260040180806020018281038252602281526020018061559b6022913960400191505060405180910390fd5b6000613e4f858a614b5f90919063ffffffff16565b90508481018914613eab576040517f08c379a00000000000000000000000000000000000000000000000000000000081526004018080602001828103825260218152602001806155426021913960400191505060405180910390fd5b613eb88b61dead866148a5565b613ec38b30846148a5565b613ef08b600660079054906101000a900473ffffffffffffffffffffffffffffffffffffffff16856148a5565b613efb8b8b836148a5565b80985050505050505b505050505050565b6000838311158290613fb9576040517f08c379a00000000000000000000000000000000000000000000000000000000081526004018080602001828103825283818151815260200191508051906020019080838360005b83811015613f7e578082015181840152602081019050613f63565b50505050905090810190601f168015613fab5780820380516001836020036101000a031916815260200191505b509250505060405180910390fd5b5082840390509392505050565b600080828401905083811015614044576040517f08c379a000000000000000000000000000000000000000000000000000000000815260040180806020018281038252601b8152602001807f536166654d6174683a206164646974696f6e206f766572666c6f77000000000081525060200191505060405180910390fd5b8091505092915050565b600073ffffffffffffffffffffffffffffffffffffffff168273ffffffffffffffffffffffffffffffffffffffff1614156140f1576040517f08c379a000000000000000000000000000000000000000000000000000000000815260040180806020018281038252601f8152602001807f42455032303a206d696e7420746f20746865207a65726f20616464726573730081525060200191505060405180910390fd5b61410681600354613fc690919063ffffffff16565b60038190555061415e81600160008573ffffffffffffffffffffffffffffffffffffffff1673ffffffffffffffffffffffffffffffffffffffff16815260200190815260200160002054613fc690919063ffffffff16565b600160008473ffffffffffffffffffffffffffffffffffffffff1673ffffffffffffffffffffffffffffffffffffffff168152602001908152602001600020819055508173ffffffffffffffffffffffffffffffffffffffff16600073ffffffffffffffffffffffffffffffffffffffff167fddf252ad1be2c89b69c2b068fc378daa952ba7f163c4a11628f55a4df523b3ef836040518082815260200191505060405180910390a35050565b8173ffffffffffffffffffffffffffffffffffffffff168373ffffffffffffffffffffffffffffffffffffffff16141580156142475750600081115b156144a357600073ffffffffffffffffffffffffffffffffffffffff168373ffffffffffffffffffffffffffffffffffffffff1614614377576000600f60008573ffffffffffffffffffffffffffffffffffffffff1673ffffffffffffffffffffffffffffffffffffffff16815260200190815260200160002060009054906101000a900463ffffffff1690506000808263ffffffff16116142ea57600061434e565b600e60008673ffffffffffffffffffffffffffffffffffffffff1673ffffffffffffffffffffffffffffffffffffffff16815260200190815260200160002060006001840363ffffffff1663ffffffff168152602001908152602001600020600101545b905060006143658483614b5f90919063ffffffff16565b905061437386848484614be2565b5050505b600073ffffffffffffffffffffffffffffffffffffffff168273ffffffffffffffffffffffffffffffffffffffff16146144a2576000600f60008473ffffffffffffffffffffffffffffffffffffffff1673ffffffffffffffffffffffffffffffffffffffff16815260200190815260200160002060009054906101000a900463ffffffff1690506000808263ffffffff1611614415576000614479565b600e60008573ffffffffffffffffffffffffffffffffffffffff1673ffffffffffffffffffffffffffffffffffffffff16815260200190815260200160002060006001840363ffffffff1663ffffffff168152602001908152602001600020600101545b905060006144908483613fc690919063ffffffff16565b905061449e85848484614be2565b5050505b5b505050565b6000600d60008473ffffffffffffffffffffffffffffffffffffffff1673ffffffffffffffffffffffffffffffffffffffff16815260200190815260200160002060009054906101000a900473ffffffffffffffffffffffffffffffffffffffff169050600061451784611e73565b905082600d60008673ffffffffffffffffffffffffffffffffffffffff1673ffffffffffffffffffffffffffffffffffffffff16815260200190815260200160002060006101000a81548173ffffffffffffffffffffffffffffffffffffffff021916908373ffffffffffffffffffffffffffffffffffffffff1602179055508273ffffffffffffffffffffffffffffffffffffffff168273ffffffffffffffffffffffffffffffffffffffff168573ffffffffffffffffffffffffffffffffffffffff167f3134e8a2e6d97e929a7e54011ea5485d7d196dd5f0ba4d4ef95803e8e3fc257f60405160405180910390a461461382848361420b565b50505050565b60008083141561462c5760009050614699565b600082840290508284828161463d57fe5b0414614694576040517f08c379a00000000000000000000000000000000000000000000000000000000081526004018080602001828103825260218152602001806155e36021913960400191505060405180910390fd5b809150505b92915050565b6000808211614716576040517f08c379a000000000000000000000000000000000000000000000000000000000815260040180806020018281038252601a8152602001807f536166654d6174683a206469766973696f6e206279207a65726f00000000000081525060200191505060405180910390fd5b81838161471f57fe5b04905092915050565b6000804690508091505090565b6001600b60146101000a81548160ff0219169083151502179055506000600660019054906101000a900461ffff1690506000600660016101000a81548161ffff021916908361ffff160217905550600061478e30611e73565b9050600061479a6128ad565b90508082116147a957816147ab565b805b91506009548210614868576000600954905060006147d360028361469f90919063ffffffff16565b905060006147ea8284614b5f90919063ffffffff16565b905060004790506147fa83614e76565b600061480f8247614b5f90919063ffffffff16565b905061481b838261512a565b7f17bbfb9a6069321b6ded73bd96327c9e6b7212a5cd51ff219cd61370acafb56184828560405180848152602001838152602001828152602001935050505060405180910390a150505050505b505080600660016101000a81548161ffff021916908361ffff160217905550506000600b60146101000a81548160ff021916908315150217905550565b600073ffffffffffffffffffffffffffffffffffffffff168373ffffffffffffffffffffffffffffffffffffffff16141561492b576040517f08c379a00000000000000000000000000000000000000000000000000000000081526004018080602001828103825260258152602001806153826025913960400191505060405180910390fd5b600073ffffffffffffffffffffffffffffffffffffffff168273ffffffffffffffffffffffffffffffffffffffff1614156149b1576040517f08c379a000000000000000000000000000000000000000000000000000000000815260040180806020018281038252602381526020018061569e6023913960400191505060405180910390fd5b614a1d8160405180606001604052806026815260200161567860269139600160008773ffffffffffffffffffffffffffffffffffffffff1673ffffffffffffffffffffffffffffffffffffffff16815260200190815260200160002054613f0c9092919063ffffffff16565b600160008573ffffffffffffffffffffffffffffffffffffffff1673ffffffffffffffffffffffffffffffffffffffff16815260200190815260200160002081905550614ab281600160008573ffffffffffffffffffffffffffffffffffffffff1673ffffffffffffffffffffffffffffffffffffffff16815260200190815260200160002054613fc690919063ffffffff16565b600160008473ffffffffffffffffffffffffffffffffffffffff1673ffffffffffffffffffffffffffffffffffffffff168152602001908152602001600020819055508173ffffffffffffffffffffffffffffffffffffffff168373ffffffffffffffffffffffffffffffffffffffff167fddf252ad1be2c89b69c2b068fc378daa952ba7f163c4a11628f55a4df523b3ef836040518082815260200191505060405180910390a3505050565b600082821115614bd7576040517f08c379a000000000000000000000000000000000000000000000000000000000815260040180806020018281038252601e8152602001807f536166654d6174683a207375627472616374696f6e206f766572666c6f77000081525060200191505060405180910390fd5b818303905092915050565b6000614c064360405180606001604052806034815260200161541a6034913961527f565b905060008463ffffffff16118015614c9b57508063ffffffff16600e60008773ffffffffffffffffffffffffffffffffffffffff1673ffffffffffffffffffffffffffffffffffffffff16815260200190815260200160002060006001870363ffffffff1663ffffffff16815260200190815260200160002060000160009054906101000a900463ffffffff1663ffffffff16145b15614d0c5781600e60008773ffffffffffffffffffffffffffffffffffffffff1673ffffffffffffffffffffffffffffffffffffffff16815260200190815260200160002060006001870363ffffffff1663ffffffff16815260200190815260200160002060010181905550614e19565b60405180604001604052808263ffffffff16815260200183815250600e60008773ffffffffffffffffffffffffffffffffffffffff1673ffffffffffffffffffffffffffffffffffffffff16815260200190815260200160002060008663ffffffff1663ffffffff16815260200190815260200160002060008201518160000160006101000a81548163ffffffff021916908363ffffffff1602179055506020820151816001015590505060018401600f60008773ffffffffffffffffffffffffffffffffffffffff1673ffffffffffffffffffffffffffffffffffffffff16815260200190815260200160002060006101000a81548163ffffffff021916908363ffffffff1602179055505b8473ffffffffffffffffffffffffffffffffffffffff167fdec2bacdd2f05b59de34da9b523dff8be42e5e38e818c82fdb0bae774387a7248484604051808381526020018281526020019250505060405180910390a25050505050565b6060600267ffffffffffffffff81118015614e9057600080fd5b50604051908082528060200260200182016040528015614ebf5781602001602082028036833780820191505090505b5090503081600081518110614ed057fe5b602002602001019073ffffffffffffffffffffffffffffffffffffffff16908173ffffffffffffffffffffffffffffffffffffffff1681525050600a60009054906101000a900473ffffffffffffffffffffffffffffffffffffffff1673ffffffffffffffffffffffffffffffffffffffff1663ad5c46486040518163ffffffff1660e01b815260040160206040518083038186803b158015614f7257600080fd5b505afa158015614f86573d6000803e3d6000fd5b505050506040513d6020811015614f9c57600080fd5b810190808051906020019092919050505081600181518110614fba57fe5b602002602001019073ffffffffffffffffffffffffffffffffffffffff16908173ffffffffffffffffffffffffffffffffffffffff168152505061502130600a60009054906101000a900473ffffffffffffffffffffffffffffffffffffffff16846137a2565b600a60009054906101000a900473ffffffffffffffffffffffffffffffffffffffff1673ffffffffffffffffffffffffffffffffffffffff1663791ac9478360008430426040518663ffffffff1660e01b815260040180868152602001858152602001806020018473ffffffffffffffffffffffffffffffffffffffff168152602001838152602001828103825285818151815260200191508051906020019060200280838360005b838110156150e55780820151818401526020810190506150ca565b505050509050019650505050505050600060405180830381600087803b15801561510e57600080fd5b505af1158015615122573d6000803e3d6000fd5b505050505050565b61515730600a60009054906101000a900473ffffffffffffffffffffffffffffffffffffffff16846137a2565b600a60009054906101000a900473ffffffffffffffffffffffffffffffffffffffff1673ffffffffffffffffffffffffffffffffffffffff1663f305d7198230856000806151a3611c1d565b426040518863ffffffff1660e01b8152600401808773ffffffffffffffffffffffffffffffffffffffff1681526020018681526020018581526020018481526020018373ffffffffffffffffffffffffffffffffffffffff16815260200182815260200196505050505050506060604051808303818588803b15801561522857600080fd5b505af115801561523c573d6000803e3d6000fd5b50505050506040513d606081101561525357600080fd5b810190808051906020019092919080519060200190929190805190602001909291905050505050505050565b600064010000000083108290615330576040517f08c379a00000000000000000000000000000000000000000000000000000000081526004018080602001828103825283818151815260200191508051906020019080838360005b838110156152f55780820151818401526020810190506152da565b50505050905090810190601f1680156153225780820380516001836020036101000a031916815260200191505b509250505060405180910390fd5b5082905092915050565b6040518060400160405280600063ffffffff16815260200160008152509056fe436f616c3a3a6765745072696f72566f7465733a206e6f74207965742064657465726d696e656442455032303a207472616e736665722066726f6d20746865207a65726f2061646472657373436f616c3a3a64656c656761746542795369673a20696e76616c6964206e6f6e6365436f616c3a3a757064617465436f616c526f757465723a20496e76616c6964207061697220616464726573732e42455032303a20617070726f76652066726f6d20746865207a65726f2061646472657373436f616c3a3a5f7772697465436865636b706f696e743a20626c6f636b206e756d626572206578636565647320333220626974734f776e61626c653a206e6577206f776e657220697320746865207a65726f2061646472657373436f616c3a3a757064617465446576526174653a204465762072617465206d757374206e6f742065786365656420746865206d6178696d756d20726174652e42455032303a207472616e7366657220616d6f756e74206578636565647320616c6c6f77616e6365436f616c3a3a7570646174654275726e526174653a204275726e2072617465206d757374206e6f742065786365656420746865206d6178696d756d20726174652e436f616c3a3a64656c656761746542795369673a20696e76616c6964207369676e6174757265436f616c3a3a7472616e736665723a205461782076616c756520696e76616c6964436f616c3a3a7472616e736665724f70657261746f723a206e6577206f70657261746f7220697320746865207a65726f2061646472657373436f616c3a3a7472616e736665723a204275726e2076616c756520696e76616c6964436f616c3a3a64656c656761746542795369673a207369676e61747572652065787069726564536166654d6174683a206d756c7469706c69636174696f6e206f766572666c6f77436f616c3a3a7570646174655472616e73666572546178526174653a205472616e73666572207461782072617465206d757374206e6f742065786365656420746865206d6178696d756d20726174652e6f70657261746f723a2063616c6c6572206973206e6f7420746865206f70657261746f7242455032303a207472616e7366657220616d6f756e7420657863656564732062616c616e636542455032303a207472616e7366657220746f20746865207a65726f206164647265737342455032303a2064656372656173656420616c6c6f77616e63652062656c6f77207a65726f436f616c3a3a616e74695768616c653a205472616e7366657220616d6f756e74206578636565647320746865206d61785472616e73666572416d6f756e7442455032303a20617070726f766520746f20746865207a65726f2061646472657373436f616c3a3a7570646174654d61785472616e73666572416d6f756e74526174653a204d6178207472616e7366657220616d6f756e742072617465206d757374206e6f742065786365656420746865206d6178696d756d20726174652ea264697066735822122097689beffcee0a5a3ea053f57f6431e94b27182546b94d2a9966d566a89f7a0264736f6c634300060c0033",
  "immutableReferences": {},
  "source": "// SPDX-License-Identifier: MIT\r\n\r\npragma solidity 0.6.12;\r\n\r\nimport \"./libs/BEP20.sol\";\r\n\r\nimport \"@uniswap/v2-periphery/contracts/interfaces/IUniswapV2Router02.sol\";\r\nimport \"@uniswap/v2-core/contracts/interfaces/IUniswapV2Pair.sol\";\r\nimport \"@uniswap/v2-core/contracts/interfaces/IUniswapV2Factory.sol\";\r\n\r\n// CoalToken with Governance.\r\ncontract CoalToken is BEP20 {\r\n    // Transfer tax rate (default 5%)\r\n    uint16 public transferTaxRate = 50;\r\n    // Burn rate %.\r\n    uint16 public burnRate = 10;\r\n    // Dev rate %\r\n    uint16 public devRate = 10;\r\n    // Max transfer tax rate: 10%.\r\n    uint16 public constant MAXIMUM_TRANSFER_TAX_RATE = 100;\r\n    // Burn address\r\n    address public constant BURN_ADDRESS = 0x000000000000000000000000000000000000dEaD;\r\n    //Dev Wallet\r\n    address public devAddress;\r\n\r\n    // Max transfer amount rate in basis points. (default is 0.1% of total supply)\r\n    uint16 public maxTransferAmountRate = 10;\r\n    // Addresses that excluded from antiWhale\r\n    mapping(address => bool) private _excludedFromAntiWhale;\r\n    // Automatic swap and liquify enabled\r\n    bool public swapAndLiquifyEnabled = false;\r\n    // Min amount to liquify. (default 50 Coals)\r\n    uint256 public minAmountToLiquify = 50 ether;\r\n    // The swap router, modifiable. Will be changed to Coal's router when our own AMM release\r\n    IUniswapV2Router02 public CoalRouter;\r\n    // The trading pair\r\n    address public CoalPair;\r\n    // In swap and liquify\r\n    bool private _inSwapAndLiquify;\r\n\r\n    // The operator can only update the transfer tax rate\r\n    address private _operator;\r\n\r\n    // Events\r\n    event OperatorTransferred(address indexed previousOperator, address indexed newOperator);\r\n    event TransferTaxRateUpdated(address indexed operator, uint256 previousRate, uint256 newRate);\r\n    event BurnRateUpdated(address indexed operator, uint256 previousRate, uint256 newRate);\r\n    event DevRateUpdated(address indexed operator, uint256 previousRate, uint256 newRate);\r\n    event MaxTransferAmountRateUpdated(address indexed operator, uint256 previousRate, uint256 newRate);\r\n    event SwapAndLiquifyEnabledUpdated(address indexed operator, bool enabled);\r\n    event MinAmountToLiquifyUpdated(address indexed operator, uint256 previousAmount, uint256 newAmount);\r\n    event CoalRouterUpdated(address indexed operator, address indexed router, address indexed pair);\r\n    event SwapAndLiquify(uint256 tokensSwapped, uint256 ethReceived, uint256 tokensIntoLiqudity);\r\n\r\n    modifier onlyOperator() {\r\n        require(_operator == msg.sender, \"operator: caller is not the operator\");\r\n        _;\r\n    }\r\n\r\n    modifier antiWhale(address sender, address recipient, uint256 amount) {\r\n        if (maxTransferAmount() > 0) {\r\n            if (\r\n                _excludedFromAntiWhale[sender] == false\r\n                && _excludedFromAntiWhale[recipient] == false\r\n            ) {\r\n                require(amount <= maxTransferAmount(), \"Coal::antiWhale: Transfer amount exceeds the maxTransferAmount\");\r\n            }\r\n        }\r\n        _;\r\n    }\r\n\r\n    modifier lockTheSwap {\r\n        _inSwapAndLiquify = true;\r\n        _;\r\n        _inSwapAndLiquify = false;\r\n    }\r\n\r\n    modifier transferTaxFree {\r\n        uint16 _transferTaxRate = transferTaxRate;\r\n        transferTaxRate = 0;\r\n        _;\r\n        transferTaxRate = _transferTaxRate;\r\n    }\r\n\r\n    /**\r\n     * @notice Constructs the CoalToken contract.\r\n     */\r\n    constructor(address dev) public BEP20(\"Coal Token\", \"Coal\") {\r\n        _operator = _msgSender();\r\n        devAddress = dev;\r\n        emit OperatorTransferred(address(0), _operator);\r\n\r\n        _excludedFromAntiWhale[msg.sender] = true;\r\n        _excludedFromAntiWhale[address(0)] = true;\r\n        _excludedFromAntiWhale[address(this)] = true;\r\n        _excludedFromAntiWhale[BURN_ADDRESS] = true;\r\n        _excludedFromAntiWhale[devAddress] = true;\r\n    }\r\n\r\n    /// @notice Creates `_amount` token to `_to`. Must only be called by the owner (MasterChef).\r\n    function mint(address _to, uint256 _amount) public onlyOwner {\r\n        _mint(_to, _amount);\r\n        _moveDelegates(address(0), _delegates[_to], _amount);\r\n    }\r\n\r\n    /// @dev overrides transfer function to meet tokenomics of Coal\r\n    function _transfer(address sender, address recipient, uint256 amount) internal virtual override antiWhale(sender, recipient, amount) {\r\n        // swap and liquify\r\n        if (\r\n            swapAndLiquifyEnabled == true\r\n            && _inSwapAndLiquify == false\r\n            && address(CoalRouter) != address(0)\r\n            && CoalPair != address(0)\r\n            && sender != CoalPair\r\n            && sender != owner()\r\n        ) {\r\n            swapAndLiquify();\r\n        }\r\n\r\n        if (recipient == BURN_ADDRESS || transferTaxRate == 0 || recipient == owner()) {\r\n            super._transfer(sender, recipient, amount);\r\n        } else {\r\n            // default tax is 5% of every transfer\r\n            uint256 taxAmount = amount.mul(transferTaxRate).div(1000);\r\n            uint256 burnAmount = amount.mul(burnRate).div(1000);\r\n            uint256 devAmount = amount.mul(devRate).div(1000);\r\n            uint256 liquidityAmount = taxAmount.sub(burnAmount).sub(devAmount);\r\n            require(taxAmount == burnAmount + liquidityAmount + devAmount, \"Coal::transfer: Burn value invalid\");\r\n\r\n            // default 95% of transfer sent to recipient\r\n            uint256 sendAmount = amount.sub(taxAmount);\r\n            require(amount == sendAmount + taxAmount, \"Coal::transfer: Tax value invalid\");\r\n\r\n            super._transfer(sender, BURN_ADDRESS, burnAmount);\r\n            super._transfer(sender, address(this), liquidityAmount);\r\n            super._transfer(sender, devAddress, devAmount);\r\n            super._transfer(sender, recipient, sendAmount);\r\n            amount = sendAmount;\r\n        }\r\n    }\r\n\r\n    /// @dev Swap and liquify\r\n    function swapAndLiquify() private lockTheSwap transferTaxFree {\r\n        uint256 contractTokenBalance = balanceOf(address(this));\r\n        uint256 maxTransferAmount = maxTransferAmount();\r\n        contractTokenBalance = contractTokenBalance > maxTransferAmount ? maxTransferAmount : contractTokenBalance;\r\n\r\n        if (contractTokenBalance >= minAmountToLiquify) {\r\n            // only min amount to liquify\r\n            uint256 liquifyAmount = minAmountToLiquify;\r\n\r\n            // split the liquify amount into halves\r\n            uint256 half = liquifyAmount.div(2);\r\n            uint256 otherHalf = liquifyAmount.sub(half);\r\n\r\n            // capture the contract's current ETH balance.\r\n            // this is so that we can capture exactly the amount of ETH that the\r\n            // swap creates, and not make the liquidity event include any ETH that\r\n            // has been manually sent to the contract\r\n            uint256 initialBalance = address(this).balance;\r\n\r\n            // swap tokens for ETH\r\n            swapTokensForEth(half);\r\n\r\n            // how much ETH did we just swap into?\r\n            uint256 newBalance = address(this).balance.sub(initialBalance);\r\n\r\n            // add liquidity\r\n            addLiquidity(otherHalf, newBalance);\r\n\r\n            emit SwapAndLiquify(half, newBalance, otherHalf);\r\n        }\r\n    }\r\n\r\n    /// @dev Swap tokens for eth\r\n    function swapTokensForEth(uint256 tokenAmount) private {\r\n        // generate the Coal pair path of token -> weth\r\n        address[] memory path = new address[](2);\r\n        path[0] = address(this);\r\n        path[1] = CoalRouter.WETH();\r\n\r\n        _approve(address(this), address(CoalRouter), tokenAmount);\r\n\r\n        // make the swap\r\n        CoalRouter.swapExactTokensForETHSupportingFeeOnTransferTokens(\r\n            tokenAmount,\r\n            0, // accept any amount of ETH\r\n            path,\r\n            address(this),\r\n            block.timestamp\r\n        );\r\n    }\r\n\r\n    /// @dev Add liquidity\r\n    function addLiquidity(uint256 tokenAmount, uint256 ethAmount) private {\r\n        // approve token transfer to cover all possible scenarios\r\n        _approve(address(this), address(CoalRouter), tokenAmount);\r\n\r\n        // add the liquidity\r\n        CoalRouter.addLiquidityETH{value: ethAmount}(\r\n            address(this),\r\n            tokenAmount,\r\n            0, // slippage is unavoidable\r\n            0, // slippage is unavoidable\r\n            operator(),\r\n            block.timestamp\r\n        );\r\n    }\r\n\r\n    /**\r\n     * @dev Returns the max transfer amount.\r\n     */\r\n    function maxTransferAmount() public view returns (uint256) {\r\n        return totalSupply().mul(maxTransferAmountRate).div(10000);\r\n    }\r\n\r\n    /**\r\n     * @dev Returns the address is excluded from antiWhale or not.\r\n     */\r\n    function isExcludedFromAntiWhale(address _account) public view returns (bool) {\r\n        return _excludedFromAntiWhale[_account];\r\n    }\r\n\r\n    // To receive BNB from CoalRouter when swapping\r\n    receive() external payable {}\r\n\r\n    /**\r\n     * @dev Update the transfer tax rate.\r\n     * Can only be called by the current operator.\r\n     */\r\n    function updateTransferTaxRate(uint16 _transferTaxRate) public onlyOperator {\r\n        require(_transferTaxRate <= MAXIMUM_TRANSFER_TAX_RATE, \"Coal::updateTransferTaxRate: Transfer tax rate must not exceed the maximum rate.\");\r\n        emit TransferTaxRateUpdated(msg.sender, transferTaxRate, _transferTaxRate);\r\n        transferTaxRate = _transferTaxRate;\r\n    }\r\n\r\n    /**\r\n     * @dev Update the burn rate.\r\n     * Can only be called by the current operator.\r\n     */\r\n    function updateBurnRate(uint16 _burnRate) public onlyOperator {\r\n        require(_burnRate <= 100, \"Coal::updateBurnRate: Burn rate must not exceed the maximum rate.\");\r\n        emit BurnRateUpdated(msg.sender, burnRate, _burnRate);\r\n        burnRate = _burnRate;\r\n    }\r\n\r\n    /**\r\n     * @dev Update the Dev rate.\r\n     * Can only be called by the current operator.\r\n     */\r\n    function updateDevRate(uint16 _devRate) public onlyOperator {\r\n        require(_devRate <= 100, \"Coal::updateDevRate: Dev rate must not exceed the maximum rate.\");\r\n        emit DevRateUpdated(msg.sender, devRate, _devRate);\r\n        devRate = _devRate;\r\n    }\r\n\r\n    /**\r\n     * @dev Update the max transfer amount rate.\r\n     * Can only be called by the current operator.\r\n     */\r\n    function updateMaxTransferAmountRate(uint16 _maxTransferAmountRate) public onlyOperator {\r\n        require(_maxTransferAmountRate <= 1000, \"Coal::updateMaxTransferAmountRate: Max transfer amount rate must not exceed the maximum rate.\");\r\n        emit MaxTransferAmountRateUpdated(msg.sender, maxTransferAmountRate, _maxTransferAmountRate);\r\n        maxTransferAmountRate = _maxTransferAmountRate;\r\n    }\r\n\r\n    /**\r\n     * @dev Update the min amount to liquify.\r\n     * Can only be called by the current operator.\r\n     */\r\n    function updateMinAmountToLiquify(uint256 _minAmount) public onlyOperator {\r\n        emit MinAmountToLiquifyUpdated(msg.sender, minAmountToLiquify, _minAmount);\r\n        minAmountToLiquify = _minAmount;\r\n    }\r\n\r\n    /**\r\n     * @dev Exclude or include an address from antiWhale.\r\n     * Can only be called by the current operator.\r\n     */\r\n    function setExcludedFromAntiWhale(address _account, bool _excluded) public onlyOperator {\r\n        _excludedFromAntiWhale[_account] = _excluded;\r\n    }\r\n\r\n    /**\r\n     * @dev Update the swapAndLiquifyEnabled.\r\n     * Can only be called by the current operator.\r\n     */\r\n    function updateSwapAndLiquifyEnabled(bool _enabled) public onlyOperator {\r\n        emit SwapAndLiquifyEnabledUpdated(msg.sender, _enabled);\r\n        swapAndLiquifyEnabled = _enabled;\r\n    }\r\n\r\n    /**\r\n     * @dev Update the swap router.\r\n     * Can only be called by the current operator.\r\n     */\r\n    function updateCoalRouter(address _router) public onlyOperator {\r\n        CoalRouter = IUniswapV2Router02(_router);\r\n        CoalPair = IUniswapV2Factory(CoalRouter.factory()).getPair(address(this), CoalRouter.WETH());\r\n        require(CoalPair != address(0), \"Coal::updateCoalRouter: Invalid pair address.\");\r\n        emit CoalRouterUpdated(msg.sender, address(CoalRouter), CoalPair);\r\n    }\r\n\r\n    /**\r\n     * @dev Returns the address of the current operator.\r\n     */\r\n    function operator() public view returns (address) {\r\n        return _operator;\r\n    }\r\n\r\n    /**\r\n     * @dev Transfers operator of the contract to a new account (`newOperator`).\r\n     * Can only be called by the current operator.\r\n     */\r\n    function transferOperator(address newOperator) public onlyOperator {\r\n        require(newOperator != address(0), \"Coal::transferOperator: new operator is the zero address\");\r\n        emit OperatorTransferred(_operator, newOperator);\r\n        _operator = newOperator;\r\n    }\r\n\r\n    // Copied and modified from YAM code:\r\n    // https://github.com/yam-finance/yam-protocol/blob/master/contracts/token/YAMGovernanceStorage.sol\r\n    // https://github.com/yam-finance/yam-protocol/blob/master/contracts/token/YAMGovernance.sol\r\n    // Which is copied and modified from COMPOUND:\r\n    // https://github.com/compound-finance/compound-protocol/blob/master/contracts/Governance/Comp.sol\r\n\r\n    /// @dev A record of each accounts delegate\r\n    mapping (address => address) internal _delegates;\r\n\r\n    /// @notice A checkpoint for marking number of votes from a given block\r\n    struct Checkpoint {\r\n        uint32 fromBlock;\r\n        uint256 votes;\r\n    }\r\n\r\n    /// @notice A record of votes checkpoints for each account, by index\r\n    mapping (address => mapping (uint32 => Checkpoint)) public checkpoints;\r\n\r\n    /// @notice The number of checkpoints for each account\r\n    mapping (address => uint32) public numCheckpoints;\r\n\r\n    /// @notice The EIP-712 typehash for the contract's domain\r\n    bytes32 public constant DOMAIN_TYPEHASH = keccak256(\"EIP712Domain(string name,uint256 chainId,address verifyingContract)\");\r\n\r\n    /// @notice The EIP-712 typehash for the delegation struct used by the contract\r\n    bytes32 public constant DELEGATION_TYPEHASH = keccak256(\"Delegation(address delegatee,uint256 nonce,uint256 expiry)\");\r\n\r\n    /// @notice A record of states for signing / validating signatures\r\n    mapping (address => uint) public nonces;\r\n\r\n      /// @notice An event thats emitted when an account changes its delegate\r\n    event DelegateChanged(address indexed delegator, address indexed fromDelegate, address indexed toDelegate);\r\n\r\n    /// @notice An event thats emitted when a delegate account's vote balance changes\r\n    event DelegateVotesChanged(address indexed delegate, uint previousBalance, uint newBalance);\r\n\r\n    /**\r\n     * @notice Delegate votes from `msg.sender` to `delegatee`\r\n     * @param delegator The address to get delegatee for\r\n     */\r\n    function delegates(address delegator)\r\n        external\r\n        view\r\n        returns (address)\r\n    {\r\n        return _delegates[delegator];\r\n    }\r\n\r\n   /**\r\n    * @notice Delegate votes from `msg.sender` to `delegatee`\r\n    * @param delegatee The address to delegate votes to\r\n    */\r\n    function delegate(address delegatee) external {\r\n        return _delegate(msg.sender, delegatee);\r\n    }\r\n\r\n    /**\r\n     * @notice Delegates votes from signatory to `delegatee`\r\n     * @param delegatee The address to delegate votes to\r\n     * @param nonce The contract state required to match the signature\r\n     * @param expiry The time at which to expire the signature\r\n     * @param v The recovery byte of the signature\r\n     * @param r Half of the ECDSA signature pair\r\n     * @param s Half of the ECDSA signature pair\r\n     */\r\n    function delegateBySig(\r\n        address delegatee,\r\n        uint nonce,\r\n        uint expiry,\r\n        uint8 v,\r\n        bytes32 r,\r\n        bytes32 s\r\n    )\r\n        external\r\n    {\r\n        bytes32 domainSeparator = keccak256(\r\n            abi.encode(\r\n                DOMAIN_TYPEHASH,\r\n                keccak256(bytes(name())),\r\n                getChainId(),\r\n                address(this)\r\n            )\r\n        );\r\n\r\n        bytes32 structHash = keccak256(\r\n            abi.encode(\r\n                DELEGATION_TYPEHASH,\r\n                delegatee,\r\n                nonce,\r\n                expiry\r\n            )\r\n        );\r\n\r\n        bytes32 digest = keccak256(\r\n            abi.encodePacked(\r\n                \"\\x19\\x01\",\r\n                domainSeparator,\r\n                structHash\r\n            )\r\n        );\r\n\r\n        address signatory = ecrecover(digest, v, r, s);\r\n        require(signatory != address(0), \"Coal::delegateBySig: invalid signature\");\r\n        require(nonce == nonces[signatory]++, \"Coal::delegateBySig: invalid nonce\");\r\n        require(now <= expiry, \"Coal::delegateBySig: signature expired\");\r\n        return _delegate(signatory, delegatee);\r\n    }\r\n\r\n    /**\r\n     * @notice Gets the current votes balance for `account`\r\n     * @param account The address to get votes balance\r\n     * @return The number of current votes for `account`\r\n     */\r\n    function getCurrentVotes(address account)\r\n        external\r\n        view\r\n        returns (uint256)\r\n    {\r\n        uint32 nCheckpoints = numCheckpoints[account];\r\n        return nCheckpoints > 0 ? checkpoints[account][nCheckpoints - 1].votes : 0;\r\n    }\r\n\r\n    /**\r\n     * @notice Determine the prior number of votes for an account as of a block number\r\n     * @dev Block number must be a finalized block or else this function will revert to prevent misinformation.\r\n     * @param account The address of the account to check\r\n     * @param blockNumber The block number to get the vote balance at\r\n     * @return The number of votes the account had as of the given block\r\n     */\r\n    function getPriorVotes(address account, uint blockNumber)\r\n        external\r\n        view\r\n        returns (uint256)\r\n    {\r\n        require(blockNumber < block.number, \"Coal::getPriorVotes: not yet determined\");\r\n\r\n        uint32 nCheckpoints = numCheckpoints[account];\r\n        if (nCheckpoints == 0) {\r\n            return 0;\r\n        }\r\n\r\n        // First check most recent balance\r\n        if (checkpoints[account][nCheckpoints - 1].fromBlock <= blockNumber) {\r\n            return checkpoints[account][nCheckpoints - 1].votes;\r\n        }\r\n\r\n        // Next check implicit zero balance\r\n        if (checkpoints[account][0].fromBlock > blockNumber) {\r\n            return 0;\r\n        }\r\n\r\n        uint32 lower = 0;\r\n        uint32 upper = nCheckpoints - 1;\r\n        while (upper > lower) {\r\n            uint32 center = upper - (upper - lower) / 2; // ceil, avoiding overflow\r\n            Checkpoint memory cp = checkpoints[account][center];\r\n            if (cp.fromBlock == blockNumber) {\r\n                return cp.votes;\r\n            } else if (cp.fromBlock < blockNumber) {\r\n                lower = center;\r\n            } else {\r\n                upper = center - 1;\r\n            }\r\n        }\r\n        return checkpoints[account][lower].votes;\r\n    }\r\n\r\n    function _delegate(address delegator, address delegatee)\r\n        internal\r\n    {\r\n        address currentDelegate = _delegates[delegator];\r\n        uint256 delegatorBalance = balanceOf(delegator); // balance of underlying Coals (not scaled);\r\n        _delegates[delegator] = delegatee;\r\n\r\n        emit DelegateChanged(delegator, currentDelegate, delegatee);\r\n\r\n        _moveDelegates(currentDelegate, delegatee, delegatorBalance);\r\n    }\r\n\r\n    function _moveDelegates(address srcRep, address dstRep, uint256 amount) internal {\r\n        if (srcRep != dstRep && amount > 0) {\r\n            if (srcRep != address(0)) {\r\n                // decrease old representative\r\n                uint32 srcRepNum = numCheckpoints[srcRep];\r\n                uint256 srcRepOld = srcRepNum > 0 ? checkpoints[srcRep][srcRepNum - 1].votes : 0;\r\n                uint256 srcRepNew = srcRepOld.sub(amount);\r\n                _writeCheckpoint(srcRep, srcRepNum, srcRepOld, srcRepNew);\r\n            }\r\n\r\n            if (dstRep != address(0)) {\r\n                // increase new representative\r\n                uint32 dstRepNum = numCheckpoints[dstRep];\r\n                uint256 dstRepOld = dstRepNum > 0 ? checkpoints[dstRep][dstRepNum - 1].votes : 0;\r\n                uint256 dstRepNew = dstRepOld.add(amount);\r\n                _writeCheckpoint(dstRep, dstRepNum, dstRepOld, dstRepNew);\r\n            }\r\n        }\r\n    }\r\n\r\n    function _writeCheckpoint(\r\n        address delegatee,\r\n        uint32 nCheckpoints,\r\n        uint256 oldVotes,\r\n        uint256 newVotes\r\n    )\r\n        internal\r\n    {\r\n        uint32 blockNumber = safe32(block.number, \"Coal::_writeCheckpoint: block number exceeds 32 bits\");\r\n\r\n        if (nCheckpoints > 0 && checkpoints[delegatee][nCheckpoints - 1].fromBlock == blockNumber) {\r\n            checkpoints[delegatee][nCheckpoints - 1].votes = newVotes;\r\n        } else {\r\n            checkpoints[delegatee][nCheckpoints] = Checkpoint(blockNumber, newVotes);\r\n            numCheckpoints[delegatee] = nCheckpoints + 1;\r\n        }\r\n\r\n        emit DelegateVotesChanged(delegatee, oldVotes, newVotes);\r\n    }\r\n\r\n    function safe32(uint n, string memory errorMessage) internal pure returns (uint32) {\r\n        require(n < 2**32, errorMessage);\r\n        return uint32(n);\r\n    }\r\n\r\n    function getChainId() internal pure returns (uint) {\r\n        uint256 chainId;\r\n        assembly { chainId := chainid() }\r\n        return chainId;\r\n    }\r\n}\r\n",
  "sourcePath": "C:\\Users\\A-S-K\\Desktop\\Contracts\\coal-farm\\contracts\\CoalToken.sol",
  "compiler": {
    "name": "solc",
    "version": "0.6.12+commit.27d51765.Emscripten.clang"
  },
  "schemaVersion": "3.3.4",
  "updatedAt": "2021-05-06T10:28:31.121Z",
  "devdoc": {
    "kind": "dev",
    "methods": {
      "allowance(address,address)": {
        "details": "See {BEP20-allowance}."
      },
      "approve(address,uint256)": {
        "details": "See {BEP20-approve}. Requirements: - `spender` cannot be the zero address."
      },
      "balanceOf(address)": {
        "details": "See {BEP20-balanceOf}."
      },
      "decimals()": {
        "details": "Returns the token decimals."
      },
      "decreaseAllowance(address,uint256)": {
        "details": "Atomically decreases the allowance granted to `spender` by the caller. This is an alternative to {approve} that can be used as a mitigation for problems described in {BEP20-approve}. Emits an {Approval} event indicating the updated allowance. Requirements: - `spender` cannot be the zero address. - `spender` must have allowance for the caller of at least `subtractedValue`."
      },
      "delegate(address)": {
        "params": {
          "delegatee": "The address to delegate votes to"
        }
      },
      "delegateBySig(address,uint256,uint256,uint8,bytes32,bytes32)": {
        "params": {
          "delegatee": "The address to delegate votes to",
          "expiry": "The time at which to expire the signature",
          "nonce": "The contract state required to match the signature",
          "r": "Half of the ECDSA signature pair",
          "s": "Half of the ECDSA signature pair",
          "v": "The recovery byte of the signature"
        }
      },
      "delegates(address)": {
        "params": {
          "delegator": "The address to get delegatee for"
        }
      },
      "getCurrentVotes(address)": {
        "params": {
          "account": "The address to get votes balance"
        },
        "returns": {
          "_0": "The number of current votes for `account`"
        }
      },
      "getOwner()": {
        "details": "Returns the bep token owner."
      },
      "getPriorVotes(address,uint256)": {
        "details": "Block number must be a finalized block or else this function will revert to prevent misinformation.",
        "params": {
          "account": "The address of the account to check",
          "blockNumber": "The block number to get the vote balance at"
        },
        "returns": {
          "_0": "The number of votes the account had as of the given block"
        }
      },
      "increaseAllowance(address,uint256)": {
        "details": "Atomically increases the allowance granted to `spender` by the caller. This is an alternative to {approve} that can be used as a mitigation for problems described in {BEP20-approve}. Emits an {Approval} event indicating the updated allowance. Requirements: - `spender` cannot be the zero address."
      },
      "isExcludedFromAntiWhale(address)": {
        "details": "Returns the address is excluded from antiWhale or not."
      },
      "maxTransferAmount()": {
        "details": "Returns the max transfer amount."
      },
      "mint(uint256)": {
        "details": "Creates `amount` tokens and assigns them to `msg.sender`, increasing the total supply. Requirements - `msg.sender` must be the token owner"
      },
      "name()": {
        "details": "Returns the token name."
      },
      "operator()": {
        "details": "Returns the address of the current operator."
      },
      "owner()": {
        "details": "Returns the address of the current owner."
      },
      "renounceOwnership()": {
        "details": "Leaves the contract without owner. It will not be possible to call `onlyOwner` functions anymore. Can only be called by the current owner. NOTE: Renouncing ownership will leave the contract without an owner, thereby removing any functionality that is only available to the owner."
      },
      "setExcludedFromAntiWhale(address,bool)": {
        "details": "Exclude or include an address from antiWhale. Can only be called by the current operator."
      },
      "symbol()": {
        "details": "Returns the token symbol."
      },
      "totalSupply()": {
        "details": "See {BEP20-totalSupply}."
      },
      "transfer(address,uint256)": {
        "details": "See {BEP20-transfer}. Requirements: - `recipient` cannot be the zero address. - the caller must have a balance of at least `amount`."
      },
      "transferFrom(address,address,uint256)": {
        "details": "See {BEP20-transferFrom}. Emits an {Approval} event indicating the updated allowance. This is not required by the EIP. See the note at the beginning of {BEP20}; Requirements: - `sender` and `recipient` cannot be the zero address. - `sender` must have a balance of at least `amount`. - the caller must have allowance for `sender`'s tokens of at least `amount`."
      },
      "transferOperator(address)": {
        "details": "Transfers operator of the contract to a new account (`newOperator`). Can only be called by the current operator."
      },
      "transferOwnership(address)": {
        "details": "Transfers ownership of the contract to a new account (`newOwner`). Can only be called by the current owner."
      },
      "updateBurnRate(uint16)": {
        "details": "Update the burn rate. Can only be called by the current operator."
      },
      "updateCoalRouter(address)": {
        "details": "Update the swap router. Can only be called by the current operator."
      },
      "updateDevRate(uint16)": {
        "details": "Update the Dev rate. Can only be called by the current operator."
      },
      "updateMaxTransferAmountRate(uint16)": {
        "details": "Update the max transfer amount rate. Can only be called by the current operator."
      },
      "updateMinAmountToLiquify(uint256)": {
        "details": "Update the min amount to liquify. Can only be called by the current operator."
      },
      "updateSwapAndLiquifyEnabled(bool)": {
        "details": "Update the swapAndLiquifyEnabled. Can only be called by the current operator."
      },
      "updateTransferTaxRate(uint16)": {
        "details": "Update the transfer tax rate. Can only be called by the current operator."
      }
    },
    "stateVariables": {
      "_delegates": {
        "details": "A record of each accounts delegate"
      }
    },
    "version": 1
  },
  "userdoc": {
    "events": {
      "DelegateChanged(address,address,address)": {
        "notice": "An event thats emitted when an account changes its delegate"
      },
      "DelegateVotesChanged(address,uint256,uint256)": {
        "notice": "An event thats emitted when a delegate account's vote balance changes"
      }
    },
    "kind": "user",
    "methods": {
      "DELEGATION_TYPEHASH()": {
        "notice": "The EIP-712 typehash for the delegation struct used by the contract"
      },
      "DOMAIN_TYPEHASH()": {
        "notice": "The EIP-712 typehash for the contract's domain"
      },
      "checkpoints(address,uint32)": {
        "notice": "A record of votes checkpoints for each account, by index"
      },
      "constructor": "Constructs the CoalToken contract.",
      "delegate(address)": {
        "notice": "Delegate votes from `msg.sender` to `delegatee`"
      },
      "delegateBySig(address,uint256,uint256,uint8,bytes32,bytes32)": {
        "notice": "Delegates votes from signatory to `delegatee`"
      },
      "delegates(address)": {
        "notice": "Delegate votes from `msg.sender` to `delegatee`"
      },
      "getCurrentVotes(address)": {
        "notice": "Gets the current votes balance for `account`"
      },
      "getPriorVotes(address,uint256)": {
        "notice": "Determine the prior number of votes for an account as of a block number"
      },
      "mint(address,uint256)": {
        "notice": "Creates `_amount` token to `_to`. Must only be called by the owner (MasterChef)."
      },
      "nonces(address)": {
        "notice": "A record of states for signing / validating signatures"
      },
      "numCheckpoints(address)": {
        "notice": "The number of checkpoints for each account"
      }
    },
    "version": 1
  }
}