{
  "contractName": "MasterChef",
  "abi": [
    {
      "inputs": [
        {
          "internalType": "contract CoalToken",
          "name": "_Coal",
          "type": "address"
        },
        {
          "internalType": "uint256",
          "name": "_startBlock",
          "type": "uint256"
        },
        {
          "internalType": "uint256",
          "name": "_CoalPerBlock",
          "type": "uint256"
        }
      ],
      "stateMutability": "nonpayable",
      "type": "constructor"
    },
    {
      "anonymous": false,
      "inputs": [
        {
          "indexed": true,
          "internalType": "address",
          "name": "user",
          "type": "address"
        },
        {
          "indexed": true,
          "internalType": "uint256",
          "name": "pid",
          "type": "uint256"
        },
        {
          "indexed": false,
          "internalType": "uint256",
          "name": "amount",
          "type": "uint256"
        }
      ],
      "name": "Deposit",
      "type": "event"
    },
    {
      "anonymous": false,
      "inputs": [
        {
          "indexed": true,
          "internalType": "address",
          "name": "user",
          "type": "address"
        },
        {
          "indexed": true,
          "internalType": "uint256",
          "name": "pid",
          "type": "uint256"
        },
        {
          "indexed": false,
          "internalType": "uint256",
          "name": "amount",
          "type": "uint256"
        }
      ],
      "name": "EmergencyWithdraw",
      "type": "event"
    },
    {
      "anonymous": false,
      "inputs": [
        {
          "indexed": true,
          "internalType": "address",
          "name": "caller",
          "type": "address"
        },
        {
          "indexed": false,
          "internalType": "uint256",
          "name": "previousAmount",
          "type": "uint256"
        },
        {
          "indexed": false,
          "internalType": "uint256",
          "name": "newAmount",
          "type": "uint256"
        }
      ],
      "name": "EmissionRateUpdated",
      "type": "event"
    },
    {
      "anonymous": false,
      "inputs": [
        {
          "indexed": true,
          "internalType": "address",
          "name": "previousOwner",
          "type": "address"
        },
        {
          "indexed": true,
          "internalType": "address",
          "name": "newOwner",
          "type": "address"
        }
      ],
      "name": "OwnershipTransferred",
      "type": "event"
    },
    {
      "anonymous": false,
      "inputs": [
        {
          "indexed": true,
          "internalType": "address",
          "name": "user",
          "type": "address"
        },
        {
          "indexed": true,
          "internalType": "address",
          "name": "referrer",
          "type": "address"
        },
        {
          "indexed": false,
          "internalType": "uint256",
          "name": "commissionAmount",
          "type": "uint256"
        }
      ],
      "name": "ReferralCommissionPaid",
      "type": "event"
    },
    {
      "anonymous": false,
      "inputs": [
        {
          "indexed": true,
          "internalType": "address",
          "name": "user",
          "type": "address"
        },
        {
          "indexed": true,
          "internalType": "uint256",
          "name": "pid",
          "type": "uint256"
        },
        {
          "indexed": false,
          "internalType": "uint256",
          "name": "amountLockedUp",
          "type": "uint256"
        }
      ],
      "name": "RewardLockedUp",
      "type": "event"
    },
    {
      "anonymous": false,
      "inputs": [
        {
          "indexed": true,
          "internalType": "address",
          "name": "user",
          "type": "address"
        },
        {
          "indexed": true,
          "internalType": "uint256",
          "name": "pid",
          "type": "uint256"
        },
        {
          "indexed": false,
          "internalType": "uint256",
          "name": "amount",
          "type": "uint256"
        }
      ],
      "name": "Withdraw",
      "type": "event"
    },
    {
      "inputs": [],
      "name": "BONUS_MULTIPLIER",
      "outputs": [
        {
          "internalType": "uint256",
          "name": "",
          "type": "uint256"
        }
      ],
      "stateMutability": "view",
      "type": "function"
    },
    {
      "inputs": [],
      "name": "Coal",
      "outputs": [
        {
          "internalType": "contract CoalToken",
          "name": "",
          "type": "address"
        }
      ],
      "stateMutability": "view",
      "type": "function"
    },
    {
      "inputs": [],
      "name": "CoalPerBlock",
      "outputs": [
        {
          "internalType": "uint256",
          "name": "",
          "type": "uint256"
        }
      ],
      "stateMutability": "view",
      "type": "function"
    },
    {
      "inputs": [],
      "name": "CoalReferral",
      "outputs": [
        {
          "internalType": "contract ICoalReferral",
          "name": "",
          "type": "address"
        }
      ],
      "stateMutability": "view",
      "type": "function"
    },
    {
      "inputs": [],
      "name": "MAXIMUM_HARVEST_INTERVAL",
      "outputs": [
        {
          "internalType": "uint256",
          "name": "",
          "type": "uint256"
        }
      ],
      "stateMutability": "view",
      "type": "function"
    },
    {
      "inputs": [],
      "name": "MAXIMUM_REFERRAL_COMMISSION_RATE",
      "outputs": [
        {
          "internalType": "uint16",
          "name": "",
          "type": "uint16"
        }
      ],
      "stateMutability": "view",
      "type": "function"
    },
    {
      "inputs": [],
      "name": "devAddress",
      "outputs": [
        {
          "internalType": "address",
          "name": "",
          "type": "address"
        }
      ],
      "stateMutability": "view",
      "type": "function"
    },
    {
      "inputs": [],
      "name": "feeAddress",
      "outputs": [
        {
          "internalType": "address",
          "name": "",
          "type": "address"
        }
      ],
      "stateMutability": "view",
      "type": "function"
    },
    {
      "inputs": [],
      "name": "owner",
      "outputs": [
        {
          "internalType": "address",
          "name": "",
          "type": "address"
        }
      ],
      "stateMutability": "view",
      "type": "function"
    },
    {
      "inputs": [
        {
          "internalType": "uint256",
          "name": "",
          "type": "uint256"
        }
      ],
      "name": "poolInfo",
      "outputs": [
        {
          "internalType": "contract IBEP20",
          "name": "lpToken",
          "type": "address"
        },
        {
          "internalType": "uint256",
          "name": "allocPoint",
          "type": "uint256"
        },
        {
          "internalType": "uint256",
          "name": "lastRewardBlock",
          "type": "uint256"
        },
        {
          "internalType": "uint256",
          "name": "accCoalPerShare",
          "type": "uint256"
        },
        {
          "internalType": "uint16",
          "name": "depositFeeBP",
          "type": "uint16"
        },
        {
          "internalType": "uint256",
          "name": "harvestInterval",
          "type": "uint256"
        }
      ],
      "stateMutability": "view",
      "type": "function"
    },
    {
      "inputs": [],
      "name": "referralCommissionRate",
      "outputs": [
        {
          "internalType": "uint16",
          "name": "",
          "type": "uint16"
        }
      ],
      "stateMutability": "view",
      "type": "function"
    },
    {
      "inputs": [],
      "name": "renounceOwnership",
      "outputs": [],
      "stateMutability": "nonpayable",
      "type": "function"
    },
    {
      "inputs": [],
      "name": "startBlock",
      "outputs": [
        {
          "internalType": "uint256",
          "name": "",
          "type": "uint256"
        }
      ],
      "stateMutability": "view",
      "type": "function"
    },
    {
      "inputs": [],
      "name": "totalAllocPoint",
      "outputs": [
        {
          "internalType": "uint256",
          "name": "",
          "type": "uint256"
        }
      ],
      "stateMutability": "view",
      "type": "function"
    },
    {
      "inputs": [],
      "name": "totalLockedUpRewards",
      "outputs": [
        {
          "internalType": "uint256",
          "name": "",
          "type": "uint256"
        }
      ],
      "stateMutability": "view",
      "type": "function"
    },
    {
      "inputs": [
        {
          "internalType": "address",
          "name": "newOwner",
          "type": "address"
        }
      ],
      "name": "transferOwnership",
      "outputs": [],
      "stateMutability": "nonpayable",
      "type": "function"
    },
    {
      "inputs": [
        {
          "internalType": "uint256",
          "name": "",
          "type": "uint256"
        },
        {
          "internalType": "address",
          "name": "",
          "type": "address"
        }
      ],
      "name": "userInfo",
      "outputs": [
        {
          "internalType": "uint256",
          "name": "amount",
          "type": "uint256"
        },
        {
          "internalType": "uint256",
          "name": "rewardDebt",
          "type": "uint256"
        },
        {
          "internalType": "uint256",
          "name": "rewardLockedUp",
          "type": "uint256"
        },
        {
          "internalType": "uint256",
          "name": "nextHarvestUntil",
          "type": "uint256"
        }
      ],
      "stateMutability": "view",
      "type": "function"
    },
    {
      "inputs": [],
      "name": "poolLength",
      "outputs": [
        {
          "internalType": "uint256",
          "name": "",
          "type": "uint256"
        }
      ],
      "stateMutability": "view",
      "type": "function"
    },
    {
      "inputs": [
        {
          "internalType": "uint256",
          "name": "_allocPoint",
          "type": "uint256"
        },
        {
          "internalType": "contract IBEP20",
          "name": "_lpToken",
          "type": "address"
        },
        {
          "internalType": "uint16",
          "name": "_depositFeeBP",
          "type": "uint16"
        },
        {
          "internalType": "uint256",
          "name": "_harvestInterval",
          "type": "uint256"
        },
        {
          "internalType": "bool",
          "name": "_withUpdate",
          "type": "bool"
        }
      ],
      "name": "add",
      "outputs": [],
      "stateMutability": "nonpayable",
      "type": "function"
    },
    {
      "inputs": [
        {
          "internalType": "uint256",
          "name": "_pid",
          "type": "uint256"
        },
        {
          "internalType": "uint256",
          "name": "_allocPoint",
          "type": "uint256"
        },
        {
          "internalType": "uint16",
          "name": "_depositFeeBP",
          "type": "uint16"
        },
        {
          "internalType": "uint256",
          "name": "_harvestInterval",
          "type": "uint256"
        },
        {
          "internalType": "bool",
          "name": "_withUpdate",
          "type": "bool"
        }
      ],
      "name": "set",
      "outputs": [],
      "stateMutability": "nonpayable",
      "type": "function"
    },
    {
      "inputs": [
        {
          "internalType": "uint256",
          "name": "_from",
          "type": "uint256"
        },
        {
          "internalType": "uint256",
          "name": "_to",
          "type": "uint256"
        }
      ],
      "name": "getMultiplier",
      "outputs": [
        {
          "internalType": "uint256",
          "name": "",
          "type": "uint256"
        }
      ],
      "stateMutability": "pure",
      "type": "function"
    },
    {
      "inputs": [
        {
          "internalType": "uint256",
          "name": "_pid",
          "type": "uint256"
        },
        {
          "internalType": "address",
          "name": "_user",
          "type": "address"
        }
      ],
      "name": "pendingCoal",
      "outputs": [
        {
          "internalType": "uint256",
          "name": "",
          "type": "uint256"
        }
      ],
      "stateMutability": "view",
      "type": "function"
    },
    {
      "inputs": [
        {
          "internalType": "uint256",
          "name": "_pid",
          "type": "uint256"
        },
        {
          "internalType": "address",
          "name": "_user",
          "type": "address"
        }
      ],
      "name": "canHarvest",
      "outputs": [
        {
          "internalType": "bool",
          "name": "",
          "type": "bool"
        }
      ],
      "stateMutability": "view",
      "type": "function"
    },
    {
      "inputs": [],
      "name": "massUpdatePools",
      "outputs": [],
      "stateMutability": "nonpayable",
      "type": "function"
    },
    {
      "inputs": [
        {
          "internalType": "uint256",
          "name": "_pid",
          "type": "uint256"
        }
      ],
      "name": "updatePool",
      "outputs": [],
      "stateMutability": "nonpayable",
      "type": "function"
    },
    {
      "inputs": [
        {
          "internalType": "uint256",
          "name": "_pid",
          "type": "uint256"
        },
        {
          "internalType": "uint256",
          "name": "_amount",
          "type": "uint256"
        },
        {
          "internalType": "address",
          "name": "_referrer",
          "type": "address"
        }
      ],
      "name": "deposit",
      "outputs": [],
      "stateMutability": "nonpayable",
      "type": "function"
    },
    {
      "inputs": [
        {
          "internalType": "uint256",
          "name": "_pid",
          "type": "uint256"
        },
        {
          "internalType": "uint256",
          "name": "_amount",
          "type": "uint256"
        }
      ],
      "name": "withdraw",
      "outputs": [],
      "stateMutability": "nonpayable",
      "type": "function"
    },
    {
      "inputs": [
        {
          "internalType": "uint256",
          "name": "_pid",
          "type": "uint256"
        }
      ],
      "name": "emergencyWithdraw",
      "outputs": [],
      "stateMutability": "nonpayable",
      "type": "function"
    },
    {
      "inputs": [
        {
          "internalType": "address",
          "name": "_devAddress",
          "type": "address"
        }
      ],
      "name": "setDevAddress",
      "outputs": [],
      "stateMutability": "nonpayable",
      "type": "function"
    },
    {
      "inputs": [
        {
          "internalType": "address",
          "name": "_feeAddress",
          "type": "address"
        }
      ],
      "name": "setFeeAddress",
      "outputs": [],
      "stateMutability": "nonpayable",
      "type": "function"
    },
    {
      "inputs": [
        {
          "internalType": "uint256",
          "name": "_CoalPerBlock",
          "type": "uint256"
        }
      ],
      "name": "updateEmissionRate",
      "outputs": [],
      "stateMutability": "nonpayable",
      "type": "function"
    },
    {
      "inputs": [
        {
          "internalType": "contract ICoalReferral",
          "name": "_CoalReferral",
          "type": "address"
        }
      ],
      "name": "setCoalReferral",
      "outputs": [],
      "stateMutability": "nonpayable",
      "type": "function"
    },
    {
      "inputs": [
        {
          "internalType": "uint16",
          "name": "_referralCommissionRate",
          "type": "uint16"
        }
      ],
      "name": "setReferralCommissionRate",
      "outputs": [],
      "stateMutability": "nonpayable",
      "type": "function"
    }
  ],
  "bytecode": "0x608060405260006008556096600b60146101000a81548161ffff021916908361ffff1602179055503480156200003457600080fd5b5060405162003e0938038062003e09833981810160405260608110156200005a57600080fd5b810190808051906020019092919080519060200190929190805190602001909291905050506000620000916200021060201b60201c565b9050806000806101000a81548173ffffffffffffffffffffffffffffffffffffffff021916908373ffffffffffffffffffffffffffffffffffffffff1602179055508073ffffffffffffffffffffffffffffffffffffffff16600073ffffffffffffffffffffffffffffffffffffffff167f8be0079c531659141344cd1fd0a4f28419497f9722a3daafe3b4186f6b6457e060405160405180910390a3506001808190555082600260006101000a81548173ffffffffffffffffffffffffffffffffffffffff021916908373ffffffffffffffffffffffffffffffffffffffff160217905550816009819055508060058190555033600360006101000a81548173ffffffffffffffffffffffffffffffffffffffff021916908373ffffffffffffffffffffffffffffffffffffffff16021790555033600460006101000a81548173ffffffffffffffffffffffffffffffffffffffff021916908373ffffffffffffffffffffffffffffffffffffffff16021790555050505062000218565b600033905090565b613be180620002286000396000f3fe608060405234801561001057600080fd5b50600436106101fb5760003560e01c80635312ea8e1161011a5780638dbb1e3a116100ad578063bdb022271161007c578063bdb022271461087a578063d0d41fe114610898578063d30ef61b146108dc578063de73149d146108fe578063f2fde38b1461091c576101fb565b80638dbb1e3a146106ed5780638dbdbe6d1461073957806393f1a40b14610791578063af018de814610808576101fb565b8063715018a6116100e9578063715018a61461064d5780638705fcd4146106575780638aa285501461069b5780638da5cb5b146106b9576101fb565b80635312ea8e146105af57806355314f33146105dd57806355dbc82614610611578063630b5ba114610643576101fb565b80633ad10ef61161019257806348b22bfb1161016157806348b22bfb146104df57806348cd4cb11461050157806349b2dd581461051f57806351eb05a614610581576101fb565b80633ad10ef6146104215780634127535814610455578063441a3e7014610489578063474fa630146104c1576101fb565b806317caf6f1116101ce57806317caf6f1146102ff5780632143e5451461031d5780632e6c998d1461037957806333718c1c146103dd576101fb565b8063081e3eda14610200578063094b68b01461021e5780630ba84cd2146102525780631526fe2714610280575b600080fd5b610208610960565b6040518082815260200191505060405180910390f35b61022661096d565b604051808273ffffffffffffffffffffffffffffffffffffffff16815260200191505060405180910390f35b61027e6004803603602081101561026857600080fd5b8101908080359060200190929190505050610993565b005b6102ac6004803603602081101561029657600080fd5b8101908080359060200190929190505050610aac565b604051808773ffffffffffffffffffffffffffffffffffffffff1681526020018681526020018581526020018481526020018361ffff168152602001828152602001965050505050505060405180910390f35b610307610b23565b6040518082815260200191505060405180910390f35b610377600480360360a081101561033357600080fd5b810190808035906020019092919080359060200190929190803561ffff16906020019092919080359060200190929190803515159060200190929190505050610b29565b005b6103c56004803603604081101561038f57600080fd5b8101908080359060200190929190803573ffffffffffffffffffffffffffffffffffffffff169060200190929190505050610d90565b60405180821515815260200191505060405180910390f35b61041f600480360360208110156103f357600080fd5b81019080803573ffffffffffffffffffffffffffffffffffffffff169060200190929190505050610df6565b005b610429610ee9565b604051808273ffffffffffffffffffffffffffffffffffffffff16815260200191505060405180910390f35b61045d610f0f565b604051808273ffffffffffffffffffffffffffffffffffffffff16815260200191505060405180910390f35b6104bf6004803603604081101561049f57600080fd5b810190808035906020019092919080359060200190929190505050610f35565b005b6104c96111c3565b6040518082815260200191505060405180910390f35b6104e76111c9565b604051808261ffff16815260200191505060405180910390f35b6105096111cf565b6040518082815260200191505060405180910390f35b61056b6004803603604081101561053557600080fd5b8101908080359060200190929190803573ffffffffffffffffffffffffffffffffffffffff1690602001909291905050506111d5565b6040518082815260200191505060405180910390f35b6105ad6004803603602081101561059757600080fd5b8101908080359060200190929190505050611437565b005b6105db600480360360208110156105c557600080fd5b8101908080359060200190929190505050611792565b005b6105e5611962565b604051808273ffffffffffffffffffffffffffffffffffffffff16815260200191505060405180910390f35b6106416004803603602081101561062757600080fd5b81019080803561ffff169060200190929190505050611988565b005b61064b611aba565b005b610655611ae7565b005b6106996004803603602081101561066d57600080fd5b81019080803573ffffffffffffffffffffffffffffffffffffffff169060200190929190505050611c54565b005b6106a3611dfe565b6040518082815260200191505060405180910390f35b6106c1611e03565b604051808273ffffffffffffffffffffffffffffffffffffffff16815260200191505060405180910390f35b6107236004803603604081101561070357600080fd5b810190808035906020019092919080359060200190929190505050611e2c565b6040518082815260200191505060405180910390f35b61078f6004803603606081101561074f57600080fd5b810190808035906020019092919080359060200190929190803573ffffffffffffffffffffffffffffffffffffffff169060200190929190505050611e5c565b005b6107dd600480360360408110156107a757600080fd5b8101908080359060200190929190803573ffffffffffffffffffffffffffffffffffffffff169060200190929190505050612475565b6040518085815260200184815260200183815260200182815260200194505050505060405180910390f35b610878600480360360a081101561081e57600080fd5b8101908080359060200190929190803573ffffffffffffffffffffffffffffffffffffffff169060200190929190803561ffff169060200190929190803590602001909291908035151590602001909291905050506124b2565b005b610882612789565b6040518082815260200191505060405180910390f35b6108da600480360360208110156108ae57600080fd5b81019080803573ffffffffffffffffffffffffffffffffffffffff16906020019092919050505061278f565b005b6108e4612939565b604051808261ffff16815260200191505060405180910390f35b61090661294d565b6040518082815260200191505060405180910390f35b61095e6004803603602081101561093257600080fd5b81019080803573ffffffffffffffffffffffffffffffffffffffff169060200190929190505050612954565b005b6000600680549050905090565b600260009054906101000a900473ffffffffffffffffffffffffffffffffffffffff1681565b61099b612b46565b73ffffffffffffffffffffffffffffffffffffffff166109b9611e03565b73ffffffffffffffffffffffffffffffffffffffff1614610a42576040517f08c379a00000000000000000000000000000000000000000000000000000000081526004018080602001828103825260208152602001807f4f776e61626c653a2063616c6c6572206973206e6f7420746865206f776e657281525060200191505060405180910390fd5b610a4a611aba565b3373ffffffffffffffffffffffffffffffffffffffff167feedc6338c9c1ad8f3cd6c90dd09dbe98dbd57e610d3e59a17996d07acb0d951160055483604051808381526020018281526020019250505060405180910390a28060058190555050565b60068181548110610ab957fe5b90600052602060002090600602016000915090508060000160009054906101000a900473ffffffffffffffffffffffffffffffffffffffff16908060010154908060020154908060030154908060040160009054906101000a900461ffff16908060050154905086565b60085481565b610b31612b46565b73ffffffffffffffffffffffffffffffffffffffff16610b4f611e03565b73ffffffffffffffffffffffffffffffffffffffff1614610bd8576040517f08c379a00000000000000000000000000000000000000000000000000000000081526004018080602001828103825260208152602001807f4f776e61626c653a2063616c6c6572206973206e6f7420746865206f776e657281525060200191505060405180910390fd5b6127108361ffff161115610c37576040517f08c379a0000000000000000000000000000000000000000000000000000000008152600401808060200182810382526025815260200180613b876025913960400191505060405180910390fd5b62127500821115610cb0576040517f08c379a000000000000000000000000000000000000000000000000000000000815260040180806020018281038252601d8152602001807f7365743a20696e76616c6964206861727665737420696e74657276616c00000081525060200191505060405180910390fd5b8015610cbf57610cbe611aba565b5b610d0484610cf660068881548110610cd357fe5b906000526020600020906006020160010154600854612b4e90919063ffffffff16565b612bd190919063ffffffff16565b6008819055508360068681548110610d1857fe5b9060005260206000209060060201600101819055508260068681548110610d3b57fe5b906000526020600020906006020160040160006101000a81548161ffff021916908361ffff1602179055508160068681548110610d7457fe5b9060005260206000209060060201600501819055505050505050565b6000806007600085815260200190815260200160002060008473ffffffffffffffffffffffffffffffffffffffff1673ffffffffffffffffffffffffffffffffffffffff1681526020019081526020016000209050806003015442101591505092915050565b610dfe612b46565b73ffffffffffffffffffffffffffffffffffffffff16610e1c611e03565b73ffffffffffffffffffffffffffffffffffffffff1614610ea5576040517f08c379a00000000000000000000000000000000000000000000000000000000081526004018080602001828103825260208152602001807f4f776e61626c653a2063616c6c6572206973206e6f7420746865206f776e657281525060200191505060405180910390fd5b80600b60006101000a81548173ffffffffffffffffffffffffffffffffffffffff021916908373ffffffffffffffffffffffffffffffffffffffff16021790555050565b600360009054906101000a900473ffffffffffffffffffffffffffffffffffffffff1681565b600460009054906101000a900473ffffffffffffffffffffffffffffffffffffffff1681565b60026001541415610fae576040517f08c379a000000000000000000000000000000000000000000000000000000000815260040180806020018281038252601f8152602001807f5265656e7472616e637947756172643a207265656e7472616e742063616c6c0081525060200191505060405180910390fd5b6002600181905550600060068381548110610fc557fe5b9060005260206000209060060201905060006007600085815260200190815260200160002060003373ffffffffffffffffffffffffffffffffffffffff1673ffffffffffffffffffffffffffffffffffffffff168152602001908152602001600020905082816000015410156110a3576040517f08c379a00000000000000000000000000000000000000000000000000000000081526004018080602001828103825260128152602001807f77697468647261773a206e6f7420676f6f64000000000000000000000000000081525060200191505060405180910390fd5b6110ac84611437565b6110b584612c59565b600083111561112d576110d5838260000154612b4e90919063ffffffff16565b816000018190555061112c33848460000160009054906101000a900473ffffffffffffffffffffffffffffffffffffffff1673ffffffffffffffffffffffffffffffffffffffff16612e849092919063ffffffff16565b5b61115f64e8d4a5100061115184600301548460000154612f2690919063ffffffff16565b612fac90919063ffffffff16565b8160010181905550833373ffffffffffffffffffffffffffffffffffffffff167ff279e6a1f5e320cca91135676d9cb6e44ca8a08c0b88342bcdb1144f6511b568856040518082815260200191505060405180910390a35050600180819055505050565b600a5481565b6103e881565b60095481565b600080600684815481106111e557fe5b9060005260206000209060060201905060006007600086815260200190815260200160002060008573ffffffffffffffffffffffffffffffffffffffff1673ffffffffffffffffffffffffffffffffffffffff168152602001908152602001600020905060008260030154905060008360000160009054906101000a900473ffffffffffffffffffffffffffffffffffffffff1673ffffffffffffffffffffffffffffffffffffffff166370a08231306040518263ffffffff1660e01b8152600401808273ffffffffffffffffffffffffffffffffffffffff16815260200191505060206040518083038186803b1580156112df57600080fd5b505afa1580156112f3573d6000803e3d6000fd5b505050506040513d602081101561130957600080fd5b81019080805190602001909291905050509050836002015443118015611330575060008114155b156113cb576000611345856002015443611e2c565b9050600061138860085461137a886001015461136c60055487612f2690919063ffffffff16565b612f2690919063ffffffff16565b612fac90919063ffffffff16565b90506113c66113b7846113a964e8d4a5100085612f2690919063ffffffff16565b612fac90919063ffffffff16565b85612bd190919063ffffffff16565b935050505b6000611411846001015461140364e8d4a510006113f5878960000154612f2690919063ffffffff16565b612fac90919063ffffffff16565b612b4e90919063ffffffff16565b905061142a846002015482612bd190919063ffffffff16565b9550505050505092915050565b60006006828154811061144657fe5b9060005260206000209060060201905080600201544311611467575061178f565b60008160000160009054906101000a900473ffffffffffffffffffffffffffffffffffffffff1673ffffffffffffffffffffffffffffffffffffffff166370a08231306040518263ffffffff1660e01b8152600401808273ffffffffffffffffffffffffffffffffffffffff16815260200191505060206040518083038186803b1580156114f457600080fd5b505afa158015611508573d6000803e3d6000fd5b505050506040513d602081101561151e57600080fd5b810190808051906020019092919050505090506000811480611544575060008260010154145b1561155957438260020181905550505061178f565b6000611569836002015443611e2c565b905060006115ac60085461159e866001015461159060055487612f2690919063ffffffff16565b612f2690919063ffffffff16565b612fac90919063ffffffff16565b9050600260009054906101000a900473ffffffffffffffffffffffffffffffffffffffff1673ffffffffffffffffffffffffffffffffffffffff166340c10f19600360009054906101000a900473ffffffffffffffffffffffffffffffffffffffff16611623600a85612fac90919063ffffffff16565b6040518363ffffffff1660e01b8152600401808373ffffffffffffffffffffffffffffffffffffffff16815260200182815260200192505050600060405180830381600087803b15801561167657600080fd5b505af115801561168a573d6000803e3d6000fd5b50505050600260009054906101000a900473ffffffffffffffffffffffffffffffffffffffff1673ffffffffffffffffffffffffffffffffffffffff166340c10f1930836040518363ffffffff1660e01b8152600401808373ffffffffffffffffffffffffffffffffffffffff16815260200182815260200192505050600060405180830381600087803b15801561172157600080fd5b505af1158015611735573d6000803e3d6000fd5b505050506117796117668461175864e8d4a5100085612f2690919063ffffffff16565b612fac90919063ffffffff16565b8560030154612bd190919063ffffffff16565b8460030181905550438460020181905550505050505b50565b6002600154141561180b576040517f08c379a000000000000000000000000000000000000000000000000000000000815260040180806020018281038252601f8152602001807f5265656e7472616e637947756172643a207265656e7472616e742063616c6c0081525060200191505060405180910390fd5b600260018190555060006006828154811061182257fe5b9060005260206000209060060201905060006007600084815260200190815260200160002060003373ffffffffffffffffffffffffffffffffffffffff1673ffffffffffffffffffffffffffffffffffffffff16815260200190815260200160002090506000816000015490506000826000018190555060008260010181905550600082600201819055506000826003018190555061190633828560000160009054906101000a900473ffffffffffffffffffffffffffffffffffffffff1673ffffffffffffffffffffffffffffffffffffffff16612e849092919063ffffffff16565b833373ffffffffffffffffffffffffffffffffffffffff167fbb757047c2b5f3974fe26b7c10f732e7bce710b0952a71082702781e62ae0595836040518082815260200191505060405180910390a35050506001808190555050565b600b60009054906101000a900473ffffffffffffffffffffffffffffffffffffffff1681565b611990612b46565b73ffffffffffffffffffffffffffffffffffffffff166119ae611e03565b73ffffffffffffffffffffffffffffffffffffffff1614611a37576040517f08c379a00000000000000000000000000000000000000000000000000000000081526004018080602001828103825260208152602001807f4f776e61626c653a2063616c6c6572206973206e6f7420746865206f776e657281525060200191505060405180910390fd5b6103e861ffff168161ffff161115611a9a576040517f08c379a0000000000000000000000000000000000000000000000000000000008152600401808060200182810382526048815260200180613aa86048913960600191505060405180910390fd5b80600b60146101000a81548161ffff021916908361ffff16021790555050565b6000600680549050905060005b81811015611ae357611ad881611437565b806001019050611ac7565b5050565b611aef612b46565b73ffffffffffffffffffffffffffffffffffffffff16611b0d611e03565b73ffffffffffffffffffffffffffffffffffffffff1614611b96576040517f08c379a00000000000000000000000000000000000000000000000000000000081526004018080602001828103825260208152602001807f4f776e61626c653a2063616c6c6572206973206e6f7420746865206f776e657281525060200191505060405180910390fd5b600073ffffffffffffffffffffffffffffffffffffffff1660008054906101000a900473ffffffffffffffffffffffffffffffffffffffff1673ffffffffffffffffffffffffffffffffffffffff167f8be0079c531659141344cd1fd0a4f28419497f9722a3daafe3b4186f6b6457e060405160405180910390a360008060006101000a81548173ffffffffffffffffffffffffffffffffffffffff021916908373ffffffffffffffffffffffffffffffffffffffff160217905550565b600460009054906101000a900473ffffffffffffffffffffffffffffffffffffffff1673ffffffffffffffffffffffffffffffffffffffff163373ffffffffffffffffffffffffffffffffffffffff1614611d17576040517f08c379a00000000000000000000000000000000000000000000000000000000081526004018080602001828103825260188152602001807f736574466565416464726573733a20464f5242494444454e000000000000000081525060200191505060405180910390fd5b600073ffffffffffffffffffffffffffffffffffffffff168173ffffffffffffffffffffffffffffffffffffffff161415611dba576040517f08c379a00000000000000000000000000000000000000000000000000000000081526004018080602001828103825260138152602001807f736574466565416464726573733a205a45524f0000000000000000000000000081525060200191505060405180910390fd5b80600460006101000a81548173ffffffffffffffffffffffffffffffffffffffff021916908373ffffffffffffffffffffffffffffffffffffffff16021790555050565b600181565b60008060009054906101000a900473ffffffffffffffffffffffffffffffffffffffff16905090565b6000611e546001611e468585612b4e90919063ffffffff16565b612f2690919063ffffffff16565b905092915050565b60026001541415611ed5576040517f08c379a000000000000000000000000000000000000000000000000000000000815260040180806020018281038252601f8152602001807f5265656e7472616e637947756172643a207265656e7472616e742063616c6c0081525060200191505060405180910390fd5b6002600181905550600060068481548110611eec57fe5b9060005260206000209060060201905060006007600086815260200190815260200160002060003373ffffffffffffffffffffffffffffffffffffffff1673ffffffffffffffffffffffffffffffffffffffff1681526020019081526020016000209050611f5985611437565b600084118015611fb85750600073ffffffffffffffffffffffffffffffffffffffff16600b60009054906101000a900473ffffffffffffffffffffffffffffffffffffffff1673ffffffffffffffffffffffffffffffffffffffff1614155b8015611ff15750600073ffffffffffffffffffffffffffffffffffffffff168373ffffffffffffffffffffffffffffffffffffffff1614155b801561202957503373ffffffffffffffffffffffffffffffffffffffff168373ffffffffffffffffffffffffffffffffffffffff1614155b156120f057600b60009054906101000a900473ffffffffffffffffffffffffffffffffffffffff1673ffffffffffffffffffffffffffffffffffffffff16630c7f7b6b33856040518363ffffffff1660e01b8152600401808373ffffffffffffffffffffffffffffffffffffffff1681526020018273ffffffffffffffffffffffffffffffffffffffff16815260200192505050600060405180830381600087803b1580156120d757600080fd5b505af11580156120eb573d6000803e3d6000fd5b505050505b6120f985612c59565b60008411156123de576121533330868560000160009054906101000a900473ffffffffffffffffffffffffffffffffffffffff1673ffffffffffffffffffffffffffffffffffffffff16613035909392919063ffffffff16565b600260009054906101000a900473ffffffffffffffffffffffffffffffffffffffff1673ffffffffffffffffffffffffffffffffffffffff168260000160009054906101000a900473ffffffffffffffffffffffffffffffffffffffff1673ffffffffffffffffffffffffffffffffffffffff1614156122b557600061229c61271061228e600260009054906101000a900473ffffffffffffffffffffffffffffffffffffffff1673ffffffffffffffffffffffffffffffffffffffff1663b65d08b06040518163ffffffff1660e01b815260040160206040518083038186803b15801561224057600080fd5b505afa158015612254573d6000803e3d6000fd5b505050506040513d602081101561226a57600080fd5b810190808051906020019092919050505061ffff1688612f2690919063ffffffff16565b612fac90919063ffffffff16565b90506122b18186612b4e90919063ffffffff16565b9450505b60008260040160009054906101000a900461ffff1661ffff1611156123bd5760006123136127106123058560040160009054906101000a900461ffff1661ffff1688612f2690919063ffffffff16565b612fac90919063ffffffff16565b9050612386600460009054906101000a900473ffffffffffffffffffffffffffffffffffffffff16828560000160009054906101000a900473ffffffffffffffffffffffffffffffffffffffff1673ffffffffffffffffffffffffffffffffffffffff16612e849092919063ffffffff16565b6123af816123a1878560000154612bd190919063ffffffff16565b612b4e90919063ffffffff16565b8260000181905550506123dd565b6123d4848260000154612bd190919063ffffffff16565b81600001819055505b5b61241064e8d4a5100061240284600301548460000154612f2690919063ffffffff16565b612fac90919063ffffffff16565b8160010181905550843373ffffffffffffffffffffffffffffffffffffffff167f90890809c654f11d6e72a28fa60149770a0d11ec6c92319d6ceb2bb0a4ea1a15866040518082815260200191505060405180910390a3505060018081905550505050565b6007602052816000526040600020602052806000526040600020600091509150508060000154908060010154908060020154908060030154905084565b6124ba612b46565b73ffffffffffffffffffffffffffffffffffffffff166124d8611e03565b73ffffffffffffffffffffffffffffffffffffffff1614612561576040517f08c379a00000000000000000000000000000000000000000000000000000000081526004018080602001828103825260208152602001807f4f776e61626c653a2063616c6c6572206973206e6f7420746865206f776e657281525060200191505060405180910390fd5b6127108361ffff1611156125c0576040517f08c379a0000000000000000000000000000000000000000000000000000000008152600401808060200182810382526025815260200180613a836025913960400191505060405180910390fd5b62127500821115612639576040517f08c379a000000000000000000000000000000000000000000000000000000000815260040180806020018281038252601d8152602001807f6164643a20696e76616c6964206861727665737420696e74657276616c00000081525060200191505060405180910390fd5b801561264857612647611aba565b5b6000600954431161265b5760095461265d565b435b905061267486600854612bd190919063ffffffff16565b60088190555060066040518060c001604052808773ffffffffffffffffffffffffffffffffffffffff168152602001888152602001838152602001600081526020018661ffff16815260200185815250908060018154018082558091505060019003906000526020600020906006020160009091909190915060008201518160000160006101000a81548173ffffffffffffffffffffffffffffffffffffffff021916908373ffffffffffffffffffffffffffffffffffffffff16021790555060208201518160010155604082015181600201556060820151816003015560808201518160040160006101000a81548161ffff021916908361ffff16021790555060a082015181600501555050505050505050565b60055481565b600360009054906101000a900473ffffffffffffffffffffffffffffffffffffffff1673ffffffffffffffffffffffffffffffffffffffff163373ffffffffffffffffffffffffffffffffffffffff1614612852576040517f08c379a00000000000000000000000000000000000000000000000000000000081526004018080602001828103825260188152602001807f736574446576416464726573733a20464f5242494444454e000000000000000081525060200191505060405180910390fd5b600073ffffffffffffffffffffffffffffffffffffffff168173ffffffffffffffffffffffffffffffffffffffff1614156128f5576040517f08c379a00000000000000000000000000000000000000000000000000000000081526004018080602001828103825260138152602001807f736574446576416464726573733a205a45524f0000000000000000000000000081525060200191505060405180910390fd5b80600360006101000a81548173ffffffffffffffffffffffffffffffffffffffff021916908373ffffffffffffffffffffffffffffffffffffffff16021790555050565b600b60149054906101000a900461ffff1681565b6212750081565b61295c612b46565b73ffffffffffffffffffffffffffffffffffffffff1661297a611e03565b73ffffffffffffffffffffffffffffffffffffffff1614612a03576040517f08c379a00000000000000000000000000000000000000000000000000000000081526004018080602001828103825260208152602001807f4f776e61626c653a2063616c6c6572206973206e6f7420746865206f776e657281525060200191505060405180910390fd5b600073ffffffffffffffffffffffffffffffffffffffff168173ffffffffffffffffffffffffffffffffffffffff161415612a89576040517f08c379a0000000000000000000000000000000000000000000000000000000008152600401808060200182810382526026815260200180613b1a6026913960400191505060405180910390fd5b8073ffffffffffffffffffffffffffffffffffffffff1660008054906101000a900473ffffffffffffffffffffffffffffffffffffffff1673ffffffffffffffffffffffffffffffffffffffff167f8be0079c531659141344cd1fd0a4f28419497f9722a3daafe3b4186f6b6457e060405160405180910390a3806000806101000a81548173ffffffffffffffffffffffffffffffffffffffff021916908373ffffffffffffffffffffffffffffffffffffffff16021790555050565b600033905090565b600082821115612bc6576040517f08c379a000000000000000000000000000000000000000000000000000000000815260040180806020018281038252601e8152602001807f536166654d6174683a207375627472616374696f6e206f766572666c6f77000081525060200191505060405180910390fd5b818303905092915050565b600080828401905083811015612c4f576040517f08c379a000000000000000000000000000000000000000000000000000000000815260040180806020018281038252601b8152602001807f536166654d6174683a206164646974696f6e206f766572666c6f77000000000081525060200191505060405180910390fd5b8091505092915050565b600060068281548110612c6857fe5b9060005260206000209060060201905060006007600084815260200190815260200160002060003373ffffffffffffffffffffffffffffffffffffffff1673ffffffffffffffffffffffffffffffffffffffff1681526020019081526020016000209050600081600301541415612cf957612cf0826005015442612bd190919063ffffffff16565b81600301819055505b6000612d438260010154612d3564e8d4a51000612d2787600301548760000154612f2690919063ffffffff16565b612fac90919063ffffffff16565b612b4e90919063ffffffff16565b9050612d4f8433610d90565b15612dea576000811180612d67575060008260020154115b15612de5576000612d85836002015483612bd190919063ffffffff16565b9050612da08360020154600a54612b4e90919063ffffffff16565b600a8190555060008360020181905550612dc7846005015442612bd190919063ffffffff16565b8360030181905550612dd933826130f6565b612de3338261336f565b505b612e7e565b6000811115612e7d57612e0a818360020154612bd190919063ffffffff16565b8260020181905550612e2781600a54612bd190919063ffffffff16565b600a81905550833373ffffffffffffffffffffffffffffffffffffffff167fee470483107f579a55c754fa00613c45a9a3b617a418b39cb0be97e5381ba7c1836040518082815260200191505060405180910390a35b5b50505050565b612f218363a9059cbb60e01b8484604051602401808373ffffffffffffffffffffffffffffffffffffffff16815260200182815260200192505050604051602081830303815290604052907bffffffffffffffffffffffffffffffffffffffffffffffffffffffff19166020820180517bffffffffffffffffffffffffffffffffffffffffffffffffffffffff83818316178352505050506136f3565b505050565b600080831415612f395760009050612fa6565b6000828402905082848281612f4a57fe5b0414612fa1576040517f08c379a0000000000000000000000000000000000000000000000000000000008152600401808060200182810382526021815260200180613b666021913960400191505060405180910390fd5b809150505b92915050565b6000808211613023576040517f08c379a000000000000000000000000000000000000000000000000000000000815260040180806020018281038252601a8152602001807f536166654d6174683a206469766973696f6e206279207a65726f00000000000081525060200191505060405180910390fd5b81838161302c57fe5b04905092915050565b6130f0846323b872dd60e01b858585604051602401808473ffffffffffffffffffffffffffffffffffffffff1681526020018373ffffffffffffffffffffffffffffffffffffffff1681526020018281526020019350505050604051602081830303815290604052907bffffffffffffffffffffffffffffffffffffffffffffffffffffffff19166020820180517bffffffffffffffffffffffffffffffffffffffffffffffffffffffff83818316178352505050506136f3565b50505050565b6000600260009054906101000a900473ffffffffffffffffffffffffffffffffffffffff1673ffffffffffffffffffffffffffffffffffffffff166370a08231306040518263ffffffff1660e01b8152600401808273ffffffffffffffffffffffffffffffffffffffff16815260200191505060206040518083038186803b15801561318157600080fd5b505afa158015613195573d6000803e3d6000fd5b505050506040513d60208110156131ab57600080fd5b810190808051906020019092919050505090508082111561329a57600260009054906101000a900473ffffffffffffffffffffffffffffffffffffffff1673ffffffffffffffffffffffffffffffffffffffff1663a9059cbb84836040518363ffffffff1660e01b8152600401808373ffffffffffffffffffffffffffffffffffffffff16815260200182815260200192505050602060405180830381600087803b15801561325957600080fd5b505af115801561326d573d6000803e3d6000fd5b505050506040513d602081101561328357600080fd5b81019080805190602001909291905050505061336a565b600260009054906101000a900473ffffffffffffffffffffffffffffffffffffffff1673ffffffffffffffffffffffffffffffffffffffff1663a9059cbb84846040518363ffffffff1660e01b8152600401808373ffffffffffffffffffffffffffffffffffffffff16815260200182815260200192505050602060405180830381600087803b15801561332d57600080fd5b505af1158015613341573d6000803e3d6000fd5b505050506040513d602081101561335757600080fd5b8101908080519060200190929190505050505b505050565b600073ffffffffffffffffffffffffffffffffffffffff16600b60009054906101000a900473ffffffffffffffffffffffffffffffffffffffff1673ffffffffffffffffffffffffffffffffffffffff16141580156133e257506000600b60149054906101000a900461ffff1661ffff16115b156136ef576000600b60009054906101000a900473ffffffffffffffffffffffffffffffffffffffff1673ffffffffffffffffffffffffffffffffffffffff16634a9fefc7846040518263ffffffff1660e01b8152600401808273ffffffffffffffffffffffffffffffffffffffff16815260200191505060206040518083038186803b15801561347257600080fd5b505afa158015613486573d6000803e3d6000fd5b505050506040513d602081101561349c57600080fd5b8101908080519060200190929190505050905060006134ec6127106134de600b60149054906101000a900461ffff1661ffff1686612f2690919063ffffffff16565b612fac90919063ffffffff16565b9050600073ffffffffffffffffffffffffffffffffffffffff168273ffffffffffffffffffffffffffffffffffffffff161415801561352b5750600081115b156136ec57600260009054906101000a900473ffffffffffffffffffffffffffffffffffffffff1673ffffffffffffffffffffffffffffffffffffffff166340c10f1983836040518363ffffffff1660e01b8152600401808373ffffffffffffffffffffffffffffffffffffffff16815260200182815260200192505050600060405180830381600087803b1580156135c357600080fd5b505af11580156135d7573d6000803e3d6000fd5b50505050600b60009054906101000a900473ffffffffffffffffffffffffffffffffffffffff1673ffffffffffffffffffffffffffffffffffffffff1663dc1694b883836040518363ffffffff1660e01b8152600401808373ffffffffffffffffffffffffffffffffffffffff16815260200182815260200192505050600060405180830381600087803b15801561366e57600080fd5b505af1158015613682573d6000803e3d6000fd5b505050508173ffffffffffffffffffffffffffffffffffffffff168473ffffffffffffffffffffffffffffffffffffffff167f86ddab457291316e0f5496737e5ca67c4037234c32c3be04c48ae96186893a7b836040518082815260200191505060405180910390a35b50505b5050565b6060613755826040518060400160405280602081526020017f5361666542455032303a206c6f772d6c6576656c2063616c6c206661696c65648152508573ffffffffffffffffffffffffffffffffffffffff166137e29092919063ffffffff16565b90506000815111156137dd5780806020019051602081101561377657600080fd5b81019080805190602001909291905050506137dc576040517f08c379a000000000000000000000000000000000000000000000000000000000815260040180806020018281038252602a815260200180613af0602a913960400191505060405180910390fd5b5b505050565b60606137f184846000856137fa565b90509392505050565b606082471015613855576040517f08c379a0000000000000000000000000000000000000000000000000000000008152600401808060200182810382526026815260200180613b406026913960400191505060405180910390fd5b61385e856139a3565b6138d0576040517f08c379a000000000000000000000000000000000000000000000000000000000815260040180806020018281038252601d8152602001807f416464726573733a2063616c6c20746f206e6f6e2d636f6e747261637400000081525060200191505060405180910390fd5b600060608673ffffffffffffffffffffffffffffffffffffffff1685876040518082805190602001908083835b6020831061392057805182526020820191506020810190506020830392506138fd565b6001836020036101000a03801982511681845116808217855250505050505090500191505060006040518083038185875af1925050503d8060008114613982576040519150601f19603f3d011682016040523d82523d6000602084013e613987565b606091505b50915091506139978282866139b6565b92505050949350505050565b600080823b905060008111915050919050565b606083156139c657829050613a7b565b6000835111156139d95782518084602001fd5b816040517f08c379a00000000000000000000000000000000000000000000000000000000081526004018080602001828103825283818151815260200191508051906020019080838360005b83811015613a40578082015181840152602081019050613a25565b50505050905090810190601f168015613a6d5780820380516001836020036101000a031916815260200191505b509250505060405180910390fd5b939250505056fe6164643a20696e76616c6964206465706f7369742066656520626173697320706f696e7473736574526566657272616c436f6d6d697373696f6e526174653a20696e76616c696420726566657272616c20636f6d6d697373696f6e207261746520626173697320706f696e74735361666542455032303a204245503230206f7065726174696f6e20646964206e6f7420737563636565644f776e61626c653a206e6577206f776e657220697320746865207a65726f2061646472657373416464726573733a20696e73756666696369656e742062616c616e636520666f722063616c6c536166654d6174683a206d756c7469706c69636174696f6e206f766572666c6f777365743a20696e76616c6964206465706f7369742066656520626173697320706f696e7473a26469706673582212207b7ce232978a30be1e886e18e1c39fa873bd4245ed356df2461fcc4e42e8c30a64736f6c634300060c0033",
  "immutableReferences": {},
  "source": "// SPDX-License-Identifier: MIT\r\n\r\npragma solidity 0.6.12;\r\n\r\nimport \"@openzeppelin/contracts/math/SafeMath.sol\";\r\nimport \"./libs/IBEP20.sol\";\r\nimport \"./libs/SafeBEP20.sol\";\r\nimport \"./libs/ICoalReferral.sol\";\r\nimport \"@openzeppelin/contracts/access/Ownable.sol\";\r\nimport \"@openzeppelin/contracts/utils/ReentrancyGuard.sol\";\r\n\r\nimport \"./CoalToken.sol\";\r\n\r\n// MasterChef is the master of Coal. He can make Coal and he is a fair guy.\r\n//\r\n// Note that it's ownable and the owner wields tremendous power. The ownership\r\n// will be transferred to a governance smart contract once Coal is sufficiently\r\n// distributed and the community can show to govern itself.\r\n//\r\n// Have fun reading it. Hopefully it's bug-free. God bless.\r\ncontract MasterChef is Ownable, ReentrancyGuard {\r\n    using SafeMath for uint256;\r\n    using SafeBEP20 for IBEP20;\r\n\r\n    // Info of each user.\r\n    struct UserInfo {\r\n        uint256 amount;         // How many LP tokens the user has provided.\r\n        uint256 rewardDebt;     // Reward debt. See explanation below.\r\n        uint256 rewardLockedUp;  // Reward locked up.\r\n        uint256 nextHarvestUntil; // When can the user harvest again.\r\n        //\r\n        // We do some fancy math here. Basically, any point in time, the amount of Coals\r\n        // entitled to a user but is pending to be distributed is:\r\n        //\r\n        //   pending reward = (user.amount * pool.accCoalPerShare) - user.rewardDebt\r\n        //\r\n        // Whenever a user deposits or withdraws LP tokens to a pool. Here's what happens:\r\n        //   1. The pool's `accCoalPerShare` (and `lastRewardBlock`) gets updated.\r\n        //   2. User receives the pending reward sent to his/her address.\r\n        //   3. User's `amount` gets updated.\r\n        //   4. User's `rewardDebt` gets updated.\r\n    }\r\n\r\n    // Info of each pool.\r\n    struct PoolInfo {\r\n        IBEP20 lpToken;           // Address of LP token contract.\r\n        uint256 allocPoint;       // How many allocation points assigned to this pool. Coals to distribute per block.\r\n        uint256 lastRewardBlock;  // Last block number that Coals distribution occurs.\r\n        uint256 accCoalPerShare;   // Accumulated Coals per share, times 1e12. See below.\r\n        uint16 depositFeeBP;      // Deposit fee in basis points\r\n        uint256 harvestInterval;  // Harvest interval in seconds\r\n    }\r\n\r\n    // The Coal TOKEN!\r\n    CoalToken public Coal;\r\n    // Dev address.\r\n    address public devAddress;\r\n    // Deposit Fee address\r\n    address public feeAddress;\r\n    // Coal tokens created per block.\r\n    uint256 public CoalPerBlock;\r\n    // Bonus muliplier for early Coal makers.\r\n    uint256 public constant BONUS_MULTIPLIER = 1;\r\n    // Max harvest interval: 14 days.\r\n    uint256 public constant MAXIMUM_HARVEST_INTERVAL = 14 days;\r\n\r\n    // Info of each pool.\r\n    PoolInfo[] public poolInfo;\r\n    // Info of each user that stakes LP tokens.\r\n    mapping(uint256 => mapping(address => UserInfo)) public userInfo;\r\n    // Total allocation points. Must be the sum of all allocation points in all pools.\r\n    uint256 public totalAllocPoint = 0;\r\n    // The block number when Coal mining starts.\r\n    uint256 public startBlock;\r\n    // Total locked up rewards\r\n    uint256 public totalLockedUpRewards;\r\n\r\n    // Coal referral contract address.\r\n    ICoalReferral public CoalReferral;\r\n    // Referral commission rate in basis points.\r\n    uint16 public referralCommissionRate = 150;\r\n    // Max referral commission rate: 10%.\r\n    uint16 public constant MAXIMUM_REFERRAL_COMMISSION_RATE = 1000;\r\n\r\n    event Deposit(address indexed user, uint256 indexed pid, uint256 amount);\r\n    event Withdraw(address indexed user, uint256 indexed pid, uint256 amount);\r\n    event EmergencyWithdraw(address indexed user, uint256 indexed pid, uint256 amount);\r\n    event EmissionRateUpdated(address indexed caller, uint256 previousAmount, uint256 newAmount);\r\n    event ReferralCommissionPaid(address indexed user, address indexed referrer, uint256 commissionAmount);\r\n    event RewardLockedUp(address indexed user, uint256 indexed pid, uint256 amountLockedUp);\r\n\r\n    constructor(\r\n        CoalToken _Coal,\r\n        uint256 _startBlock,\r\n        uint256 _CoalPerBlock\r\n    ) public {\r\n        Coal = _Coal;\r\n        startBlock = _startBlock;\r\n        CoalPerBlock = _CoalPerBlock;\r\n\r\n        devAddress = msg.sender;\r\n        feeAddress = msg.sender;\r\n    }\r\n\r\n    function poolLength() external view returns (uint256) {\r\n        return poolInfo.length;\r\n    }\r\n\r\n    // Add a new lp to the pool. Can only be called by the owner.\r\n    // XXX DO NOT add the same LP token more than once. Rewards will be messed up if you do.\r\n    function add(uint256 _allocPoint, IBEP20 _lpToken, uint16 _depositFeeBP, uint256 _harvestInterval, bool _withUpdate) public onlyOwner {\r\n        require(_depositFeeBP <= 10000, \"add: invalid deposit fee basis points\");\r\n        require(_harvestInterval <= MAXIMUM_HARVEST_INTERVAL, \"add: invalid harvest interval\");\r\n        if (_withUpdate) {\r\n            massUpdatePools();\r\n        }\r\n        uint256 lastRewardBlock = block.number > startBlock ? block.number : startBlock;\r\n        totalAllocPoint = totalAllocPoint.add(_allocPoint);\r\n        poolInfo.push(PoolInfo({\r\n            lpToken: _lpToken,\r\n            allocPoint: _allocPoint,\r\n            lastRewardBlock: lastRewardBlock,\r\n            accCoalPerShare: 0,\r\n            depositFeeBP: _depositFeeBP,\r\n            harvestInterval: _harvestInterval\r\n        }));\r\n    }\r\n\r\n    // Update the given pool's Coal allocation point and deposit fee. Can only be called by the owner.\r\n    function set(uint256 _pid, uint256 _allocPoint, uint16 _depositFeeBP, uint256 _harvestInterval, bool _withUpdate) public onlyOwner {\r\n        require(_depositFeeBP <= 10000, \"set: invalid deposit fee basis points\");\r\n        require(_harvestInterval <= MAXIMUM_HARVEST_INTERVAL, \"set: invalid harvest interval\");\r\n        if (_withUpdate) {\r\n            massUpdatePools();\r\n        }\r\n        totalAllocPoint = totalAllocPoint.sub(poolInfo[_pid].allocPoint).add(_allocPoint);\r\n        poolInfo[_pid].allocPoint = _allocPoint;\r\n        poolInfo[_pid].depositFeeBP = _depositFeeBP;\r\n        poolInfo[_pid].harvestInterval = _harvestInterval;\r\n    }\r\n\r\n    // Return reward multiplier over the given _from to _to block.\r\n    function getMultiplier(uint256 _from, uint256 _to) public pure returns (uint256) {\r\n        return _to.sub(_from).mul(BONUS_MULTIPLIER);\r\n    }\r\n\r\n    // View function to see pending Coals on frontend.\r\n    function pendingCoal(uint256 _pid, address _user) external view returns (uint256) {\r\n        PoolInfo storage pool = poolInfo[_pid];\r\n        UserInfo storage user = userInfo[_pid][_user];\r\n        uint256 accCoalPerShare = pool.accCoalPerShare;\r\n        uint256 lpSupply = pool.lpToken.balanceOf(address(this));\r\n        if (block.number > pool.lastRewardBlock && lpSupply != 0) {\r\n            uint256 multiplier = getMultiplier(pool.lastRewardBlock, block.number);\r\n            uint256 CoalReward = multiplier.mul(CoalPerBlock).mul(pool.allocPoint).div(totalAllocPoint);\r\n            accCoalPerShare = accCoalPerShare.add(CoalReward.mul(1e12).div(lpSupply));\r\n        }\r\n        uint256 pending = user.amount.mul(accCoalPerShare).div(1e12).sub(user.rewardDebt);\r\n        return pending.add(user.rewardLockedUp);\r\n    }\r\n\r\n    // View function to see if user can harvest Coals.\r\n    function canHarvest(uint256 _pid, address _user) public view returns (bool) {\r\n        UserInfo storage user = userInfo[_pid][_user];\r\n        return block.timestamp >= user.nextHarvestUntil;\r\n    }\r\n\r\n    // Update reward variables for all pools. Be careful of gas spending!\r\n    function massUpdatePools() public {\r\n        uint256 length = poolInfo.length;\r\n        for (uint256 pid = 0; pid < length; ++pid) {\r\n            updatePool(pid);\r\n        }\r\n    }\r\n\r\n    // Update reward variables of the given pool to be up-to-date.\r\n    function updatePool(uint256 _pid) public {\r\n        PoolInfo storage pool = poolInfo[_pid];\r\n        if (block.number <= pool.lastRewardBlock) {\r\n            return;\r\n        }\r\n        uint256 lpSupply = pool.lpToken.balanceOf(address(this));\r\n        if (lpSupply == 0 || pool.allocPoint == 0) {\r\n            pool.lastRewardBlock = block.number;\r\n            return;\r\n        }\r\n        uint256 multiplier = getMultiplier(pool.lastRewardBlock, block.number);\r\n        uint256 CoalReward = multiplier.mul(CoalPerBlock).mul(pool.allocPoint).div(totalAllocPoint);\r\n        Coal.mint(devAddress, CoalReward.div(10));\r\n        Coal.mint(address(this), CoalReward);\r\n        pool.accCoalPerShare = pool.accCoalPerShare.add(CoalReward.mul(1e12).div(lpSupply));\r\n        pool.lastRewardBlock = block.number;\r\n    }\r\n\r\n    // Deposit LP tokens to MasterChef for Coal allocation.\r\n    function deposit(uint256 _pid, uint256 _amount, address _referrer) public nonReentrant {\r\n        PoolInfo storage pool = poolInfo[_pid];\r\n        UserInfo storage user = userInfo[_pid][msg.sender];\r\n        updatePool(_pid);\r\n        if (_amount > 0 && address(CoalReferral) != address(0) && _referrer != address(0) && _referrer != msg.sender) {\r\n            CoalReferral.recordReferral(msg.sender, _referrer);\r\n        }\r\n        payOrLockupPendingCoal(_pid);\r\n        if (_amount > 0) {\r\n            pool.lpToken.safeTransferFrom(address(msg.sender), address(this), _amount);\r\n            if (address(pool.lpToken) == address(Coal)) {\r\n                uint256 transferTax = _amount.mul(Coal.transferTaxRate()).div(10000);\r\n                _amount = _amount.sub(transferTax);\r\n            }\r\n            if (pool.depositFeeBP > 0) {\r\n                uint256 depositFee = _amount.mul(pool.depositFeeBP).div(10000);\r\n                pool.lpToken.safeTransfer(feeAddress, depositFee);\r\n                user.amount = user.amount.add(_amount).sub(depositFee);\r\n            } else {\r\n                user.amount = user.amount.add(_amount);\r\n            }\r\n        }\r\n        user.rewardDebt = user.amount.mul(pool.accCoalPerShare).div(1e12);\r\n        emit Deposit(msg.sender, _pid, _amount);\r\n    }\r\n\r\n    // Withdraw LP tokens from MasterChef.\r\n    function withdraw(uint256 _pid, uint256 _amount) public nonReentrant {\r\n        PoolInfo storage pool = poolInfo[_pid];\r\n        UserInfo storage user = userInfo[_pid][msg.sender];\r\n        require(user.amount >= _amount, \"withdraw: not good\");\r\n        updatePool(_pid);\r\n        payOrLockupPendingCoal(_pid);\r\n        if (_amount > 0) {\r\n            user.amount = user.amount.sub(_amount);\r\n            pool.lpToken.safeTransfer(address(msg.sender), _amount);\r\n        }\r\n        user.rewardDebt = user.amount.mul(pool.accCoalPerShare).div(1e12);\r\n        emit Withdraw(msg.sender, _pid, _amount);\r\n    }\r\n\r\n    // Withdraw without caring about rewards. EMERGENCY ONLY.\r\n    function emergencyWithdraw(uint256 _pid) public nonReentrant {\r\n        PoolInfo storage pool = poolInfo[_pid];\r\n        UserInfo storage user = userInfo[_pid][msg.sender];\r\n        uint256 amount = user.amount;\r\n        user.amount = 0;\r\n        user.rewardDebt = 0;\r\n        user.rewardLockedUp = 0;\r\n        user.nextHarvestUntil = 0;\r\n        pool.lpToken.safeTransfer(address(msg.sender), amount);\r\n        emit EmergencyWithdraw(msg.sender, _pid, amount);\r\n    }\r\n\r\n    // Pay or lockup pending Coals.\r\n    function payOrLockupPendingCoal(uint256 _pid) internal {\r\n        PoolInfo storage pool = poolInfo[_pid];\r\n        UserInfo storage user = userInfo[_pid][msg.sender];\r\n\r\n        if (user.nextHarvestUntil == 0) {\r\n            user.nextHarvestUntil = block.timestamp.add(pool.harvestInterval);\r\n        }\r\n\r\n        uint256 pending = user.amount.mul(pool.accCoalPerShare).div(1e12).sub(user.rewardDebt);\r\n        if (canHarvest(_pid, msg.sender)) {\r\n            if (pending > 0 || user.rewardLockedUp > 0) {\r\n                uint256 totalRewards = pending.add(user.rewardLockedUp);\r\n\r\n                // reset lockup\r\n                totalLockedUpRewards = totalLockedUpRewards.sub(user.rewardLockedUp);\r\n                user.rewardLockedUp = 0;\r\n                user.nextHarvestUntil = block.timestamp.add(pool.harvestInterval);\r\n\r\n                // send rewards\r\n                safeCoalTransfer(msg.sender, totalRewards);\r\n                payReferralCommission(msg.sender, totalRewards);\r\n            }\r\n        } else if (pending > 0) {\r\n            user.rewardLockedUp = user.rewardLockedUp.add(pending);\r\n            totalLockedUpRewards = totalLockedUpRewards.add(pending);\r\n            emit RewardLockedUp(msg.sender, _pid, pending);\r\n        }\r\n    }\r\n\r\n    // Safe Coal transfer function, just in case if rounding error causes pool to not have enough Coals.\r\n    function safeCoalTransfer(address _to, uint256 _amount) internal {\r\n        uint256 CoalBal = Coal.balanceOf(address(this));\r\n        if (_amount > CoalBal) {\r\n            Coal.transfer(_to, CoalBal);\r\n        } else {\r\n            Coal.transfer(_to, _amount);\r\n        }\r\n    }\r\n\r\n    // Update dev address by the previous dev.\r\n    function setDevAddress(address _devAddress) public {\r\n        require(msg.sender == devAddress, \"setDevAddress: FORBIDDEN\");\r\n        require(_devAddress != address(0), \"setDevAddress: ZERO\");\r\n        devAddress = _devAddress;\r\n    }\r\n\r\n    function setFeeAddress(address _feeAddress) public {\r\n        require(msg.sender == feeAddress, \"setFeeAddress: FORBIDDEN\");\r\n        require(_feeAddress != address(0), \"setFeeAddress: ZERO\");\r\n        feeAddress = _feeAddress;\r\n    }\r\n\r\n    // Pancake has to add hidden dummy pools in order to alter the emission, here we make it simple and transparent to all.\r\n    function updateEmissionRate(uint256 _CoalPerBlock) public onlyOwner {\r\n        massUpdatePools();\r\n        emit EmissionRateUpdated(msg.sender, CoalPerBlock, _CoalPerBlock);\r\n        CoalPerBlock = _CoalPerBlock;\r\n    }\r\n\r\n    // Update the Coal referral contract address by the owner\r\n    function setCoalReferral(ICoalReferral _CoalReferral) public onlyOwner {\r\n        CoalReferral = _CoalReferral;\r\n    }\r\n\r\n    // Update referral commission rate by the owner\r\n    function setReferralCommissionRate(uint16 _referralCommissionRate) public onlyOwner {\r\n        require(_referralCommissionRate <= MAXIMUM_REFERRAL_COMMISSION_RATE, \"setReferralCommissionRate: invalid referral commission rate basis points\");\r\n        referralCommissionRate = _referralCommissionRate;\r\n    }\r\n\r\n    // Pay referral commission to the referrer who referred this user.\r\n    function payReferralCommission(address _user, uint256 _pending) internal {\r\n        if (address(CoalReferral) != address(0) && referralCommissionRate > 0) {\r\n            address referrer = CoalReferral.getReferrer(_user);\r\n            uint256 commissionAmount = _pending.mul(referralCommissionRate).div(10000);\r\n\r\n            if (referrer != address(0) && commissionAmount > 0) {\r\n                Coal.mint(referrer, commissionAmount);\r\n                CoalReferral.recordReferralCommission(referrer, commissionAmount);\r\n                emit ReferralCommissionPaid(_user, referrer, commissionAmount);\r\n            }\r\n        }\r\n    }\r\n}\r\n",
  "sourcePath": "C:/Users/A-S-K/Desktop/Contracts/coal-farm/contracts/MasterChef.sol",
  "compiler": {
    "name": "solc",
    "version": "0.6.12+commit.27d51765.Emscripten.clang"
  },
  "schemaVersion": "3.3.4",
  "updatedAt": "2021-05-06T10:28:31.149Z",
  "devdoc": {
    "kind": "dev",
    "methods": {
      "owner()": {
        "details": "Returns the address of the current owner."
      },
      "renounceOwnership()": {
        "details": "Leaves the contract without owner. It will not be possible to call `onlyOwner` functions anymore. Can only be called by the current owner. NOTE: Renouncing ownership will leave the contract without an owner, thereby removing any functionality that is only available to the owner."
      },
      "transferOwnership(address)": {
        "details": "Transfers ownership of the contract to a new account (`newOwner`). Can only be called by the current owner."
      }
    },
    "version": 1
  },
  "userdoc": {
    "kind": "user",
    "methods": {},
    "version": 1
  }
}