{
    "contractName": "TheQuantumField",
    "abi": [
        {
            "inputs": [],
            "stateMutability": "nonpayable",
            "type": "constructor"
        },
        {
            "anonymous": false,
            "inputs": [
                {
                    "indexed": true,
                    "internalType": "address",
                    "name": "owner",
                    "type": "address"
                },
                {
                    "indexed": true,
                    "internalType": "address",
                    "name": "spender",
                    "type": "address"
                },
                {
                    "indexed": false,
                    "internalType": "uint256",
                    "name": "value",
                    "type": "uint256"
                }
            ],
            "name": "Approval",
            "type": "event"
        },
        {
            "anonymous": false,
            "inputs": [
                {
                    "indexed": true,
                    "internalType": "address",
                    "name": "account",
                    "type": "address"
                },
                {
                    "indexed": false,
                    "internalType": "bool",
                    "name": "isExcluded",
                    "type": "bool"
                }
            ],
            "name": "ExcludeFromFees",
            "type": "event"
        },
        {
            "anonymous": false,
            "inputs": [
                {
                    "indexed": false,
                    "internalType": "address[]",
                    "name": "accounts",
                    "type": "address[]"
                },
                {
                    "indexed": false,
                    "internalType": "bool",
                    "name": "isExcluded",
                    "type": "bool"
                }
            ],
            "name": "ExcludeMultipleAccountsFromFees",
            "type": "event"
        },
        {
            "anonymous": false,
            "inputs": [
                {
                    "indexed": true,
                    "internalType": "uint256",
                    "name": "newValue",
                    "type": "uint256"
                },
                {
                    "indexed": true,
                    "internalType": "uint256",
                    "name": "oldValue",
                    "type": "uint256"
                }
            ],
            "name": "GasForProcessingUpdated",
            "type": "event"
        },
        {
            "anonymous": false,
            "inputs": [
                {
                    "indexed": true,
                    "internalType": "address",
                    "name": "previousOwner",
                    "type": "address"
                },
                {
                    "indexed": true,
                    "internalType": "address",
                    "name": "newOwner",
                    "type": "address"
                }
            ],
            "name": "OwnershipTransferred",
            "type": "event"
        },
        {
            "anonymous": false,
            "inputs": [
                {
                    "indexed": false,
                    "internalType": "uint256",
                    "name": "iterations",
                    "type": "uint256"
                },
                {
                    "indexed": false,
                    "internalType": "uint256",
                    "name": "claims",
                    "type": "uint256"
                },
                {
                    "indexed": false,
                    "internalType": "uint256",
                    "name": "lastProcessedIndex",
                    "type": "uint256"
                },
                {
                    "indexed": true,
                    "internalType": "bool",
                    "name": "automatic",
                    "type": "bool"
                },
                {
                    "indexed": false,
                    "internalType": "uint256",
                    "name": "gas",
                    "type": "uint256"
                },
                {
                    "indexed": true,
                    "internalType": "address",
                    "name": "processor",
                    "type": "address"
                }
            ],
            "name": "ProcessedDividendTracker",
            "type": "event"
        },
        {
            "anonymous": false,
            "inputs": [
                {
                    "indexed": false,
                    "internalType": "uint256",
                    "name": "tokensSwapped",
                    "type": "uint256"
                },
                {
                    "indexed": false,
                    "internalType": "uint256",
                    "name": "amount",
                    "type": "uint256"
                }
            ],
            "name": "SendDividends",
            "type": "event"
        },
        {
            "anonymous": false,
            "inputs": [
                {
                    "indexed": true,
                    "internalType": "address",
                    "name": "pair",
                    "type": "address"
                },
                {
                    "indexed": true,
                    "internalType": "bool",
                    "name": "value",
                    "type": "bool"
                }
            ],
            "name": "SetAutomatedMarketMakerPair",
            "type": "event"
        },
        {
            "anonymous": false,
            "inputs": [
                {
                    "indexed": false,
                    "internalType": "uint256",
                    "name": "tokensSwapped",
                    "type": "uint256"
                },
                {
                    "indexed": false,
                    "internalType": "uint256",
                    "name": "ethReceived",
                    "type": "uint256"
                },
                {
                    "indexed": false,
                    "internalType": "uint256",
                    "name": "tokensIntoLiqudity",
                    "type": "uint256"
                }
            ],
            "name": "SwapAndLiquify",
            "type": "event"
        },
        {
            "anonymous": false,
            "inputs": [
                {
                    "indexed": false,
                    "internalType": "uint256",
                    "name": "amountIn",
                    "type": "uint256"
                },
                {
                    "indexed": false,
                    "internalType": "address[]",
                    "name": "path",
                    "type": "address[]"
                }
            ],
            "name": "SwapETHForTokens",
            "type": "event"
        },
        {
            "anonymous": false,
            "inputs": [
                {
                    "indexed": true,
                    "internalType": "address",
                    "name": "from",
                    "type": "address"
                },
                {
                    "indexed": true,
                    "internalType": "address",
                    "name": "to",
                    "type": "address"
                },
                {
                    "indexed": false,
                    "internalType": "uint256",
                    "name": "value",
                    "type": "uint256"
                }
            ],
            "name": "Transfer",
            "type": "event"
        },
        {
            "anonymous": false,
            "inputs": [
                {
                    "indexed": true,
                    "internalType": "address",
                    "name": "newAddress",
                    "type": "address"
                },
                {
                    "indexed": true,
                    "internalType": "address",
                    "name": "oldAddress",
                    "type": "address"
                }
            ],
            "name": "UpdateDividendTracker",
            "type": "event"
        },
        {
            "anonymous": false,
            "inputs": [
                {
                    "indexed": true,
                    "internalType": "address",
                    "name": "newAddress",
                    "type": "address"
                },
                {
                    "indexed": true,
                    "internalType": "address",
                    "name": "oldAddress",
                    "type": "address"
                }
            ],
            "name": "UpdateUniswapV2Router",
            "type": "event"
        },
        {
            "inputs": [],
            "name": "BNBRewardsFee",
            "outputs": [
                {
                    "internalType": "uint256",
                    "name": "",
                    "type": "uint256"
                }
            ],
            "stateMutability": "view",
            "type": "function"
        },
        {
            "inputs": [
                {
                    "internalType": "address",
                    "name": "owner",
                    "type": "address"
                },
                {
                    "internalType": "address",
                    "name": "spender",
                    "type": "address"
                }
            ],
            "name": "allowance",
            "outputs": [
                {
                    "internalType": "uint256",
                    "name": "",
                    "type": "uint256"
                }
            ],
            "stateMutability": "view",
            "type": "function"
        },
        {
            "inputs": [
                {
                    "internalType": "address",
                    "name": "spender",
                    "type": "address"
                },
                {
                    "internalType": "uint256",
                    "name": "amount",
                    "type": "uint256"
                }
            ],
            "name": "approve",
            "outputs": [
                {
                    "internalType": "bool",
                    "name": "",
                    "type": "bool"
                }
            ],
            "stateMutability": "nonpayable",
            "type": "function"
        },
        {
            "inputs": [
                {
                    "internalType": "address",
                    "name": "",
                    "type": "address"
                }
            ],
            "name": "automatedMarketMakerPairs",
            "outputs": [
                {
                    "internalType": "bool",
                    "name": "",
                    "type": "bool"
                }
            ],
            "stateMutability": "view",
            "type": "function"
        },
        {
            "inputs": [
                {
                    "internalType": "address",
                    "name": "account",
                    "type": "address"
                }
            ],
            "name": "balanceOf",
            "outputs": [
                {
                    "internalType": "uint256",
                    "name": "",
                    "type": "uint256"
                }
            ],
            "stateMutability": "view",
            "type": "function"
        },
        {
            "inputs": [],
            "name": "claim",
            "outputs": [],
            "stateMutability": "nonpayable",
            "type": "function"
        },
        {
            "inputs": [],
            "name": "deadAddress",
            "outputs": [
                {
                    "internalType": "address",
                    "name": "",
                    "type": "address"
                }
            ],
            "stateMutability": "view",
            "type": "function"
        },
        {
            "inputs": [],
            "name": "decimals",
            "outputs": [
                {
                    "internalType": "uint8",
                    "name": "",
                    "type": "uint8"
                }
            ],
            "stateMutability": "view",
            "type": "function"
        },
        {
            "inputs": [
                {
                    "internalType": "address",
                    "name": "spender",
                    "type": "address"
                },
                {
                    "internalType": "uint256",
                    "name": "subtractedValue",
                    "type": "uint256"
                }
            ],
            "name": "decreaseAllowance",
            "outputs": [
                {
                    "internalType": "bool",
                    "name": "",
                    "type": "bool"
                }
            ],
            "stateMutability": "nonpayable",
            "type": "function"
        },
        {
            "inputs": [
                {
                    "internalType": "address",
                    "name": "account",
                    "type": "address"
                }
            ],
            "name": "dividendTokenBalanceOf",
            "outputs": [
                {
                    "internalType": "uint256",
                    "name": "",
                    "type": "uint256"
                }
            ],
            "stateMutability": "view",
            "type": "function"
        },
        {
            "inputs": [],
            "name": "dividendTracker",
            "outputs": [
                {
                    "internalType": "contract TheQuantumFieldDividendTracker",
                    "name": "",
                    "type": "address"
                }
            ],
            "stateMutability": "view",
            "type": "function"
        },
        {
            "inputs": [
                {
                    "internalType": "address",
                    "name": "account",
                    "type": "address"
                },
                {
                    "internalType": "bool",
                    "name": "excluded",
                    "type": "bool"
                }
            ],
            "name": "excludeFromFees",
            "outputs": [],
            "stateMutability": "nonpayable",
            "type": "function"
        },
        {
            "inputs": [
                {
                    "internalType": "address[]",
                    "name": "accounts",
                    "type": "address[]"
                },
                {
                    "internalType": "bool",
                    "name": "excluded",
                    "type": "bool"
                }
            ],
            "name": "excludeMultipleAccountsFromFees",
            "outputs": [],
            "stateMutability": "nonpayable",
            "type": "function"
        },
        {
            "inputs": [],
            "name": "gasForProcessing",
            "outputs": [
                {
                    "internalType": "uint256",
                    "name": "",
                    "type": "uint256"
                }
            ],
            "stateMutability": "view",
            "type": "function"
        },
        {
            "inputs": [
                {
                    "internalType": "address",
                    "name": "account",
                    "type": "address"
                }
            ],
            "name": "getAccountDividendsInfo",
            "outputs": [
                {
                    "internalType": "address",
                    "name": "",
                    "type": "address"
                },
                {
                    "internalType": "int256",
                    "name": "",
                    "type": "int256"
                },
                {
                    "internalType": "int256",
                    "name": "",
                    "type": "int256"
                },
                {
                    "internalType": "uint256",
                    "name": "",
                    "type": "uint256"
                },
                {
                    "internalType": "uint256",
                    "name": "",
                    "type": "uint256"
                },
                {
                    "internalType": "uint256",
                    "name": "",
                    "type": "uint256"
                },
                {
                    "internalType": "uint256",
                    "name": "",
                    "type": "uint256"
                },
                {
                    "internalType": "uint256",
                    "name": "",
                    "type": "uint256"
                }
            ],
            "stateMutability": "view",
            "type": "function"
        },
        {
            "inputs": [
                {
                    "internalType": "uint256",
                    "name": "index",
                    "type": "uint256"
                }
            ],
            "name": "getAccountDividendsInfoAtIndex",
            "outputs": [
                {
                    "internalType": "address",
                    "name": "",
                    "type": "address"
                },
                {
                    "internalType": "int256",
                    "name": "",
                    "type": "int256"
                },
                {
                    "internalType": "int256",
                    "name": "",
                    "type": "int256"
                },
                {
                    "internalType": "uint256",
                    "name": "",
                    "type": "uint256"
                },
                {
                    "internalType": "uint256",
                    "name": "",
                    "type": "uint256"
                },
                {
                    "internalType": "uint256",
                    "name": "",
                    "type": "uint256"
                },
                {
                    "internalType": "uint256",
                    "name": "",
                    "type": "uint256"
                },
                {
                    "internalType": "uint256",
                    "name": "",
                    "type": "uint256"
                }
            ],
            "stateMutability": "view",
            "type": "function"
        },
        {
            "inputs": [],
            "name": "getClaimWait",
            "outputs": [
                {
                    "internalType": "uint256",
                    "name": "",
                    "type": "uint256"
                }
            ],
            "stateMutability": "view",
            "type": "function"
        },
        {
            "inputs": [],
            "name": "getLastProcessedIndex",
            "outputs": [
                {
                    "internalType": "uint256",
                    "name": "",
                    "type": "uint256"
                }
            ],
            "stateMutability": "view",
            "type": "function"
        },
        {
            "inputs": [],
            "name": "getNumberOfDividendTokenHolders",
            "outputs": [
                {
                    "internalType": "uint256",
                    "name": "",
                    "type": "uint256"
                }
            ],
            "stateMutability": "view",
            "type": "function"
        },
        {
            "inputs": [],
            "name": "getTotalDividendsDistributed",
            "outputs": [
                {
                    "internalType": "uint256",
                    "name": "",
                    "type": "uint256"
                }
            ],
            "stateMutability": "view",
            "type": "function"
        },
        {
            "inputs": [
                {
                    "internalType": "address",
                    "name": "spender",
                    "type": "address"
                },
                {
                    "internalType": "uint256",
                    "name": "addedValue",
                    "type": "uint256"
                }
            ],
            "name": "increaseAllowance",
            "outputs": [
                {
                    "internalType": "bool",
                    "name": "",
                    "type": "bool"
                }
            ],
            "stateMutability": "nonpayable",
            "type": "function"
        },
        {
            "inputs": [
                {
                    "internalType": "address",
                    "name": "account",
                    "type": "address"
                }
            ],
            "name": "isExcludedFromFees",
            "outputs": [
                {
                    "internalType": "bool",
                    "name": "",
                    "type": "bool"
                }
            ],
            "stateMutability": "view",
            "type": "function"
        },
        {
            "inputs": [],
            "name": "marketingFee",
            "outputs": [
                {
                    "internalType": "uint256",
                    "name": "",
                    "type": "uint256"
                }
            ],
            "stateMutability": "view",
            "type": "function"
        },
        {
            "inputs": [],
            "name": "maxSellTransactionAmount",
            "outputs": [
                {
                    "internalType": "uint256",
                    "name": "",
                    "type": "uint256"
                }
            ],
            "stateMutability": "view",
            "type": "function"
        },
        {
            "inputs": [],
            "name": "name",
            "outputs": [
                {
                    "internalType": "string",
                    "name": "",
                    "type": "string"
                }
            ],
            "stateMutability": "view",
            "type": "function"
        },
        {
            "inputs": [],
            "name": "owner",
            "outputs": [
                {
                    "internalType": "address",
                    "name": "",
                    "type": "address"
                }
            ],
            "stateMutability": "view",
            "type": "function"
        },
        {
            "inputs": [
                {
                    "internalType": "uint256",
                    "name": "gas",
                    "type": "uint256"
                }
            ],
            "name": "processDividendTracker",
            "outputs": [],
            "stateMutability": "nonpayable",
            "type": "function"
        },
        {
            "inputs": [],
            "name": "renounceOwnership",
            "outputs": [],
            "stateMutability": "nonpayable",
            "type": "function"
        },
        {
            "inputs": [],
            "name": "sellFeeIncreaseFactor",
            "outputs": [
                {
                    "internalType": "uint256",
                    "name": "",
                    "type": "uint256"
                }
            ],
            "stateMutability": "view",
            "type": "function"
        },
        {
            "inputs": [
                {
                    "internalType": "address",
                    "name": "pair",
                    "type": "address"
                },
                {
                    "internalType": "bool",
                    "name": "value",
                    "type": "bool"
                }
            ],
            "name": "setAutomatedMarketMakerPair",
            "outputs": [],
            "stateMutability": "nonpayable",
            "type": "function"
        },
        {
            "inputs": [
                {
                    "internalType": "address",
                    "name": "newWallet",
                    "type": "address"
                }
            ],
            "name": "setMarketingWallet",
            "outputs": [],
            "stateMutability": "nonpayable",
            "type": "function"
        },
        {
            "inputs": [
                {
                    "internalType": "uint256",
                    "name": "amount",
                    "type": "uint256"
                }
            ],
            "name": "setMaxSellTxAMount",
            "outputs": [],
            "stateMutability": "nonpayable",
            "type": "function"
        },
        {
            "inputs": [
                {
                    "internalType": "bool",
                    "name": "value",
                    "type": "bool"
                }
            ],
            "name": "setSwapEnabled",
            "outputs": [],
            "stateMutability": "nonpayable",
            "type": "function"
        },
        {
            "inputs": [],
            "name": "swapEnabled",
            "outputs": [
                {
                    "internalType": "bool",
                    "name": "",
                    "type": "bool"
                }
            ],
            "stateMutability": "view",
            "type": "function"
        },
        {
            "inputs": [],
            "name": "swapTokensAtAmount",
            "outputs": [
                {
                    "internalType": "uint256",
                    "name": "",
                    "type": "uint256"
                }
            ],
            "stateMutability": "view",
            "type": "function"
        },
        {
            "inputs": [],
            "name": "symbol",
            "outputs": [
                {
                    "internalType": "string",
                    "name": "",
                    "type": "string"
                }
            ],
            "stateMutability": "view",
            "type": "function"
        },
        {
            "inputs": [],
            "name": "totalFees",
            "outputs": [
                {
                    "internalType": "uint256",
                    "name": "",
                    "type": "uint256"
                }
            ],
            "stateMutability": "view",
            "type": "function"
        },
        {
            "inputs": [],
            "name": "totalSupply",
            "outputs": [
                {
                    "internalType": "uint256",
                    "name": "",
                    "type": "uint256"
                }
            ],
            "stateMutability": "view",
            "type": "function"
        },
        {
            "inputs": [
                {
                    "internalType": "address",
                    "name": "recipient",
                    "type": "address"
                },
                {
                    "internalType": "uint256",
                    "name": "amount",
                    "type": "uint256"
                }
            ],
            "name": "transfer",
            "outputs": [
                {
                    "internalType": "bool",
                    "name": "",
                    "type": "bool"
                }
            ],
            "stateMutability": "nonpayable",
            "type": "function"
        },
        {
            "inputs": [
                {
                    "internalType": "address",
                    "name": "sender",
                    "type": "address"
                },
                {
                    "internalType": "address",
                    "name": "recipient",
                    "type": "address"
                },
                {
                    "internalType": "uint256",
                    "name": "amount",
                    "type": "uint256"
                }
            ],
            "name": "transferFrom",
            "outputs": [
                {
                    "internalType": "bool",
                    "name": "",
                    "type": "bool"
                }
            ],
            "stateMutability": "nonpayable",
            "type": "function"
        },
        {
            "inputs": [
                {
                    "internalType": "address",
                    "name": "newOwner",
                    "type": "address"
                }
            ],
            "name": "transferOwnership",
            "outputs": [],
            "stateMutability": "nonpayable",
            "type": "function"
        },
        {
            "inputs": [],
            "name": "uniswapV2Pair",
            "outputs": [
                {
                    "internalType": "address",
                    "name": "",
                    "type": "address"
                }
            ],
            "stateMutability": "view",
            "type": "function"
        },
        {
            "inputs": [],
            "name": "uniswapV2Router",
            "outputs": [
                {
                    "internalType": "contract IUniswapV2Router02",
                    "name": "",
                    "type": "address"
                }
            ],
            "stateMutability": "view",
            "type": "function"
        },
        {
            "inputs": [
                {
                    "internalType": "uint256",
                    "name": "claimWait",
                    "type": "uint256"
                }
            ],
            "name": "updateClaimWait",
            "outputs": [],
            "stateMutability": "nonpayable",
            "type": "function"
        },
        {
            "inputs": [
                {
                    "internalType": "address",
                    "name": "newAddress",
                    "type": "address"
                }
            ],
            "name": "updateDividendTracker",
            "outputs": [],
            "stateMutability": "nonpayable",
            "type": "function"
        },
        {
            "inputs": [
                {
                    "internalType": "uint256",
                    "name": "newValue",
                    "type": "uint256"
                }
            ],
            "name": "updateGasForProcessing",
            "outputs": [],
            "stateMutability": "nonpayable",
            "type": "function"
        },
        {
            "inputs": [
                {
                    "internalType": "address",
                    "name": "newAddress",
                    "type": "address"
                }
            ],
            "name": "updateUniswapV2Router",
            "outputs": [],
            "stateMutability": "nonpayable",
            "type": "function"
        },
        {
            "inputs": [
                {
                    "internalType": "address",
                    "name": "account",
                    "type": "address"
                }
            ],
            "name": "withdrawableDividendOf",
            "outputs": [
                {
                    "internalType": "uint256",
                    "name": "",
                    "type": "uint256"
                }
            ],
            "stateMutability": "view",
            "type": "function"
        },
        {
            "stateMutability": "payable",
            "type": "receive"
        }
    ],
    "bytecode": "6101406040526ddead00000000000000000000000060a05269d3c21bcecceda1000000600855692a5a058fc295ed000000600955600a805460ff19169055607861012052620493e0600b553480156200005757600080fd5b506040518060400160405280600f81526020016e151a19545d585b9d1d5b519a595b19608a1b815250604051806040016040528060038152602001622a28a360e91b8152508160039080519060200190620000b492919062000974565b508051620000ca90600490602084019062000974565b5050506000620000df6200058b60201b60201c565b600580546001600160a01b0319166001600160a01b038316908117909155604051919250906000907f8be0079c531659141344cd1fd0a4f28419497f9722a3daafe3b4186f6b6457e0908290a350600a60c0819052600560e08190526200015382826200058f602090811b62001fea17901c565b61010052600a8054610100600160a81b031916744d0132b8b9a34d92dced17f02eb4ec033efa261a001790556040516200018d90620009f9565b604051809103906000f080158015620001aa573d6000803e3d6000fd5b50600760006101000a8154816001600160a01b0302191690836001600160a01b0316021790555060007310ed43c718714eb63d5aa57b78b54704e256024e90506000816001600160a01b031663c45a01556040518163ffffffff1660e01b815260040160206040518083038186803b1580156200022657600080fd5b505afa1580156200023b573d6000803e3d6000fd5b505050506040513d60208110156200025257600080fd5b5051604080516315ab88c960e31b815290516001600160a01b039283169263c9c653969230929187169163ad5c464891600480820192602092909190829003018186803b158015620002a357600080fd5b505afa158015620002b8573d6000803e3d6000fd5b505050506040513d6020811015620002cf57600080fd5b5051604080516001600160e01b031960e086901b1681526001600160a01b0393841660048201529290911660248301525160448083019260209291908290030181600087803b1580156200032257600080fd5b505af115801562000337573d6000803e3d6000fd5b505050506040513d60208110156200034e57600080fd5b5051600680546001600160a01b0319166001600160a01b038516179055606081901b6001600160601b03191660805290506200038c816001620005f1565b6007546040805163031e79db60e41b81526001600160a01b0390921660048301819052905190916331e79db091602480830192600092919082900301818387803b158015620003da57600080fd5b505af1158015620003ef573d6000803e3d6000fd5b50506007546040805163031e79db60e41b815230600482015290516001600160a01b0390921693506331e79db0925060248082019260009290919082900301818387803b1580156200044057600080fd5b505af115801562000455573d6000803e3d6000fd5b50506007546001600160a01b031691506331e79db090506200047662000724565b6040518263ffffffff1660e01b815260040180826001600160a01b03168152602001915050600060405180830381600087803b158015620004b657600080fd5b505af1158015620004cb573d6000803e3d6000fd5b50506007546040805163031e79db60e41b81526001600160a01b03878116600483015291519190921693506331e79db09250602480830192600092919082900301818387803b1580156200051e57600080fd5b505af115801562000533573d6000803e3d6000fd5b50505050620005536200054b6200072460201b60201c565b600162000733565b6200056030600162000733565b620005816200056e62000724565b6b033b2e3c9fd0803ce800000062000860565b5050505062000a1e565b3390565b600082820183811015620005ea576040805162461bcd60e51b815260206004820152601b60248201527f536166654d6174683a206164646974696f6e206f766572666c6f770000000000604482015290519081900360640190fd5b9392505050565b6001600160a01b0382166000908152600d602052604090205460ff1615158115151415620006515760405162461bcd60e51b8152600401808060200182810382526049815260200180620060306049913960600191505060405180910390fd5b6001600160a01b0382166000908152600d60205260409020805460ff19168215801591909117909155620006e8576007546040805163031e79db60e41b81526001600160a01b038581166004830152915191909216916331e79db091602480830192600092919082900301818387803b158015620006ce57600080fd5b505af1158015620006e3573d6000803e3d6000fd5b505050505b604051811515906001600160a01b038416907fffa9187bf1f18bf477bd0ea1bcbb64e93b6a98132473929edfce215cd9b16fab90600090a35050565b6005546001600160a01b031690565b6200073d6200058b565b6005546001600160a01b03908116911614620007a0576040805162461bcd60e51b815260206004820181905260248201527f4f776e61626c653a2063616c6c6572206973206e6f7420746865206f776e6572604482015290519081900360640190fd5b6001600160a01b0382166000908152600c602052604090205460ff1615158115151415620008005760405162461bcd60e51b815260040180806020018281038252603b81526020018062006079603b913960400191505060405180910390fd5b6001600160a01b0382166000818152600c6020908152604091829020805460ff1916851515908117909155825190815291517f9d8f7706ea1113d1a167b526eca956215946dd36cc7df39eb16180222d8b5df79281900390910190a25050565b6001600160a01b038216620008bc576040805162461bcd60e51b815260206004820152601f60248201527f45524332303a206d696e7420746f20746865207a65726f206164647265737300604482015290519081900360640190fd5b620008ca600083836200096f565b620008e6816002546200058f60201b62001fea1790919060201c565b6002556001600160a01b038216600090815260208181526040909120546200091991839062001fea6200058f821b17901c565b6001600160a01b0383166000818152602081815260408083209490945583518581529351929391927fddf252ad1be2c89b69c2b068fc378daa952ba7f163c4a11628f55a4df523b3ef9281900390910190a35050565b505050565b828054600181600116156101000203166002900490600052602060002090601f016020900481019282601f10620009b757805160ff1916838001178555620009e7565b82800160010185558215620009e7579182015b82811115620009e7578251825591602001919060010190620009ca565b50620009f592915062000a07565b5090565b6124008062003c3083390190565b5b80821115620009f5576000815560010162000a08565b60805160601c60a05160601c60c05160e05161010051610120516131a962000a8760003980610be8525080610baf5280612340528061241d5250806110a05280612365525080611cc8525080610c93525080610d8f528061180a52806122f152506131a96000f3fe6080604052600436106102975760003560e01c8063715018a61161015a578063ad56c13c116100c1578063e01af92c1161007a578063e01af92c14610a16578063e2f4560514610a42578063e7841ec014610a57578063e98030c714610a6c578063f27fd25414610a96578063f2fde38b14610ac05761029e565b8063ad56c13c1461085b578063b62496f5146108d9578063c02466681461090c578063c492f04614610947578063d01f5816146109c6578063dd62ed3e146109db5761029e565b80639a7a23d6116101135780639a7a23d6146107515780639c1b8af51461078c578063a26579ad146107a1578063a457c2d7146107b6578063a8b9d240146107ef578063a9059cbb146108225761029e565b8063715018a61461068b578063871c128d146106a057806387f7f5ad146106ca57806388bdd9be146106f45780638da5cb5b1461072757806395d89b411461073c5761029e565b806339509351116101fe57806365b8dbc0116101b757806365b8dbc01461059e5780636843cd84146105d15780636b67c4df146106045780636ddd171314610619578063700bb1911461062e57806370a08231146106585761029e565b806339509351146104be57806349bd5a5e146104f75780634e71d92d1461050c5780634fbee193146105235780635d098b381461055657806364b0f653146105895761029e565b806322bd3f7f1161025057806322bd3f7f146103fc57806323b872dd1461041157806327c8f835146104545780632c1f52161461046957806330bb4cff1461047e578063313ce567146104935761029e565b806302259e9e146102a357806306fdde03146102ca578063095ea7b31461035457806313114a9d146103a15780631694505e146103b657806318160ddd146103e75761029e565b3661029e57005b600080fd5b3480156102af57600080fd5b506102b8610af3565b60408051918252519081900360200190f35b3480156102d657600080fd5b506102df610af9565b6040805160208082528351818301528351919283929083019185019080838360005b83811015610319578181015183820152602001610301565b50505050905090810190601f1680156103465780820380516001836020036101000a031916815260200191505b509250505060405180910390f35b34801561036057600080fd5b5061038d6004803603604081101561037757600080fd5b506001600160a01b038135169060200135610b8f565b604080519115158252519081900360200190f35b3480156103ad57600080fd5b506102b8610bad565b3480156103c257600080fd5b506103cb610bd1565b604080516001600160a01b039092168252519081900360200190f35b3480156103f357600080fd5b506102b8610be0565b34801561040857600080fd5b506102b8610be6565b34801561041d57600080fd5b5061038d6004803603606081101561043457600080fd5b506001600160a01b03813581169160208101359091169060400135610c0a565b34801561046057600080fd5b506103cb610c91565b34801561047557600080fd5b506103cb610cb5565b34801561048a57600080fd5b506102b8610cc4565b34801561049f57600080fd5b506104a8610d3a565b6040805160ff9092168252519081900360200190f35b3480156104ca57600080fd5b5061038d600480360360408110156104e157600080fd5b506001600160a01b038135169060200135610d3f565b34801561050357600080fd5b506103cb610d8d565b34801561051857600080fd5b50610521610db1565b005b34801561052f57600080fd5b5061038d6004803603602081101561054657600080fd5b50356001600160a01b0316610e36565b34801561056257600080fd5b506105216004803603602081101561057957600080fd5b50356001600160a01b0316610e54565b34801561059557600080fd5b506102b8610ed4565b3480156105aa57600080fd5b50610521600480360360208110156105c157600080fd5b50356001600160a01b0316610f19565b3480156105dd57600080fd5b506102b8600480360360208110156105f457600080fd5b50356001600160a01b031661101b565b34801561061057600080fd5b506102b861109e565b34801561062557600080fd5b5061038d6110c2565b34801561063a57600080fd5b506105216004803603602081101561065157600080fd5b50356110cb565b34801561066457600080fd5b506102b86004803603602081101561067b57600080fd5b50356001600160a01b03166111b2565b34801561069757600080fd5b506105216111cd565b3480156106ac57600080fd5b50610521600480360360208110156106c357600080fd5b503561126f565b3480156106d657600080fd5b50610521600480360360208110156106ed57600080fd5b503561138c565b34801561070057600080fd5b506105216004803603602081101561071757600080fd5b50356001600160a01b03166113e9565b34801561073357600080fd5b506103cb611740565b34801561074857600080fd5b506102df61174f565b34801561075d57600080fd5b506105216004803603604081101561077457600080fd5b506001600160a01b03813516906020013515156117b0565b34801561079857600080fd5b506102b8611883565b3480156107ad57600080fd5b506102b8611889565b3480156107c257600080fd5b5061038d600480360360408110156107d957600080fd5b506001600160a01b0381351690602001356118ce565b3480156107fb57600080fd5b506102b86004803603602081101561081257600080fd5b50356001600160a01b0316611936565b34801561082e57600080fd5b5061038d6004803603604081101561084557600080fd5b506001600160a01b038135169060200135611987565b34801561086757600080fd5b5061088e6004803603602081101561087e57600080fd5b50356001600160a01b031661199b565b604080516001600160a01b0390991689526020890197909752878701959095526060870193909352608086019190915260a085015260c084015260e083015251908190036101000190f35b3480156108e557600080fd5b5061038d600480360360208110156108fc57600080fd5b50356001600160a01b0316611a7b565b34801561091857600080fd5b506105216004803603604081101561092f57600080fd5b506001600160a01b0381351690602001351515611a90565b34801561095357600080fd5b506105216004803603604081101561096a57600080fd5b81019060208101813564010000000081111561098557600080fd5b82018360208201111561099757600080fd5b803590602001918460208302840111640100000000831117156109b957600080fd5b9193509150351515611ba6565b3480156109d257600080fd5b506102b8611cc6565b3480156109e757600080fd5b506102b8600480360360408110156109fe57600080fd5b506001600160a01b0381358116916020013516611cea565b348015610a2257600080fd5b5061052160048036036020811015610a3957600080fd5b50351515611d15565b348015610a4e57600080fd5b506102b8611d80565b348015610a6357600080fd5b506102b8611d86565b348015610a7857600080fd5b5061052160048036036020811015610a8f57600080fd5b5035611dcb565b348015610aa257600080fd5b5061088e60048036036020811015610ab957600080fd5b5035611e8b565b348015610acc57600080fd5b5061052160048036036020811015610ae357600080fd5b50356001600160a01b0316611ef1565b60085481565b60038054604080516020601f6002600019610100600188161502019095169490940493840181900481028201810190925282815260609390929091830182828015610b855780601f10610b5a57610100808354040283529160200191610b85565b820191906000526020600020905b815481529060010190602001808311610b6857829003601f168201915b5050505050905090565b6000610ba3610b9c61204b565b848461204f565b5060015b92915050565b7f000000000000000000000000000000000000000000000000000000000000000081565b6006546001600160a01b031681565b60025490565b7f000000000000000000000000000000000000000000000000000000000000000081565b6000610c1784848461213b565b610c8784610c2361204b565b610c8285604051806060016040528060288152602001613084602891396001600160a01b038a16600090815260016020526040812090610c6161204b565b6001600160a01b03168152602081019190915260400160002054919061264a565b61204f565b5060019392505050565b7f000000000000000000000000000000000000000000000000000000000000000081565b6007546001600160a01b031681565b600754604080516342d359d760e11b815290516000926001600160a01b0316916385a6b3ae916004808301926020929190829003018186803b158015610d0957600080fd5b505afa158015610d1d573d6000803e3d6000fd5b505050506040513d6020811015610d3357600080fd5b5051905090565b601290565b6000610ba3610d4c61204b565b84610c828560016000610d5d61204b565b6001600160a01b03908116825260208083019390935260409182016000908120918c168152925290205490611fea565b7f000000000000000000000000000000000000000000000000000000000000000081565b6007546040805163bc4c4b3760e01b815233600482015260006024820181905291516001600160a01b039093169263bc4c4b3792604480840193602093929083900390910190829087803b158015610e0857600080fd5b505af1158015610e1c573d6000803e3d6000fd5b505050506040513d6020811015610e3257600080fd5b5050565b6001600160a01b03166000908152600c602052604090205460ff1690565b610e5c61204b565b6005546001600160a01b03908116911614610eac576040805162461bcd60e51b815260206004820181905260248201526000805160206130ac833981519152604482015290519081900360640190fd5b600a80546001600160a01b0390921661010002610100600160a81b0319909216919091179055565b600754604080516304ddf6ef60e11b815290516000926001600160a01b0316916309bbedde916004808301926020929190829003018186803b158015610d0957600080fd5b610f2161204b565b6005546001600160a01b03908116911614610f71576040805162461bcd60e51b815260206004820181905260248201526000805160206130ac833981519152604482015290519081900360640190fd5b6006546001600160a01b0382811691161415610fbe5760405162461bcd60e51b8152600401808060200182810382526034815260200180612ff16034913960400191505060405180910390fd5b6006546040516001600160a01b03918216918316907f8fc842bbd331dfa973645f4ed48b11683d501ebf1352708d77a5da2ab49a576e90600090a3600680546001600160a01b0319166001600160a01b0392909216919091179055565b600754604080516370a0823160e01b81526001600160a01b038481166004830152915160009392909216916370a0823191602480820192602092909190829003018186803b15801561106c57600080fd5b505afa158015611080573d6000803e3d6000fd5b505050506040513d602081101561109657600080fd5b505192915050565b7f000000000000000000000000000000000000000000000000000000000000000081565b600a5460ff1681565b600754604080516001624d3b8760e01b03198152600481018490529051600092839283926001600160a01b039092169163ffb2c4799160248082019260609290919082900301818787803b15801561112257600080fd5b505af1158015611136573d6000803e3d6000fd5b505050506040513d606081101561114c57600080fd5b5080516020808301516040938401518451848152928301829052828501819052606083018990529351929650945091925032916000917fc864333d6121033635ab41b29ae52f10a22cf4438c3e4f1c4c68518feb2f8a989181900360800190a350505050565b6001600160a01b031660009081526020819052604090205490565b6111d561204b565b6005546001600160a01b03908116911614611225576040805162461bcd60e51b815260206004820181905260248201526000805160206130ac833981519152604482015290519081900360640190fd5b6005546040516000916001600160a01b0316907f8be0079c531659141344cd1fd0a4f28419497f9722a3daafe3b4186f6b6457e0908390a3600580546001600160a01b0319169055565b61127761204b565b6005546001600160a01b039081169116146112c7576040805162461bcd60e51b815260206004820181905260248201526000805160206130ac833981519152604482015290519081900360640190fd5b62030d4081101580156112dd57506207a1208111155b6113185760405162461bcd60e51b8152600401808060200182810382526045815260200180612e126045913960600191505060405180910390fd5b600b548114156113595760405162461bcd60e51b815260040180806020018281038252603d815260200180612f30603d913960400191505060405180910390fd5b600b5460405182907f40d7e40e79af4e8e5a9b3c57030d8ea93f13d669c06d448c4d631d4ae7d23db790600090a3600b55565b61139461204b565b6005546001600160a01b039081169116146113e4576040805162461bcd60e51b815260206004820181905260248201526000805160206130ac833981519152604482015290519081900360640190fd5b600855565b6113f161204b565b6005546001600160a01b03908116911614611441576040805162461bcd60e51b815260206004820181905260248201526000805160206130ac833981519152604482015290519081900360640190fd5b6007546001600160a01b038281169116141561148e5760405162461bcd60e51b815260040180806020018281038252603e815260200180613025603e913960400191505060405180910390fd5b6000819050306001600160a01b0316816001600160a01b0316638da5cb5b6040518163ffffffff1660e01b815260040160206040518083038186803b1580156114d657600080fd5b505afa1580156114ea573d6000803e3d6000fd5b505050506040513d602081101561150057600080fd5b50516001600160a01b0316146115475760405162461bcd60e51b815260040180806020018281038252605d815260200180612ead605d913960600191505060405180910390fd5b806001600160a01b03166331e79db0826040518263ffffffff1660e01b815260040180826001600160a01b03168152602001915050600060405180830381600087803b15801561159657600080fd5b505af11580156115aa573d6000803e3d6000fd5b50506040805163031e79db60e41b815230600482015290516001600160a01b03851693506331e79db09250602480830192600092919082900301818387803b1580156115f557600080fd5b505af1158015611609573d6000803e3d6000fd5b50505050806001600160a01b03166331e79db0611624611740565b6040518263ffffffff1660e01b815260040180826001600160a01b03168152602001915050600060405180830381600087803b15801561166357600080fd5b505af1158015611677573d6000803e3d6000fd5b50506006546040805163031e79db60e41b81526001600160a01b039283166004820152905191851693506331e79db0925060248082019260009290919082900301818387803b1580156116c957600080fd5b505af11580156116dd573d6000803e3d6000fd5b50506007546040516001600160a01b03918216935090851691507f90c7d74461c613da5efa97d90740869367d74ab3aa5837aa4ae9a975f954b7a890600090a3600780546001600160a01b0319166001600160a01b039290921691909117905550565b6005546001600160a01b031690565b60048054604080516020601f6002600019610100600188161502019095169490940493840181900481028201810190925282815260609390929091830182828015610b855780601f10610b5a57610100808354040283529160200191610b85565b6117b861204b565b6005546001600160a01b03908116911614611808576040805162461bcd60e51b815260206004820181905260248201526000805160206130ac833981519152604482015290519081900360640190fd5b7f00000000000000000000000000000000000000000000000000000000000000006001600160a01b0316826001600160a01b031614156118795760405162461bcd60e51b8152600401808060200182810382526056815260200180612e576056913960600191505060405180910390fd5b610e3282826126e1565b600b5481565b60075460408051631bc9e27b60e21b815290516000926001600160a01b031691636f2789ec916004808301926020929190829003018186803b158015610d0957600080fd5b6000610ba36118db61204b565b84610c828560405180606001604052806025815260200161314f602591396001600061190561204b565b6001600160a01b03908116825260208083019390935260409182016000908120918d1681529252902054919061264a565b600754604080516302a2e74960e61b81526001600160a01b0384811660048301529151600093929092169163a8b9d24091602480820192602092909190829003018186803b15801561106c57600080fd5b6000610ba361199461204b565b848461213b565b600080600080600080600080600760009054906101000a90046001600160a01b03166001600160a01b031663fbcbc0f18a6040518263ffffffff1660e01b815260040180826001600160a01b031681526020019150506101006040518083038186803b158015611a0a57600080fd5b505afa158015611a1e573d6000803e3d6000fd5b505050506040513d610100811015611a3557600080fd5b508051602082015160408301516060840151608085015160a086015160c087015160e090970151959e50939c50919a509850965094509092509050919395975091939597565b600d6020526000908152604090205460ff1681565b611a9861204b565b6005546001600160a01b03908116911614611ae8576040805162461bcd60e51b815260206004820181905260248201526000805160206130ac833981519152604482015290519081900360640190fd5b6001600160a01b0382166000908152600c602052604090205460ff1615158115151415611b465760405162461bcd60e51b815260040180806020018281038252603b815260200180612fb6603b913960400191505060405180910390fd5b6001600160a01b0382166000818152600c6020908152604091829020805460ff1916851515908117909155825190815291517f9d8f7706ea1113d1a167b526eca956215946dd36cc7df39eb16180222d8b5df79281900390910190a25050565b611bae61204b565b6005546001600160a01b03908116911614611bfe576040805162461bcd60e51b815260206004820181905260248201526000805160206130ac833981519152604482015290519081900360640190fd5b60005b82811015611c535781600c6000868685818110611c1a57fe5b602090810292909201356001600160a01b0316835250810191909152604001600020805460ff1916911515919091179055600101611c01565b507f7fdaf542373fa84f4ee8d662c642f44e4c2276a217d7d29e548b6eb29a233b35838383604051808060200183151581526020018281038252858582818152602001925060200280828437600083820152604051601f909101601f1916909201829003965090945050505050a1505050565b7f000000000000000000000000000000000000000000000000000000000000000081565b6001600160a01b03918216600090815260016020908152604080832093909416825291909152205490565b611d1d61204b565b6005546001600160a01b03908116911614611d6d576040805162461bcd60e51b815260206004820181905260248201526000805160206130ac833981519152604482015290519081900360640190fd5b600a805460ff1916911515919091179055565b60095481565b6007546040805163039e107b60e61b815290516000926001600160a01b03169163e7841ec0916004808301926020929190829003018186803b158015610d0957600080fd5b611dd361204b565b6005546001600160a01b03908116911614611e23576040805162461bcd60e51b815260206004820181905260248201526000805160206130ac833981519152604482015290519081900360640190fd5b6007546040805163e98030c760e01b81526004810184905290516001600160a01b039092169163e98030c79160248082019260009290919082900301818387803b158015611e7057600080fd5b505af1158015611e84573d6000803e3d6000fd5b5050505050565b600080600080600080600080600760009054906101000a90046001600160a01b03166001600160a01b0316635183d6fd8a6040518263ffffffff1660e01b8152600401808281526020019150506101006040518083038186803b158015611a0a57600080fd5b611ef961204b565b6005546001600160a01b03908116911614611f49576040805162461bcd60e51b815260206004820181905260248201526000805160206130ac833981519152604482015290519081900360640190fd5b6001600160a01b038116611f8e5760405162461bcd60e51b8152600401808060200182810382526026815260200180612dca6026913960400191505060405180910390fd5b6005546040516001600160a01b038084169216907f8be0079c531659141344cd1fd0a4f28419497f9722a3daafe3b4186f6b6457e090600090a3600580546001600160a01b0319166001600160a01b0392909216919091179055565b600082820183811015612044576040805162461bcd60e51b815260206004820152601b60248201527f536166654d6174683a206164646974696f6e206f766572666c6f770000000000604482015290519081900360640190fd5b9392505050565b3390565b6001600160a01b0383166120945760405162461bcd60e51b815260040180806020018281038252602481526020018061312b6024913960400191505060405180910390fd5b6001600160a01b0382166120d95760405162461bcd60e51b8152600401808060200182810382526022815260200180612df06022913960400191505060405180910390fd5b6001600160a01b03808416600081815260016020908152604080832094871680845294825291829020859055815185815291517f8c5be1e5ebec7d5bd14f71427d1e84f3dd0314c0f7b2291e5b200ac8c7c3b9259281900390910190a3505050565b6001600160a01b0383166121805760405162461bcd60e51b81526004018080602001828103825260258152602001806130cc6025913960400191505060405180910390fd5b6001600160a01b0382166121c55760405162461bcd60e51b8152600401808060200182810382526023815260200180612da76023913960400191505060405180910390fd5b806121db576121d68383600061280f565b612645565b600654600160a01b900460ff1615801561220d57506001600160a01b0382166000908152600d602052604090205460ff165b801561222757506006546001600160a01b03848116911614155b801561224c57506001600160a01b0382166000908152600c602052604090205460ff16155b801561227157506001600160a01b0383166000908152600c602052604090205460ff16155b156122b7576008548111156122b75760405162461bcd60e51b815260040180806020018281038252603a8152602001806130f1603a913960400191505060405180910390fd5b60006122c2306111b2565b600954600a549192508210159060ff1680156122e85750600654600160a01b900460ff16155b801561232657507f00000000000000000000000000000000000000000000000000000000000000006001600160a01b0316856001600160a01b031614155b801561232f5750805b156123bf576009549150600061238f7f0000000000000000000000000000000000000000000000000000000000000000612389857f000000000000000000000000000000000000000000000000000000000000000061296a565b906129c3565b905061239a81612a05565b6123a48382612a81565b925060006123b1306111b2565b90506123bc81612ac3565b50505b6001600160a01b0385166000908152600c602052604090205460019060ff168061240157506001600160a01b0385166000908152600c602052604090205460ff165b1561240a575060005b801561245c5760006124416064612389877f000000000000000000000000000000000000000000000000000000000000000061296a565b905061244d8582612a81565b945061245a87308361280f565b505b61246786868661280f565b6007546001600160a01b031663e30443bc87612482816111b2565b6040518363ffffffff1660e01b815260040180836001600160a01b0316815260200182815260200192505050600060405180830381600087803b1580156124c857600080fd5b505af19250505080156124d9575060015b506007546001600160a01b031663e30443bc866124f5816111b2565b6040518363ffffffff1660e01b815260040180836001600160a01b0316815260200182815260200192505050600060405180830381600087803b15801561253b57600080fd5b505af192505050801561254c575060015b50600654600160a01b900460ff1661264157600b54600754604080516001624d3b8760e01b031981526004810184905290516001600160a01b039092169163ffb2c479916024808201926060929091908290030181600087803b1580156125b257600080fd5b505af19250505080156125e657506040513d60608110156125d257600080fd5b508051602082015160409092015190919060015b6125ef5761263f565b604080518481526020810184905280820183905260608101869052905132916001917fc864333d6121033635ab41b29ae52f10a22cf4438c3e4f1c4c68518feb2f8a989181900360800190a35050505b505b5050505b505050565b600081848411156126d95760405162461bcd60e51b81526004018080602001828103825283818151815260200191508051906020019080838360005b8381101561269e578181015183820152602001612686565b50505050905090810190601f1680156126cb5780820380516001836020036101000a031916815260200191505b509250505060405180910390fd5b505050900390565b6001600160a01b0382166000908152600d602052604090205460ff161515811515141561273f5760405162461bcd60e51b8152600401808060200182810382526049815260200180612f6d6049913960600191505060405180910390fd5b6001600160a01b0382166000908152600d60205260409020805460ff191682158015919091179091556127d3576007546040805163031e79db60e41b81526001600160a01b038581166004830152915191909216916331e79db091602480830192600092919082900301818387803b1580156127ba57600080fd5b505af11580156127ce573d6000803e3d6000fd5b505050505b604051811515906001600160a01b038416907fffa9187bf1f18bf477bd0ea1bcbb64e93b6a98132473929edfce215cd9b16fab90600090a35050565b6001600160a01b0383166128545760405162461bcd60e51b81526004018080602001828103825260258152602001806130cc6025913960400191505060405180910390fd5b6001600160a01b0382166128995760405162461bcd60e51b8152600401808060200182810382526023815260200180612da76023913960400191505060405180910390fd5b6128a4838383612645565b6128e181604051806060016040528060268152602001612f0a602691396001600160a01b038616600090815260208190526040902054919061264a565b6001600160a01b0380851660009081526020819052604080822093909355908416815220546129109082611fea565b6001600160a01b038084166000818152602081815260409182902094909455805185815290519193928716927fddf252ad1be2c89b69c2b068fc378daa952ba7f163c4a11628f55a4df523b3ef92918290030190a3505050565b60008261297957506000610ba7565b8282028284828161298657fe5b04146120445760405162461bcd60e51b81526004018080602001828103825260218152602001806130636021913960400191505060405180910390fd5b600061204483836040518060400160405280601a81526020017f536166654d6174683a206469766973696f6e206279207a65726f000000000000815250612b9b565b6006805460ff60a01b1916600160a01b17905547612a2282612c00565b6000612a2e4783612a81565b600a5460405191925061010090046001600160a01b0316906108fc8315029083906000818181858888f19350505050158015612a6e573d6000803e3d6000fd5b50506006805460ff60a01b191690555050565b600061204483836040518060400160405280601e81526020017f536166654d6174683a207375627472616374696f6e206f766572666c6f77000081525061264a565b6006805460ff60a01b1916600160a01b17905547612ae082612c00565b6000612aec4783612a81565b6007546040519192506000916001600160a01b039091169083908381818185875af1925050503d8060008114612b3e576040519150601f19603f3d011682016040523d82523d6000602084013e612b43565b606091505b505090508015612a6e57604080518581526020810184905281517f80195cc573b02cc48460cbca6e6e4cc85ddb91959d946e1c3025ea3d87942dc3929181900390910190a150506006805460ff60a01b191690555050565b60008183612bea5760405162461bcd60e51b815260206004820181815283516024840152835190928392604490910191908501908083836000831561269e578181015183820152602001612686565b506000838581612bf657fe5b0495945050505050565b60408051600280825260608083018452926020830190803683370190505090503081600081518110612c2e57fe5b6001600160a01b03928316602091820292909201810191909152600654604080516315ab88c960e31b81529051919093169263ad5c4648926004808301939192829003018186803b158015612c8257600080fd5b505afa158015612c96573d6000803e3d6000fd5b505050506040513d6020811015612cac57600080fd5b5051815182906001908110612cbd57fe5b6001600160a01b039283166020918202929092010152600654612ce3913091168461204f565b60065460405163791ac94760e01b8152600481018481526000602483018190523060648401819052426084850181905260a060448601908152875160a487015287516001600160a01b039097169663791ac947968a968a9594939092909160c40190602080880191028083838b5b83811015612d69578181015183820152602001612d51565b505050509050019650505050505050600060405180830381600087803b158015612d9257600080fd5b505af1158015612641573d6000803e3d6000fdfe45524332303a207472616e7366657220746f20746865207a65726f20616464726573734f776e61626c653a206e6577206f776e657220697320746865207a65726f206164647265737345524332303a20617070726f766520746f20746865207a65726f20616464726573735468655175616e74756d4669656c643a20676173466f7250726f63657373696e67206d757374206265206265747765656e203230302c30303020616e64203530302c3030305468655175616e74756d4669656c643a205468652050616e63616b655377617020706169722063616e6e6f742062652072656d6f7665642066726f6d206175746f6d617465644d61726b65744d616b657250616972735468655175616e74756d4669656c643a20546865206e6577206469766964656e6420747261636b6572206d757374206265206f776e656420627920746865205468655175616e74756d4669656c6420746f6b656e20636f6e747261637445524332303a207472616e7366657220616d6f756e7420657863656564732062616c616e63655468655175616e74756d4669656c643a2043616e6e6f742075706461746520676173466f7250726f63657373696e6720746f2073616d652076616c75655468655175616e74756d4669656c643a204175746f6d61746564206d61726b6574206d616b6572207061697220697320616c72656164792073657420746f20746861742076616c75655468655175616e74756d4669656c643a204163636f756e7420697320616c7265616479207468652076616c7565206f6620276578636c75646564275468655175616e74756d4669656c643a2054686520726f7574657220616c726561647920686173207468617420616464726573735468655175616e74756d4669656c643a20546865206469766964656e6420747261636b657220616c72656164792068617320746861742061646472657373536166654d6174683a206d756c7469706c69636174696f6e206f766572666c6f7745524332303a207472616e7366657220616d6f756e74206578636565647320616c6c6f77616e63654f776e61626c653a2063616c6c6572206973206e6f7420746865206f776e657245524332303a207472616e736665722066726f6d20746865207a65726f206164647265737353656c6c207472616e7366657220616d6f756e74206578636565647320746865206d617853656c6c5472616e73616374696f6e416d6f756e742e45524332303a20617070726f76652066726f6d20746865207a65726f206164647265737345524332303a2064656372656173656420616c6c6f77616e63652062656c6f77207a65726fa26469706673582212200213a6ae6f940554f5dcb2bf8a87fe00928fea72fc62cab13629457c39a4112b64736f6c634300060c003360a06040523480156200001157600080fd5b5060408051808201825260208082527f5468655175616e74756d4669656c645f4469766964656e645f547261636b65728183018181528451808601909552828552918401528151919291839183916200006d9160039162000106565b5080516200008390600490602084019062000106565b505050505060006200009a6200010260201b60201c565b600980546001600160a01b0319166001600160a01b038316908117909155604051919250906000907f8be0079c531659141344cd1fd0a4f28419497f9722a3daafe3b4186f6b6457e0908290a350610e1060115569021e19e0c9bab2400000608052620001a2565b3390565b828054600181600116156101000203166002900490600052602060002090601f016020900481019282601f106200014957805160ff191683800117855562000179565b8280016001018555821562000179579182015b82811115620001795782518255916020019190600101906200015c565b50620001879291506200018b565b5090565b5b808211156200018757600081556001016200018c565b60805161223e620001c2600039806111445280611211525061223e6000f3fe6080604052600436106102085760003560e01c8063715018a611610118578063bc4c4b37116100a0578063e7841ec01161006f578063e7841ec0146107d0578063e98030c7146107e5578063f2fde38b1461080f578063fbcbc0f114610842578063ffb2c4791461087557610217565b8063bc4c4b371461070c578063be10b61414610747578063dd62ed3e1461075c578063e30443bc1461079757610217565b806395d89b41116100e757806395d89b411461061f578063a457c2d714610634578063a8b9d2401461066d578063a9059cbb146106a0578063aafd847a146106d957610217565b8063715018a61461059157806385a6b3ae146105a65780638da5cb5b146105bb57806391b89fba146105ec57610217565b80633009a6091161019b5780634e7b827f1161016a5780634e7b827f1461048c5780635183d6fd146104bf5780636a474002146105345780636f2789ec1461054957806370a082311461055e57610217565b80633009a609146103e0578063313ce567146103f557806331e79db014610420578063395093511461045357610217565b806318160ddd116101d757806318160ddd14610322578063226cfa3d1461033757806323b872dd1461036a57806327ce0147146103ad57610217565b806303c833021461021c57806306fdde0314610224578063095ea7b3146102ae57806309bbedde146102fb57610217565b36610217576102156108bd565b005b600080fd5b6102156108bd565b34801561023057600080fd5b5061023961094e565b6040805160208082528351818301528351919283929083019185019080838360005b8381101561027357818101518382015260200161025b565b50505050905090810190601f1680156102a05780820380516001836020036101000a031916815260200191505b509250505060405180910390f35b3480156102ba57600080fd5b506102e7600480360360408110156102d157600080fd5b506001600160a01b0381351690602001356109e4565b604080519115158252519081900360200190f35b34801561030757600080fd5b50610310610a02565b60408051918252519081900360200190f35b34801561032e57600080fd5b50610310610a08565b34801561034357600080fd5b506103106004803603602081101561035a57600080fd5b50356001600160a01b0316610a0e565b34801561037657600080fd5b506102e76004803603606081101561038d57600080fd5b506001600160a01b03813581169160208101359091169060400135610a20565b3480156103b957600080fd5b50610310600480360360208110156103d057600080fd5b50356001600160a01b0316610aa7565b3480156103ec57600080fd5b50610310610b06565b34801561040157600080fd5b5061040a610b0c565b6040805160ff9092168252519081900360200190f35b34801561042c57600080fd5b506102156004803603602081101561044357600080fd5b50356001600160a01b0316610b11565b34801561045f57600080fd5b506102e76004803603604081101561047657600080fd5b506001600160a01b038135169060200135610c6d565b34801561049857600080fd5b506102e7600480360360208110156104af57600080fd5b50356001600160a01b0316610cbb565b3480156104cb57600080fd5b506104e9600480360360208110156104e257600080fd5b5035610cd0565b604080516001600160a01b0390991689526020890197909752878701959095526060870193909352608086019190915260a085015260c084015260e083015251908190036101000190f35b34801561054057600080fd5b50610215610e2f565b34801561055557600080fd5b50610310610e66565b34801561056a57600080fd5b506103106004803603602081101561058157600080fd5b50356001600160a01b0316610e6c565b34801561059d57600080fd5b50610215610e87565b3480156105b257600080fd5b50610310610f29565b3480156105c757600080fd5b506105d0610f2f565b604080516001600160a01b039092168252519081900360200190f35b3480156105f857600080fd5b506103106004803603602081101561060f57600080fd5b50356001600160a01b0316610f3e565b34801561062b57600080fd5b50610239610f49565b34801561064057600080fd5b506102e76004803603604081101561065757600080fd5b506001600160a01b038135169060200135610faa565b34801561067957600080fd5b506103106004803603602081101561069057600080fd5b50356001600160a01b0316611012565b3480156106ac57600080fd5b506102e7600480360360408110156106c357600080fd5b506001600160a01b03813516906020013561103e565b3480156106e557600080fd5b50610310600480360360208110156106fc57600080fd5b50356001600160a01b0316611052565b34801561071857600080fd5b506102e76004803603604081101561072f57600080fd5b506001600160a01b038135169060200135151561106d565b34801561075357600080fd5b50610310611142565b34801561076857600080fd5b506103106004803603604081101561077f57600080fd5b506001600160a01b0381358116916020013516611166565b3480156107a357600080fd5b50610215600480360360408110156107ba57600080fd5b506001600160a01b038135169060200135611191565b3480156107dc57600080fd5b5061031061135b565b3480156107f157600080fd5b506102156004803603602081101561080857600080fd5b5035611361565b34801561081b57600080fd5b506102156004803603602081101561083257600080fd5b50356001600160a01b031661147d565b34801561084e57600080fd5b506104e96004803603602081101561086557600080fd5b50356001600160a01b0316611576565b34801561088157600080fd5b5061089f6004803603602081101561089857600080fd5b50356116e9565b60408051938452602084019290925282820152519081900360600190f35b60006108c7610a08565b116108d157600080fd5b341561094c576109026108e2610a08565b6108f034600160801b6117e7565b816108f757fe5b600554919004611847565b60055560408051348152905133917fa493a9229478c3fcd73f66d2cdeb7f94fd0f341da924d1054236d78454116511919081900360200190a26008546109489034611847565b6008555b565b60038054604080516020601f60026000196101006001881615020190951694909404938401819004810282018101909252828152606093909290918301828280156109da5780601f106109af576101008083540402835291602001916109da565b820191906000526020600020905b8154815290600101906020018083116109bd57829003601f168201915b5050505050905090565b60006109f86109f16118a1565b84846118a5565b5060015b92915050565b600a5490565b60025490565b60106020526000908152604090205481565b6000610a2d848484611991565b610a9d84610a396118a1565b610a9885604051806060016040528060288152602001612157602891396001600160a01b038a16600090815260016020526040812090610a776118a1565b6001600160a01b0316815260208101919091526040016000205491906119c8565b6118a5565b5060019392505050565b6001600160a01b038116600090815260066020526040812054600160801b90610af690610af190610aeb610ae6610add88610e6c565b600554906117e7565b611a5f565b90611a6f565b611aa2565b81610afd57fe5b0490505b919050565b600e5481565b601290565b610b196118a1565b6009546001600160a01b03908116911614610b69576040805162461bcd60e51b8152602060048201819052602482015260008051602061217f833981519152604482015290519081900360640190fd5b6001600160a01b0381166000908152600f602052604090205460ff1615610b8f57600080fd5b6001600160a01b0381166000908152600f60205260408120805460ff19166001179055610bbd908290611ab5565b6040805163131836e760e21b8152600a60048201526001600160a01b0383166024820152905173__$1e39397253a0f73df0a261b4187345746a$__91634c60db9c916044808301926000929190829003018186803b158015610c1e57600080fd5b505af4158015610c32573d6000803e3d6000fd5b50506040516001600160a01b03841692507fa878b31040b2e6d0a9a3d3361209db3908ba62014b0dca52adbaee451d128b259150600090a250565b60006109f8610c7a6118a1565b84610a988560016000610c8b6118a1565b6001600160a01b03908116825260208083019390935260409182016000908120918c168152925290205490611847565b600f6020526000908152604090205460ff1681565b600080600080600080600080600a73__$1e39397253a0f73df0a261b4187345746a$__63deb3d89690916040518263ffffffff1660e01b81526004018082815260200191505060206040518083038186803b158015610d2e57600080fd5b505af4158015610d42573d6000803e3d6000fd5b505050506040513d6020811015610d5857600080fd5b50518910610d7f575060009650600019955085945086935083925082915081905080610e24565b6000600a73__$1e39397253a0f73df0a261b4187345746a$__63d1aa9e7e90918c6040518363ffffffff1660e01b8152600401808381526020018281526020019250505060206040518083038186803b158015610ddb57600080fd5b505af4158015610def573d6000803e3d6000fd5b505050506040513d6020811015610e0557600080fd5b50519050610e1281611576565b98509850985098509850985098509850505b919395975091939597565b60405162461bcd60e51b815260040180806020018281038252607b81526020018061203e607b913960800191505060405180910390fd5b60115481565b6001600160a01b031660009081526020819052604090205490565b610e8f6118a1565b6009546001600160a01b03908116911614610edf576040805162461bcd60e51b8152602060048201819052602482015260008051602061217f833981519152604482015290519081900360640190fd5b6009546040516000916001600160a01b0316907f8be0079c531659141344cd1fd0a4f28419497f9722a3daafe3b4186f6b6457e0908390a3600980546001600160a01b0319169055565b60085481565b6009546001600160a01b031690565b60006109fc82611012565b60048054604080516020601f60026000196101006001881615020190951694909404938401819004810282018101909252828152606093909290918301828280156109da5780601f106109af576101008083540402835291602001916109da565b60006109f8610fb76118a1565b84610a98856040518060600160405280602581526020016121e46025913960016000610fe16118a1565b6001600160a01b03908116825260208083019390935260409182016000908120918d168152925290205491906119c8565b6001600160a01b0381166000908152600760205260408120546109fc9061103884610aa7565b90611b0e565b60006109f861104b6118a1565b8484611991565b6001600160a01b031660009081526007602052604090205490565b60006110776118a1565b6009546001600160a01b039081169116146110c7576040805162461bcd60e51b8152602060048201819052602482015260008051602061217f833981519152604482015290519081900360640190fd5b60006110d284611b50565b90508015611138576001600160a01b0384166000818152601060209081526040918290204290558151848152915186151593927fa2c38e2d2fb7e3e1912d937fd1ca11ed6d51864dee4cfa7a7bf02becd7acf09292908290030190a360019150506109fc565b5060009392505050565b7f000000000000000000000000000000000000000000000000000000000000000081565b6001600160a01b03918216600090815260016020908152604080832093909416825291909152205490565b6111996118a1565b6009546001600160a01b039081169116146111e9576040805162461bcd60e51b8152602060048201819052602482015260008051602061217f833981519152604482015290519081900360640190fd5b6001600160a01b0382166000908152600f602052604090205460ff161561120f57611357565b7f000000000000000000000000000000000000000000000000000000000000000081106112c5576112408282611ab5565b60408051632f0ad01760e21b8152600a60048201526001600160a01b038416602482015260448101839052905173__$1e39397253a0f73df0a261b4187345746a$__9163bc2b405c916064808301926000929190829003018186803b1580156112a857600080fd5b505af41580156112bc573d6000803e3d6000fd5b5050505061134a565b6112d0826000611ab5565b6040805163131836e760e21b8152600a60048201526001600160a01b0384166024820152905173__$1e39397253a0f73df0a261b4187345746a$__91634c60db9c916044808301926000929190829003018186803b15801561133157600080fd5b505af4158015611345573d6000803e3d6000fd5b505050505b61135582600161106d565b505b5050565b600e5490565b6113696118a1565b6009546001600160a01b039081169116146113b9576040805162461bcd60e51b8152602060048201819052602482015260008051602061217f833981519152604482015290519081900360640190fd5b610e1081101580156113ce5750620151808111155b6114095760405162461bcd60e51b8152600401808060200182810382526055815260200180611f7f6055913960600191505060405180910390fd5b60115481141561144a5760405162461bcd60e51b81526004018080602001828103825260478152602001806120ef6047913960600191505060405180910390fd5b60115460405182907f474ea64804364a1e29a4487ddb63c3342a2dd826ccd8acf48825e680a0e6f20f90600090a3601155565b6114856118a1565b6009546001600160a01b039081169116146114d5576040805162461bcd60e51b8152602060048201819052602482015260008051602061217f833981519152604482015290519081900360640190fd5b6001600160a01b03811661151a5760405162461bcd60e51b8152600401808060200182810382526026815260200180611ff66026913960400191505060405180910390fd5b6009546040516001600160a01b038084169216907f8be0079c531659141344cd1fd0a4f28419497f9722a3daafe3b4186f6b6457e090600090a3600980546001600160a01b0319166001600160a01b0392909216919091179055565b600080600080600080600080889750600a73__$1e39397253a0f73df0a261b4187345746a$__6317e142d190918a6040518363ffffffff1660e01b815260040180838152602001826001600160a01b031681526020019250505060206040518083038186803b1580156115e857600080fd5b505af41580156115fc573d6000803e3d6000fd5b505050506040513d602081101561161257600080fd5b5051965060001995506000871261167657600e5487111561164257600e5461163b908890611c91565b9550611676565b600e54600a5460009110611657576000611666565b600e54600a5461166691611b0e565b90506116728882611a6f565b9650505b61167f88611012565b945061168a88610aa7565b6001600160a01b0389166000908152601060205260409020549094509250826116b45760006116c2565b6011546116c2908490611847565b91504282116116d25760006116dc565b6116dc8242611b0e565b9050919395975091939597565b600a546000908190819080611709575050600e54600092508291506117e0565b600e546000805a90506000805b898410801561172457508582105b156117cf57600a54600190950194851061173d57600094505b6000600a600001868154811061174f57fe5b60009182526020808320909101546001600160a01b0316808352601090915260409091205490915061178090611cc3565b1561179c5761179081600161106d565b1561179c576001909101905b60019092019160005a9050808511156117c6576117c36117bc8683611b0e565b8790611847565b95505b93506117169050565b600e85905590975095509193505050505b9193909250565b6000826117f6575060006109fc565b8282028284828161180357fe5b04146118405760405162461bcd60e51b81526004018080602001828103825260218152602001806121366021913960400191505060405180910390fd5b9392505050565b600082820183811015611840576040805162461bcd60e51b815260206004820152601b60248201527f536166654d6174683a206164646974696f6e206f766572666c6f770000000000604482015290519081900360640190fd5b3390565b6001600160a01b0383166118ea5760405162461bcd60e51b81526004018080602001828103825260248152602001806121c06024913960400191505060405180910390fd5b6001600160a01b03821661192f5760405162461bcd60e51b815260040180806020018281038252602281526020018061201c6022913960400191505060405180910390fd5b6001600160a01b03808416600081815260016020908152604080832094871680845294825291829020859055815185815291517f8c5be1e5ebec7d5bd14f71427d1e84f3dd0314c0f7b2291e5b200ac8c7c3b9259281900390910190a3505050565b60405162461bcd60e51b81526004018080602001828103825260368152602001806120b96036913960400191505060405180910390fd5b60008184841115611a575760405162461bcd60e51b81526004018080602001828103825283818151815260200191508051906020019080838360005b83811015611a1c578181015183820152602001611a04565b50505050905090810190601f168015611a495780820380516001836020036101000a031916815260200191505b509250505060405180910390fd5b505050900390565b600081818112156109fc57600080fd5b6000828201818312801590611a845750838112155b80611a995750600083128015611a9957508381125b61184057600080fd5b600080821215611ab157600080fd5b5090565b6000611ac083610e6c565b905080821115611ae8576000611ad68383611b0e565b9050611ae28482611cea565b50611355565b80821015611355576000611afc8284611b0e565b9050611b088482611d4e565b50505050565b600061184083836040518060400160405280601e81526020017f536166654d6174683a207375627472616374696f6e206f766572666c6f7700008152506119c8565b600080611b5c83611012565b90508015611c88576001600160a01b038316600090815260076020526040902054611b879082611847565b6001600160a01b038416600081815260076020908152604091829020939093558051848152905191927fee503bee2bb6a87e57bc57db795f98137327401a0e7b7ce42e37926cc1a9ca4d92918290030190a26040516000906001600160a01b03851690610bb890849084818181858888f193505050503d8060008114611c29576040519150601f19603f3d011682016040523d82523d6000602084013e611c2e565b606091505b5050905080611c80576001600160a01b038416600090815260076020526040902054611c5a9083611b0e565b6001600160a01b0385166000908152600760205260408120919091559250610b01915050565b509050610b01565b50600092915050565b6000818303818312801590611ca65750838113155b80611a995750600083128015611a99575083811361184057600080fd5b600042821115611cd557506000610b01565b601154611ce24284611b0e565b101592915050565b611cf48282611d92565b611d2e611d0f610ae6836005546117e790919063ffffffff16565b6001600160a01b03841660009081526006602052604090205490611c91565b6001600160a01b0390921660009081526006602052604090209190915550565b611d588282611e82565b611d2e611d73610ae6836005546117e790919063ffffffff16565b6001600160a01b03841660009081526006602052604090205490611a6f565b6001600160a01b038216611ded576040805162461bcd60e51b815260206004820152601f60248201527f45524332303a206d696e7420746f20746865207a65726f206164647265737300604482015290519081900360640190fd5b611df960008383611355565b600254611e069082611847565b6002556001600160a01b038216600090815260208190526040902054611e2c9082611847565b6001600160a01b0383166000818152602081815260408083209490945583518581529351929391927fddf252ad1be2c89b69c2b068fc378daa952ba7f163c4a11628f55a4df523b3ef9281900390910190a35050565b6001600160a01b038216611ec75760405162461bcd60e51b815260040180806020018281038252602181526020018061219f6021913960400191505060405180910390fd5b611ed382600083611355565b611f1081604051806060016040528060228152602001611fd4602291396001600160a01b03851660009081526020819052604090205491906119c8565b6001600160a01b038316600090815260208190526040902055600254611f369082611b0e565b6002556040805182815290516000916001600160a01b038516917fddf252ad1be2c89b69c2b068fc378daa952ba7f163c4a11628f55a4df523b3ef9181900360200190a3505056fe5468655175616e74756d4669656c645f4469766964656e645f547261636b65723a20636c61696d57616974206d757374206265207570646174656420746f206265747765656e203120616e6420323420686f75727345524332303a206275726e20616d6f756e7420657863656564732062616c616e63654f776e61626c653a206e6577206f776e657220697320746865207a65726f206164647265737345524332303a20617070726f766520746f20746865207a65726f20616464726573735468655175616e74756d4669656c645f4469766964656e645f547261636b65723a2077697468647261774469766964656e642064697361626c65642e20557365207468652027636c61696d272066756e6374696f6e206f6e20746865206d61696e205468655175616e74756d4669656c6420636f6e74726163742e5468655175616e74756d4669656c645f4469766964656e645f547261636b65723a204e6f207472616e736665727320616c6c6f7765645468655175616e74756d4669656c645f4469766964656e645f547261636b65723a2043616e6e6f742075706461746520636c61696d5761697420746f2073616d652076616c7565536166654d6174683a206d756c7469706c69636174696f6e206f766572666c6f7745524332303a207472616e7366657220616d6f756e74206578636565647320616c6c6f77616e63654f776e61626c653a2063616c6c6572206973206e6f7420746865206f776e657245524332303a206275726e2066726f6d20746865207a65726f206164647265737345524332303a20617070726f76652066726f6d20746865207a65726f206164647265737345524332303a2064656372656173656420616c6c6f77616e63652062656c6f77207a65726fa264697066735822122018707197c45b11f936dc71e49098268579459a08708dd53c0d1033ee22c85cdc64736f6c634300060c00335468655175616e74756d4669656c643a204175746f6d61746564206d61726b6574206d616b6572207061697220697320616c72656164792073657420746f20746861742076616c75655468655175616e74756d4669656c643a204163636f756e7420697320616c7265616479207468652076616c7565206f6620276578636c7564656427",
    "sourcePath": "c:/Users/aceso/Desktop/Kylin/Kylin.sol",
    "compiler": {
        "name": "solc",
        "version": "0.6.12+commit.27d51765"
    },
    "functionHashes": {
        "BNBRewardsFee()": "d01f5816",
        "allowance(address,address)": "dd62ed3e",
        "approve(address,uint256)": "095ea7b3",
        "automatedMarketMakerPairs(address)": "b62496f5",
        "balanceOf(address)": "70a08231",
        "claim()": "4e71d92d",
        "deadAddress()": "27c8f835",
        "decimals()": "313ce567",
        "decreaseAllowance(address,uint256)": "a457c2d7",
        "dividendTokenBalanceOf(address)": "6843cd84",
        "dividendTracker()": "2c1f5216",
        "excludeFromFees(address,bool)": "c0246668",
        "excludeMultipleAccountsFromFees(address[],bool)": "c492f046",
        "gasForProcessing()": "9c1b8af5",
        "getAccountDividendsInfo(address)": "ad56c13c",
        "getAccountDividendsInfoAtIndex(uint256)": "f27fd254",
        "getClaimWait()": "a26579ad",
        "getLastProcessedIndex()": "e7841ec0",
        "getNumberOfDividendTokenHolders()": "64b0f653",
        "getTotalDividendsDistributed()": "30bb4cff",
        "increaseAllowance(address,uint256)": "39509351",
        "isExcludedFromFees(address)": "4fbee193",
        "marketingFee()": "6b67c4df",
        "maxSellTransactionAmount()": "02259e9e",
        "name()": "06fdde03",
        "owner()": "8da5cb5b",
        "processDividendTracker(uint256)": "700bb191",
        "renounceOwnership()": "715018a6",
        "sellFeeIncreaseFactor()": "22bd3f7f",
        "setAutomatedMarketMakerPair(address,bool)": "9a7a23d6",
        "setMarketingWallet(address)": "5d098b38",
        "setMaxSellTxAMount(uint256)": "87f7f5ad",
        "setSwapEnabled(bool)": "e01af92c",
        "swapEnabled()": "6ddd1713",
        "swapTokensAtAmount()": "e2f45605",
        "symbol()": "95d89b41",
        "totalFees()": "13114a9d",
        "totalSupply()": "18160ddd",
        "transfer(address,uint256)": "a9059cbb",
        "transferFrom(address,address,uint256)": "23b872dd",
        "transferOwnership(address)": "f2fde38b",
        "uniswapV2Pair()": "49bd5a5e",
        "uniswapV2Router()": "1694505e",
        "updateClaimWait(uint256)": "e98030c7",
        "updateDividendTracker(address)": "88bdd9be",
        "updateGasForProcessing(uint256)": "871c128d",
        "updateUniswapV2Router(address)": "65b8dbc0",
        "withdrawableDividendOf(address)": "a8b9d240"
    },
    "gasEstimates": {
        "creation": {
            "codeDepositCost": "2542600",
            "executionCost": "infinite",
            "totalCost": "infinite"
        },
        "external": {
            "BNBRewardsFee()": "infinite",
            "allowance(address,address)": "1405",
            "approve(address,uint256)": "infinite",
            "automatedMarketMakerPairs(address)": "1203",
            "balanceOf(address)": "1300",
            "claim()": "infinite",
            "deadAddress()": "infinite",
            "decimals()": "363",
            "decreaseAllowance(address,uint256)": "infinite",
            "dividendTokenBalanceOf(address)": "infinite",
            "dividendTracker()": "1149",
            "excludeFromFees(address,bool)": "infinite",
            "excludeMultipleAccountsFromFees(address[],bool)": "infinite",
            "gasForProcessing()": "1065",
            "getAccountDividendsInfo(address)": "infinite",
            "getAccountDividendsInfoAtIndex(uint256)": "infinite",
            "getClaimWait()": "infinite",
            "getLastProcessedIndex()": "infinite",
            "getNumberOfDividendTokenHolders()": "infinite",
            "getTotalDividendsDistributed()": "infinite",
            "increaseAllowance(address,uint256)": "infinite",
            "isExcludedFromFees(address)": "1266",
            "marketingFee()": "infinite",
            "maxSellTransactionAmount()": "1045",
            "name()": "infinite",
            "owner()": "1171",
            "processDividendTracker(uint256)": "infinite",
            "renounceOwnership()": "infinite",
            "sellFeeIncreaseFactor()": "infinite",
            "setAutomatedMarketMakerPair(address,bool)": "infinite",
            "setMarketingWallet(address)": "infinite",
            "setMaxSellTxAMount(uint256)": "infinite",
            "setSwapEnabled(bool)": "infinite",
            "swapEnabled()": "1121",
            "swapTokensAtAmount()": "1064",
            "symbol()": "infinite",
            "totalFees()": "infinite",
            "totalSupply()": "1155",
            "transfer(address,uint256)": "infinite",
            "transferFrom(address,address,uint256)": "infinite",
            "transferOwnership(address)": "infinite",
            "uniswapV2Pair()": "infinite",
            "uniswapV2Router()": "1172",
            "updateClaimWait(uint256)": "infinite",
            "updateDividendTracker(address)": "infinite",
            "updateGasForProcessing(uint256)": "infinite",
            "updateUniswapV2Router(address)": "infinite",
            "withdrawableDividendOf(address)": "infinite"
        },
        "internal": {
            "_setAutomatedMarketMakerPair(address,bool)": "infinite",
            "_transfer(address,address,uint256)": "infinite",
            "addLiquidity(uint256,uint256)": "infinite",
            "buyBackTokens(uint256)": "infinite",
            "swapAndLiquify(uint256)": "infinite",
            "swapAndSendDividends(uint256)": "infinite",
            "swapAndSendToMarketing(uint256)": "infinite",
            "swapETHForTokens(uint256)": "infinite",
            "swapTokensForEth(uint256)": "infinite"
        }
    }
}